:100000000C9483340C94B4340C94B4340C94B43401
:100010000C94B4340C94B6890C94B4340C94B43469
:100020000C942B8D0C94B4340C94B4340C94B434E0
:100030000C94B4340C94B4340C94ACB60D94AF70EE
:100040000C94B4340C94E3A50C94B4340C94B434F0
:100050000C94B4340C94B4340C94B4340D94971EB2
:100060000C94B4340D941F6C0C94B4340C94B434CC
:100070000C94B4340C94B4340C94B4340C94B43460
:100080000C94B4340C94B4340C94B4340C94B43450
:100090000D94DB6B0C94B4340C94B4340C94B434E1
:1000A0000C94B4340C94B4340C94B4340C94B43430
:1000B0000C94B4340C94B4340C94B4340C94B43420
:1000C0000C94B4340C94B4340C94B4340D94C76FC1
:1000D0000C94B4340C94B4340C94B4340C94B43400
:1000E0000C94B4348E4D944D9A4DA54DB04D354E73
:1000F000BB4DC44DCD4DD84DE34DEE4DFE4D094E9B
:10010000354E144E1F4E2A4EE998F29898986798EB
:100110003798D59B2399429AC89A1E9B3A9B719B0C
:100120001DC335C347C353C35CC384C3A4C3A9C39E
:10013000B6C3B9C3BBC3C4C3D0C3E0C3CBF7CEF708
:10014000BDF7C1F7C7F705F8D2F7D6F7DCF7E0F748
:10015000E4F7EAF7EEF7F2F705F8F8F7FCF700F83E
:100160007201D601F801D2012E02F6011A02D8015D
:10017000620128028201DA011E02920136024C025B
:1001800044025C01A201E801320258017E015801DB
:100190007E0158017E01FC0156027A017A01A80114
:1001A0007A01A80102023A02AA0110027001740148
:1001B000C401AE0154015E01340298018C01220297
:1001C0006A016A016A016A016A016A016A016A01D7
:1001D000EE016601FA010E020802084AD73B3BCE47
:1001E000016E84BCBFFDC12F3D6C74319ABD568336
:1001F0003DDA3D00C77F11BED9E4BB4C3E916BAAEE
:10020000AABE000000803F05A84CCDB2D44EB9383C
:1002100036A9020C50B9918688083CA6AAAA2ABE23
:10022000000000803F07634236B79BD8A71A3968A1
:100230005618AEBAAB558C1D3CB7CC5763BD6DEDAF
:10024000FD753EF6177231BF000000803F080000C8
:1002500000BE922449123EABAAAA2ABECDCCCC4CF9
:100260003E00000080BEABAAAAAA3E00000000BF6C
:10027000000000803F0000000000084178D3BB432D
:1002800087D1133D190E3CC3BD4282AD2B3E68ECB5
:100290008276BED98FE1A93E4C80EFFFBE01C4FF3C
:1002A0007F3F0000000000000D9427750D94DE28AC
:1002B0000D94A4200D94574A0D94F11E0D94C17510
:1002C0000D94D6420D9418110D9408010D94C87424
:1002D0000D941A330D9441720D94966B0D949644BF
:1002E0000D9453750D94AE100D9448750D94E8352A
:1002F0000D94F9250D9414490D9438050D94A620FC
:100300000D94BB2A0D943D110D9447320D942A2A69
:100310000D94572C0D945A050D94D2740D94F83108
:100320000D9448310D94BD1E0D94D5280D94202AAE
:100330000D9400750D94E0420D94EA420D94905393
:100340000D94A9490D942D1F0D9446430D9406015B
:100350000D9417490D943E720D94D1220D9432756F
:100360000D9426250D94422A0D9475420D94A453A4
:100370000D94961E0D9434070D94622A0D94BD447D
:100380000D94CC280D9437310D943D750D946B4927
:100390000D947C490D94EC2C0D9452080D94C64993
:1003A0000D94FA2D0D94D4100D94302D0D94BC1095
:1003B0000D940A110D944B110D948E2B0D94403118
:1003C0000D9445050D948B490D9455220D94CB2326
:1003D0000D940F1F0D94FB470D947D6B0D943C7293
:1003E0000D94C0590D945A2A0D947E040D94F61064
:1003F0000D94C2100D94CA740D94A8200D947F43DF
:100400000D9471530D941A490D94ED220D948D2D78
:100410000D94D0740D94D02A0D948F040D94CE7445
:100420000D9483750D94D1040D941D4A0D94C54708
:100430000D9479470D94FC100D9420470D94B31E34
:100440000D94E0430D9496750D946F5A0D94744A73
:100450000D9426110D94E22E0D9436010D94F0109A
:100460000D94322A0D94251F0D94B1750D94CB1E59
:100470000D944A2A0D941D490D9465050D94522A38
:100480000D941C970D943A4A0D94EA1E0D94C223C4
:100490000D94672E0D943A2A0D94D81E0D94C328FE
:1004A0000D9418430D9429330D9491460D94AA2070
:1004B0000D9479260D94004A0D94E3490D94B99951
:1004C0006E616E00696E66004E414E494E49545948
:1004D000494E46CDCCCC3D0AD7233C17B7D138770F
:1004E000CC2B329595E6241FB14F0A000020410025
:1004F00000C84200401C4620BCBE4CCA1B0E5AAE6F
:10050000C59D7400407A10F35A00A0724E1809007D
:1005100010A5D4E80000E87648170000E40B540268
:100520000000CA9A3B000000E1F5050000809698A3
:1005300000000040420F000000A0860100000010F3
:100540002700000000E80300000000640000000035
:10055000000A00000000000100000000002C76D816
:1005600088DC674F0823DFC1DFAE59E1B1B796E5FC
:10057000E3E453C63AE651997696E8E6C28426EB60
:10058000898C9B62ED407C6FFCEFBC9C9F40F2BA73
:10059000A56FA5F490055A2AF75C936B6CF9676D0B
:1005A000C11BFCE0E40D47FEF520E6B500D0ED9060
:1005B0002E0300943577050080841E080000204E2D
:1005C0000A000000C80C333333330F986E128311C6
:1005D00041EF8D2114893BE65516CFFEE6DB18D19D
:1005E000844B381BF77C1D901DA4BBE4242032846F
:1005F000725E228100C9F124ECA1E53D27636469A4
:100600006E6F70737578585B00256420627974652D
:1006100073207772697474656E20746F204545503D
:10062000524F4D2061742061646472657373203091
:100630007825303478004433202D20526561642FB2
:10064000577269746520454550524F4D0A0020434A
:100650006F756E7420583A20005344207072696E92
:1006600074696E67206279746520004E6F7420692A
:100670006E206661726D206D6F64652E004163743B
:100680006976652045787472756465723A20004910
:100690006E76616C69642065787472756465720049
:1006A0005A204F666673657400556E6B6E6F776E79
:1006B00020636F6D6D616E643A2022004D323030E0
:1006C00020496E76616C6964206578747275646522
:1006D0007220007A5F6D61783A20007A5F6D696EF2
:1006E0003A2000795F6D61783A2000795F6D696E1C
:1006F0003A2000785F6D61783A20006F70656E0077
:1007000054524947474552454400785F6D696E3AF7
:1007100020005265706F7274696E6720656E647335
:10072000746F7020737461747573000053494C4585
:100730004E54004E4F524D414C002553204D4F44D6
:10074000453A2050657263656E7420646F6E653A39
:100750002025643B207072696E742074696D652079
:1007600072656D61696E696E6720696E206D696E74
:10077000733A2025640A00456E642066696C652022
:100780006C69737400426567696E2066696C6520E8
:100790006C697374000A50494E44412074656D7051
:1007A000657261747572653A20252E3166205A2073
:1007B000736869667420286D6D293A20252E33668A
:1007C000000A537465703A2025642F360A000A53D4
:1007D0007465703A2025642F362028736B69707019
:1007E0006564290A50494E44412074656D706572F4
:1007F00061747572653A202564205A2073686966B1
:100800007420286D6D293A300A000A5A45524F3A31
:1008100020252E33660A0073746172742074656D2E
:1008200070657261747572653A20252E31660A0012
:1008300025642020252E326600255320583A202595
:100840002E356620593A20252E3566205A3A202525
:100850002E35660A00536C6565702E2E2E004E6F85
:100860007420696E206661726D206D6F64652E0064
:1008700025640045303A25642052504D0A50524EAE
:10088000303A25642052504D0A00256400442D3131
:10089000202D20456E646C657373206C6F6F700A39
:1008A000004175746F0020452F443D00416476611E
:1008B0006E6365204B3D004D323230205325690078
:1008C000255346696C616D656E7420736574746937
:1008D0006E67733A2044697361626C65640A00252F
:1008E0005346696C616D656E742073657474696ECE
:1008F00067733A0A25532020204D3230302044259A
:100900002E32660A002553526574726163743A2070
:10091000533D4C656E67746820286D6D2920463AFA
:10092000537065656420286D6D2F6D29205A3A201B
:100930005A4C69667420286D6D290A2553202020A1
:100940004D3230372053252E32662046252E326612
:10095000205A252E32660A25535265636F766572DA
:100960003A20533D4578747261206C656E677468F7
:1009700020286D6D2920463A537065656420286DE6
:100980006D2F6D290A25532020204D3230382053F9
:10099000252E32662046252E32660A25534175746F
:1009A0006F2D526574726163743A20533D30207428
:1009B0006F2064697361626C652C203120746F2034
:1009C000696E74657270726574206578747275648E
:1009D000652D6F6E6C79206D6F7665732061732065
:1009E0007265747261637473206F72207265636FD5
:1009F0007665726965730A25532020204D3230399F
:100A0000205325640A0025535049442068656174C9
:100A10006265642073657474696E67733A0A25535E
:100A20002020204D3330342050252E326620492599
:100A30002E32662044252E32660A00255350494442
:100A40002073657474696E67733A0A2553202020F9
:100A50004D3330312050252E32662049252E326606
:100A60002044252E32660A00255353746570732086
:100A700070657220756E69743A0A255320204D39CD
:100A8000322058252E32662059252E3266205A25CE
:100A90002E32662045252E32660A2553555374653D
:100AA00070207265736F6C7574696F6E3A200A25D9
:100AB00053204D3335302058256420592564205A61
:100AC0002564204525640A25534D6178696D756D4F
:100AD00020666565647261746573202D206E6F7287
:100AE0006D616C20286D6D2F73293A0A25532020E3
:100AF0004D3230332058252E32662059252E32664D
:100B0000205A252E32662045252E32660A25534D61
:100B10006178696D756D2066656564726174657371
:100B2000202D20737465616C746820286D6D2F739F
:100B3000293A0A255320204D3230332058252E32B1
:100B4000662059252E3266205A252E3266204525EC
:100B50002E32660A25534D6178696D756D2061638B
:100B600063656C65726174696F6E202D206E6F72A3
:100B70006D616C20286D6D2F7332293A0A25532040
:100B8000204D3230312058256C752059256C752048
:100B90005A256C752045256C750A25534D61786979
:100BA0006D756D20616363656C65726174696F6EEC
:100BB000202D20737465616C746820286D6D2F730F
:100BC00032293A0A255320204D3230312058256CE5
:100BD000752059256C75205A256C752045256C7536
:100BE0000A2553416363656C65726174696F6E3A7F
:100BF00020533D616363656C65726174696F6E2C2F
:100C000020543D7265747261637420616363656C26
:100C100065726174696F6E0A255320204D3230343D
:100C20002053252E32662054252E32660A25534144
:100C30006476616E636564207661726961626C6579
:100C4000733A20533D4D696E206665656472617428
:100C50006520286D6D2F73292C20543D4D696E2021
:100C600074726176656C2066656564726174652076
:100C7000286D6D2F73292C20423D6D696E696D754D
:100C80006D207365676D656E742074696D652028CD
:100C90006D73292C20583D6D6178696D756D2058F4
:100CA00059206A65726B20286D6D2F73292C2020C6
:100CB0005A3D6D6178696D756D205A206A65726B59
:100CC00020286D6D2F73292C2020453D6D6178699A
:100CD0006D756D2045206A65726B20286D6D2F73D0
:100CE000290A255320204D3230352053252E3266D7
:100CF0002054252E32662042252E32662058252E7D
:100D000032662059252E3266205A252E326620451D
:100D1000252E32660A2553486F6D65206F6666730F
:100D2000657420286D6D293A0A255320204D3230F4
:100D3000362058252E32662059252E3266205A2517
:100D40002E32660A004625642025640A004D4D5562
:100D5000203C3D2027462564202564270A00504971
:100D600044204175746F74756E652066696E697391
:100D7000686564212050757420746865206C617307
:100D800074204B702C204B6920616E64204B6420D2
:100D9000636F6E7374616E74732066726F6D206121
:100DA000626F766520696E746F20436F6E66696747
:100DB00075726174696F6E2E6800504944204175E8
:100DC000746F74756E65206661696C65642120744A
:100DD000696D656F75740020403A00543A00423ADC
:100DE00000504944204175746F74756E65206661CA
:100DF000696C6564212054656D70657261747572EB
:100E00006520746F6F206869676800204B643A2022
:100E100000204B693A2000204B703A200020436CA0
:100E200061737369632050494420002054753A204F
:100E300000204B753A2000206D61783A2000206D2B
:100E4000696E3A200020643A200020626961733A9A
:100E5000200020453A00205A3A0020593A00204507
:100E60003A00205A3A0020593A00583A00005A30C5
:100E7000005A3100593000593100583000583100C3
:100E8000456E642073746F70732064696167002E0F
:100E90000044656C6574696F6E206661696C656499
:100EA0002C2046696C653A200046696C65206465B3
:100EB0006C657465643A000A002F000A004E6F7476
:100EC000205344207072696E74696E6700507269B5
:100ED0006E74207361766564005344207072696E8D
:100EE0007420706175736564006673656E736F72EC
:100EF0005F726573746F72655F7072696E745F6143
:100F00006E645F636F6E74696E75650A004F4B00A7
:100F10004241440052414D426F2046414E20002F35
:100F20002F20616374696F6E3A63616E63656C0054
:100F300043524153485F43414E43454C0043524165
:100F400053485F5245434F56455200435241534820
:100F50005F5245434F564552002228322900540023
:100F60004475706C696361746520542D636F6465AA
:100F70002069676E6F7265642E0A004475706C6933
:100F80006361746520542D636F64652069676E6FBB
:100F90007265642E0A00496E76616C696420542083
:100FA000636F64652E00556E6B6E6F776E204D20FB
:100FB000636F64653A202573200A006E6F207661A6
:100FC0006C696420636F6D6D616E64002C20002C71
:100FD00020002C20006E2F61002C20002C20002CE3
:100FE00020006E2F61002F00503A00576169742075
:100FF000666F722050494E44412074617267657477
:101000002074656D70657261747572653A004C414B
:101010004E472053454C20464F524345440022281A
:1010200031290030303030303030302D30303030F9
:101030002D303030302D303030302D3030303030B9
:10104000303030303030300020555549443A00318E
:10105000002045585452554445525F434F554E5415
:101060003A00534B454C4553545255444552204D3C
:101070004B335300204D414348494E455F5459502E
:10108000453A00312E3000206261736564206F6E36
:10109000204D61726C696E204649524D5741524550
:1010A0005F55524C3A68747470733A2F2F676974A5
:1010B0006875622E636F6D2F707275736133642F64
:1010C00050727573612D4669726D7761726520503B
:1010D000524F544F434F4C5F56455253494F4E3A2F
:1010E000004649524D574152455F4E414D453A5099
:1010F000727573612D4669726D7761726520004D5E
:1011000031313320530020423A0020453A00543A0E
:101110000020413A0020503A002042403A0020404E
:101120003A00202F003A00205400202F0020423A9D
:1011300000202F006F6B20543A002569206D696EE6
:101140002C2025692073656300496E76616C6964A3
:10115000204D20636F64653A202573200A00556E88
:101160006B6E6F776E204720636F64653A2025733E
:10117000200A004D65736820626564206C657665A1
:101180006C696E67206E6F74206163746976652E7A
:10119000000A002020000A4D6561737572656420A5
:1011A000706F696E74733A000A5A207365617263D6
:1011B00068206865696768743A20002C004E756D78
:1011C00020582C593A2000206D6963726F6E7300AD
:1011D00045786365737369766520626564206C6524
:1011E00076656C696E6720636F7272656374696F90
:1011F0006E3A2000426564206C6576656C696E67A6
:10120000206661696C65642E2053656E736F722071
:1012100074726967676572656420746F6F206869AE
:1012200067682E0A00426564206C6576656C696E9D
:1012300067206661696C65642E2053656E736F72FA
:1012400020646973636F6E6E6563746564206F728A
:10125000206361626C652062726F6B656E2E0A009E
:101260004732382057300050494E44412070726F49
:1012700062652063616C6962726174696F6E20736C
:101280007461727400473238205730004D32340098
:101290005345545F43484F505F005345545F535488
:1012A00045505F005345545F574156455F00544DCC
:1012B000435F0043524153485F00472D636F6465AD
:1012C00020736C6963656420666F722061206469B5
:1012D00066666572656E74206C6576656C2E20435B
:1012E0006F6E74696E75653F00472D636F6465208E
:1012F000736C6963656420666F722061206469663F
:10130000666572656E74206C6576656C2E20506C17
:10131000656173652072652D736C696365207468FF
:1013200065206D6F64656C20616761696E2E205069
:1013300072696E742063616E63656C6C65642E0007
:10134000472D636F646520736C6963656420666F05
:10135000722061206E65776572206669726D7761B3
:1013600072652E20506C65617365207570646174C0
:101370006520746865206669726D776172652E20DC
:101380005072696E742063616E63656C6C65642E67
:1013900000472D636F646520736C69636564206624
:1013A0006F722061206E65776572206669726D7755
:1013B0006172652E20436F6E74696E75653F0047DC
:1013C0002D636F646520736C6963656420666F725A
:1013D000206120646966666572656E74207072694A
:1013E0006E74657220747970652E20506C6561731F
:1013F000652072652D736C69636520746865206D66
:101400006F64656C20616761696E2E205072696E31
:10141000742063616E63656C6C65642E00472D6398
:101420006F646520736C6963656420666F72206108
:1014300020646966666572656E74207072696E7488
:10144000657220747970652E20436F6E74696E75B5
:10145000653F00472D636F646520736C6963656445
:1014600020666F72206120646966666572656E74BD
:10147000207072696E74657220747970652E2043D5
:101480006F6E74696E75653F00472D636F646520EC
:10149000736C6963656420666F722061206469669D
:1014A000666572656E74207072696E746572207400
:1014B0007970652E20506C656173652072652D739F
:1014C0006C69636520746865206D6F64656C20616C
:1014D0006761696E2E205072696E742063616E635D
:1014E000656C6C65642E005072657373206B6E6F53
:1014F0006220746F2070726568656174206E6F7A07
:101500007A6C6520616E6420636F6E74696E7565B8
:101510002E00506C65617365207072657373207462
:101520006865206B6E6F6220746F20756E6C6F61E2
:10153000642066696C616D656E740052656D6F76CE
:1015400065206F6C642066696C616D656E742061E6
:101550006E6420707265737320746865206B6E6FA3
:101560006220746F207374617274206C6F6164699F
:101570006E67206E65772066696C616D656E742E8E
:1015800000616E6420707265737320746865206BEF
:101590006E6F6200496E736572742066696C616D6E
:1015A000656E7400436F6C6F72206E6F7420636F92
:1015B00072726563740046696C616D656E74206E4D
:1015C0006F74206C6F61646564004368616E676569
:1015D0006420636F72726563746C793F004C6F6155
:1015E00064696E6720636F6C6F72004368616E6739
:1015F0006520737563636573732100506C65617357
:1016000065206F70656E2069646C657220616E6420
:101610002072656D6F76652066696C616D656E74AC
:10162000206D616E75616C6C792E00576173206658
:10163000696C616D656E7420756E6C6F616420738A
:1016400075636365737366756C3F00506C65617399
:101650006520757067726164652E004E657720663F
:1016600069726D776172652076657273696F6E203D
:10167000617661696C61626C653A00576169746991
:101680006E6720666F722050494E44412070726F21
:10169000626520636F6F6C696E6700437261736887
:1016A0002064657465637465642E20526573756D7E
:1016B00065207072696E743F0043726173682064C4
:1016C000657465637465642E00457874727564652D
:1016D000720043686F6F7365206578747275646516
:1016E000723A0043686F6F73652066696C616D655F
:1016F0006E743A004E6F206D6F76652E00576169EB
:101700007420666F7220757365722E2E2E00536FD3
:101710006D652070726F626C656D20656E636F75AC
:101720006E74657265642C205A2D6C6576656C69E3
:101730006E6720656E666F72636564202E2E2E00C4
:10174000537461626C6520616D6269656E742074AA
:10175000656D70657261747572652032312D323637
:1017600043206973206E6565646564206120726939
:10177000676964207374616E642069732072657197
:1017800075697265642E00506C65617365207275B1
:101790006E2058595A2063616C6962726174696F76
:1017A0006E2066697273742E0073746172740A001D
:1017B0006164635F696E69740A000A204F72696729
:1017C000696E616C2050727573612069330A202044
:1017D0002050727573612052657365617263680091
:1017E000436F6E74696E7565207769746820616EE9
:1017F0006F7468657220626F7764656E3F002500C4
:1018000020202020202000202020202020004552C1
:101810004153494E4720616C6C20646174610046FD
:101820006163746F72792052455345540046616379
:10183000746F7279205245534554004449534142D4
:101840004C45440A00454E41424C454400465365D0
:101850006E736F722025530A004D4B33534D4D5517
:101860003253004E4F4D4B3353002E0153657020C1
:101870002036203230313900436F6D70696C6564F9
:101880003A2000286E6F6E652C2064656661756C69
:101890007420636F6E666967290053657020203677
:1018A00020323031392031353A35343A3137002061
:1018B000332E382E302D323638340A002055706CD5
:1018C0006F616420696E2070726F67726573730058
:1018D000205A3A0020593A0020583A0043524153C6
:1018E000485F444554454354454458590043524188
:1018F00053485F444554454354454459004352417D
:1019000053485F444554454354454458004D32398B
:101910000045787465726E616C2053504920666C86
:101920006173680A573235583230434C206973204E
:101930006E6F74207265732D0A706F6E64696E67C6
:101940002E204C616E67756167650A7377697463F1
:101950006820756E617661696C61626C652E00430A
:1019600072617368446574656374204449534142ED
:101970004C45440043726173684465746563742028
:10198000454E41424C454421005732355832304390
:101990004C206E6F7420726573706F6E64696E6731
:1019A0002E0A002020506C616E6E6572427566666C
:1019B000657242797465733A20002046726565202D
:1019C0004D656D6F72793A2000207C2041757468F6
:1019D0006F723A2000204C617374205570646174FA
:1019E00065643A200020536F6674776172652052F7
:1019F0006573657400205761746368646F67205273
:101A000065736574002042726F776E206F75742065
:101A10005265736574002045787465726E616C2040
:101A2000526573657400506F77657255700065720A
:101A3000726F722077726974696E6720746F2066A6
:101A4000696C6500656E6473746F70732068697487
:101A50003A2000446F6E6520736176696E67206678
:101A6000696C652E006F6B004D4B335320666972B5
:101A70006D77617265206465746563746564206F59
:101A80006E204D4B33207072696E74657200534B3B
:101A9000454C4553545255444552204D4B335320E9
:101AA0004F4B2E00426C61636B6F7574206F6363E4
:101AB00075727265642E205265636F766572207050
:101AC00072696E743F0053656C6674657374207739
:101AD000696C6C2062652072756E20746F20636182
:101AE0006C696272617465206163637572617465AB
:101AF0002073656E736F726C657373207265686FA7
:101B00006D696E672E005468657265206973207375
:101B100074696C6C2061206E65656420746F206D43
:101B2000616B65205A2063616C6962726174696FD0
:101B30006E2E20506C6561736520666F6C6C6F77DC
:101B400020746865206D616E75616C2C206368611E
:101B50007074657220466972737420737465707353
:101B60002C2073656374696F6E2043616C696272C7
:101B70006174696F6E20666C6F772E005072696EAB
:101B800074657220686173206E6F74206265656E83
:101B90002063616C69627261746564207965742E7A
:101BA00020506C6561736520666F6C6C6F77207474
:101BB0006865206D616E75616C2C2063686170745E
:101BC00065722046697273742073746570732C207B
:101BD00073656374696F6E2043616C6962726174CE
:101BE000696F6E20666C6F772E004F6C6420736592
:101BF0007474696E677320666F756E642E20446519
:101C00006661756C74205049442C2045737465706E
:101C100073206574632E2077696C6C206265207375
:101C200065742E005761726E696E673A20626F7438
:101C300068207072696E74657220747970652061B5
:101C40006E64206D6F74686572626F617264207477
:101C5000797065206368616E6765642E00576172F4
:101C60006E696E673A207072696E7465722074795D
:101C70007065206368616E6765642E005761726EDF
:101C8000696E673A206D6F74686572626F61726425
:101C90002074797065206368616E6765642E0058F2
:101CA000595A2063616C6962726174696F6E206158
:101CB0006C6C2072696768742E20536B657720778F
:101CC000696C6C20626520636F7272656374656411
:101CD000206175746F6D61746963616C6C792E003D
:101CE00058595A2063616C6962726174696F6E2021
:101CF000616C6C2072696768742E20582F592061BE
:101D00007865732061726520736C696768746C799B
:101D100020736B657765642E20476F6F64206A6F50
:101D200062210058595A2063616C6962726174695A
:101D30006F6E206F6B2E20582F59206178657320AD
:101D40006172652070657270656E646963756C613F
:101D5000722E20436F6E67726174756C6174696F67
:101D60006E73210058595A2063616C696272617404
:101D7000696F6E206661696C65642E2052696768C0
:101D8000742066726F6E742063616C696272617434
:101D9000696F6E20706F696E74206E6F742072654B
:101DA00061636861626C652E0058595A2063616CEA
:101DB0006962726174696F6E206661696C65642E18
:101DC0002046726F6E742063616C6962726174691F
:101DD0006F6E20706F696E7473206E6F7420726501
:101DE00061636861626C652E0058595A2063616CAA
:101DF0006962726174696F6E206661696C65642ED8
:101E000020506C6561736520636F6E73756C742010
:101E1000746865206D616E75616C2E0058595A208A
:101E200063616C6962726174696F6E20636F6D705B
:101E3000726F6D697365642E2052696768742066DD
:101E4000726F6E742063616C6962726174696F6E27
:101E500020706F696E74206E6F74207265616368A4
:101E600061626C652E0058595A2063616C69627218
:101E70006174696F6E20636F6D70726F6D697365E9
:101E8000642E2046726F6E742063616C69627261A9
:101E900074696F6E20706F696E7473206E6F74203A
:101EA000726561636861626C652E0058595A2063DF
:101EB000616C6962726174696F6E206661696C65DC
:101EC000642E204265642063616C6962726174698A
:101ED0006F6E20706F696E7420776173206E6F74FF
:101EE00020666F756E642E00506C6561736520709E
:101EF0006C61636520737465656C207368656574D7
:101F0000206F6E20686561746265642E0044697399
:101F100074616E6365206265747765656E207469AF
:101F200070206F6620746865206E6F7A7A6C652009
:101F3000616E6420746865206265642073757266E2
:101F400061636520686173206E6F74206265656EE1
:101F500020736574207965742E20506C65617365FB
:101F600020666F6C6C6F7720746865206D616E758C
:101F7000616C2C20636861707465722046697273AD
:101F8000742073746570732C2073656374696F6E4D
:101F9000204669727374206C617965722063616C8C
:101FA0006962726174696F6E2E00506C61636520A6
:101FB00061207368656574206F662070617065725A
:101FC00020756E64657220746865206E6F7A7A6C15
:101FD0006520647572696E67207468652063616C42
:101FE0006962726174696F6E206F662066697273D0
:101FF00074203420706F696E74732E2049662074CB
:102000006865206E6F7A7A6C6520636174636865B9
:1020100073207468652070617065722C20706F7712
:102020006572206F666620746865207072696E74D0
:10203000657220696D6D6564696174656C792E00E7
:10204000506C656173652072656D6F766520737481
:1020500065656C2073686565742066726F6D2068B5
:102060006561746265642E00497320737465656CE4
:10207000207368656574206F6E20686561746265A1
:10208000643F00206F6620340053656172636869A5
:102090006E67206265642063616C69627261746955
:1020A0006F6E20706F696E7400206F662039004D6E
:1020B0006561737572696E67207265666572656EBB
:1020C000636520686569676874206F662063616C6A
:1020D0006962726174696F6E20706F696E7400500E
:1020E0006C6561736520636C65616E207468652042
:1020F0006E6F7A7A6C6520666F722063616C6962BC
:10210000726174696F6E2E20436C69636B2077680F
:10211000656E20646F6E652E004175746F20686F68
:102120006D650078797A63616C5F6D656173737555
:1021300072655F656E7465720A0078797A63616CA6
:102140005F73706972616C382063783D2564206329
:10215000793D2564207A303D256420647A3D2564EC
:10216000207261646975733D25642061643D256456
:102170000A0078797A63616C5F7365617263685A8B
:10218000206E6F207369676E616C0A20783D256C44
:102190006420793D256C64207A3D256C640A00201A
:1021A0004F4E2D5349474E414C20617420783D25B8
:1021B0006420793D2564207A3D25642061643D25B5
:1021C000640A0078797A63616C5F73656172636831
:1021D0005A20783D256C6420793D256C64207A3D39
:1021E000256C640A000A00253032780078797A6319
:1021F000616C5F7363616E5F706978656C735F3388
:10220000327833322063783D25642063793D25643C
:10221000206D696E5F7A3D2564206D61785F7A3D3F
:1022200025640A00202532642025640A000A00255E
:1022300030327800206D696E3D2564206D61783DF7
:102240002564206469663D25640A006D61785F63DA
:102250003D253264206D61785F6C3D25640A006D18
:1022600061785F633D2564206D61785F723D256410
:10227000206D61785F6D617463683D25640A00209C
:10228000783D256420793D2564207A3D25640A0047
:10229000207061747465726E20666F756E64206163
:1022A000742025642025640A000000F000F801FC79
:1022B00003FE07FE07FE07FE07FC03F801F000001F
:1022C0000073697A656F6628746F74616C293D25A7
:1022D000640A0073697A656F6628626C6F636B5F6E
:1022E000627566666572293D25640A0078797A63AD
:1022F000616C5F6D656173737572655F6C65617646
:10230000650A00706F696E743D256420783D256410
:1023100020793D2564207A3D25640A005802580240
:10232000584D584DB004F055F055B00478797A63A3
:10233000616C5F66696E645F6265645F696E647537
:102340006374696F6E5F73656E736F725F706F69D0
:102350006E745F787920783D256C6420793D256C1A
:1023600064207A3D256C640A00203C2000574152CD
:102370004E494E473A2046726F6E7420706F696EF8
:1023800074206E6F7420726561636861626C652E83
:10239000205920636F6F7264696E6174653A000042
:1023A000000040410000C04000005C430000C0400D
:1023B00000005C43000046430000404100004643EB
:1023C000497465726174696F6E3A200043616C698B
:1023D00062726174696F6E206661696C6564212048
:1023E000436865636B20746865206178657320615C
:1023F0006E642072756E20616761696E2E004D36C5
:102400003030005052555341206673656E736F72C1
:102410005F7265636F766572006673656E736F7267
:102420005F757064617465202D204D3630300A0070
:1024300020573A0020453A00543A005A206C6976F9
:10244000652061646A757374206F7574206F6620EF
:1024500072616E67652E2053657474696E672074AF
:102460006F20302E20436C69636B20746F20636F84
:102470006E74696E75652E005A206C6976652061F0
:10248000646A757374206F7574206F662072616E54
:1024900067652E2053657474696E6720746F2030F1
:1024A0000020423A0020453A00543A00494E543444
:1024B000007265636F7665725F6D616368696E65F2
:1024C0005F73746174655F61667465725F706F7766
:1024D00065725F70616E69632C20696E69746961F1
:1024E0006C20007265636F7665725F6D6163686909
:1024F0006E655F73746174655F61667465725F7049
:102500006F7765725F70616E69632C20696E6974A4
:1025100069616C20004739322045005052555341C3
:102520002075766C6F004734205330004D323620D2
:1025300053256C75004D3130362053004D38320034
:102540004731204625640047312045322A646566BC
:1025500061756C745F72657472616374696F6E200B
:1025600046343830004731205A002046323030306F
:102570000020590047312058004D383300506F7308
:102580006974696F6E20726561642066726F6D2078
:10259000656570726F6D3A004D3233202573002EE1
:1025A00067636F0046656564726174653A00473120
:1025B00020452D64656661756C745F726574726127
:1025C0006374696F6E2046343830004731204535DA
:1025D0002046313230004D3833004D3139302053F0
:1025E0002564004D313039205325640047323820AE
:1025F000582059004731205A3235204638303000B3
:1026000048656174696E672064697361626C6564B2
:10261000206279207361666574792074696D6572D2
:102620002E005265636F766572696E6720707269FD
:102630006E742020202000004B494C4C45442E2035
:10264000005072696E7465722068616C7465642EE6
:10265000206B696C6C28292063616C6C65642100B7
:102660004B494C4C3A2025640A004D323231204906
:102670006E76616C69642065787472756465722029
:10268000004D32313820496E76616C69642065787E
:1026900074727564657220004D31303920496E7650
:1026A000616C696420657874727564657220004D90
:1026B00031303520496E76616C69642065787472BA
:1026C0007564657220004D31303420496E76616C3E
:1026D0006964206578747275646572200055564C83
:1026E0004F202D20656E642025640A00737470737A
:1026F00025640A00776F726C6420636F6F7264697F
:102700006E617465733A2028252E33662C20252EA1
:1027100033662C20252E3366290A00706879736988
:1027200063616C20636F6F7264696E617465733A84
:102730002028252E33662C20252E33662C20252E8E
:102740003366290A0043757272656E7420706F7368
:10275000205A5F415849533A252E33660A43757211
:1027600072656E7420706F7320455F415849533A0B
:10277000252E33660A00416674657220776169749C
:10278000696E6720666F722074656D703A0A4375D2
:102790007272656E7420706F7320585F4158495390
:1027A0003A252E33660A43757272656E7420706F17
:1027B0007320595F415849533A252E33660A002544
:1027C00063252D2E31365320002563252E313553B8
:1027D0003A2573253364002020202020202020204B
:1027E0002020202020202020202020002563252DAF
:1027F00031332E31335325362E36730045787265CA
:102800006D65207370616E206F6620746865205A54
:102810002076616C75657321006F6B0A00737461BB
:1028200072740A004D4D5532206669726D7761727F
:10283000652076657273696F6E20696E76616C696A
:10284000642E2052657175697265642076657273B5
:10285000696F6E3A206275696C64206E756D626591
:1028600072202564206F72206869676865722E0087
:102870006673656E736F725F73746F705F616E64A1
:102880005F736176655F7072696E740A004D4D55B5
:10289000203D3E20276F6B270A004D4D55203D3EC1
:1028A00020276F6B270A002564004D4D55203D3EC3
:1028B00020276F6B272C20726573756D65207072F1
:1028C000696E740A004D4D552072657472792061ED
:1028D0007474656D7074206E722E2025640A004D2C
:1028E0004D55203D3E20276F6B270A00410A004DC1
:1028F0004D55203C3D202741270A004D3630300001
:102900004D363030204155544F00505255534120E0
:102910006673656E736F725F7265636F7665720062
:102920002568687500410A004D4D55203C3D202723
:1029300041270A0050300A004D25640A004D4D55CC
:10294000203C3D20274D2564270A0057300A004DC2
:102950004D55203C3D20275730270A0053330A00AD
:102960004D4D55203C3D20275333270A0052300A55
:10297000004D4D55203C3D20275230270A004B2565
:10298000640A004D4D55203C3D20274B2564270A05
:10299000004525640A004D4D55203C3D2027452526
:1029A00064270A0055300A004D4D55203C3D202734
:1029B0005530270A0043300A004D4D55203C3D203C
:1029C000274330270A004C25640A004D4D55203C12
:1029D0003D20274C2564270A005425640A004D4DEC
:1029E00055203C3D2027542564270A004D4D552095
:1029F0002D20454E41424C454400256868750050E5
:102A0000300A004D310A004D4D55203C3D20274DE8
:102A100031270050300A004D4D552076657273699C
:102A20006F6E2076616C6964004D4D55203D3E20EF
:102A30002725646F6B270A0025750053320A004D65
:102A40004D55203C3D2027533227004D4D55203D0C
:102A50003E202725646F6B270A002575004D4D55D4
:102A6000206E6F7420726573706F6E64696E67207C
:102A70002D2044495341424C45440053310A004DF6
:102A80004D55203C3D2027533127004D4D55203DCD
:102A90003E202773746172742700426564206C6560
:102AA00076656C696E67206661696C65642E20537B
:102AB000656E736F72206469646E742074726967E6
:102AC0006765722E20446562726973206F6E206E96
:102AD0006F7A7A6C653F2057616974696E6720660A
:102AE0006F722072657365742E00506C656173653A
:102AF00020757064617465206669726D77617265B6
:102B000020696E20796F7572204D4D55322E2057F9
:102B1000616974696E6720666F722072657365748F
:102B20002E0024F4D43050C38E20C2A24017828BD2
:102B30007011127A910D816CD90AA861E108C75809
:102B40006607615143061E4B5D05C145A7041A4146
:102B50001104093D9803713931034036DB026533B6
:102B60009102D4305402802E1D02632CEE01752A8E
:102B7000C501B028A001102781018F2564012B24F5
:102B80004B01E0223401AC211F018D200D01801F7B
:102B9000FC00841EED00971DDF00B81CD200E61B70
:102BA000C600201BBC00641AB200B219A8000A19A2
:102BB000A0006A189900D117910040178B00B51634
:102BC000840031167E00B31579003A157300C714DE
:102BD0006F0058146A00EE13660088136300251313
:102BE0005E00C7125B006C12570015125400C11131
:102BF000510070114F0021114B00D61049008D106B
:102C000047004610440002104200C00F4000800FF1
:102C10003E00420F3C00060F3B00CB0E3800930EE7
:102C200037005C0E3500270E3400F30D3200C10D65
:102C30003100900D3000600D2E00320D2D00050D7D
:102C40002C00D90C2B00AE0C2900850C29005C0C43
:102C50002700350C27000E0C2600E80B2400C40BBF
:102C60002400A00B23007D0B23005A0B2100390BFD
:102C70002100180B2000F80A1F00D90A1E00BB0A09
:102C80001E009D0A1D00800A1D00630A1C00470AE1
:102C90001B002C0A1B00110A1A00F7091A00DD0993
:102CA0001900C4091900AB091900920917007B0922
:102CB0001800630917004C09160036091600200990
:102CC00016000A091500F5081500E0081400CC08E4
:102CD0001400B8081400A4081400900813007D081C
:102CE00012006B081300580812004608120034083E
:102CF0001100230811001208110001081100F0074B
:102D00001000E0071000D0071000C0071000B00747
:102D10000F00A107100091070E0083070F00740732
:102D20000F0065070E0057070E0049070E003B070E
:102D30000D002E070E0020070D0013070D000607DB
:102D40000D00F9060C00ED060D00E0060C00D4069F
:102D50000C00C8060C00BC060C00B0060C00A40653
:102D60000B0099060C008D060B0082060B007706FF
:102D70000B006C060B0061060A0057060B004C06A0
:102D80000A0042060A0038060A002E060A00240637
:102D90000A001A060A001006090007060A00FD05C7
:102DA0000900F4050900EB050900E2050900D90551
:102DB0000900D0050900C7050900BE050900B505D1
:102DC0000800AD050800A50509009C05080094054C
:102DD00008008C050800840508007C0508007405BF
:102DE00008006C050700650508005D05070056052D
:102DF00008004E0507004705070040050800380594
:102E00000700310507002A050700230507001C05F8
:102E10000600160507000F05070008050600020555
:102E20000700FB040600F5040700EE040600E804B2
:102E30000600E2040700DB040600D5040600CF0408
:102E40000600C9040600C3040600BD040600B7045A
:102E50000600B1040500AC040600A6040600A004A8
:102E600005009B04060095040500900406008A04F2
:102E7000050085040500800406007A040500750439
:102E80000500700405006B0405006604050061047C
:102E900005005C04050057040500520405004D04BC
:102EA000050048040500430405003E0404003A04FC
:102EB000050035040500300404002C040500270437
:102EC0000400230405001E0404001A040400160470
:102ED0000500110404000D040400090405000404A5
:102EE000040000040400FC030400F8030400F403DD
:102EF0000400F0030400EC030400E8030400E4030E
:102F00000400E0030400DC030400D8030400D4033D
:102F10000400D0030400CC030400C8030300C5036D
:102F2000030024F404D9201BC40C5C0E9804C409CB
:102F30005F0265077101F405F900FB04B300480462
:102F40008700C10369005803550003034500BE0212
:102F50003A008402310053022A00290225000402AB
:102F60002000E4011C00C8011900AF0117009801FE
:102F7000140084011300710110006101100051015F
:102F80000E0043010D0036010B002B010B00200148
:102F90000B00150109000C01090003010800FB00EA
:102FA0000800F3000800EB000700E4000600DE0064
:102FB0000600D8000600D2000600CC000500C700BD
:102FC0000500C2000500BD000400B9000400B50002
:102FD0000400B1000400AD000400A9000400A50035
:102FE0000300A20003009F0004009B000300980060
:102FF00003009500020093000300900003008D0081
:1030000002008B000300880002008600020084009A
:103010000300810002007F0002007D0002007B00AF
:1030200002007900020077000100760002007400BF
:10303000020072000100710002006F0002006D00CA
:1030400001006C0002006A000100690002006700D4
:1030500001006600010065000100640002006200DA
:10306000010061000100600001005F0002005D00DE
:1030700001005C0001005B0001005A0001005900E2
:1030800001005800010057000100560001005500E2
:1030900001005400010053000000530001005200E1
:1030A000010051000100500001004F0001004E00DE
:1030B00000004E0001004D0001004C0001004B00DB
:1030C00000004B0001004A000100490001004800D7
:1030D00000004800010047000100460000004600D3
:1030E00001004500000045000100440001004300CC
:1030F00000004300010042000000420001004100C6
:10310000000041000100400001003F0000003F00BE
:1031100001003E0000003E0001003D0000003D00B7
:1031200001003C0000003C0000003C0001003B00AE
:1031300000003B0001003A0000003A0001003900A5
:10314000000039000100380000003800000038009D
:103150000100370000003700010036000000360093
:103160000000360001003500000035000000350089
:10317000010034000000340000003400010033007E
:103180000000330000003300010032000000320074
:103190000000320001003100000031000000310069
:1031A00001003000000030000000300001002F005E
:1031B00000002F0000002F0000002F0001002E0053
:1031C00000002E0000002E0001002D0000002D0048
:1031D00000002D0000002D0001002C0000002C003C
:1031E00000002C0000002C0001002B0000002B0030
:1031F00000002B0000002B0001002A0000002A0024
:1032000000002A0000002A00010029000000290017
:10321000000029000000290000002900010028000A
:1032200000002800000028000000280000002800FE
:1032300001002700000027000000270000002700F1
:1032400000002700010026000000260000002600E4
:1032500000002600000026000100250000002500D7
:1032600000002500000025000000250000002500CA
:1032700001002400000024000000240000002400BD
:1032800000002400010023000000230000002300B0
:1032900000002300000023000000230000002300A2
:1032A0000100220000002200000022000000220095
:1032B0000000220000002200010021000000210087
:1032C000000021000000210000002100000021007A
:1032D000000021000100200000002000000020006C
:1032E000000020000000200000002000000020005E
:1032F0000000200001001F0000001F0000001F0050
:1033000000001F0000001F0000001F0000001F0041
:1033100001001E0000001E0000001E0000001E0034
:10332000000090137D00B0157800F0177300601A4C
:103330006E00F01C6900A01F640050225F00202571
:103340005A00E0275500902A5000202D4B00A02F56
:103350004600F031410010343C00F0353700A03712
:10336000320020392D00603A2800703B2300603C79
:103370001E00203D1900C03D1400403E0F00A03E3D
:103380000A00F03E0500403F0000703FFBFF903F09
:10339000F6FFB03FF1FFC03FECFFD03FE7FFE03F5B
:1033A000E2FFF03FDDFFF03FD8FF20484F54454E8D
:1033B0004420544845524D414C2052554E415741AE
:1033C0005900204845415442454420544845524DF7
:1033D000414C2052554E4157415900544845524D99
:1033E000414C2052554E41574159004245442054CA
:1033F0004845524D414C2052554E415741590020AD
:10340000544845524D414C2052554E415741592048
:1034100028205052454845415420484F54454E4479
:10342000290020544845524D414C2052554E415799
:103430004159202820505245484541542048454193
:103440005442454429005052454845415420455274
:10345000524F520042454420505245484541542065
:103460004552524F52004D494E54454D50206669C9
:1034700078656400506C6561736520726573746172
:103480007274004572723A204D494E54454D5000B9
:103490003A20457874727564657220737769746335
:1034A000686564206F66662E204D494E54454D5028
:1034B00020747269676765726564202100457272C5
:1034C0003A204D494E54454D5020424544005465E4
:1034D0006D7065726174757265206865617465648C
:1034E00020626564207377697463686564206F6621
:1034F000662E204D494E54454D50207472696767C1
:1035000065726564202100746D63323133305F6809
:103510006F6D655F656E74657228617865735F6D48
:1035200061736B3D307825303278290A00746D6301
:10353000323133305F686F6D655F65786974207410
:103540006D63323133305F73675F686F6D696E67CB
:103550005F617865735F6D61736B3D3078253032E4
:10356000780A00544D4320445249564552204F5644
:10357000455254454D50004D6F6465206368616E3F
:10358000676520696E2070726F6772657373202E95
:103590002E2E0043616C69627261746500506C6527
:1035A000617365206C6F616420504C412066696CCA
:1035B000616D656E742066697273742E00497320A4
:1035C000504C412066696C616D656E74206C6F6152
:1035D0006465643F0043616E63656C0046696C61BD
:1035E0006D656E740053656C65637420504C4120AA
:1035F00066696C616D656E743A0052756E6E696EC7
:10360000672057697A6172642077696C6C20646501
:103610006C6574652063757272656E742063616C8D
:103620006962726174696F6E20726573756C747310
:1036300020616E642073746172742066726F6D20F5
:1036400074686520626567696E6E696E672E2043D7
:103650006F6E74696E75653F005072656865617460
:10366000696E67206E6F7A7A6C652E20506C65618A
:10367000736520776169742E00456A65637400552F
:103680006E6C6F61640055736520756E6C6F61645C
:1036900020746F2072656D6F76652066696C616D50
:1036A000656E7420312069662069742070726F74B1
:1036B0007275646573206F757473696465206F66D5
:1036C000207468652072656172204D4D55207475B7
:1036D00062652E2055736520656A6563742069668E
:1036E0002069742069732068696464656E20696E5E
:1036F00020747562652E004C6F6164696E67206688
:10370000696C616D656E7400506C656173652069EC
:103710006E7365727420504C412066696C616D65F2
:103720006E7420746F207468652065787472756497
:1037300065722C207468656E207072657373206BDF
:103740006E6F6220746F206C6F61642069742E004C
:10375000506C6561736520696E7365727420504C9E
:10376000412066696C616D656E7420746F207468A9
:10377000652066697273742074756265206F6620B7
:103780004D4D552C207468656E20707265737320E2
:10379000746865206B6E6F6220746F206C6F61645B
:1037A0002069742E00596F752063616E20616C77FB
:1037B00061797320726573756D6520746865205733
:1037C000697A6172642066726F6D2043616C696210
:1037D000726174696F6E202D3E2057697A61726440
:1037E0002E00506C6561736520636865636B206FA4
:1037F00075722068616E64626F6F6B20616E642009
:10380000666978207468652070726F626C656D2ED1
:10381000205468656E20726573756D6520746865E7
:103820002057697A617264206279207265626F6FD5
:1038300074696E6720746865207072696E74657251
:103840002E00416C6C20697320646F6E652E2048D9
:1038500061707079207072696E74696E67210050B2
:103860006C6561736520636C65616E206865617469
:1038700062656420616E64207468656E2070726594
:10388000737320746865206B6E6F622E00446F2026
:10389000796F752077616E7420746F207265706522
:1038A0006174206C617374207374657020746F2070
:1038B000726561646A7573742064697374616E63A0
:1038C00065206265747765656E206E6F7A7A6C65C7
:1038D00020616E6420686561746265643F00492000
:1038E00077696C6C20737461727420746F207072CD
:1038F000696E74206C696E6520616E6420796F75E5
:103900002077696C6C206772616475616C6C7920DA
:103910006C6F77657220746865206E6F7A7A6C655B
:1039200020627920726F746174696E6720746865B3
:10393000206B6E6F622C20756E74696C20796F75C8
:10394000207265616368206F7074696D616C2068B6
:1039500065696768742E20436865636B20746865C9
:1039600020706963747572657320696E206F75725B
:103970002068616E64626F6F6B20696E206368619E
:10398000707465722043616C6962726174696F6EF4
:103990002E004E6F7720492077696C6C2063616C34
:1039A0006962726174652064697374616E63652015
:1039B0006265747765656E20746970206F66207427
:1039C0006865206E6F7A7A6C6520616E6420686528
:1039D000617462656420737572666163652E004967
:1039E0007320697420504C412066696C616D656E6E
:1039F000743F0053656C656374206E6F7A7A6C65F2
:103A000020707265686561742074656D706572619F
:103A100074757265207768696368206D6174636886
:103A2000657320796F7572206D6174657269616C60
:103A30002E004E6F7720492077696C6C207072657C
:103A400068656174206E6F7A7A6C6520666F72208B
:103A5000504C412E0049732066696C616D656E742F
:103A6000206C6F616465643F0049732066696C6116
:103A70006D656E742031206C6F616465643F004E2B
:103A80006F7720492077696C6C207072656865617A
:103A900074206E6F7A7A6C6520666F7220504C418C
:103AA0002E00492077696C6C2072756E207A206335
:103AB000616C6962726174696F6E206E6F772E003F
:103AC0004E6F772072656D6F76652074686520741F
:103AD000657374207072696E742066726F6D2073E6
:103AE0007465656C2073686565742E00506C656143
:103AF00073652072656D6F76652073686970706993
:103B00006E672068656C7065727320666972737485
:103B10002E00492077696C6C2072756E2078797A56
:103B20002063616C6962726174696F6E206E6F7779
:103B30002E2049742077696C6C2074616B6520615C
:103B40007070726F782E203132206D696E732E0086
:103B500046697273742C20492077696C6C207275E9
:103B60006E207468652073656C6674657374207468
:103B70006F20636865636B206D6F737420636F6D76
:103B80006D6F6E20617373656D626C792070726FFA
:103B9000626C656D732E0048692C204920616D2090
:103BA000796F7572204F726967696E616C2050720F
:103BB000757361206933207072696E7465722E208E
:103BC000576F756C6420796F75206C696B65206D1B
:103BD0006520746F20677569646520796F7520743E
:103BE00068726F7567682074686520736574757096
:103BF0002070726F636573733F00452D636F72723F
:103C00006563743A005A2D636F72726563743A008B
:103C1000592D636F72726563743A00582D636F7229
:103C2000726563743A0053706F6F6C4A6F696E20EF
:103C300020205B4E2F415D0053706F6F6C4A6F699F
:103C40006E2020205B6F66665D0053706F6F6C4A5C
:103C50006F696E202020205B6F6E5D004669726D7B
:103C6000776172652020205B6E6F6E655D0046692E
:103C7000726D77617265205B7374726963745D0045
:103C80004669726D776172652020205B7761726E84
:103C90005D004669726D776172652020205B6E6FF2
:103CA0006E655D004D6F64656C2020202020205BD8
:103CB0006E6F6E655D004D6F64656C202020205B2B
:103CC0007374726963745D004D6F64656C202020AD
:103CD0002020205B7761726E5D004D6F64656C2003
:103CE00020202020205B6E6F6E655D004E6F7A7A1B
:103CF0006C6520202020205B6E6F6E655D004E6F2E
:103D00007A7A6C652020205B7374726963745D003D
:103D10004E6F7A7A6C6520202020205B7761726E6E
:103D20005D004E6F7A7A6C6520202020205B6E6FDC
:103D30006E655D00485720536574757000485720C4
:103D4000536574757000436865636B73004E6F7ADA
:103D50007A6C6520642E20205B302E34305D004E5E
:103D60006F7A7A6C6520642E20205B302E36305DB1
:103D7000004E6F7A7A6C6520642E20205B302E34E2
:103D8000305D004E6F7A7A6C6520642E20205B30A7
:103D90002E32355D00537465656C207368656574FB
:103DA0007300536F756E642020202020205B6C6FA1
:103DB00075645D00536F756E64202020205B617315
:103DC000736973745D00536F756E64202020205BEF
:103DD00073696C656E745D00536F756E642020208E
:103DE0002020205B6F6E63655D00536F756E6420ED
:103DF00020202020205B6C6F75645D00536F72740F
:103E0000202020202020205B6E6F6E655D00536FA8
:103E100072742020205B616C7068616265745D0063
:103E2000536F7274202020202020205B74696D6500
:103E30005D005344206361726420205B6E6F726D7D
:103E4000616C5D0053442063617264205B666C7337
:103E5000684169725D0052506920706F7274202051
:103E60002020205B6F6E5D0052506920706F72746D
:103E7000202020205B6F66665D0054656D702E20EB
:103E800063616C2E2020205B6F6E5D0054656D7049
:103E90002E2063616C2E20205B6F66665D004C698E
:103EA0006E2E20636F7272656374696F6E004D656C
:103EB000736820626564206C6576656C696E670066
:103EC0004D4D55204D6F64655B537465616C74682E
:103ED0005D004D4D55204D6F6465205B4E6F726DDA
:103EE000616C5D0048572053657475700046616EC3
:103EF0007320636865636B20205B6F66665D0046B8
:103F0000616E7320636865636B2020205B6F6E5D5C
:103F100000462E206175746F6C6F6164205B6F6664
:103F2000665D00462E206175746F6C6F61642020A1
:103F30005B6F6E5D00462E206175746F6C6F6164FF
:103F4000205B4E2F415D0044697361626C65207394
:103F500074657070657273004D6F76652061786965
:103F6000730054656D7065726174757265004738D1
:103F700030004D3435004D3435205A004737360077
:103F800057697A6172642073746174653A2025649C
:103F90000A0044697361626C65206661726D206D10
:103FA0006F6465004661726D206E756D62657200AA
:103FB0004D38340057697A61726420656E642073ED
:103FC000746174653A2025640A0020003E003E00BA
:103FD00020003E003E0054656D706572617475721C
:103FE000652063616C6962726174696F6E206661DD
:103FF000696C65642E20436F6E74696E75652077F9
:10400000697468207072657373696E67207468657F
:10401000206B6E6F622E0054656D706572617475F1
:1040200072652063616C6962726174696F6E20648D
:104030006F6E652E20436F6E74696E7565207769AB
:104040007468207072657373696E67207468652088
:104050006B6E6F622E0054656D706572617475725F
:10406000652063616C6962726174696F6E2066615C
:10407000696C65640054656D706572617475726514
:104080002063616C6962726174696F6E206973206C
:1040900066696E697368656420616E64206163742B
:1040A0006976652E2054656D702E2063616C69629F
:1040B000726174696F6E2063616E2062652064694D
:1040C0007361626C656420696E206D656E75205346
:1040D000657474696E67732D3E54656D702E206330
:1040E000616C2E004E2F4100202030002020310036
:1040F00049523A0046494E44413A0050494E4441E3
:104100003A0053656E736F72207374617465004575
:1041100078747275646572004D6F7665205A004D33
:104120006F76652059004D6F7665205800437261A7
:10413000736820646574656374696F6E2063616E73
:104140000A6265207475726E6564206F6E206F6EF2
:104150006C7920696E0A4E6F726D616C206D6F64B0
:1041600065005741524E494E473A0A43726173689F
:1041700020646574656374696F6E0A646973616253
:104180006C656420696E0A537465616C7468206D97
:104190006F6465004175746F6C6F6164696E672050
:1041A00066696C616D656E7420617661696C6162CF
:1041B0006C65206F6E6C79207768656E2066696C1F
:1041C000616D656E742073656E736F722069732004
:1041D0007475726E6564206F6E2E2E2E00455252DD
:1041E0004F523A2046696C616D656E742073656E3E
:1041F000736F72206973206E6F7420726573706FB5
:104200006E64696E672C20706C65617365206368ED
:1042100065636B20636F6E6E656374696F6E2E00ED
:10422000746D63323133305F676F746F5F737465C1
:1042300070202564202564202564202564200A0040
:104240001F1F1F1F1F1F1F1F2E002E004E6F7720C6
:1042500066726573682066696C653A20004E6F77F8
:1042600020646F696E672066696C653A20002220C1
:10427000706F73002220706172656E743A22005371
:104280005542524F5554494E452043414C4C2074A1
:1042900061726765743A2200747279696E6720747E
:1042A0006F2063616C6C207375622D67636F64654A
:1042B0002066696C6573207769746820746F6F205D
:1042C0006D616E79206C6576656C732E204D41585A
:1042D000206C6576656C2069733A002E0043616E30
:1042E0006E6F7420656E7465722073756264697296
:1042F0003A200053442063617264206F6B006F703A
:10430000656E526F6F74206661696C656400766FCC
:104310006C756D652E696E6974206661696C656483
:1043200000534420696E6974206661696C0057729D
:104330006974696E6720746F2066696C653A200045
:1043400046696C652073656C656374656400205311
:10435000697A653A200046696C65206F70656E6504
:10436000643A20006F70656E206661696C65642C2C
:104370002046696C653A2000536F7274696E67203D
:1043800066696C657300536F6D652066696C657353
:104390002077696C6C206E6F7420626520736F7279
:1043A0007465642E204D61782E204E6F2E206F662E
:1043B0002066696C657320696E203120666F6C64BD
:1043C000657220666F7220736F7274696E67206900
:1043D00073203130302E004731205A252D302E33B6
:1043E000662046252D302E33660047312045252D89
:1043F000302E3366204632373030004D3833006F70
:104400006B0A0000002110422063308440A550C692
:1044100060E770088129914AA16BB18CC1ADD1CE02
:10442000E1EFF13112100273325222B5529442F789
:1044300072D662399318837BB35AA3BDD39CC3FF52
:10444000F3DEE36224433420040114E664C774A459
:104450004485546AA54BB528850995EEE5CFF5ACA2
:10446000C58DD55336722611163006D776F6669569
:1044700056B4465BB77AA719973887DFF7FEE79DF2
:10448000D7BCC7C448E5588668A7784008611802B9
:10449000282338CCC9EDD98EE9AFF9488969990A42
:1044A000A92BB9F55AD44AB77A966A711A500A33C9
:1044B0003A122AFDDBDCCBBFFB9EEB799B588B3B92
:1044C000BB1AABA66C877CE44CC55C222C033C6019
:1044D0000C411CAEED8FFDECCDCDDD2AAD0BBD68E2
:1044E0008D499D977EB66ED55EF44E133E322E51A9
:1044F0001E700E9FFFBEEFDDDFFCCF1BBF3AAF5932
:104500009F788F8891A981CAB1EBA10CD12DC14EA2
:10451000F16FE18010A100C230E320045025404635
:10452000706760B9839893FBA3DAB33DC31CD37F54
:10453000E35EF3B1029012F322D232354214527785
:10454000625672EAB5CBA5A89589856EF54FE52C24
:10455000D50DC5E234C324A01481046674476424D5
:10456000540544DBA7FAB79987B8975FE77EF71D34
:10457000C73CD7D326F2369106B016576676761525
:104580004634564CD96DC90EF92FE9C899E9898A84
:10459000B9ABA94458654806782768C018E1088275
:1045A00038A3287DCB5CDB3FEB1EFBF98BD89BBB94
:1045B000AB9ABB754A545A376A167AF10AD01AB3C5
:1045C0002A923A2EFD0FED6CDD4DCDAABD8BADE8E4
:1045D0009DC98D267C076C645C454CA23C832CE015
:1045E0001CC10C1FEF3EFF5DCF7CDF9BAFBABFD974
:1045F0008FF89F176E367E554E745E932EB23ED165
:104600000EF01E7C3C3E3F2F2A225C00773235782C
:104610003230636C5F63666D0A0077323578323012
:10462000636C5F656E7465720A0020746F6F206C36
:104630006F6E6720657874727573696F6E20707223
:104640006576656E7465640020636F6C64206578C0
:1046500074727573696F6E2070726576656E7465BD
:10466000640046696C616D656E742073656E736F6E
:1046700072005072696E742066616E3A00457874FB
:1046800072756465722066616E3A0043616C69629E
:10469000726174696E6720686F6D650053656C6642
:1046A00074657374206661696C6564202000416CD8
:1046B0006C20636F727265637420202020202000BC
:1046C000436865636B696E672073656E736F7273A1
:1046D0002000436865636B696E6720686F74656E60
:1046E00064202000436865636B696E6720626564BF
:1046F000202020202000436865636B696E67205A84
:104700002061786973202000436865636B696E6778
:1047100020592061786973202000436865636B69C4
:104720006E672058206178697320200043686563B4
:104730006B696E6720656E6473746F707300457289
:10474000726F72202D20737461746963206D656DC2
:104750006F727920686173206265656E206F76657F
:10476000727772697474656E004361726420726559
:104770006D6F766564005072696E746572206E6F3D
:104780007A7A6C65206469616D657465722064690C
:1047900066666572732066726F6D20746865204767
:1047A0002D636F64652E20506C65617365206368AE
:1047B00065636B207468652076616C756520696E31
:1047C0002073657474696E67732E205072696E74FD
:1047D0002063616E63656C6C65642E005072696E57
:1047E000746572206E6F7A7A6C65206469616D659C
:1047F00074657220646966666572732066726F6D97
:104800002074686520472D636F64652E20436F6EAA
:1048100074696E75653F002D2D2D2D2D2D2D2D2D9F
:104820002D2D2D2D2D2D2D2D2D2D2D000000000099
:1048300000110A0450525553413344465700207921
:10484000303D25640A002078303D25640A004F4B36
:104850000A004552524F522061643D25640A0020EF
:1048600020207A303D25640A00207A303D25640AF4
:10487000002079303D25640A002078303D25640A07
:104880000078797A63616C5F66696E645F706F69E6
:104890006E745F63656E746572320A0000002100F9
:1048A000240027002A002D00300033000101000001
:1048B000040107010A0100002200250028002B0046
:1048C0002E003100340002010000050108010B0137
:1048D000000020002300260029002C002F003200B9
:1048E0000001000003010601090105050505070592
:1048F00008080808020202020A0A0808040404045C
:104900000101010101010101030303030303030387
:10491000040707070C0C0C0C0C0C0C0C0202020216
:1049200006060606060606060B0B0B0B0B0B0B0BFF
:1049300007070A0A0A0A0A0A050505040404080802
:1049400001021020200808102040102040800201A1
:104950000201080402010102040810204080804086
:104960002010080402018004020180402010080485
:104970000201080402010102040810204080010223
:1049800004081020408010080408801020400440D3
:1049900080102040048000000A0B02090C0D0E0854
:1049A00007030401000000000000000000000000F8
:1049B00000000000000000000000000000000000F7
:1049C00000001211100000000000000000000000B4
:1049D00000000000000000000000000000000000D7
:1049E00000000000000000000000000046696E6941
:1049F0007368696E67206D6F76656D656E747300A0
:104A0000536F756E642020202020205B6C6F7564CE
:104A10005D00536F756E64202020205B61737369A5
:104A200073745D00536F756E64202020205B736982
:104A30006C656E745D00536F756E642020202020BD
:104A4000205B6F6E63655D00536F756E6420202080
:104A50002020205B6C6F75645D004D4D55204D6FBF
:104A600064655B537465616C74685D004D4D5520E1
:104A70004D6F6465205B4E6F726D616C5D004372BB
:104A8000617368206465742E20205B4E2F415D00A9
:104A90004372617368206465742E20205B6F6666C4
:104AA0005D004372617368206465742E2020205B72
:104AB0006F6E5D004D6F6465202020205B53746530
:104AC000616C74685D004D6F646520202020205B60
:104AD0004E6F726D616C5D0046616E732063686538
:104AE000636B20205B6F66665D0046616E732063BA
:104AF0006865636B2020205B6F6E5D0046696C2EDD
:104B00002073656E736F7220205B6F6E5D00466967
:104B10006C2E2073656E736F72205B6F66665D002E
:104B20004368616E67652066696C616D656E7400CF
:104B3000466C6F77005370656564004D61676E6504
:104B4000747320636F6D702E5B4E2F415D004D615D
:104B5000676E65747320636F6D702E5B4F66665D64
:104B6000004D61676E65747320636F6D702E205BFE
:104B70004F6E5D005A2D70726F6265206E722E202E
:104B80002020205B335D005A2D70726F6265206EAD
:104B9000722E202020205B355D005A2D70726F62CE
:104BA00065206E722E202020205B315D004D6573E4
:104BB000682020202020202020205B3778375D00CF
:104BC0004D6573682020202020202020205B337832
:104BD000335D0046616E20737065656400426564F4
:104BE000004E6F7A7A6C650053657474696E6773F2
:104BF000005072696E742061626F7274656400594E
:104C00006573004E6F0053746F70207072696E741C
:104C10000046696C6520696E636F6D706C657465C4
:104C20002E20436F6E74696E756520616E797761B1
:104C3000793F004261636B004D61696E004D363013
:104C400030002F2F20616374696F6E3A63616E6369
:104C5000656C004D3234004D323320257300052E33
:104C60002E00726573756C742076616C75653A20E0
:104C700025640A0020693D25326420636E743D2559
:104C800032642076616C3D2532640A00636C757372
:104C9000746572733A0A0020693D2532642073748A
:104CA00065703D2532640A00736F72746564207309
:104CB000616D706C65733A0A003A20002020202054
:104CC0002020202020202020202020202020200004
:104CD000203A2000202020202020202020202020DA
:104CE00020202020202020200020202020202020E4
:104CF0002020202020200025730025632533642FE9
:104D000025642563005A25362E326620005A20205D
:104D1000202D2D2D200025632533642525002D2DE4
:104D20002D0025336868640025335325337325250A
:104D300000555342002020200020534400202575B8
:104D40003E257500203F3E25750020462575002034
:104D5000463F0020463020200025632D2D3A2D2D82
:104D600020200025632533756820256325630025F1
:104D700063253032753A253032752563256300503E
:104D8000494E44412048656174696E670054656D01
:104D9000702E2063616C2E202020202020202020D7
:104DA000200043616C6962726174696F6E20646F88
:104DB0006E650043616C6962726174696E67205A46
:104DC0000042656420646F6E65004265642048653A
:104DD0006174696E670048656174696E6720646F0D
:104DE0006E652E0048656174696E6700576169746D
:104DF000696E6720666F72206E6F7A7A6C652061CB
:104E00006E642062656420636F6F6C696E67005327
:104E1000656C662074657374204F4B0053656C6637
:104E2000207465737420737461727420200046616D
:104E30006C73652074726967676572696E67005389
:104E40007761707065640046726F6E742F6C656672
:104E5000742066616E7300417869730041786973EC
:104E6000206C656E677468004C6F6F736520707599
:104E70006C6C657900456E6473746F70206E6F742E
:104E80002068697400456E6473746F70004D6F74B0
:104E90006F7200456E6473746F7073005769726946
:104EA0006E67206572726F7200426564202F204821
:104EB0006561746572004E6F7420636F6E6E65631A
:104EC000746564004865617465722F546865726D1D
:104ED0006973746F7200506C6561736520636865F7
:104EE000636B203A0053656C667465737420657259
:104EF000726F72202100457874722066616E207393
:104F0000706565643A202564200A005072696E74E9
:104F10002066616E2073706565643A202564200AFE
:104F2000005465737420323A0A0045787472206622
:104F3000616E2073706565643A202564200A005014
:104F400072696E742066616E2073706565643A20C4
:104F50002564200A005465737420313A0A006C639A
:104F6000645F73656C66636865636B5F61786973C2
:104F70002025642C2025640A004D38340047312058
:104F80005A31352046313030300047323820570012
:104F900025632041584953205347313D25640A0079
:104FA00041786973206C656E677468206469666611
:104FB0006572656E63653A252E33660A004D65613C
:104FC00073757265642061786973206C656E6774AF
:104FD000683A252E33660A00437573746F6D00546A
:104FE000657874757200536D6F6F74680047312077
:104FF00059252D2E32662045252D2E33660047314A
:10500000205825642059252D2E32662045252D2E29
:10501000336600000E1315110E0000000412091271
:10502000040000001C1F11111F00000006191803C6
:10503000130C00040E1F041C000000040A0A0A0AD4
:1050400011110E001F1511151F0000000103161C81
:105050000800000000110A04110A040C12120C00CE
:105060000000002563252D31382E3138532563008B
:10507000252E31305320002563252D31382E31382F
:1050800073256300464C4558202D20203234302FA4
:1050900035300050502020202D20203235342F3143
:1050A00030300048495053202D20203232302F31EB
:1050B00030300041425320202D20203235352F3111
:1050C00030300041534120202D20203236302F3106
:1050D00030350050455420202D20203233302F38D9
:1050E0003500504C4120202D20203231352F3630D4
:1050F00000252D31322E313253252B382E316600CA
:1051000045787472756465723A006D6D00005900DF
:105110005800583A00593A005A3A002563252D3173
:10512000332E313353252B352E336600507265688C
:1051300065617420746865206E6F7A7A6C652100F1
:105140004552524F523A0046696C616D656E74204B
:10515000657874727564696E672026207769746853
:1051600020636F727265637420636F6C6F723F00AF
:105170004175746F6C6F6164696E672066696C61FC
:105180006D656E74206973206163746976652C2087
:105190006A75737420707265737320746865206B10
:1051A0006E6F6220616E6420696E73657274206632
:1051B000696C616D656E742E2E2E00546F74616C77
:1051C000207072696E742074696D6500546F74612B
:1051D0006C2066696C616D656E74005072696E74E6
:1051E0002074696D650046696C616D656E7420752B
:1051F000736564005269676874004C656674005991
:105200002064697374616E63652066726F6D206DD2
:10521000696E0053657665726520736B6577005320
:105220006C6967687420736B6577004D6561737591
:1052300072656420736B6577005B303B305D207076
:105240006F696E74206F66667365740041646A7579
:105250007374696E67205A3A005265736574005220
:105260006561722073696465205B756D5D004672CF
:105270006F6E7420736964655B756D5D005269675C
:10528000687420736964655B756D5D004C65667458
:105290002073696465205B756D5D005365742074CF
:1052A000656D70657261747572653A0025533A0ACE
:1052B00025382E32666D0A25533A0A25376C646408
:1052C000203A253268686468203A2530326868647C
:1052D0006D0025533A0A25382E32666D0A25533A59
:1052E0000A2532646820253032646D20253032640E
:1052F000730025362E32666D6D004E2F410025530A
:105300003A0A25530A25533A0A25533A004E2F41AB
:105310000025342E3266010025533A0A25530A250A
:10532000533A202025352E3266010A25533A202093
:1053300025352E3266010054656D702E2063616C38
:105340006962726174696F6E00526573657420588A
:10535000595A2063616C6962722E0050494420637F
:10536000616C6962726174696F6E00426564206C81
:105370006576656C20636F7272656374004D65734A
:105380006820426564204C6576656C696E670043F1
:10539000616C696272617465205A0043616C696274
:1053A000726174652058595A0053656C6674657350
:1053B000742020202020202020200057697A61724C
:1053C00064004C6F616420616C6C00456A656374B5
:1053D0002066696C616D656E7400506C6561736503
:1053E0002070756C6C206F75742066696C616D65DA
:1053F0006E7420696D6D6564696174656C790055C2
:105400006E6C6F6164696E672066696C616D656E54
:105410007400526573756D696E67207072696E7481
:105420000052657365740052656E616D6500466972
:10543000727374206C617965722063616C2E005305
:10544000656C65637400537465656C20736865658D
:10545000747300536865657400537570706F72746F
:10546000004661696C207374617473204D4D550062
:105470004661696C2073746174730053746174695C
:10548000737469637320200043616C696272617494
:10549000696F6E004175746F4C6F61642066696C52
:1054A000616D656E7400456A6563742066696C6140
:1054B0006D656E7400556E6C6F61642066696C6119
:1054C0006D656E74004C6F616420746F206E6F7A2E
:1054D0007A6C65004C6F61642066696C616D656E05
:1054E00074004E6F205344206361726400507269EF
:1054F0006E742066726F6D20534400526573756D33
:1055000065207072696E74005061757365207072E9
:10551000696E7400507265686561740054756E65DB
:10552000004C6976652061646A757374205A00497D
:105530006E666F2073637265656E004D343400478C
:1055400032382057004739390044697361626C650D
:10555000206661726D206D6F64653F00252D392EC8
:1055600039535B002563252D31382E31387325637F
:10557000004661726D206E756D62657200627573B2
:10558000793A2070617573656420666F7220696E68
:1055900070757400627573793A2070617573656413
:1055A00020666F72207573657200627573793A2098
:1055B00070726F63657373696E670000007F4300EC
:1055C0008054430000524300000000000080C09A55
:1055D00099193E00000000000080C09A99193E0011
:1055E00000A0400000A0400000004025336420736C
:1055F0007465703D253264206D73636E743D25348F
:10560000640A0000007F43008058439AD95143FF49
:10561000FFFF67636F64655F4D37303120626567F8
:10562000696E0A002F2F20616374696F6E3A706192
:105630007573650025533A202534642052504D0A75
:1056400025533A20202534642052504D0A005072D0
:10565000696E742046414E004E6F7A7A6C65204622
:10566000414E00546F74616C004C61737420707211
:10567000696E74004D4D55206C6F616420666169E0
:105680006C73004D4D55206661696C73004C6173FD
:1056900074207072696E74206661696C75726573CE
:1056A000004D4D5520706F776572206661696C738F
:1056B000004D4D55206C6F6164206661696C73000C
:1056C0004D4D55206661696C7300546F74616C2098
:1056D0006661696C75726573004372617368004638
:1056E000696C616D2E2072756E6F75747300506FEA
:1056F000776572206661696C7572657300546F74AA
:10570000616C206661696C757265730043726173C8
:10571000680046696C616D2E2072756E6F757473CA
:1057200000506F776572206661696C7572657300F1
:105730004C617374207072696E74206661696C7557
:1057400072657300546F74616C004C6173742070E7
:1057500072696E7400416D6269656E7400426564C1
:10576000004E6F7A7A6C650042656C7420737461C8
:1057700074757300436F6F6C646F776E00566F6C57
:1057800074616765730054656D70657261747572DC
:1057900065730042656C7420737461747573005393
:1057A000656E736F7220696E666F004578747275EE
:1057B00064657220696E666F0058595A2063616C87
:1057C0002E2064657461696C7300756E6B6E6F7703
:1057D0006E004D4D553220636F6E6E656374656467
:1057E00000446174653A00686F77746F2E7072754B
:1057F000736133642E636F6D00666F72756D2E700A
:105800007275736133642E636F6D007072757361AE
:1058100033642E636F6D00746F20756E6C6F6164FE
:105820002066696C616D656E7400746F206C6F61C9
:10583000642066696C616D656E7400507265737387
:1058400020746865206B6E6F62003E43616E636515
:105850006C0050726568656174696E6720746F20B2
:105860006375740050726568656174696E67207451
:105870006F20656A6563740050726568656174695C
:105880006E6720746F20756E6C6F61640050726576
:1058900068656174696E6720746F206C6F61640065
:1058A00025530A2025532020252D33640A20255313
:1058B0002020252D33640025530A20255320202540
:1058C0002D33640A2025532020252D33640A2025FA
:1058D0005320252D33640025530A202553202025ED
:1058E0002D33640A2025532020252D33640A2025DA
:1058F0005320205820252D336420205920252D3376
:10590000640025530A2025532020252D33640A20C6
:1059100025532020252D33640A202553202058208C
:10592000252D336420205920252D33640020255354
:105930003A2020256425630A2050494E44413A20EC
:1059400020202025642563002025533A202020258F
:10595000642563200A2025533A202020202020257A
:10596000642563200A00205057523A20202020202E
:105970002025642E25303164560A204245443A20C1
:10598000202020202025642E253031645600255308
:105990000A20582025640A2059202564004E4F5AB9
:1059A0005A4C45202D20203230302F3000464C45B7
:1059B00058202D20203234302F35300050502020F8
:1059C000202D20203235342F3130300048495053BB
:1059D000202D20203232302F3130300041425320F0
:1059E000202D20203235352F3130300041534120D9
:1059F000202D20203236302F31303500504554478D
:105A000020202D20203233302F383500504C4120BB
:105A1000202D20203231352F3630006E6F7A7A6C8F
:105A200065202D20203230302F30006661726D20CD
:105A300020202D20203230302F383000466C61730A
:105A40006841697220495020416464723A004D4DAA
:105A50005532202020202020204E2F410025642E6A
:105A600025642E25642D2564002046573A00536591
:105A70007020203620323031390045334476366686
:105A8000756C6C0045494E53795F31306100315F70
:105A900037356D6D5F4D4B33002D2D2D2D2D2D2D5B
:105AA0002D2D2D2D2D0020332E382E302D32363831
:105AB00034004669726D776172653A0025642E255F
:105AC000642E25642E2564004D373032004D37306A
:105AD00031004D373032004D3730310022206661C1
