:100000000C9411340C9442340C9442340C944234C9
:100010000C9442340C9464870C9442340D94008206
:100020000C94EF860C9442340C9442340C94423479
:100030000C9442340C9442340D946A1D0D945D88E6
:100040000C9442340C949DA00C9442340C94423491
:100050000C9442340C9442340C9442340D94D40CDD
:100060000C9442340D948F830C9442340C9442349B
:100070000C9442340C9442340C9442340C94423428
:100080000C9442340C9442340C9442340C94423418
:100090000D944B830C9442340C9442340C944234AF
:1000A0000C9442340C9442340D94D5870C94423411
:1000B0000C9442340D94B7870C9442340C9442341F
:1000C0000C9442340C9442340C9442340D942A879C
:1000D0000C9442340C9442340C9442340C944234C8
:1000E0000C944234BC92C5926A9239920992B495AA
:1000F00000931F94B5940B9527955E9575B891BAAA
:1001000061BA56BA4BBA40BA35BAB4BAA4BA0EBA42
:10011000E0B9C4B9F5BFA6BFF5BFF8BF69C098C0C4
:10012000F5BFF5BFB7C042DA45DA34DA38DA3EDA7D
:100130007CDA49DA4DDA53DA57DA5BDA61DA65DA12
:1001400069DA7CDA6FDA73DA77DA03DE08DE0DDE7D
:1001500017DE21DE9ADE2BDE33DE3BDE45DE4FDEB0
:1001600059DE68DE72DE9ADE7CDE86DE90DE24EF0B
:1001700040EF52EF5FEF69EF99EF0EEFAFEFC1EF96
:10018000BDEF0EEFC3EFE0EFF4EF06F0990175015C
:10019000C501FB0155010102E701AD01870187019E
:1001A000850187018501B7016901AB01A1015D01ED
:1001B000B901B3017B015B01E501D701B101EF0199
:1001C000E301F301084AD73B3BCE016E84BCBFFD7F
:1001D000C12F3D6C74319ABD56833DDA3D00C77F17
:1001E00011BED9E4BB4C3E916BAAAABE00000080B0
:1001F0003F05A84CCDB2D44EB93836A9020C50B93F
:10020000918688083CA6AAAA2ABE000000803F0763
:10021000634236B79BD8A71A39685618AEBAAB55A1
:100220008C1D3CB7CC5763BD6DEDFD753EF6177266
:1002300031BF000000803F08000000BE9224491238
:100240003EABAAAA2ABECDCCCC4C3E00000080BE5C
:10025000ABAAAAAA3E00000000BF000000803F0039
:1002600000000000084178D3BB4387D1133D190E2D
:100270003CC3BD4282AD2B3E68EC8276BED98FE195
:10028000A93E4C80EFFFBE01C4FF7F3F000000008D
:1002900000000D94332D0D946F020D940D430D94B9
:1002A000FF420D94A4390D94EF9E0D942B0D0D94E7
:1002B00066020D94EC390D949F6C0D947C6C0D943A
:1002C00071050D94DD2B0D9463140D94163C0D9463
:1002D000183D0D9482420D94EA420D94BF400D9456
:1002E000E53A0D94412D0D94A13B0D94FE0C0D9417
:1002F0003C060D94F8420D949C6C0D941B430D9498
:1003000012330D944F140D94F4400D9473420D94D8
:1003100070420D94523D0D94EF3A0D94CC420D94E1
:10032000AB100D949D3B0D949CB10D94170C0D9446
:1003300078020D94F00C0D94EA3A0D94343C0D942F
:1003400014430D946F6C0D94083E0D94233C0D9452
:10035000E13D0D9408340D94666C0D946A0D0D9476
:10036000C8310D94BA6C0D94996C0D94623C0D9447
:100370007F420D947F6C0D940F310D94782D0D9468
:10038000DF2B0D943B410D9406430D940C0D0D9401
:10039000D7310D94D5420D94AD3B0D9453410D943E
:1003A0000B060D941F000D940C3C0D9423340D94FA
:1003B000B16C0D9422430D9426830D9451310D940C
:1003C000733A0D94C33C0D94D16C0D94A86C0D94AC
:1003D000540D0D940D830D94007B0D945B550D947D
:1003E000CE6C0D94F1420D94DA6C0D9422400D9474
:1003F000DC420D94E3420D94190D0D94822C0D9462
:100400001E2D0D94320D0D9481020D946E406E617F
:100410006E00696E66004E414E494E495459494E30
:1004200046CDCCCC3D0AD7233C17B7D13877CC2B5F
:10043000329595E6241FB14F0A000020410000C804
:100440004200401C4620BCBE4CCA1B0E5AAEC59D85
:100450007400407A10F35A00A0724E18090010A5DB
:10046000D4E80000E87648170000E40B54020000CE
:10047000CA9A3B000000E1F5050000809698000054
:100480000040420F000000A086010000001027007D
:10049000000000E803000000006400000000000A03
:1004A00000000000000100000000002C76D888DC6D
:1004B000674F0823DFC1DFAE59E1B1B796E5E3E44A
:1004C00053C63AE651997696E8E6C28426EB898CC3
:1004D0009B62ED407C6FFCEFBC9C9F40F2BAA56F25
:1004E000A5F490055A2AF75C936B6CF9676DC11BF4
:1004F000FCE0E40D47FEF520E6B500D0ED902E03BC
:1005000000943577050080841E080000204E0A0004
:100510000000C80C333333330F986E12831141EF50
:100520008D2114893BE65516CFFEE6DB18D1844BAE
:10053000381BF77C1D901DA4BBE424203284725E1E
:10054000228100C9F124ECA1E53D276364696E6F47
:1005500070737578585B0025642062797465732028
:100560007772697474656E20746F20454550524FE0
:100570004D20617420616464726573732030782546
:10058000303478004433202D20526561642F577237
:1005900069746520454550524F4D0A00442D312065
:1005A0002D20456E646C657373206C6F6F700A004C
:1005B0005344207072696E74696E67206279746545
:1005C00020004163746976652045787472756465AE
:1005D000723A2000496E76616C69642065787472A5
:1005E00075646572005A204F666673657400556EB7
:1005F0006B6E6F776E20636F6D6D616E643A202253
:10060000004D32303020496E76616C696420657827
:1006100074727564657220007A5F6D61783A2000AB
:100620007A5F6D696E3A2000795F6D61783A2000DB
:10063000795F6D696E3A2000785F6D61783A2000CD
:100640006F70656E005452494747455245440078E3
:100650005F6D696E3A20005265706F7274696E67E3
:1006600020656E6473746F702073746174757300A9
:1006700053494C454E54004E4F524D414C0025536A
:10068000204D4F44453A2050657263656E74206476
:100690006F6E653A20256868643B207072696E74DD
:1006A0002074696D652072656D61696E696E672081
:1006B000696E206D696E733A2025643B2043686142
:1006C0006E676520696E206D696E733A2025640A35
:1006D00000456E642066696C65206C697374004225
:1006E0006567696E2066696C65206C697374000AC1
:1006F00050494E44412074656D7065726174757225
:10070000653A20252E3166205A2073686966742068
:10071000286D6D293A20252E3366000A53746570C2
:100720003A2025642F360A000A537465703A202552
:10073000642F362028736B6970706564290A5049EC
:100740004E44412074656D70657261747572653ACE
:10075000202564205A20736869667420286D6D29ED
:100760003A300A000A5A45524F3A20252E33660A7B
:100770000073746172742074656D70657261747554
:1007800072653A20252E31660A0025642020252E28
:10079000326600255320583A20252E356620593AD6
:1007A00020252E3566205A3A20252E35660A00531C
:1007B0006C6565702E2E2E0045303A25642052500F
:1007C0004D0A50524E303A25642052504D0A0025B1
:1007D0006400416476616E6365204B3D004B206F81
:1007E0007574206F6620616C6C6F77656420726130
:1007F0006E67652100200A200A20004D3232302029
:1008000053256900255346696C616D656E742073CC
:10081000657474696E67733A2044697361626C65CC
:10082000640A00255346696C616D656E74207365BA
:100830007474696E67733A0A25532020204D323054
:10084000302044252E32660A0025535265747261A9
:1008500063743A20533D4C656E67746820286D6D53
:100860002920463A537065656420286D6D2F6D29E7
:10087000205A3A205A4C69667420286D6D290A2541
:10088000532020204D3230372053252E326620460B
:10089000252E3266205A252E32660A25535265636C
:1008A0006F7665723A20533D4578747261206C65AD
:1008B0006E67746820286D6D2920463A537065650F
:1008C0006420286D6D2F6D290A25532020204D327C
:1008D00030382053252E32662046252E32660A25D2
:1008E000534175746F2D526574726163743A20536D
:1008F0003D3020746F2064697361626C652C203117
:1009000020746F20696E74657270726574206578EA
:1009100074727564652D6F6E6C79206D6F7665737A
:10092000206173207265747261637473206F72202A
:100930007265636F7665726965730A25532020209E
:100940004D323039205325640A0025535049442044
:10095000686561746265642073657474696E677339
:100960003A0A25532020204D3330342050252E3292
:10097000662049252E32662044252E32660A00253F
:10098000535049442073657474696E67733A0A253D
:10099000532020204D3330312050252E32662049FF
:1009A000252E32662044252E32660A0025535374C4
:1009B0006570732070657220756E69743A0A2553EC
:1009C00020204D39322058252E32662059252E32CE
:1009D00066205A252E32662045252E32660A25537A
:1009E0005553746570207265736F6C7574696F6EA2
:1009F0003A200A2553204D3335302058256420599C
:100A00002564205A2564204525640A25534D6178C4
:100A1000696D756D20666565647261746573202DFE
:100A2000206E6F726D616C20286D6D2F73293A0AEC
:100A3000255320204D3230332058252E3266205940
:100A4000252E3266205A252E32662045252E326606
:100A50000A25534D6178696D756D20666565647210
:100A600061746573202D20737465616C746820282F
:100A70006D6D2F73293A0A255320204D32303320D3
:100A800058252E32662059252E3266205A252E32C0
:100A9000662045252E32660A25534D6178696D75AD
:100AA0006D20616363656C65726174696F6E202D82
:100AB000206E6F726D616C20286D6D2F7332293A34
:100AC0000A255320204D3230312058256C7520598D
:100AD000256C75205A256C752045256C750A2553A3
:100AE0004D6178696D756D20616363656C657261D8
:100AF00074696F6E202D20737465616C7468202892
:100B00006D6D2F7332293A0A255320204D32303132
:100B10002058256C752059256C75205A256C752038
:100B200045256C750A2553416363656C6572617474
:100B3000696F6E3A20503D7072696E742C20523D80
:100B4000726574726163742C20543D7472617665B1
:100B50006C0A255320204D3230342050252E326629
:100B60002052252E32662054252E32660A25534106
:100B70006476616E636564207661726961626C653A
:100B8000733A20533D4D696E2066656564726174E9
:100B90006520286D6D2F73292C20543D4D696E20E2
:100BA00074726176656C2066656564726174652037
:100BB000286D6D2F73292C20423D6D696E696D750E
:100BC0006D207365676D656E742074696D6520288E
:100BD0006D73292C20583D6D6178696D756D2058B5
:100BE00059206A65726B20286D6D2F73292C202087
:100BF0005A3D6D6178696D756D205A206A65726B1A
:100C000020286D6D2F73292C2020453D6D6178695A
:100C10006D756D2045206A65726B20286D6D2F7390
:100C2000290A255320204D3230352053252E326697
:100C30002054252E32662042252E32662058252E3D
:100C400032662059252E3266205A252E32662045DE
:100C5000252E32660A2553486F6D65206F666673D0
:100C6000657420286D6D293A0A255320204D3230B5
:100C7000362058252E32662059252E3266205A25D8
:100C80002E32660A004625642025640A004D4D5523
:100C9000203C3D2027462564202564270A00504932
:100CA00044204175746F74756E652066696E697352
:100CB000686564212050757420746865206C6173C8
:100CC00074204B702C204B6920616E64204B642093
:100CD000636F6E7374616E74732066726F6D2061E2
:100CE000626F766520696E746F20436F6E66696708
:100CF00075726174696F6E2E6800504944204175A9
:100D0000746F74756E65206661696C65642120740A
:100D1000696D656F75740020403A00543A00423A9C
:100D200000504944204175746F74756E652066618A
:100D3000696C6564212054656D70657261747572AB
:100D40006520746F6F206869676800204B643A20E3
:100D500000204B693A2000204B703A200020436C61
:100D600061737369632050494420002054753A2010
:100D700000204B753A2000206D61783A2000206DEC
:100D8000696E3A200020643A200020626961733A5B
:100D900020004361703A25533A25630A00455854B0
:100DA000454E4445445F4D3230004155544F524505
:100DB000504F52545F504F534954494F4E00415584
:100DC000544F5245504F52545F46414E5300415587
:100DD000544F5245504F52545F54454D5000005AA5
:100DE00030005A3100593000593100583000583124
:100DF00000456E642073746F7073206469616700CE
:100E000044656C6574696F6E206661696C65642CFD
:100E10002046696C653A200046696C652064656C03
:100E2000657465643A004E6F742053442070726993
:100E30006E74696E67005072696E742073617665B6
:100E400064005344207072696E742070617573651C
:100E500064004F4B004241440052414D426F2046D6
:100E6000414E200043524153485F43414E43454C5D
:100E70000043524153485F5245434F564552004349
:100E8000524153485F5245434F5645520022283243
:100E900029004475706C696361746520542D636F1B
:100EA00064652069676E6F7265642E00496E7661B5
:100EB0006C6964205420636F64652E00556E6B6E00
:100EC0006F776E204D20636F64653A202573200A8A
:100ED000002C204D39303720452069676E6F7265D0
:100EE00064006E6F2076616C696420636F6D6D6164
:100EF0006E64002C20002C20002C20006E2F61003E
:100F00002C20002C20002C20006E2F6100503A0075
:100F10005761697420666F722050494E44412074B5
:100F200061726765742074656D7065726174757245
:100F3000653A004155544F004C414E472053454CB3
:100F400020464F5243454400256925250A0025695E
:100F500025250A0022283129003030303030303049
:100F6000302D303030302D303030302D303030308A
:100F70002D3030303030303030303030300020558F
:100F80005549443A00310020455854525544455281
:100F90005F434F554E543A00534B454C45535452C2
:100FA00055444552204D4B335300204D4143484951
:100FB0004E455F545950453A00312E300020626151
:100FC000736564206F6E204D61726C696E204649B6
:100FD000524D574152455F55524C3A687474707384
:100FE0003A2F2F6769746875622E636F6D2F707268
:100FF00075736133642F50727573612D4669726D1C
:10100000776172652050524F544F434F4C5F5645A5
:101010005253494F4E3A004649524D574152455F4F
:101020004E414D453A50727573612D4669726D7728
:1010300061726520004D31313320530020423A0067
:1010400020453A00543A006F6B20006E2F61003F3C
:10105000546F736869626120466C6173684169729C
:10106000204765744950206661696C65640A0025F3
:1010700069206D696E2C2025692073656300496EB7
:1010800076616C6964204D20636F64653A20257336
:10109000200A00556E6B6E6F776E204720636F6479
:1010A000653A202573200A004D65736820626564E7
:1010B000206C6576656C696E67206E6F7420616365
:1010C000746976652E002020000A4D656173757283
:1010D000656420706F696E74733A000A5A207365F4
:1010E00061726368206865696768743A20004E75AC
:1010F0006D20582C593A200050494E4441207072BE
:101100006F62652063616C6962726174696F6E20E1
:10111000737461727400473238205730004E6F206C
:1011200050494E444120746865726D6973746F72E2
:1011300000736574006E6F7A7A6C65004D424C00E6
:1011400046520042656174004C7A004C616E670043
:101150005265760046697200534E20696E76616C66
:10116000696400534E004D323800524553455400D7
:101170004D4D55524553004D32340075766C6F001D
:101180007468780046414E0046414E50494E5453D3
:10119000540050524E0050696E67005052555341F2
:1011A000005345545F43484F505F005345545F53CD
:1011B0005445505F005345545F574156455F0054B6
:1011C0004D435F0043524153485F43414E43454CBA
:1011D0000043524153485F5245434F5645520043E6
:1011E000524153485F44455445435445440043529B
:1011F0004153485F004D3120004D30004D313137B3
:1012000000472D636F646520736C696365642066B5
:101210006F72206120646966666572656E74206C09
:101220006576656C2E20436F6E74696E75653F0040
:10123000472D636F646520736C6963656420666F16
:1012400072206120646966666572656E74206C65E3
:1012500076656C2E20506C656173652072652D7308
:101260006C69636520746865206D6F64656C2061CE
:101270006761696E2E205072696E742063616E63BF
:10128000656C6C65642E00472D636F646520736C1C
:101290006963656420666F722061206E6577657290
:1012A000206669726D776172652E20506C6561737E
:1012B0006520757064617465207468652066697264
:1012C0006D776172652E205072696E742063616E55
:1012D00063656C6C65642E00472D636F64652073D5
:1012E0006C6963656420666F722061206E65776546
:1012F00072206669726D776172652E20436F6E741D
:10130000696E75653F00472D636F646520736C6976
:1013100063656420666F7220612064696666657229
:10132000656E74207072696E746572207479706570
:101330002E20436F6E74696E75653F00472D636F95
:10134000646520736C6963656420666F7220612038
:10135000646966666572656E74207072696E746524
:101360007220747970652E20506C656173652072EF
:10137000652D736C69636520746865206D6F6465A5
:101380006C20616761696E2E205072696E742063F3
:10139000616E63656C6C65642E00507265737320BA
:1013A000746865206B6E6F6220746F207072656860
:1013B000656174206E6F7A7A6C6520616E6420635B
:1013C0006F6E74696E75652E00506C656173652073
:1013D000707265737320746865206B6E6F62207421
:1013E0006F20756E6C6F61642066696C616D656EEF
:1013F000740052656D6F7665206F6C642066696C51
:10140000616D656E7420616E642070726573732007
:10141000746865206B6E6F6220746F2073746172E4
:1014200074206C6F6164696E67206E6577206669F1
:101430006C616D656E742E00616E642070726573F0
:101440007320746865206B6E6F6200496E736572FD
:10145000742066696C616D656E7400436F6C6F72A9
:10146000206E6F7420636F72726563740046696CDE
:10147000616D656E74206E6F74206C6F616465645D
:10148000004368616E67656420636F7272656374A0
:101490006C793F004C6F6164696E6720636F6C6F9D
:1014A00072004368616E676520737563636573736B
:1014B0002100506C65617365206F70656E206964F2
:1014C0006C657220616E642072656D6F7665206652
:1014D000696C616D656E74206D616E75616C6C799F
:1014E0002E005761732066696C616D656E7420759E
:1014F0006E6C6F6164207375636365737366756C7E
:101500003F00506C6561736520757067726164653A
:101510002E004E6577206669726D77617265207660
:10152000657273696F6E20617661696C61626C656A
:101530003A0057616974696E6720666F722050497E
:101540004E44412070726F626520636F6F6C696EEC
:1015500067004372617368206465746563746564D1
:101560002E20526573756D65207072696E743F0030
:1015700043726173682064657465637465642E00EA
:1015800043686F6F73652065787472756465723A2D
:101590000043686F6F73652066696C616D656E747A
:1015A0003A004E6F206D6F76652E00537461626C49
:1015B0006520616D6269656E742074656D70657219
:1015C00061747572652032312D3236432069732083
:1015D0006E65656465642061207269676964207363
:1015E00074616E64206973207265717569726564D7
:1015F0002E00506C656173652072756E2058595AC3
:101600002063616C6962726174696F6E20666972D1
:1016100073742E005761697420666F72207573654C
:10162000722E2E2E003B53006164635F696E6974F5
:10163000000A204F726967696E616C205072757381
:10164000612069330A202020507275736120526531
:1016500073656172636800200A200A200A20004135
:101660006C6C204461746100536572766963652017
:1016700070726570005368697070696E672070726F
:1016800065700053746174697374696373004C61AD
:101690006E67756167650045524153494E47206149
:1016A0006C6C206461746100466163746F727920B0
:1016B00052455345540044495341424C454400452A
:1016C0004E41424C454400202873656E736F722072
:1016D000626F617264207265766973696F6E3A2514
:1016E00053290A004653656E736F722025530049D3
:1016F0004E5434004D4B33534D4D553253004E4FE5
:101700004D4B3353002E014E4F4354554100414C35
:101710005446414E00536570202033203230323120
:1017200000436F6D70696C65643A2000286E6F6EBF
:10173000652C2064656661756C7420636F6E6669E4
:101740006729005365702020332032303231203138
:10175000353A34393A35330020332E31302E302D9E
:101760003434383100737461727400534E207570D4
:1017700064617465206661696C656400534E207510
:1017800070646174656400416E206572726F7220CE
:101790007768696C652077726974696E6720746F09
:1017A0002074686520534420436172642E002055E4
:1017B000706C6F616420696E2070726F6772657300
:1017C0007300205A3A0020593A0020583A004352F8
:1017D0004153485F44455445435445445859004398
:1017E000524153485F44455445435445445900438E
:1017F000524153485F444554454354454458004D75
:1018000032390045787465726E616C2053504920FE
:10181000666C6173680A58464C41534820697320CE
:101820006E6F74207265732D0A706F6E64696E67D7
:101830002E204C616E67756167650A737769746302
:101840006820756E617661696C61626C652E00530B
:101850004B454C4553545255444552204D4B335300
:10186000204F4B2E00437261736844657465637446
:101870002044495341424C454400437261736844DB
:10188000657465637420454E41424C4544210045D2
:10189000787472756465722066616E207479706503
:1018A0003A200058464C415348206E6F74207265B0
:1018B00073706F6E64696E672E002020506C616ECD
:1018C0006E657242756666657242797465733A2018
:1018D000002046726565204D656D6F72793A200073
:1018E000207C20417574686F723A2000204C61732F
:1018F0007420557064617465643A200020536F66EB
:101900007477617265205265736574002057617445
:101910006368646F67205265736574002042726F5C
:10192000776E206F7574205265736574002045785A
:101930007465726E616C20526573657400506F77C8
:1019400065725570006572726F7220777269746982
:101950006E6720746F2066696C6500656E647374D1
:101960006F7073206869743A2000446F6E6520734D
:101970006176696E672066696C652E006F6B004D3D
:101980004B3353206669726D7761726520646574AC
:101990006563746564206F6E204D4B3320707269EF
:1019A0006E74657200426C61636B6F7574206F6357
:1019B0006375727265642E205265636F766572205E
:1019C0007072696E743F0053656C66746573742041
:1019D00077696C6C2062652072756E20746F20636D
:1019E000616C6962726174652061636375726174B0
:1019F000652073656E736F726C65737320726568B2
:101A00006F6D696E672E005468657265206973207A
:101A10007374696C6C2061206E65656420746F203E
:101A20006D616B65205A2063616C696272617469D3
:101A30006F6E2E20506C6561736520666F6C6C6FE5
:101A40007720746865206D616E75616C2C20636809
:101A50006170746572204669727374207374657066
:101A6000732C2073656374696F6E2043616C6962C7
:101A7000726174696F6E20666C6F772E00507269A8
:101A80006E74657220686173206E6F742062656584
:101A90006E2063616C69627261746564207965743B
:101AA0002E20506C6561736520666F6C6C6F7720BB
:101AB000746865206D616E75616C2C20636861705F
:101AC0007465722046697273742073746570732C28
:101AD0002073656374696F6E2043616C6962726123
:101AE00074696F6E20666C6F772E004F6C64207384
:101AF000657474696E677320666F756E642E20441A
:101B0000656661756C74205049442C20457374657A
:101B10007073206574632E2077696C6C2062652079
:101B20007365742E005761726E696E673A20626F3A
:101B30007468207072696E746572207479706520A3
:101B4000616E64206D6F74686572626F617264208B
:101B500074797065206368616E6765642E005761F3
:101B6000726E696E673A207072696E746572207465
:101B7000797065206368616E6765642E00576172D5
:101B80006E696E673A206D6F74686572626F61721C
:101B9000642074797065206368616E6765642E00E7
:101BA00058595A2063616C6962726174696F6E2062
:101BB000616C6C2072696768742E20536B657720A6
:101BC00077696C6C20626520636F727265637465FF
:101BD00064206175746F6D61746963616C6C792EDA
:101BE0000058595A2063616C6962726174696F6E42
:101BF00020616C6C2072696768742E20582F592000
:101C0000617865732061726520736C696768746CB4
:101C10007920736B657765642E20476F6F64206A47
:101C20006F62210058595A2063616C696272617455
:101C3000696F6E206F6B2E20582F59206178657365
:101C4000206172652070657270656E646963756C81
:101C500061722E20436F6E67726174756C61746976
:101C60006F6E73210058595A2063616C696272610A
:101C700074696F6E206661696C65642E20526967B5
:101C800068742066726F6E742063616C6962726141
:101C900074696F6E20706F696E74206E6F7420723D
:101CA0006561636861626C652E0058595A206361F2
:101CB0006C6962726174696F6E206661696C6564DB
:101CC0002E2046726F6E742063616C69627261745B
:101CD000696F6E20706F696E7473206E6F742072FE
:101CE0006561636861626C652E0058595A206361B2
:101CF0006C6962726174696F6E206661696C65649B
:101D00002E20506C6561736520636F6E73756C7403
:101D100020746865206D616E75616C2E0058595A8B
:101D20002063616C6962726174696F6E20636F6DAC
:101D300070726F6D697365642E20526967687420D4
:101D400066726F6E742063616C6962726174696F30
:101D50006E20706F696E74206E6F7420726561639F
:101D60006861626C652E0058595A2063616C696223
:101D7000726174696F6E20636F6D70726F6D6973DD
:101D800065642E2046726F6E742063616C696272A6
:101D90006174696F6E20706F696E7473206E6F74FA
:101DA00020726561636861626C652E0058595A2023
:101DB00063616C6962726174696F6E206661696CDF
:101DC00065642E204265642063616C69627261748F
:101DD000696F6E20706F696E7420776173206E6F0B
:101DE0007420666F756E642E00506C65617365209B
:101DF000706C61636520737465656C2073686565DC
:101E000074206F6E20686561746265642E00446999
:101E10007374616E6365206265747765656E2074A6
:101E20006970206F6620746865206E6F7A7A6C65C1
:101E300020616E6420746865206265642073757229
:101E40006661636520686173206E6F7420626565EA
:101E50006E20736574207965742E20506C656173F3
:101E60006520666F6C6C6F7720746865206D616E9D
:101E700075616C2C206368617074657220466972AC
:101E800073742073746570732C2073656374696F49
:101E90006E204669727374206C617965722063618B
:101EA0006C6962726174696F6E2E00506C6163655B
:101EB0002061207368656574206F662070617065AD
:101EC0007220756E64657220746865206E6F7A7A10
:101ED0006C6520647572696E672074686520636143
:101EE0006C6962726174696F6E206F6620666972D8
:101EF0007374203420706F696E74732E20496620CD
:101F0000746865206E6F7A7A6C65206361746368AB
:101F10006573207468652070617065722C20706F25
:101F2000776572206F666620746865207072696ECE
:101F300074657220696D6D6564696174656C792E74
:101F400000506C656173652072656D6F76652073F6
:101F50007465656C2073686565742066726F6D20AA
:101F6000686561746265642E0049732073746565E9
:101F70006C207368656574206F6E2068656174629B
:101F800065643F00536561726368696E67206265CE
:101F9000642063616C6962726174696F6E20706F36
:101FA000696E74004D6561737572696E6720726544
:101FB000666572656E636520686569676874206F21
:101FC000662063616C6962726174696F6E20706F04
:101FD000696E7400506C6561736520636C65616E39
:101FE00020746865206E6F7A7A6C6520666F722047
:101FF00063616C6962726174696F6E2E20436C69F3
:10200000636B207768656E20646F6E652E00417586
:10201000746F20686F6D65004D65617375726564DE
:1020200020736B6577733A2025662025660A004683
:10203000697474696E67206661696C6564203D3EF1
:102040002063616C6962726174696F6E2066616998
:102050006C65642E0A0043616C6962726174696F19
:102060006E20737563636573732E0A00416C6C2078
:10207000342063616C6962726174696F6E20706F85
:10208000696E747320666F756E642E0A00312F348A
:1020900000312F3400312F390078797A63616C5F19
:1020A0006D656173737572655F656E7465720A0044
:1020B00078797A63616C5F73706972616C382063E0
:1020C000783D25642063793D2564207A303D256480
:1020D00020647A3D2564207261646975733D2564CE
:1020E0002061643D25640A0078797A63616C5F73CE
:1020F00065617263685A206E6F207369676E616CE8
:102100000A20783D256C6420793D256C64207A3D59
:10211000256C640A00204F4E2D5349474E414C20F8
:10212000617420783D256420793D2564207A3D2521
:10213000642061643D25640A0078797A63616C5F8C
:102140007365617263685A20783D256C6420793D1F
:10215000256C64207A3D256C640A0025640A0053CE
:1021600063616E20636F756E74646F776E3A2000E2
:102170000A002530327800205B25662025665D2028
:102180006D6D207061747465726E2063656E746528
:10219000720A00205B25662025665D5B25665D2052
:1021A0006D6D20646976657267656E63650A00000F
:1021B00000F000F801FC03FE07FE07FE07FE07FC27
:1021C00003F801F000000000000000F000F801FC3E
:1021D00003FC03FC03FC03F801F00000000000789E
:1021E000797A63616C5F6D656173737572655F6C3D
:1021F000656176650A00203C20005741524E494EE9
:10220000473A2046726F6E7420706F696E74206E4C
:102210006F7420726561636861626C652E2059205D
:10222000636F6F7264696E6174653A00000000400C
:10223000410000C04000005C430000C04000005C62
:102240004300004643000040410000464325642F00
:102250003400497465726174696F6E3A200043619D
:102260006C6962726174696F6E206661696C656425
:102270002120436865636B2074686520617865730D
:1022800020616E642072756E20616761696E2E0038
:102290005A206C6976652061646A757374206F7565
:1022A00074206F662072616E67652E2053657474AA
:1022B000696E6720746F20302E20436C69636B2039
:1022C000746F20636F6E74696E75652E005A206C92
:1022D0006976652061646A757374206F7574206F08
:1022E000662072616E67652E2053657474696E672F
:1022F00020746F20300020423A0020453A00543AC2
:1023000000494E5434007265636F7665725F6D618B
:102310006368696E655F73746174655F6166746537
:10232000725F706F7765725F70616E69632C206990
:102330006E697469616C2000505255534120757666
:102340006C6F004734205330004D32362053256CDB
:1023500075004D3130362053004D32323020532538
:102360006400473120462564004D38320047393239
:102370002045004731204525302E33662046323730
:102380003030004D323034205025662052256620F2
:10239000542566004731205A256600505255534156
:1023A000204D424C20563100473120582566205997
:1023B000256620463330303000506F736974696F82
:1023C0006E20726561642066726F6D206565707243
:1023D0006F6D3A004D3233202573002E67636F0016
:1023E0002C20666565646D756C7469706C793A0053
:1023F00046656564726174653A0047312045252D54
:10240000302E336620463237303000473120453594
:102410002046313230004D3833004D3130392053B1
:102420002564004D31393020532564004D3130345E
:102430002053256400473238205820590047312066
:102440005A252E33662046383030004731205A2531
:102450002D302E33662046252D302E336600473131
:102460002045252D302E3366204632373030004D42
:10247000383300504F5745522050414E4943204475
:10248000455445435445440055564C4F202D206536
:102490006E642025640A0055564C4F5F54494E59CE
:1024A000202D20656E642025640A00776F726C64AD
:1024B00020636F6F7264696E617465733A202825BA
:1024C0002E33662C20252E33662C20252E336629AC
:1024D0000A0043757272656E7420706F73205A5FC4
:1024E000415849533A252E33660A43757272656E18
:1024F0007420706F7320455F415849533A252E333D
:10250000660A0041667465722077616974696E6756
:1025100020666F722074656D703A0A437572726539
:102520006E7420706F7320585F415849533A252EBE
:1025300033660A43757272656E7420706F7320592A
:102540005F415849533A252E33660A005265636F3E
:10255000766572696E67207072696E7400506C6582
:102560006173652077616974002563252D2E3136EE
:102570005320002563252E3135533A2573253364C6
:1025800000252D32302E3230530A00457872656DA9
:1025900065207370616E206F6620746865205A2014
:1025A00076616C756573210025642F39006F6B0AA5
:1025B0000073746172740A004D4D55322066697261
:1025C0006D776172652076657273696F6E20696ED2
:1025D00076616C69642E205265717569726564203C
:1025E00076657273696F6E3A206275696C64206EED
:1025F000756D626572202564206F72206869676856
:1026000065722E004D4D55203D3E20276F6B270AE9
:10261000004D4D55203D3E20276F6B270A00256455
:10262000004D4D55203D3E20276F6B272C207265B5
:1026300073756D65207072696E740A004D4D55207A
:10264000726574727920617474656D7074206E7235
:102650002E2025640A004D4D55203D3E20276F6BEE
:10266000270A00410A004D4D55203C3D20274127B7
:102670000A004D363030004D363030204155544F31
:10268000002568687500410A004D4D55203C3D20ED
:102690002741270A0050300A004D25640A004D4D9D
:1026A00055203C3D20274D2564270A0057300A005D
:1026B0004D4D55203C3D20275730270A0053330A03
:1026C000004D4D55203C3D20275333270A00523002
:1026D0000A004D4D55203C3D20275230270A004B23
:1026E00025640A004D4D55203C3D20274B2564278D
:1026F0000A004525640A004D4D55203C3D202745E4
:102700002564270A0055300A004D4D55203C3D20D8
:10271000275530270A0043300A004D4D55203C3DD7
:1027200020274330270A004C25640A004D4D5520D0
:102730003C3D20274C2564270A005425640A004D9F
:102740004D55203C3D2027542564270A004D4D550A
:10275000202D20454E41424C4544002568687500B7
:1027600050300A004D310A004D4D55203C3D202788
:102770004D31270050300A004D4D5520766572735B
:10278000696F6E2076616C6964004D4D55203D3E49
:10279000202725646F6B270A0025750053320A0035
:1027A0004D4D55203C3D2027533227004D4D55209F
:1027B0003D3E202725646F6B270A002575004D4D8F
:1027C00055206E6F7420726573706F6E64696E67EA
:1027D000202D2044495341424C45440053310A00C6
:1027E0004D4D55203C3D2027533127004D4D552060
:1027F0003D3E202773746172742700426564206C2B
:102800006576656C696E67206661696C65642E200B
:1028100053656E736F72206469646E2774207472DE
:1028200069676765722E20446562726973206F6EF6
:10283000206E6F7A7A6C653F2057616974696E67A4
:1028400020666F722072657365742E00506C65612E
:10285000736520757064617465206669726D776157
:10286000726520696E20796F7572204D4D55322E3C
:102870002057616974696E6720666F722072657394
:1028800065742E00312F390024F4D43050C38E20CB
:10289000C2A24017828B7011127A910D816CD90AF5
:1028A000A861E108C7586607615143061E4B5D05E4
:1028B000C145A7041A411104093D98037139310338
:1028C0004036DB0265339102D4305402802E1D0263
:1028D000632CEE01752AC501B028A00110278101E3
:1028E0008F2564012B244B01E0223401AC211F0110
:1028F0008D200D01801FFC00841EED00971DDF0060
:10290000B81CD200E61BC600201BBC00641AB20033
:10291000B219A8000A19A0006A189900D1179100ED
:1029200040178B00B516840031167E00B315790070
:102930003A157300C7146F0058146A00EE1366004E
:102940008813630025135E00C7125B006C125700EA
:1029500015125400C111510070114F0021114B008C
:10296000D61049008D104700461044000210420066
:10297000C00F4000800F3E00420F3C00060F3B009E
:10298000CB0E3800930E37005C0E3500270E340056
:10299000F30D3200C10D3100900D3000600D2E009E
:1029A000320D2D00050D2C00D90C2B00AE0C29008A
:1029B000850C29005C0C2700350C27000E0C260026
:1029C000E80B2400C40B2400A00B23007D0B230084
:1029D0005A0B2100390B2100180B2000F80A1F00A8
:1029E000D90A1E00BB0A1E009D0A1D00800A1D0098
:1029F000630A1C00470A1B002C0A1B00110A1A005C
:102A0000F7091A00DD091900C4091900AB091900FA
:102A1000920917007B091800630917004C0916007A
:102A200036091600200916000A091500F5081500D8
:102A3000E0081400CC081400B8081400A40814001E
:102A4000900813007D0812006B081300580812004C
:102A50004608120034081100230811001208110062
:102A600001081100F0071000E0071000D007100067
:102A7000C0071000B0070F00A107100091070E005B
:102A800083070F0074070F0065070E0057070E003D
:102A900049070E003B070D002E070E0020070D0012
:102AA00013070D0006070D00F9060C00ED060D00DA
:102AB000E0060C00D4060C00C8060C00BC060C0096
:102AC000B0060C00A4060B0099060C008D060B0046
:102AD00082060B0077060B006C060B0061060A00ED
:102AE00057060B004C060A0042060A0038060A0088
:102AF0002E060A0024060A001A060A00100609001B
:102B000007060A00FD050900F4050900EB050900A8
:102B1000E2050900D9050900D0050900C70509002B
:102B2000BE050900B5050800AD050800A5050900AA
:102B30009C050800940508008C0508008405080021
:102B40007C050800740508006C0507006505080091
:102B50005D050700560508004E05070047050700FC
:102B60004005080038050700310507002A05070061
:102B7000230507001C050600160507000F050700C2
:102B80000805060002050700FB040600F50407001F
:102B9000EE040600E8040600E2040700DB04060079
:102BA000D5040600CF040600C9040600C3040600CD
:102BB000BD040600B7040600B1040500AC0406001D
:102BC000A6040600A00405009B0406009504050069
:102BD000900406008A0405008504050080040600B0
:102BE0007A04050075040500700405006B040500F7
:102BF00066040500610405005C0405005704050037
:102C0000520405004D040500480405004304050076
:102C10003E0404003A0405003504050030040400B5
:102C20002C04050027040400230405001E040400EE
:102C30001A04040016040500110404000D04040025
:102C4000090405000404040000040400FC0304005B
:102C5000F8030400F4030400F0030400EC03040090
:102C6000E8030400E4030400E0030400DC030400C0
:102C7000D8030400D4030400D0030400CC030400F0
:102C8000C8030300C503030024F404D9201BC40CAB
:102C90005C0E9804C4095F0265077101F405F90030
:102CA000FB04B30048048700C103690058035500C2
:102CB00003034500BE023A008402310053022A0099
:102CC0002902250004022000E4011C00C8011900AB
:102CD000AF01170098011400840113007101100066
:102CE0006101100051010E0043010D0036010B007F
:102CF0002B010B0020010B00150109000C0109003C
:102D000003010800FB000800F3000800EB000700C7
:102D1000E4000600DE000600D8000600D20006002F
:102D2000CC000500C7000500C2000500BD0004007E
:102D3000B9000400B5000400B1000400AD000400B7
:102D4000A9000400A5000300A20003009F000400E6
:102D50009B0003009800030095000200930003000D
:102D6000900003008D0002008B0003008800020029
:102D70008600020084000300810002007F00020040
:102D80007D0002007B000200790002007700010054
:102D9000760002007400020072000100710002005F
:102DA0006F0002006D0001006C0002006A0001006B
:102DB0006900020067000100660001006500010073
:102DC0006400020062000100610001006000010077
:102DD0005F0002005D0001005C0001005B0001007B
:102DE0005A0001005900010058000100570001007D
:102DF000560001005500010054000100530000007E
:102E00005300010052000100510001005000010078
:102E10004F0001004E0000004E0001004D00010077
:102E20004C0001004B0000004B0001004A00010073
:102E3000490001004800000048000100470001006F
:102E4000460000004600010045000000450001006A
:102E50004400010043000000430001004200000064
:102E6000420001004100000041000100400001005B
:102E70003F0000003F0001003E0000003E00010056
:102E80003D0000003D0001003C0000003C0000004F
:102E90003C0001003B0000003B0001003A00000044
:102EA0003A0001003900000039000100380000003C
:102EB0003800000038000100370000003700010032
:102EC000360000003600000036000100350000002A
:102ED000350000003500010034000000340000001F
:102EE0003400010033000000330000003300010013
:102EF000320000003200000032000100310000000A
:102F000031000000310001003000000030000000FE
:102F1000300001002F0000002F0000002F000000F3
:102F20002F0001002E0000002E0000002E000100E6
:102F30002D0000002D0000002D0000002D000100DC
:102F40002C0000002C0000002C0000002C000100D0
:102F50002B0000002B0000002B0000002B000100C4
:102F60002A0000002A0000002A0000002A000100B8
:102F700029000000290000002900000029000000AD
:102F8000290001002800000028000000280000009F
:102F90002800000028000100270000002700000092
:102FA0002700000027000000270001002600000085
:102FB0002600000026000000260000002600010078
:102FC000250000002500000025000000250000006D
:102FD000250000002500010024000000240000005E
:102FE0002400000024000000240001002300000051
:102FF0002300000023000000230000002300000045
:103000002300000023000100220000002200000035
:103010002200000022000000220000002200010027
:10302000210000002100000021000000210000001C
:10303000210000002100000021000100200000000C
:103040002000000020000000200000002000000000
:103050002000000020000000200001001F000000F0
:103060001F0000001F0000001F0000001F000000E4
:103070001F0000001F0001001E0000001E000000D5
:103080001E0000001E00000054656D702E2063615C
:103090006C6962726174696F6E0052657365742049
:1030A00058595A2063616C6962722E00504944205D
:1030B00063616C6962726174696F6E00426564205D
:1030C0006C6576656C20636F7272656374004D6524
:1030D000736820426564204C6576656C696E670094
:1030E00043616C696272617465205A0043616C6966
:1030F00062726174652058595A0053656C66746534
:1031000073740042656C7420746573740057697A37
:10311000617264004C6F616420616C6C00506C657E
:103120006173652070756C6C206F75742066696CB6
:10313000616D656E7420696D6D6564696174656C3F
:103140007900556E6C6F6164696E672066696C61A9
:103150006D656E740052657365740052656E616DC5
:1031600065004669727374206C61796572206361D1
:103170006C2E0053656C65637400537465656C2038
:1031800073686565747300537570706F7274004670
:1031900061696C207374617473204D4D55004661F4
:1031A000696C20737461747300537461746973740F
:1031B0006963730043616C6962726174696F6E0068
:1031C0004175746F4C6F61642066696C616D656EEA
:1031D00074004375742066696C616D656E7400459A
:1031E0006A6563742066696C616D656E7400556E06
:1031F0006C6F61642066696C616D656E74004C6F04
:10320000616420746F206E6F7A7A6C65004C6F6118
:10321000642066696C616D656E74004E6F20534466
:103220002063617264005072696E742066726F6D03
:1032300020534400526573756D65207072696E7419
:10324000005061757365207072696E74005072650C
:10325000686561740054756E65004C69766520611F
:10326000646A757374205A00496E666F20736372C6
:1032700065656E0046696E697368696E67206D6F7B
:1032800076656D656E7473004272696768746E6509
:103290007373004173736973740053696C656E7462
:1032A000004F6E6365004C6F756400536F756E64FC
:1032B000004D4D55204D6F64650043726173682069
:1032C0006465742E00537465616C7468004E6F728F
:1032D0006D616C0046616E7320636865636B0050BE
:1032E0006175736500436F6E742E00465320416311
:1032F00074696F6E0046696C2E2073656E736F7211
:10330000004368616E67652066696C616D656E7407
:1033100000466C6F77005370656564004D3434006F
:10332000473238205700200A200A20004739390048
:1033300044697361626C65206661726D206D6F64B3
:10334000653F004D363030004572723A2050524988
:103350004E542046414E204552524F520045727203
:103360003A20455854522E2046414E204552524F45
:1033700052002F2F20616374696F6E3A706175730C
:103380006564002F2F20616374696F6E3A726573F4
:10339000756D6564002F2F20616374696F6E3A72DA
:1033A0006573756D650047312058352E30204534E2
:1033B0002E302046313030302E30004731205A3008
:1033C0002E32302046313030302E300047312058F8
:1033D00035352E30204532352046313430302E30D0
:1033E00000473120592D322E302046313030302EDA
:1033F0003000473120583234302E30204532352EBF
:1034000030202046323230302E30004739322045CD
:10341000302E30004731205A302E332046313030A4
:10342000302E30004731205835352E302045382E8B
:10343000302046323030302E300047312058352E83
:1034400030204533322E302046313830302E300097
:103450004731205835352E30204533322E30204626
:10346000313037332E300047312046343030300091
:103470004D323034205331303030004731205A350E
:103480002046373230302E30303000473120452D45
:10349000312E35303030302046323130302E303021
:1034A000303030004D38330047393000473231007A
:1034B0004739322045302E300047312058353020F2
:1034C0005935352045332E363237373300473120D2
:1034D00058323030205935352045302E3439333884
:1034E00036004731205832303020593735204533A7
:1034F0002E36323737330047312058353020593790
:10350000352045302E343933383600473120583590
:1035100030205939352045332E363237373300477E
:10352000312058323030205939352045302E343949
:103530003338360047312058323030205931313558
:103540002045332E36323737330047312058353057
:1035500020593131352045302E3439333836004743
:10356000312058353020593133352045332E36320D
:103570003737330047312058323030205931333516
:103580002045302E3636313734004731205832301E
:103590003020593135352045322E36323737330019
:1035A00047312058313030205931353520453200EF
:1035B00047312058373520593135352045322E35A1
:1035C000004731204631303830004731205A302E04
:1035D0003135302046373230302E303030004731F0
:1035E00020583530205931353500473932204530A3
:1035F0002E3000473238004D313039004D313930EE
:10360000004D31303700726573756C742076616CD3
:1036100075653A2025640A0020693D2532642063DF
:103620006E743D2532642076616C3D2532640A005B
:10363000636C7573746572733A0020693D2532645A
:1036400020737465703D2532640A00736F7274656F
:10365000642073616D706C65733A00252D377300BB
:103660003A200025642F3600252D32305300203AB1
:103670002000252D32307300542564004731205A34
:10368000302E342046313030302E30004731205932
:103690002D332E302046313030302E30004D38332F
:1036A00000473120583130302E30204531322E3510
:1036B0002046313030302E30004731205836302E01
:1036C000302045392E302046313030302E300050F9
:1036D000343A34243414340B34F233E133CC33BB76
:1036E00033A633B034AC34A834A4348B347B347078
:1036F000346734473120583530205933352045253B
:103700002D2E336600DE35CA35C135B035A0358A79
:103710003574355F354A3534351F350B35F734E2AE
:1037200034CD34B934496E76616C696420504944B3
:103730002063616C2E20726573756C74732E204E3D
:103740006F742073746F72656420746F20454550E8
:10375000524F4D2E004D353030004731205A313513
:103760002046313530300047393100473120583557
:103770003020593139302045302046373030300044
:10378000473930004D3834004D3730322043004740
:1037900031205831302059313830204634303030E3
:1037A000004731205A31302046313330302E30300E
:1037B00030004D313430205330004D3130342053FF
:1037C0003000473120452D302E30373530302046FF
:1037D000323130302E3030303030004D3130370023
:1037E0004D313137204669727374206C617965728E
:1037F0002063616C2E00526573756D696E67207071
:1038000072696E740050494E444120486561746984
:103810006E670043616C6962726174696F6E2064E7
:103820006F6E650043616C6962726174696E6720D6
:103830005A0042656420646F6E65004265642048EA
:10384000656174696E670048656174696E672064BC
:103850006F6E652E0048656174696E67005049445B
:103860002063616C2E2066696E6973686564005020
:1038700049442063616C2E005072696E742070613F
:10388000757365640025632533642F256425630003
:103890005A25362E32662563005A2020202D2D2DE4
:1038A000200025632533642525002D2D2D0025338B
:1038B000686864002533532533732525005553422A
:1038C0000020202000205344002025753E2575004F
:1038D000203F3E257500204625750020463F0020EC
:1038E00046524D200025632D2D3A2D2D20200025F8
:1038F00063253375682025632563002563253032F1
:10390000753A253032752563256300773235783274
:1039100030636C5F63666D0A0077323578323063EE
:103920006C5F656E7465720A0073746172740A006C
:1039300020746F6F206C6F6E67206578747275737A
:10394000696F6E2070726576656E746564002063C1
:103950006F6C6420657874727573696F6E20707215
:103960006576656E746564000000000000110A044D
:103970005052555341334446570000002100240063
:1039800027002A002D00300033000101000004014F
:1039900007010A0100002200250028002B002E004C
:1039A0003100340002010000050108010B01000094
:1039B00020002300260029002C002F0032000001E7
:1039C00000000301060109010505050507050808B2
:1039D0000808020202020A0A080804040404010199
:1039E00001010101010103030303030303030407AE
:1039F00007070C0C0C0C0C0C0C0C02020202060645
:103A00000606060606060B0B0B0B0B0B0B0B07072C
:103A10000A0A0A0A0A0A050505040404080801023C
:103A200010202008081020401020408002010201D0
:103A30000804020101020408102040808040201088
:103A400008040201800402018040201008040201E1
:103A50000804020101020408102040800102040849
:103A6000102040801008040880102040044080107E
:103A70002040048000000A0B02090C0D0E08070309
:103A80000401000000000000000000000000000031
:103A90000000000000000000000000000000000026
:103AA00012111000000000000000000000000000E3
:103AB0000000000000000000000000000000000006
:103AC0000000000000000000000053442063617209
:103AD000642072656C656173656400452D636F6F6A
:103AE0006C206D6F646500414C5446414E20646506
:103AF000742E004572726F72202D20737461746988
:103B000063206D656D6F72792068617320626565F1
:103B10006E206F7665727772697474656E004361AA
:103B200072642072656D6F766564004F6E004F663B
:103B300066004261636B005072696E746572206E3C
:103B40006F7A7A6C65206469616D65746572206452
:103B50006966666572732066726F6D207468652091
:103B6000472D636F64652E20506C6561736520631B
:103B70006865636B207468652076616C7565206983
:103B80006E2073657474696E67732E205072696E4F
:103B9000742063616E63656C6C65642E005072699D
:103BA0006E746572206E6F7A7A6C65206469616DDF
:103BB0006574657220646966666572732066726FEB
:103BC0006D2074686520472D636F64652E20436FF8
:103BD0006E74696E75653F0054656D7065726174D1
:103BE0007572652063616C6962726174696F6E20C1
:103BF0006661696C65640054656D706572617475A9
:103C000072652063616C6962726174696F6E2069AC
:103C1000732066696E697368656420616E642061F3
:103C200063746976652E2054656D702E2063616C17
:103C30006962726174696F6E2063616E20626520D3
:103C400064697361626C656420696E206D656E7570
:103C50002053657474696E67732D3E54656D702EC4
:103C60002063616C2E0046696C2E2073656E736F45
:103C700072004578747275646572004D6F766520C8
:103C80005A004D6F76652059004D6F7665205800BB
:103C9000437261736820646574656374696F6E2034
:103CA00063616E0A6265207475726E6564206F6E62
:103CB000206F6E6C7920696E0A4E6F726D616C2098
:103CC0006D6F6465005741524E494E473A0A437240
:103CD00061736820646574656374696F6E0A6469F2
:103CE0007361626C656420696E0A537465616C74FB
:103CF00068206D6F6465004175746F6C6F616469F5
:103D00006E672066696C616D656E742061766169AD
:103D10006C61626C65206F6E6C79207768656E20CF
:103D200066696C616D656E742073656E736F722069
:103D30006973207475726E6564206F6E2E2E2E006E
:103D40004552524F523A2046696C616D656E74203F
:103D500073656E736F72206973206E6F7420726565
:103D600073706F6E64696E672C20706C656173652B
:103D700020636865636B20636F6E6E656374696F43
:103D80006E2E004D6F6465206368616E6765206903
:103D90006E2070726F67726573732E2E2E004361F2
:103DA0006C69627261746500536865657420252EC4
:103DB00037730A5A206F66667365743A20252B3173
:103DC0002E3366206D6D0A2563436F6E74696E75C0
:103DD000650A256353746172742066726F6D207A70
:103DE00065726F0054656D706572617475726520DF
:103DF00063616C6962726174696F6E206661696C7F
:103E000065642E20436F6E74696E756520776974E2
:103E100068207072657373696E6720746865206BC3
:103E20006E6F622E0054656D706572617475726597
:103E30002063616C6962726174696F6E20646F6E79
:103E4000652E20436F6E74696E756520776974689E
:103E5000207072657373696E6720746865206B6E7D
:103E60006F622E007B5B4552523A005D5B465752B3
:103E70003A005D5B54494D3A005D5B464E4D3A0059
:103E80005D5B46454D3A005D5B5043443A005B54F0
:103E900046553A007B5B50524E3A39395D007B5BA8
:103EA00050524E3A355D007B5B50524E3A305D00C9
:103EB0007B5B50524E3A395D007B5B50524E3A3834
:103EC0005D007B5B5245533A305D5B46494C3A009E
:103ED0007B5B5245533A315D5B46494C3A005B503F
:103EE000524E3A005B50464E3A305D005B444941C9
:103EF0003A005D5B4154423A005D5B4154303A0008
:103F00005D5B5354423A005B5354303A00473830BB
:103F1000004D3435004D3435205A004737360020E7
:103F20002030002020310046494E44410050494E87
:103F3000444100506C65617365206C6F616420665C
:103F4000696C616D656E742066697273742E003ED3
:103F500043616E63656C0046696C616D656E7400EB
:103F600053656C6563742066696C616D656E743A47
:103F70000052756E6E696E672057697A61726420AF
:103F800077696C6C2064656C65746520637572720A
:103F9000656E742063616C6962726174696F6E2012
:103FA000726573756C747320616E642073746172D2
:103FB000742066726F6D2074686520626567696E33
:103FC0006E696E672E20436F6E74696E75653F0073
:103FD00050726568656174696E67206E6F7A7A6C7D
:103FE000652E20506C6561736520776169742E00C1
:103FF0004C6F6164696E672066696C616D656E7493
:1040000000506C6561736520696E7365727420661B
:10401000696C616D656E7420696E746F207468657B
:104020002065787472756465722C207468656E20E2
:10403000707265737320746865206B6E6F62207494
:104040006F206C6F61642069742E00506C65617321
:104050006520696E736572742066696C616D656E4A
:104060007420696E746F2074686520666972737459
:104070002074756265206F6620746865204D4D550B
:104080002C207468656E2070726573732074686587
:10409000206B6E6F6220746F206C6F616420697496
:1040A0002E00546865207072696E7465722077699D
:1040B0006C6C207374617274207072696E74696EB6
:1040C000672061207A69672D7A6167206C696E6567
:1040D0002E20526F7461746520746865206B6E6F5A
:1040E0006220756E74696C20796F752072656163EA
:1040F0006820746865206F7074696D616C206865F4
:10410000696768742E20436865636B207468652056
:10411000706963747572657320696E2074686520B8
:1041200068616E64626F6F6B202843616C696272B4
:104130006174696F6E2063686170746572292E0006
:1041400053656C6563742074656D70657261747518
:104150007265207768696368206D61746368657350
:1041600020796F7572206D6174657269616C2E00C3
:1041700043686F6F736520612066696C616D656E61
:104180007420666F722074686520466972737420AB
:104190004C617965722043616C6962726174696F08
:1041A0006E20616E642073656C6563742069742091
:1041B000696E20746865206F6E2D73637265656E1D
:1041C000206D656E752E004E6F7720492077696CE3
:1041D0006C2063616C6962726174652064697374D8
:1041E000616E6365206265747765656E20746970C1
:1041F000206F6620746865206E6F7A7A6C65206126
:104200006E642068656174626564207375726661AE
:1042100063652E00596F752063616E20616C776154
:10422000797320726573756D6520746865205769B0
:104230007A6172642066726F6D2043616C6962728C
:104240006174696F6E202D3E2057697A6172642E09
:1042500000506C6561736520636865636B206F75E2
:10426000722068616E64626F6F6B20616E6420669D
:104270006978207468652070726F626C656D2E209D
:104280005468656E20726573756D6520746865206D
:1042900057697A617264206279207265626F6F7407
:1042A000696E6720746865207072696E7465722E1D
:1042B00000416C6C20697320646F6E652E2048612C
:1042C000707079207072696E74696E67210049663A
:1042D00020796F752068617665206164646974690E
:1042E0006F6E616C20737465656C207368656574AE
:1042F000732C2063616C69627261746520746865F7
:104300006972207072657365747320696E205365DD
:104310007474696E6773202D204857205365747537
:1043200070202D20537465656C2073686565747307
:104330002E00506C6561736520636C65616E20684A
:1043400065617462656420616E64207468656E20C6
:10435000707265737320746865206B6E6F622E00D7
:10436000446F20796F752077616E7420746F2072AE
:104370006570656174206C6173742073746570205E
:10438000746F20726561646A7573742064697374F4
:10439000616E6365206265747765656E206E6F7A05
:1043A0007A6C6520616E6420686561746265643F43
:1043B0000053656C656374206E6F7A7A6C6520704B
:1043C0007265686561742074656D7065726174757D
:1043D0007265207768696368206D617463686573CE
:1043E00020796F7572206D6174657269616C2E0041
:1043F00049732066696C616D656E74206C6F6164D1
:1044000065643F004E6F7720492077696C6C20709F
:10441000726568656174206E6F7A7A6C6520666F6C
:104420007220504C412E00492077696C6C207275C7
:104430006E207A2063616C6962726174696F6E20AC
:104440006E6F772E004E6F772072656D6F766520E8
:104450007468652074657374207072696E74206668
:10446000726F6D20737465656C2073686565742E5A
:1044700000506C656173652072656D6F76652073A1
:1044800068697070696E672068656C70657273200A
:1044900066697273742E00492077696C6C2072759E
:1044A0006E2078797A2063616C6962726174696FD9
:1044B0006E206E6F772E2049742077696C6C2074A3
:1044C000616B6520617070726F782E203132206DC3
:1044D000696E732E0046697273742C2049207769C7
:1044E0006C6C2072756E207468652073656C6674E0
:1044F00065737420746F20636865636B206D6F73E0
:104500007420636F6D6D6F6E20617373656D626C87
:10451000792070726F626C656D732E0048692C2073
:104520004920616D20796F7572204F726967696EDD
:10453000616C205072757361206933207072696EEE
:104540007465722E20576F756C6420796F75206CBE
:10455000696B65206D6520746F20677569646520DF
:10456000796F75207468726F75676820746865204C
:1045700073657475702070726F636573733F004864
:10458000692C204920616D20796F7572204F726906
:1045900067696E616C205072757361206933207099
:1045A00072696E7465722E20492077696C6C206781
:1045B0007569646520796F75207468726F756768B6
:1045C00020612073686F7274207365747570207039
:1045D000726F636573732C20696E207768696368F6
:1045E00020746865205A2D617869732077696C6C36
:1045F0002062652063616C696272617465642E205B
:104600005468656E2C20796F752077696C6C206218
:104610006520726561647920746F207072696E74B0
:104620002E00452D636F72726563743A005A2D63D4
:104630006F72726563743A00592D636F72726563AD
:10464000743A00582D636F72726563743A00437553
:1046500074746572004D6F64656C005374726963A5
:1046600074005761726E00436865636B73004E6F30
:104670007A7A6C6520642E004E6F6E6500416C7016
:1046800068616265740054696D6500536F727400EF
:10469000534420636172640052506920706F7274D9
:1046A0000054656D702E2063616C2E004C696E2E77
:1046B00020636F7272656374696F6E004857205390
:1046C0006574757000462E206175746F6C6F61643F
:1046D0000044697361626C65207374657070657203
:1046E00073004D6F766520617869730054656D7055
:1046F000657261747572650057697A6172642065CC
:104700006E642073746174653A2025640A005370E6
:104710006F6F6C4A6F696E004669726D7761726582
:1047200000466C6173684169720057697A6172640E
:104730002073746174653A2025640A0045787065B9
:1047400072696D656E74616C004673656E736F722D
:1047500020446574656374696F6E004469736162B7
:104760006C65206661726D206D6F6465004D383434
:10477000004E6F2030784646207265636569766525
:10478000640053656E64696E672030784646002089
:1047900022257322002025236C78004449525F456E
:1047A000584954004449525F454E5445523A2025D9
:1047B0007320222573220A0046696C652073656C9C
:1047C0006563746564002053697A653A2000466920
:1047D0006C65206F70656E65643A20004E6F7720BF
:1047E00066726573682066696C653A20004E6F7763
:1047F00020646F696E672066696C653A200022202C
:10480000706F73002220706172656E743A220053DB
:104810005542524F5554494E452043414C4C20740B
:1048200061726765743A2200747279696E672074E8
:104830006F2063616C6C207375622D67636F6465B4
:104840002066696C6573207769746820746F6F20C7
:104850006D616E79206C6576656C732E0046696CAF
:10486000616D656E742073656E736F7220626F6127
:104870007264206368616E67652064657465637443
:1048800065643A207265766973696F6E25530A0014
:1048900053442063617264206F6B006F70656E52C9
:1048A0006F6F74206661696C656400766F6C756DFE
:1048B000652E696E6974206661696C656400534495
:1048C00020696E6974206661696C006F70656E2086
:1048D0006661696C65642C2046696C653A2000430A
:1048E000616E6E6F7420656E74657220737562649C
:1048F00069723A2000536F7274696E672066696C42
:10490000657300536F6D652066696C657320776908
:104910006C6C206E6F7420626520736F72746564B6
:104920002E204D61782E204E6F2E206F66206669F6
:104930006C657320696E203120666F6C646572202F
:10494000666F7220736F7274696E672069732031AD
:1049500030302E005072656865617420746865207F
:104960006E6F7A7A6C6521004552524F523A00467A
:10497000696C616D656E7420657874727564696EBA
:10498000672026207769746820636F72726563748C
:1049900020636F6C6F723F004175746F6C6F616460
:1049A000696E672066696C616D656E74206973203D
:1049B0006163746976652C206A7573742070726502
:1049C000737320746865206B6E6F6220616E642063
:1049D000696E736572742066696C616D656E742EA4
:1049E0002E2E005072696E742074696D65004669E0
:1049F0006C616D656E74207573656400546F7461CD
:104A00006C207072696E742074696D6500546F74E7
:104A1000616C2066696C616D656E740052696768CF
:104A200074004C65667400592064697374616E6328
:104A3000652066726F6D206D696E005365766572D4
:104A40006520736B657700536C6967687420736BBE
:104A50006577004D6561737572656420736B65776A
:104A6000005B303B305D20706F696E74206F66664E
:104A70007365740041646A757374696E67205A3A8D
:104A800000526561722073696465205B756D5D001D
:104A900046726F6E7420736964655B756D5D00525C
:104AA0006967687420736964655B756D5D004C654A
:104AB00066742073696465205B756D5D0053657471
:104AC0002074656D70657261747572653A00255366
:104AD0003A0A2531382E32666D200A25533A0A25C6
:104AE00031306C6468202530326868646D20253070
:104AF00032686864730025533A0A2531382E3266CD
:104B00006D200A25533A0A2531306C646420253023
:104B10003268686468202530326868646D00253624
:104B20002E32666D6D0025530A25530A25533A0A25
:104B300025533A0025332E32660100252D31342EBF
:104B40003134533A0A25530A252D31342E3134534A
:104B50003A25332E3266010A252D31342E31345355
:104B60003A25332E32660100252D31322E31325353
:104B7000252B382E31660045787472756465723A5B
:104B8000006D6D0059005800583A00593A005A3AE1
:104B9000002563252D31332E313353252B352E330C
:104BA0006600437573746F6D00536174696E200005
:104BB00054657874757200536D6F6F746800473177
:104BC0002059252D2E32662045252D2E336600478F
:104BD00031205825642059252D2E32662045252D5B
:104BE0002E3366006673656E736F725F636865630C
:104BF0006B706F696E745F7072696E740066736556
:104C00006E736F722076302E3420696E2066617567
:104C10006C742072616E676520342E362D355620F7
:104C20002D20756E636F6E6E6563746564006673C8
:104C3000656E736F7220696E20666F72626964645C
:104C4000656E2072616E676520312E352D335620DA
:104C50002D20636865636B2073656E736F7200311E
:104C60002E3000312E3500554E4B4E4F574E004CD6
:104C7000413130433A204C696E656172204164765F
:104C8000616E6365206D6F64653A20004C41313080
:104C9000433A2041646A757374656420452D4A6502
:104CA000726B3A2000000E1315110E000000041262
:104CB0000912040000001C1F11111F00000006193A
:104CC0001803130C00040E1F041C000000040A0A41
:104CD0000A0A11110E001F1511151F000000010313
:104CE000161C0800000000110A04110A040C12121C
:104CF0000C000000002563252D31382E3138532556
:104D000063005B25735D2563005B25535D256300B0
:104D10002563252D31382E31385300252E3130535F
:104D200020002563252D31382E3138732563007519
:104D30006E6B6E6F776E2073746174650020302E19
:104D400034206F72206E657765720020302E33201C
:104D50006F72206F6C6465720057616974696E6769
:104D600020666F72206E6F7A7A6C6520616E6420A7
:104D700062656420636F6F6C696E670053656C6673
:104D80002074657374204F4B0053656C6620746506
:104D90007374207374617274005072696E7420664B
:104DA000616E3A0045787472756465722066616E52
:104DB0003A0043616C6962726174696E6720686F62
:104DC0006D6500416C6C20636F72726563740043A3
:104DD0006865636B696E672073656E736F727300CD
:104DE000436865636B696E6720686F74656E640005
:104DF000436865636B696E6720626564004368653C
:104E0000636B696E67205A20617869730043686537
:104E1000636B696E67205920617869730043686528
:104E2000636B696E67205820617869730043686519
:104E3000636B696E6720656E6473746F7073004591
:104E40007874722066616E2073706565643A2025FF
:104E5000640A005072696E742066616E207370651A
:104E600065643A2025640A005465737420323A0060
:104E7000457874722066616E2073706565643A20AF
:104E800025640A005072696E742066616E2073702A
:104E90006565643A2025640A005465737420313ACC
:104EA000004D383400256320415849532053473181
:104EB0003D25640A00486F74656E640042656400B5
:104EC0005A00590058002D2D2D2D2D2D2D2D2D2D15
:104ED0002D2D2D2D2D2D2D2D2D2D004F4B004178BD
:104EE0006973206C656E67746820646966666572B4
:104EF000656E63653A252E33660A004D65617375EC
:104F00007265642061786973206C656E6774683AB5
:104F1000252E33660A004C43442073746174757304
:104F2000206368616E676564001000C90210012C7F
:104F3000014001220170011801B0010E01F00104CD
:104F4000015002FA00B002F0003003E600D003DCAA
:104F5000009004D2007005C800A006BE000008B48E
:104F600000B009AA00D00BA000600E960060118C62
:104F7000000015820020197800C01D6E00A0226478
:104F800000B0275A00902C500000314600E0343C1D
:104F90000010383200903A2800603C1E00A03D14FA
:104FA00000803E0A00203F0000202D20496E7661DF
:104FB0006C6964206578747275646572206E756DB5
:104FC00062657220210070012C0190012701B0015F
:104FD0002201C0011D01F00118011002130130026D
:104FE0000E016002090190020401C002FF000003EB
:104FF000FA004003F5008003F000D003EB0020042A
:10500000E6007004E100E004DC004005D700C005C4
:10501000D2004006CD00D006C8008007C30030088B
:10502000BE00F008B900C009B400B00AAF00B00B70
:10503000AA00D00CA500000EA000500F9B00C010CD
:1050400096005012910000148C00C0158700B01714
:105050008200B0197D00D01B7800001E7300402034
:105060006E0090226900F024640040275F009029C0
:105070005A00E02B5500102E500020304B0010320B
:105080004600E033410090353C001037370070385F
:105090003200A0392D00B03A2800A03B2300603C2C
:1050A0001E00103D1900903D1400103E0F00703E90
:1050B0000A00C03E0500003F000090137D00B015BF
:1050C0007800F0177300601A6E00F01C6900A01FD2
:1050D000640050225F0020255A00E0275500902AE6
:1050E0005000202D4B00A02F4600F031410010341D
:1050F0003C00F0353700A037320020392D00603AEF
:105100002800703B2300603C1E00203D1900C03D7C
:105110001400403E0F00A03E0A00F03E0500403F54
:105120000000703FFBFF903FF6FFB03FF1FFC03F34
:10513000ECFFD03FE7FFE03FE2FFF03FDDFFF03F55
:10514000D8FF20484F54454E4420544845524D41C5
:105150004C2052554E415741590020484541544238
:10516000454420544845524D414C2052554E4157DC
:10517000415900544845524D414C2052554E4157DB
:1051800041590042454420544845524D414C20521B
:10519000554E415741590020544845524D414C20ED
:1051A00052554E41574159202820505245484541BB
:1051B0005420484F54454E44290020544845524DF0
:1051C000414C2052554E41574159202820505245BC
:1051D00048454154204845415442454429005052D5
:1051E0004548454154204552524F520042454420C3
:1051F00050524548454154204552524F5200457245
:10520000723A2000207472696767657265642100D4
:105210004865617465727320737769746368656447
:10522000206F66662E20003A2000506C6561736521
:105230002072657374617274004D494E54454D502F
:10524000004D494E54454D502042454400452D6D7A
:105250006F746F722063757272656E742073636110
:105260006C696E6720656E61626C6564005265737F
:10527000656E640025533A20256C640A25530A00A4
:10528000496E6163746976697479205368757464D2
:105290006F776E004B494C4C45442E20005072698C
:1052A0006E7465722068616C7465642E206B696C25
:1052B0006C28292063616C6C656421004B494C4C5F
:1052C0003A2025640A004D32323120496E76616CF5
:1052D000696420657874727564657220004D32319E
:1052E0003820496E76616C696420657874727564E3
:1052F000657220004D31303920496E76616C6964E9
:1053000020657874727564657220004D31303520E7
:10531000496E76616C696420657874727564657233
:1053200020004D31303420496E76616C696420650F
:105330007874727564657220004D36303000667383
:10534000656E736F725F757064617465202D204D9A
:105350003630300049522073656E736F72206E6F65
:105360007420726573706F6E64696E67202825649F
:1053700029210A0020573A0020453A00543A0048B3
:10538000656174696E672064697361626C6564202D
:105390006279207361666574792074696D65722E17
:1053A0000046532076302E33206F72206F6C646578
:1053B000720046532076302E34206F72206E65774F
:1053C0006572004E2F41004D61676E6574732063F6
:1053D0006F6D702E005A2D70726F6265206E722E86
:1053E000004D6573680054696D656F757400427295
:1053F00069676874004D6F6465004175746F00449F
:10540000696D004C6576656C2044696D6D6564005E
:105410004C6576656C204272696768740046616EFF
:1054200020737065656400426564004E6F7A7A6C23
:10543000650053657474696E6773005072696E74A9
:105440002061626F727465640053746F70207072B3
:10545000696E7400436865636B696E672066696C8A
:10546000650046696C6520696E636F6D706C65746C
:10547000652E20436F6E74696E756520616E797755
:1054800061793F000452656672657368004D616919
:105490006E00496E73657274207468652066696C6D
:1054A000616D656E742028646F206E6F74206C6F60
:1054B00061642069742920696E746F2074686520A6
:1054C000657874727564657220616E6420746865B5
:1054D0006E20707265737320746865206B6E6F62E6
:1054E0002E00566572696669636174696F6E206625
:1054F00061696C65642C2072656D6F7665207468D7
:10550000652066696C616D656E7420616E642074DF
:10551000727920616761696E2E0053656E736F72D8
:105520002076657269666965642C2072656D6F7698
:1055300065207468652066696C616D656E74206EA7
:105540006F772E00506C6561736520636865636BCF
:10555000207468652049522073656E736F722063F2
:105560006F6E6E656374696F6E2C20756E6C6F6103
:10557000642066696C616D656E7420696620707266
:105580006573656E742E00506C6561736520756E71
:105590006C6F6164207468652066696C616D656E0E
:1055A000742066697273742C207468656E2072654D
:1055B00070656174207468697320616374696F6ECB
:1055C0002E002F2F20616374696F6E3A63616E63E2
:1055D000656C004D203834004D3834004D323400B5
:1055E0004D323320257300052E2E00257500593AC3
:1055F000202575202D3E202E2E2E00257500583A90
:10560000202575202D3E202E2E2E004D65617375B0
:105610007265642066696C616D656E742073656E79
:10562000736F72206C6F77206C6576656C3A2025FD
:10563000342E3266560A004D6561737572656420BA
:1056400066696C616D656E742073656E736F722030
:1056500068696768206C6576656C3A2025342E325F
:1056600066560A006572726F723A20756E6B6E6FC5
:10567000776E206D6F7665006E6F206D6F766500BA
:10568000542D636F646500756E6C6F6164006C6FA0
:105690006164006D6D755F6765745F726573706FCF
:1056A0006E7365202D20626567696E206D6F76656B
:1056B0003A20006D6D755F6765745F726573706F1A
:1056C0006E736528292072657475726E696E673A0B
:1056D0002025640A00556E6C6F6164696E672066F0
:1056E000696E6973686564203200556E6C6F616421
:1056F000203200556E6C6F6164696E672066696E5A
:105700006973686564203100556E6C6F6164203187
:10571000004D4D55207374617274732072657370FF
:105720006F6E64696E67004D4D55206E6F74207208
:105730006573706F6E64696E670046696C616D6554
:105740006E74206F7574206F662072616E676520BD
:105750002564200A000000803F55558541000080E7
:105760003F0000C84100000040555505420000C000
:105770003F0000484200002040555585420000701F
:10578000C1ABAAA642000060C10000A0410000C059
:10579000C00000204100002041ABAA3A4100002097
:1057A000C15555D540000048C2555505424D3730CA
:1057B00031204534004D373031204533004D3730EE
:1057C00031204532004D373031204531004D3730E2
:1057D000312045300046696C616D656E74206E72D3
:1057E000206F7574206F662072616E6765210020DE
:1057F0006661696C65642E0020737563636565641A
:1058000065642E004D4D552063616E5F6C6F616461
:105810003A004164646974696F6E616C206C6F61F9
:105820006420617474656D7074206E722E2025641E
:105830000A004D4D55204F4B2E20526573756D69F2
:105840006E672E2E2E004D4D55204F4B2E2052654B
:1058500073756D696E6720706F736974696F6E2EF2
:105860002E2E004D4D55204F4B2E20526573756DD9
:10587000696E672074656D70657261747572652EEE
:105880002E2E0046697820746865206973737565EB
:1058900020616E64207468656E2070726573732079
:1058A000627574746F6E206F6E204D4D5520756E4D
:1058B00069742E00507265737320746865206B6E76
:1058C0006F6220746F20726573756D65206E6F7ADC
:1058D0007A6C652074656D70657261747572652E81
:1058E000004D4D55206E656564732075736572209B
:1058F000617474656E74696F6E2E0043757474699B
:105900006E672066696C616D656E7400506C6561D0
:1059100073652072656D6F76652066696C616D6573
:105920006E7420616E64207468656E207072657399
:105930007320746865206B6E6F622E00456A656324
:1059400074696E672066696C616D656E74004D4D9B
:1059500055206C6F6164206661696C656400256325
:105960002533642F25642563002F2F20616374691C
:105970006F6E3A706175736500257320253464205D
:1059800052504D0A2573202534642052504D0A0090
:10599000686F77746F2E707275736133642E636FE6
:1059A0006D00666F72756D2E707275736133642E43
:1059B000636F6D00707275736133642E636F6D0079
:1059C0005072696E742046414E004E6F7A7A6C6553
:1059D0002046414E004D4D5520706F776572206610
:1059E00061696C73004D4D55206C6F616420666178
:1059F000696C73004D4D55206661696C7300546F7E
:105A000074616C206661696C7572657300437261C4
:105A100073680046696C2E2072756E6F7574730022
:105A2000506F776572206661696C75726573004CA2
:105A3000617374207072696E74206661696C75722E
:105A4000657300546F74616C004C617374207072E4
:105A5000696E7400416D6269656E7400566F6C7496
:105A6000616765730054656D706572617475726508
:105A7000730042656C7420737461747573005365B0
:105A80006E736F7220696E666F004578747275640C
:105A9000657220696E666F0058595A2063616C2EDA
:105AA0002064657461696C7300756E6B6E6F776EE0
:105AB000004D4D553220636F6E6E656374656400F2
:105AC000446174653A00746F20756E6C6F61642078
:105AD00066696C616D656E7400746F206C6F6164D3
