:100000000C944B4E0C947C4E0C947C4E0C947C4E79
:100010000C947C4E0C9427A40C947C4E0C947C4E37
:100020000C949CA70C947C4E0C947C4E0C947C4EAF
:100030000C947C4E0C947C4E0C94D9E80D94246660
:100040000C947C4E0C9479CC0C947C4E0C947C4E8D
:100050000C947C4E0C947C4E0C947C4E0D945A5C0B
:100060000C947C4E0D945B610C947C4E0C947C4EF5
:100070000C947C4E0C947C4E0C947C4E0C947C4ED8
:100080000C947C4E0C947C4E0C947C4E0C947C4EC8
:100090000D9417610C947C4E0C947C4E0C947C4E09
:1000A0000C947C4E0C947C4E0C947C4E0C947C4EA8
:1000B0000C947C4E0C947C4E0C947C4E0C947C4E98
:1000C0000C947C4E0C947C4E0C947C4E0D943C65B0
:1000D0000C947C4E0C947C4E0C947C4E0C947C4E78
:1000E0000C947C4E77677D6783678E6799671E687F
:1000F000A467AD67B667C167CC67D767E767F26784
:100100001E68FD670868136860B369B30DB3DCB29D
:10011000ACB24CB69AB3B9B43FB595B5B1B5E8B584
:100120003ECB3ECB41CB3ECB41CB44CB47CBAFDEEE
:1001300008E2D8E1CDE1C2E1B7E1ACE14AE23AE25E
:1001400085E157E11DE2B2DEB2DEB2DEB2DEB2DE42
:10015000B2DEB2DEB2DEADDE4DE14FE153E155E19C
:10016000F8F50EF620F62FF63BF675F698F6A0F6A3
:10017000B0F6B3F6B5F6C1F6D3F6E4F6D801E00171
:10018000E4016A019C01FA0166019001D601640153
:10019000A0017001D0018201FA019601000218024B
:1001A00084010202940104020C02C401FC01080251
:1001B0001402F201DC01D40178019E01EE018001FC
:1001C000C801B20192011A02C0017201B0017201AC
:1001D000B0017201B00168015401084AD73B3BCE1F
:1001E000016E84BCBFFDC12F3D6C74319ABD568336
:1001F0003DDA3D00C77F11BED9E4BB4C3E916BAAEE
:10020000AABE000000803F05A84CCDB2D44EB9383C
:1002100036A9020C50B9918688083CA6AAAA2ABE23
:10022000000000803F07634236B79BD8A71A3968A1
:100230005618AEBAAB558C1D3CB7CC5763BD6DEDAF
:10024000FD753EF6177231BF000000803F080000C8
:1002500000BE922449123EABAAAA2ABECDCCCC4CF9
:100260003E00000080BEABAAAAAA3E00000000BF6C
:10027000000000803F0000000000084178D3BB432D
:1002800087D1133D190E3CC3BD4282AD2B3E68ECB5
:100290008276BED98FE1A93E4C80EFFFBE01C4FF3C
:1002A0007F3F0000000000000D946D5E0D943B1434
:1002B0000D9449840D94097E0D947D950D94644FA1
:1002C0000D9466970D949E130D946E130D94601308
:1002D0000D946B5E0D944F130D9437960D9431145D
:1002E0000D9478130D94675E0D9413950D946A2DFB
:1002F0000D94765C0D949C2E0D94AA970D94361453
:100300000D949B5C0D9480130D9455310D94E095E4
:100310000D94B92D0D944F140D9422290D9494131E
:100320000D9464130D94F05C0D946B310D94861351
:100330000D9445140D94595C0D9455130D94805CE7
:100340000D9472130D9495960D9422600D949A134A
:100350000D94E0970D944A140D9408950D9402BBEA
:100360000D94695E0D94B45C0D94C70E0D94FE84DB
:100370000D9416980D942F2A0D941D7E0D94A313A1
:100380000D94E85C0D94E00D0D94A7310D9440148C
:100390000D94AD5C0D941C140D94BA2C0D9496190B
:1003A0000D947C130D94D2950D9408320D946A131C
:1003B0000D9459130D94410E0D94F8310D9425951B
:1003C0000D945C130D94A92C0D944B130D9432973E
:1003D0000D94D9950D94B22C0D948D2E0D948E5CA8
:1003E0000D9475BC0D94DD310D94F8270D949C2966
:1003F0000D942C140D9493130D94AD310D94E87D50
:100400000D948A130D9465310D9481310D944895A6
:100410000D94BD310D94F4960D94A1310D943D28A9
:100420000D94A8280D9409600D94CD310D944B695D
:100430000D948E130D94D25C0D9453950D9453141A
:100440005F5345435F4C414E4700000000000000F1
:10045000000000000000000000000000000000009C
:10046000000000000000000000000000000000008C
:10047000000000000000000000000000000000007C
:10048000000000000000000000000000000000006C
:10344000FFFF472D636F646520736C6963656420BB
:10345000666F72206120646966666572656E7420AD
:103460006C6576656C2E20436F6E74696E75653F72
:1034700000FFFF472D636F646520736C69636564AB
:1034800020666F72206120646966666572656E747D
:10349000206C6576656C2E20506C656173652072BA
:1034A000652D736C69636520746865206D6F646554
:1034B0006C20616761696E2E205072696E742063A2
:1034C000616E63656C6C65642E00FFFF472D636F52
:1034D000646520736C6963656420666F7220612087
:1034E0006E65776572206669726D776172652E20F0
:1034F000506C6561736520757064617465207468D3
:1035000065206669726D776172652E205072696EF2
:10351000742063616E63656C6C65642E00FFFF4709
:103520002D636F646520736C6963656420666F72D8
:103530002061206E65776572206669726D776172B1
:10354000652E20436F6E74696E75653F00FFFF47FF
:103550002D636F646520736C6963656420666F72A8
:10356000206120646966666572656E742070726998
:103570006E74657220747970652E20506C6561736D
:10358000652072652D736C69636520746865206DB4
:103590006F64656C20616761696E2E205072696E80
:1035A000742063616E63656C6C65642E00FFFF4779
:1035B0002D636F646520736C6963656420666F7248
:1035C000206120646966666572656E742070726938
:1035D0006E74657220747970652E20436F6E746905
:1035E0006E75653F00FFFF472D636F646520736C48
:1035F0006963656420666F72206120646966666530
:1036000072656E74207072696E7465722074797060
:10361000652E20436F6E74696E75653F00FFFF472E
:103620002D636F646520736C6963656420666F72D7
:10363000206120646966666572656E7420707269C7
:103640006E74657220747970652E20506C6561739C
:10365000652072652D736C69636520746865206DE3
:103660006F64656C20616761696E2E205072696EAF
:10367000742063616E63656C6C65642E00FFFF509F
:1036800072657373206B6E6F6220746F2070726549
:1036900068656174206E6F7A7A6C6520616E642053
:1036A000636F6E74696E75652E00FFFF506C656107
:1036B000736520707265737320746865206B6E6F1C
:1036C0006220746F20756E6C6F61642066696C6136
:1036D0006D656E7400FFFF52656D6F7665206F6CCF
:1036E000642066696C616D656E7420616E64207023
:1036F0007265737320746865206B6E6F6220746FDF
:10370000207374617274206C6F6164696E67206EDF
:1037100065772066696C616D656E742E00FFFF61D0
:103720006E6420707265737320746865206B6E6FB1
:103730006200FFFF496E736572742066696C616D8B
:10374000656E7400FFFF436F6C6F72206E6F7420A4
:10375000636F727265637400FFFF46696C616D652B
:103760006E74206E6F74206C6F6164656400FFFF7F
:103770004368616E67656420636F72726563746C21
:10378000793F00FFFF4C6F6164696E6720636F6C67
:103790006F7200FFFF4368616E6765207375636336
:1037A0006573732100FFFF506C65617365206F7056
:1037B000656E2069646C657220616E642072656D4F
:1037C0006F76652066696C616D656E74206D616EE3
:1037D00075616C6C792E00FFFF5761732066696C10
:1037E000616D656E7420756E6C6F616420737563B6
:1037F0006365737366756C3F00FFFF506C656173A2
:103800006520757067726164652E00FFFF4E6577F5
:10381000206669726D776172652076657273696F73
:103820006E20617661696C61626C653A00FFFF57DA
:10383000616974696E6720666F722050494E444119
:103840002070726F626520636F6F6C696E6700FF36
:10385000FF43726173682064657465637465642EE8
:1038600020526573756D65207072696E743F00FF3C
:10387000FF43726173682064657465637465642EC8
:1038800000FFFF43686F6F7365206578747275641D
:1038900065723A00FFFF457874727564657200FFC7
:1038A000FF43686F6F73652066696C616D656E7448
:1038B0003A00FFFF4E6F206D6F76652E00FFFF57B9
:1038C00061697420666F7220757365722E2E2E00EA
:1038D000FFFF536F6D652070726F626C656D2065C0
:1038E0006E636F756E74657265642C205A2D6C65FD
:1038F00076656C696E6720656E666F7263656420BD
:103900002E2E2E00FFFF537461626C6520616D6284
:1039100069656E742074656D706572617475726529
:103920002032312D323643206973206E656564651F
:10393000642061207269676964207374616E642019
:1039400069732072657175697265642E00FFFF509E
:103950006C656173652072756E2058595A206361D9
:103960006C6962726174696F6E2066697273742E1D
:1039700000FFFF4D4B3353206669726D77617265AE
:10398000206465746563746564206F6E204D4B33ED
:10399000207072696E74657200FFFF534B454C4591
:1039A00053545255444552204D4B3353204F4B2EC8
:1039B00000FFFF426C61636B6F7574206F6363750A
:1039C000727265642E205265636F76657220707224
:1039D000696E743F00FFFF53656C667465737420F5
:1039E00077696C6C2062652072756E20746F20633D
:1039F000616C696272617465206163637572617480
:103A0000652073656E736F726C6573732072656881
:103A10006F6D696E672E00FFFF54686572652069DF
:103A200073207374696C6C2061206E65656420740A
:103A30006F206D616B65205A2063616C69627261F1
:103A400074696F6E2E20506C6561736520666F6CB3
:103A50006C6F7720746865206D616E75616C2C20C9
:103A60006368617074657220466972737420737440
:103A70006570732C2073656374696F6E2043616C8D
:103A80006962726174696F6E20666C6F772E00FFD9
:103A9000FF5072696E74657220686173206E6F7476
:103AA000206265656E2063616C6962726174656431
:103AB000207965742E20506C6561736520666F6C8B
:103AC0006C6F7720746865206D616E75616C2C2059
:103AD00063686170746572204669727374207374D0
:103AE0006570732C2073656374696F6E2043616C1D
:103AF0006962726174696F6E20666C6F772E00FF69
:103B0000FF4F6C642073657474696E677320666F11
:103B1000756E642E2044656661756C74205049444E
:103B20002C20457374657073206574632E2077694B
:103B30006C6C206265207365742E00FFFF57617204
:103B40006E696E673A20626F7468207072696E7475
:103B50006572207479706520616E64206D6F746881
:103B60006572626F61726420747970652063686148
:103B70006E6765642E00FFFF5761726E696E673A6B
:103B8000207072696E746572207479706520636844
:103B9000616E6765642E00FFFF5761726E696E6724
:103BA0003A206D6F74686572626F61726420747917
:103BB0007065206368616E6765642E00FFFF585969
:103BC0005A2063616C6962726174696F6E20616C06
:103BD0006C2072696768742E20536B657720776953
:103BE0006C6C20626520636F72726563746564201B
:103BF0006175746F6D61746963616C6C792E00FF1F
:103C0000FF58595A2063616C6962726174696F6E02
:103C100020616C6C2072696768742E20582F5920BF
:103C2000617865732061726520736C696768746C74
:103C30007920736B657765642E20476F6F64206A07
:103C40006F622100FFFF58595A2063616C696272EC
:103C50006174696F6E206F6B2E20582F5920617828
:103C60006573206172652070657270656E6469634A
:103C7000756C61722E20436F6E67726174756C6132
:103C800074696F6E732100FFFF58595A2063616C8D
:103C90006962726174696F6E20636F6D70726F6DAF
:103CA000697365642E2052696768742066726F6E4E
:103CB000742063616C6962726174696F6E20706FE9
:103CC000696E74206E6F7420726561636861626CE6
:103CD000652E00FFFF58595A2063616C696272615A
:103CE00074696F6E20636F6D70726F6D6973656458
:103CF0002E2046726F6E742063616C69627261740B
:103D0000696F6E20706F696E7473206E6F742072AD
:103D10006561636861626C652E00FFFF58595A2027
:103D200063616C6962726174696F6E206661696C4F
:103D300065642E2052696768742066726F6E742005
:103D400063616C6962726174696F6E20706F696E15
:103D500074206E6F7420726561636861626C652E99
:103D600000FFFF58595A2063616C6962726174697F
:103D70006F6E206661696C65642E2046726F6E748A
:103D80002063616C6962726174696F6E20706F6923
:103D90006E7473206E6F7420726561636861626C0B
:103DA000652E00FFFF58595A2063616C6962726189
:103DB00074696F6E206661696C65642E20506C6555
:103DC00061736520636F6E73756C74207468652011
:103DD0006D616E75616C2E00FFFF58595A2063614A
:103DE0006C6962726174696F6E206661696C65648A
:103DF0002E204265642063616C6962726174696F30
:103E00006E20706F696E7420776173206E6F7420FE
:103E1000666F756E642E00FFFF506C6561736520E0
:103E2000706C61636520737465656C20736865658B
:103E300074206F6E20686561746265642E00FFFFF8
:103E400044697374616E6365206265747765656E3D
:103E500020746970206F6620746865206E6F7A7AAE
:103E60006C6520616E6420746865206265642073EF
:103E700075726661636520686173206E6F7420627D
:103E800065656E20736574207965742E20506C65AD
:103E900061736520666F6C6C6F7720746865206D48
:103EA000616E75616C2C2063686170746572204668
:103EB000697273742073746570732C2073656374F6
:103EC000696F6E204669727374206C617965722027
:103ED00063616C6962726174696F6E2E00FFFF50DE
:103EE0006C6163652061207368656574206F66206E
:103EF000706170657220756E6465722074686520EB
:103F00006E6F7A7A6C6520647572696E672074686A
:103F1000652063616C6962726174696F6E206F669F
:103F2000206669727374203420706F696E74732E0A
:103F300020496620746865206E6F7A7A6C6520630C
:103F40006174636865732074686520706170657260
:103F50002C20706F776572206F666620746865200C
:103F60007072696E74657220696D6D6564696174E3
:103F7000656C792E00FFFF506C656173652072657A
:103F80006D6F766520737465656C20736865657404
:103F90002066726F6D20686561746265642E00FF33
:103FA000FF497320737465656C20736865657420C0
:103FB0006F6E20686561746265643F00FFFF206F6B
:103FC00066203400FFFF536561726368696E672085
:103FD0006265642063616C6962726174696F6E20EE
:103FE000706F696E7400FFFF206F66203900FFFF5D
:103FF0004D6561737572696E67207265666572657D
:104000006E636520686569676874206F6620636108
:104010006C6962726174696F6E20706F696E740092
:10402000FFFF506C6561736520636C65616E207481
:104030006865206E6F7A7A6C6520666F72206361A6
:104040006C6962726174696F6E2E20436C69636B78
:10405000207768656E20646F6E652E00FFFF4175E6
:10406000746F20686F6D6500FFFF48656174696E4D
:10407000672064697361626C656420627920736192
:10408000666574792074696D65722E00FFFF526554
:10409000636F766572696E67207072696E74202036
:1040A000202000FFFF426564206C6576656C696EB8
:1040B00067206661696C65642E2053656E736F724C
:1040C000206469646E7420747269676765722E205B
:1040D000446562726973206F6E206E6F7A7A6C65C8
:1040E0003F2057616974696E6720666F7220726540
:1040F0007365742E00FFFF506C65617365207570E9
:1041000064617465206669726D7761726520696E9D
:1041100020796F7572204D4D55322E20576169748C
:10412000696E6720666F722072657365742E00FF7A
:10413000FF566F6C746167657300FFFF54656D70A7
:10414000657261747572657300FFFF42656C74205F
:1041500073746174757300FFFF53656E736F722023
:10416000696E666F00FFFF45787472756465722032
:10417000696E666F00FFFF58595A2063616C2E20EC
:1041800064657461696C7300FFFF756E6B6E6F77A9
:104190006E00FFFF4D4D553220636F6E6E65637488
:1041A000656400FFFF446174653A00FFFF686F7744
:1041B000746F2E707275736133642E636F6D00FFC0
:1041C000FF666F72756D2E707275736133642E6346
:1041D0006F6D00FFFF707275736133642E636F6DD6
:1041E00000FFFF746F20756E6C6F61642066696CF0
:1041F000616D656E7400FFFF746F206C6F616420E9
:1042000066696C616D656E7400FFFF507265737353
:1042100020746865206B6E6F6200FFFF3E43616E25
:1042200063656C00FFFF50726568656174696E6755
:1042300020746F2063757400FFFF507265686561BC
:1042400074696E6720746F20656A65637400FFFF90
:1042500050726568656174696E6720746F20756E51
:104260006C6F616400FFFF50726568656174696E10
:104270006720746F206C6F616400FFFF5072656887
:1042800065617420746865206E6F7A7A6C652100B0
:10429000FFFF4552524F523A00FFFF46696C616D75
:1042A000656E7420657874727564696E6720262067
:1042B0007769746820636F727265637420636F6CD2
:1042C0006F723F00FFFF4175746F6C6F6164696EC0
:1042D000672066696C616D656E7420697320616327
:1042E000746976652C206A757374207072657373B7
:1042F00020746865206B6E6F6220616E6420696E49
:10430000736572742066696C616D656E742E2E2EF5
:1043100000FFFF546F74616C2066696C616D656E9F
:104320007400FFFF546F74616C207072696E7420AA
:1043300074696D6500FFFF46696C616D656E742080
:104340007573656400FFFF5072696E742074696D47
:104350006500FFFF592064697374616E63652066B0
:10436000726F6D206D696E00FFFF4C65667400FF13
:10437000FF526967687400FFFF4D65617375726570
:104380006420736B657700FFFF536C696768742066
:10439000736B657700FFFF53657665726520736BFD
:1043A000657700FFFF5B303B305D20706F696E7496
:1043B000206F666673657400FFFF41646A757374ED
:1043C000696E67205A3A00FFFF4D31313720466948
:1043D000727374206C617965722063616C2E00FFCA
:1043E000FF43757272656E7400FFFF55736564203C
:1043F000647572696E67207072696E7400FFFF5099
:1044000049442063616C2E2066696E697368656437
:1044100000FFFF5049442063616C2E2020202020A3
:1044200020202020202000FFFF506C656173652054
:104430007761697400FFFF5072696E742070617556
:1044400073656400FFFF4E6F7A7A6C652046414EBB
:1044500000FFFF5072696E742046414E00FFFF540A
:104460006F74616C00FFFF4C617374207072696E31
:104470007400FFFF4C617374207072696E74206663
:1044800061696C7572657300FFFF4D4D5520666163
:10449000696C7300FFFF4D4D55206C6F61642066A1
:1044A00061696C7300FFFF546F74616C2066616911
:1044B0006C7572657300FFFF4D4D55206661696C28
:1044C0007300FFFF4D4D55206C6F6164206661697C
:1044D0006C7300FFFF4D4D5520706F77657220663D
:1044E00061696C7300FFFF546F74616C20666169D1
:1044F0006C7572657300FFFF506F7765722066619F
:10450000696C7572657300FFFF46696C616D2E20E2
:1045100072756E6F75747300FFFF4372617368008C
:10452000FFFF4C617374207072696E74206661695C
:104530006C7572657300FFFF506F7765722066615E
:10454000696C7572657300FFFF46696C616D2E20A2
:1045500072756E6F75747300FFFF4372617368004C
:10456000FFFF546F74616C00FFFF4C617374207027
:1045700072696E7400FFFF416D6269656E7400FFC1
:10458000FF4E6F7A7A6C6500FFFF42656400FFFFA3
:1045900042656C742073746174757300FFFF436F20
:1045A0006F6C646F776E00FFFF506C656173652000
:1045B0006C6F616420504C412066696C616D656E62
:1045C000742066697273742E00FFFF497320504C8B
:1045D000412066696C616D656E74206C6F61646505
:1045E000643F00FFFF53656C65637420504C4120AD
:1045F00066696C616D656E743A00FFFF46696C61B7
:104600006D656E7400FFFF43616E63656C00FFFFB4
:1046100052756E6E696E672057697A617264207791
:10462000696C6C2064656C65746520637572726575
:104630006E742063616C6962726174696F6E20725E
:104640006573756C747320616E6420737461727429
:104650002066726F6D2074686520626567696E6E92
:10466000696E672E20436F6E74696E75653F00FF3B
:10467000FF50726568656174696E67206E6F7A7A43
:104680006C652E20506C6561736520776169742EAE
:1046900000FFFF55736520756E6C6F616420746F49
:1046A0002072656D6F76652066696C616D656E74EC
:1046B00020312069662069742070726F747275648D
:1046C0006573206F757473696465206F6620746804
:1046D000652072656172204D4D5520747562652E9E
:1046E0002055736520656A65637420696620697466
:1046F0002069732068696464656E20696E20747532
:1047000062652E00FFFF556E6C6F616400FFFF4510
:104710006A65637400FFFF4C6F6164696E672066B1
:10472000696C616D656E7400FFFF506C6561736547
:1047300020696E7365727420504C412066696C610B
:104740006D656E7420746F2074686520657874726E
:10475000756465722C207468656E20707265737361
:10476000206B6E6F6220746F206C6F6164206974BF
:104770002E00FFFF506C6561736520696E73657272
:104780007420504C412066696C616D656E742074B4
:104790006F20746865206669727374207475626531
:1047A000206F66204D4D552C207468656E20707208
:1047B00065737320746865206B6E6F6220746F2060
:1047C0006C6F61642069742E00FFFF596F75206360
:1047D000616E20616C7761797320726573756D65A8
:1047E000207468652057697A6172642066726F6D03
:1047F0002043616C6962726174696F6E202D3E2086
:1048000057697A6172642E00FFFF506C65617365B1
:1048100020636865636B206F75722068616E6462E7
:104820006F6F6B20616E6420666978207468652004
:1048300070726F626C656D2E205468656E207265B3
:1048400073756D65207468652057697A617264209C
:104850006279207265626F6F74696E672074686533
:10486000207072696E7465722E00FFFF416C6C20BF
:10487000697320646F6E652E2048617070792070B6
:1048800072696E74696E672100FFFF506C65617319
:104890006520636C65616E20686561746265642083
:1048A000616E64207468656E207072657373207425
:1048B0006865206B6E6F622E00FFFF446F20796F7A
:1048C000752077616E7420746F20726570656174F5
:1048D000206C617374207374657020746F2072652E
:1048E00061646A7573742064697374616E636520B2
:1048F0006265747765656E206E6F7A7A6C6520618B
:104900006E6420686561746265643F00FFFF492042
:1049100077696C6C20737461727420746F2070728C
:10492000696E74206C696E6520616E6420796F75A4
:104930002077696C6C206772616475616C6C79209A
:104940006C6F77657220746865206E6F7A7A6C651B
:1049500020627920726F746174696E672074686573
:10496000206B6E6F622C20756E74696C20796F7588
:10497000207265616368206F7074696D616C206876
:1049800065696768742E20436865636B2074686589
:1049900020706963747572657320696E206F75721B
:1049A0002068616E64626F6F6B20696E206368615E
:1049B000707465722043616C6962726174696F6EB4
:1049C0002E00FFFF4E6F7720492077696C6C2063C3
:1049D000616C6962726174652064697374616E638D
:1049E00065206265747765656E20746970206F66F6
:1049F00020746865206E6F7A7A6C6520616E642021
:104A00006865617462656420737572666163652EA2
:104A100000FFFF497320697420504C412066696C87
:104A2000616D656E743F00FFFF53656C65637420B4
:104A30006E6F7A7A6C652070726568656174207437
:104A4000656D7065726174757265207768696368F9
:104A5000206D61746368657320796F7572206D6174
:104A600074657269616C2E00FFFF4E6F77204920DC
:104A700077696C6C2070726568656174206E6F7AFE
:104A80007A6C6520666F7220504C412E00FFFF4902
:104A9000732066696C616D656E74206C6F6164650E
:104AA000643F00FFFF49732066696C616D656E7439
:104AB0002031206C6F616465643F00FFFF4E6F77AB
:104AC00020492077696C6C2070726568656174207C
:104AD0006E6F7A7A6C6520666F7220504C412E00A2
:104AE000FFFF492077696C6C2072756E207A206315
:104AF000616C6962726174696F6E206E6F772E00EF
:104B0000FFFF4E6F772072656D6F76652074686564
:104B10002074657374207072696E742066726F6D94
:104B200020737465656C2073686565742E00FFFFE3
:104B3000506C656173652072656D6F766520736872
:104B4000697070696E672068656C70657273206645
:104B5000697273742E00FFFF492077696C6C2072B4
:104B6000756E2078797A2063616C6962726174690C
:104B70006F6E206E6F772E2049742077696C6C20E1
:104B800074616B6520617070726F782E20313220F5
:104B90006D696E732E00FFFF46697273742C204995
:104BA0002077696C6C2072756E207468652073655F
:104BB0006C667465737420746F20636865636B2022
:104BC0006D6F737420636F6D6D6F6E2061737365AD
:104BD0006D626C792070726F626C656D732E00FF70
:104BE000FF48692C204920616D20796F7572204F34
:104BF000726967696E616C205072757361206933E8
:104C0000207072696E7465722E20576F756C642007
:104C1000796F75206C696B65206D6520746F2067F6
:104C20007569646520796F75207468726F7567683F
:104C3000207468652073657475702070726F636589
:104C400073733F00FFFF452D636F72726563743AA3
:104C500000FFFF5A2D636F72726563743A00FFFFA5
:104C6000592D636F72726563743A00FFFF582D63AC
:104C70006F72726563743A00FFFF53706F6F6C4A16
:104C80006F696E2020205B4E2F415D00FFFF537047
:104C90006F6F6C4A6F696E2020205B6F66665D00E7
:104CA000FFFF53706F6F6C4A6F696E202020205B8E
:104CB0006F6E5D00FFFF4669726D7761726520203F
:104CC000205B6E6F6E655D00FFFF4669726D7761F8
:104CD0007265205B7374726963745D00FFFF4669DF
:104CE000726D776172652020205B7761726E5D0066
:104CF000FFFF4669726D776172652020205B6E6FE1
:104D00006E655D00FFFF4D6F64656C2020202020E4
:104D1000205B6E6F6E655D00FFFF4D6F64656C20FC
:104D20002020205B7374726963745D00FFFF4D6F18
:104D300064656C2020202020205B7761726E5D000E
:104D4000FFFF4D6F64656C2020202020205B6E6F7C
:104D50006E655D00FFFF4E6F7A7A6C652020202023
:104D6000205B6E6F6E655D00FFFF4E6F7A7A6C653B
:104D70002020205B7374726963745D00FFFF4E6FC7
:104D80007A7A6C6520202020205B7761726E5D004E
:104D9000FFFF4E6F7A7A6C6520202020205B6E6FBB
:104DA0006E655D00FFFF485720536574757000FF06
:104DB000FF485720536574757000FFFF43686563B3
:104DC0006B7300FFFF4E6F7A7A6C6520642E202093
:104DD0005B302E34305D00FFFF4E6F7A7A6C6520B9
:104DE000642E20205B302E36305D00FFFF4E6F7A40
:104DF0007A6C6520642E20205B302E34305D00FFFD
:104E0000FF4E6F7A7A6C6520642E20205B302E3244
:104E1000355D00FFFF537465656C207368656574CC
:104E20007300FFFF536F756E642020202020205BED
:104E30006C6F75645D00FFFF536F756E64202020FA
:104E4000205B6173736973745D00FFFF536F756E50
:104E500064202020205B73696C656E745D00FFFF29
:104E6000536F756E642020202020205B6F6E636579
:104E70005D00FFFF536F756E642020202020205BB3
:104E80006C6F75645D00FFFF536F727420202020EB
:104E90002020205B6E6F6E655D00FFFF536F7274A4
:104EA0002020205B616C7068616265745D00FFFFAB
:104EB000536F7274202020202020205B74696D6560
:104EC0005D00FFFF5344206361726420205B6E6FBE
:104ED000726D616C5D00FFFF53442063617264205A
:104EE0005B666C73684169725D00FFFF53656C65BA
:104EF0006374206C616E677561676500FFFF5250D7
:104F00006920706F727420202020205B6F6E5D001E
:104F1000FFFF52506920706F7274202020205B6F59
:104F200066665D00FFFF54656D702E2063616C2E18
:104F30002020205B6F6E5D00FFFF54656D702E209A
:104F400063616C2E20205B6F66665D00FFFF4C691D
:104F50006E2E20636F7272656374696F6E00FFFF5F
:104F60004D65736820626564206C6576656C696E5A
:104F70006700FFFF4D4D55204D6F64655B537465B1
:104F8000616C74685D00FFFF4D4D55204D6F646589
:104F9000205B4E6F726D616C5D00FFFF48572053C0
:104FA0006574757000FFFF46616E7320636865630A
:104FB0006B20205B6F66665D00FFFF46616E7320AD
:104FC000636865636B2020205B6F6E5D00FFFF46AA
:104FD0002E206175746F6C6F6164205B6F66665D17
:104FE00000FFFF462E206175746F6C6F6164202096
:104FF0005B6F6E5D00FFFF462E206175746F6C6FF6
:105000006164205B4E2F415D00FFFF446973616264
:105010006C6520737465707065727300FFFF4D6F6F
:105020007665206178697300FFFF54656D70657265
:10503000617475726500FFFF46696E697368696E19
:1050400067206D6F76656D656E747300FFFF536F3B
:10505000756E642020202020205B6C6F75645D00DD
:10506000FFFF536F756E64202020205B61737369AE
:1050700073745D00FFFF536F756E64202020205B0A
:1050800073696C656E745D00FFFF536F756E64200D
:1050900020202020205B6F6E63655D00FFFF536F53
:1050A000756E642020202020205B6C6F75645D008D
:1050B000FFFF4D4D55204D6F64655B537465616C0A
:1050C00074685D00FFFF4D4D55204D6F6465205B9A
:1050D0004E6F726D616C5D00FFFF437261736820FB
:1050E0006465742E20205B4E2F415D00FFFF4372EC
:1050F000617368206465742E20205B6F66665D00B6
:10510000FFFF4372617368206465742E2020205B6A
:105110006F6E5D00FFFF4D6F6465202020205B53A4
:105120007465616C74685D00FFFF4D6F64652020DD
:105130002020205B4E6F726D616C5D00FFFF466149
:105140006E7320636865636B20205B6F66665D002D
:10515000FFFF46616E7320636865636B2020205BF0
:105160006F6E5D00FFFF46696C2E2073656E736F76
:105170007220205B6F6E5D00FFFF46696C2E20730E
:10518000656E736F72205B6F66665D00FFFF43683C
:10519000616E67652066696C616D656E7400FFFF06
:1051A000466C6F7700FFFF537065656400FFFF4D2D
:1051B00061676E65747320636F6D702E5B4E2F4157
:1051C0005D00FFFF4D61676E65747320636F6D70E6
:1051D0002E5B4F66665D00FFFF4D61676E65747301
:1051E00020636F6D702E205B4F6E5D00FFFF5A2DA8
:1051F00070726F6265206E722E202020205B335DFE
:1052000000FFFF5A2D70726F6265206E722E202093
:1052100020205B355D00FFFF5A2D70726F626520A4
:105220006E722E202020205B315D00FFFF4D6573E4
:10523000682020202020202020205B3778375D0048
:10524000FFFF4D6573682020202020202020205B58
:105250003378335D00FFFF46616E207370656564CF
:1052600000FFFF42656400FFFF4E6F7A7A6C6500B5
:10527000FFFF53657474696E677300FFFF507269B6
:105280006E742061626F7274656400FFFF53746F07
:1052900070207072696E7400FFFF46696C6520694A
:1052A0006E636F6D706C6574652E20436F6E7469EC
:1052B0006E756520616E797761793F00FFFF5072EE
:1052C000696E742066726F6D20534400FFFF426167
:1052D000636B00FFFF4D61696E00FFFF536F7274D7
:1052E000696E672066696C657300FFFF536F6D65BB
:1052F0002066696C65732077696C6C206E6F742012
:10530000626520736F727465642E204D61782E2063
:105310004E6F2E206F662066696C657320696E2063
:105320003120666F6C64657220666F7220736F72D5
:1053300074696E67206973203130302E00FFFF5290
:105340006573657400FFFF5265617220736964655F
:10535000205B756D5D00FFFF46726F6E7420736990
:1053600064655B756D5D00FFFF526967687420734B
:105370006964655B756D5D00FFFF4C656674207345
:10538000696465205B756D5D00FFFF536574207473
:10539000656D70657261747572653A00FFFF5465E2
:1053A0006D70657261747572652063616C6962729B
:1053B0006174696F6E206661696C656400FFFF54FB
:1053C000656D70657261747572652063616C696288
:1053D000726174696F6E2069732066696E697368A3
:1053E000656420616E64206163746976652E205463
:1053F000656D702E2063616C6962726174696F6E95
:105400002063616E2062652064697361626C65640B
:1054100020696E206D656E752053657474696E67C2
:10542000732D3E54656D702E2063616C2E00FFFF5E
:105430004E2F4100FFFF20203000FFFF20203100D1
:10544000FFFF49523A00FFFF46494E44413A00FFF0
:10545000FF50494E44413A00FFFF53656E736F722F
:1054600020737461746500FFFF46696C616D656E41
:10547000742073656E736F7200FFFF5072696E74F3
:105480002066616E3A00FFFF45787472756465723C
:105490002066616E3A00FFFF43616C69627261745D
:1054A000696E6720686F6D6500FFFF53656C6674F9
:1054B000657374206661696C6564202000FFFF419C
:1054C0006C6C20636F727265637420202020202032
:1054D00000FFFF436865636B696E672073656E73D9
:1054E0006F72732000FFFF436865636B696E67200E
:1054F000686F74656E64202000FFFF436865636B0E
:10550000696E6720626564202020202000FFFF4331
:105510006865636B696E67205A2061786973202023
:1055200000FFFF436865636B696E672059206178EF
:105530006973202000FFFF436865636B696E672015
:10554000582061786973202000FFFF436865636B12
:10555000696E6720656E6473746F707300FFFF453A
:1055600072726F72202D20737461746963206D658F
:105570006D6F727920686173206265656E206F7649
:1055800065727772697474656E00FFFF43617264BF
:105590002072656D6F76656400FFFF5072696E74EE
:1055A0006572206E6F7A7A6C65206469616D6574CE
:1055B000657220646966666572732066726F6D201D
:1055C00074686520472D636F64652E20506C65619B
:1055D000736520636865636B207468652076616C11
:1055E000756520696E2073657474696E67732E200B
:1055F0005072696E742063616E63656C6C65642EB5
:1056000000FFFF5072696E746572206E6F7A7A6C5B
:1056100065206469616D657465722064696666659C
:1056200072732066726F6D2074686520472D636FFA
:1056300064652E20436F6E74696E75653F00FFFFD1
:1056400054656D702E2063616C6962726174696F5C
:105650006E00FFFF52657365742058595A206361CC
:105660006C6962722E00FFFF5049442063616C69CF
:1056700062726174696F6E00FFFF426564206C6541
:1056800076656C20636F727265637400FFFF4D6511
:10569000736820426564204C6576656C696E6700AE
:1056A000FFFF43616C696272617465205A00FFFFFD
:1056B00043616C6962726174652058595A00FFFF3A
:1056C00053656C6674657374202020202020202090
:1056D0002000FFFF57697A61726400FFFF4C6F6121
:1056E0006420616C6C00FFFF456A65637420666925
:1056F0006C616D656E7400FFFF506C6561736520B1
:1057000070756C6C206F75742066696C616D656E68
:105710007420696D6D6564696174656C7900FFFF63
:10572000556E6C6F6164696E672066696C616D654A
:105730006E7400FFFF526573756D696E672070723D
:10574000696E7400FFFF526573657400FFFF526558
:105750006E616D6500FFFF4669727374206C61793C
:1057600065722063616C2E00FFFF53656C65637486
:1057700000FFFF537465656C207368656574730082
:10578000FFFF536865657400FFFF537570706F729B
:105790007400FFFF4661696C207374617473204D5F
:1057A0004D5500FFFF4661696C207374617473008E
:1057B000FFFF53746174697374696373202000FF81
:1057C000FF43616C6962726174696F6E00FFFF4133
:1057D00075746F4C6F61642066696C616D656E7481
:1057E00000FFFF456A6563742066696C616D656ED4
:1057F0007400FFFF556E6C6F61642066696C616DAB
:10580000656E7400FFFF4C6F616420746F206E6FD3
:105810007A7A6C6500FFFF4C6F61642066696C6189
:105820006D656E7400FFFF4E6F20534420636172FC
:105830006400FFFF526573756D65207072696E7448
:1058400000FFFF5061757365207072696E7400FF10
:10585000FF5072656865617400FFFF54756E6500E6
:10586000FFFF4C6976652061646A757374205A0085
:10587000FFFF496E666F2073637265656E00FFFF00
:1058800057616974696E6720666F72206E6F7A7AED
:105890006C6520616E642062656420636F6F6C6963
:1058A0006E6700FFFF53656C662074657374204F4C
:1058B0004B00FFFF53656C6620746573742073742E
:1058C000617274202000FFFF46616C736520747262
:1058D0006967676572696E6700FFFF537761707073
:1058E000656400FFFF46726F6E742F6C65667420EE
:1058F00066616E7300FFFF4178697300FFFF4178B6
:105900006973206C656E67746800FFFF4C6F6F737E
:10591000652070756C6C657900FFFF456E6473746B
:105920006F70206E6F742068697400FFFF456E64AD
:1059300073746F7000FFFF4D6F746F7200FFFF454F
:105940006E6473746F707300FFFF576972696E67DE
:10595000206572726F7200FFFF426564202F20483D
:10596000656174657200FFFF4E6F7420636F6E6E29
:10597000656374656400FFFF4865617465722F5448
:105980006865726D6973746F7200FFFF506C6561BA
:10599000736520636865636B203A00FFFF53656C95
:1059A0006674657374206572726F72202100FFFF48
:1059B00050494E44412048656174696E6700FFFF9D
:1059C00054656D702E2063616C2E202020202020D5
:1059D0002020202000FFFF43616C696272617469BE
:1059E0006F6E20646F6E6500FFFF43616C696272C9
:1059F0006174696E67205A00FFFF42656420646F1E
:105A00006E6500FFFF4265642048656174696E67DA
:105A100000FFFF48656174696E6720646F6E652ED4
:105A200000FFFF48656174696E6700FFFF53544FC4
:105A3000505045442E2000FFFF4D4D55204F4B2E1A
:105A400020526573756D696E672E2E2E00FFFF4D17
:105A50004D55204F4B2E20526573756D696E672032
:105A6000706F736974696F6E2E2E2E00FFFF4D4D9F
:105A700055204F4B2E20526573756D696E672074EB
:105A8000656D70657261747572652E2E2E00FFFF54
:105A90004669782074686520697373756520616E46
:105AA00064207468656E207072657373206275740B
:105AB000746F6E206F6E204D4D5520756E69742E7B
:105AC00000FFFF507265737320746865206B6E6F02
:105AD0006220746F20726573756D65206E6F7A7ABF
:105AE0006C652074656D70657261747572652E00E9
:105AF000FFFF4D4D55206E656564732075736572AB
:105B000020617474656E74696F6E2E00FFFF506CB7
:105B1000656173652072656D6F76652066696C617D
:105B20006D656E7420616E64207468656E2070729D
:105B300065737320746865206B6E6F622E00FFFFC3
:105B4000456A656374696E672066696C616D656E30
:105B50007400FFFF4D4D55206C6F616420666169D4
:105B60006C6564202020202000FFFF45787472754A
:105B700064657200FFFF4D6F7665205A00FFFF4D90
:105B80006F7665205900FFFF4D6F7665205800FF46
:105B9000FF437261736820646574656374696F6E36
:105BA0002063616E0A6265207475726E6564206F91
:105BB0006E206F6E6C7920696E0A4E6F726D616C2B
:105BC000206D6F646500FFFF5741524E494E473AC2
:105BD0000A437261736820646574656374696F6EEB
:105BE0000A64697361626C656420696E0A53746546
:105BF000616C7468206D6F646500FFFF4175746FA0
:105C00006C6F6164696E672066696C616D656E7446
:105C100020617661696C61626C65206F6E6C7920C1
:105C20007768656E2066696C616D656E742073655A
:105C30006E736F72206973207475726E6564206F65
:105C40006E2E2E2E00FFFF4552524F523A204669CB
:105C50006C616D656E742073656E736F722069730D
:105C6000206E6F7420726573706F6E64696E672C3E
:105C700020706C6561736520636865636B20636F7A
:105C80006E6E656374696F6E2E00FFFF4D6F646505
:105C9000206368616E676520696E2070726F67723D
:105CA000657373202E2E2E00FFFF436F70792073D3
:105CB000656C6563746564206C616E6775616765AA
:105CC0003F00FFFF43616C69627261746500FFFF12
:105CD00059657300FFFF4E6F00FFFF4E6F74207316
:105CE00070696E6E696E6700FFFF5370696E6E6952
:105CF0006E6700FFFF4C65667420686F74656E64A4
:105D00002066616E3F00FFFF46726F6E74207072F6
:105D1000696E742066616E3F00FFFF46616E2074FD
:105D200065737400256420627974657320777269E5
:105D30007474656E20746F20454550524F4D20613C
:105D40007420616464726573732030782530347810
:105D5000004433202D20526561642F5772697465A9
:105D600020454550524F4D0A0020436F756E7420F8
:105D7000583A20005344207072696E74696E67202F
:105D80006279746520004E6F7420696E20666172BE
:105D90006D206D6F64652E004163746976652045E2
:105DA000787472756465723A2000496E76616C6928
:105DB00064206578747275646572005A204F666657
:105DC00073657400556E6B6E6F776E20636F6D6DCB
:105DD000616E643A2022004D32303020496E766187
:105DE0006C696420657874727564657220007A5FEE
:105DF0006D61783A20007A5F6D696E3A2000795FB4
:105E00006D61783A2000795F6D696E3A2000785FA5
:105E10006D61783A20006F70656E005452494747B3
:105E20004552454400785F6D696E3A2000526570B6
:105E30006F7274696E6720656E6473746F7020731F
:105E40007461747573000053494C454E54004E4FB5
:105E5000524D414C002553204D4F44453A2050654A
:105E60007263656E7420646F6E653A2025643B2012
:105E70007072696E742074696D652072656D6169F8
:105E80006E696E6720696E206D696E733A202564B5
:105E90000A00456E642066696C65206C6973740045
:105EA000426567696E2066696C65206C6973740071
:105EB0000A50494E44412074656D70657261747575
:105EC00072653A20252E3166205A207368696674FF
:105ED00020286D6D293A20252E3366000A537465FB
:105EE000703A2025642F360A000A537465703A20F0
:105EF00025642F362028736B6970706564290A50F9
:105F0000494E44412074656D7065726174757265A7
:105F10003A202564205A20736869667420286D6DC4
:105F2000293A300A000A5A45524F3A20252E336644
:105F30000A0073746172742074656D7065726174A7
:105F40007572653A20252E31660A002564202025C9
:105F50002E326600255320583A20252E35662059CA
:105F60003A20252E3566205A3A20252E35660A001D
:105F7000536C6565702E2E2E004E6F7420696E2056
:105F80006661726D206D6F64652E0025640045307A
:105F90003A25642052504D0A50524E303A25642022
:105FA00052504D0A0025640045787465726E616C2C
:105FB0002053504920666C6173680A573235583255
:105FC00030434C206973206E6F74207265732D0A04
:105FD000706F6E64696E672E204C616E67756167C5
:105FE000650A73776974636820756E617661696CA0
:105FF00061626C652E004372617368446574656309
:10600000742044495341424C4544004372617368D3
:1060100044657465637420454E41424C45442100FB
:10602000573235583230434C206E6F74207265738E
:10603000706F6E64696E672E0A002020506C616E6E
:106040006E657242756666657242797465733A2050
:10605000002046726565204D656D6F72793A2000AB
:10606000207C20417574686F723A2000204C617367
:106070007420557064617465643A200020536F6623
:10608000747761726520526573657400205761747E
:106090006368646F67205265736574002042726F95
:1060A000776E206F75742052657365740020457893
:1060B0007465726E616C20526573657400506F7701
:1060C00065725570006572726F72207772697469BB
:1060D0006E6720746F2066696C6500656E6473740A
:1060E0006F7073206869743A2000446F6E65207386
:1060F0006176696E672066696C652E006F6B0000C3
:106100004B494C4C45442E20005072696E746572A8
:106110002068616C7465642E206B696C6C28292082
:1061200063616C6C656421004B494C4C3A202564DA
:106130000A004D32323120496E76616C6964206507
:106140007874727564657220004D32313820496E62
:1061500076616C696420657874727564657220007C
:106160004D31303920496E76616C696420657874F0
:10617000727564657220004D31303520496E76614C
:106180006C696420657874727564657220004D31A5
:10619000303420496E76616C69642065787472755C
:1061A000646572200055564C4F202D20656E64208A
:1061B00025640A007374707325640A00776F726C2B
:1061C0006420636F6F7264696E617465733A20282E
:1061D000252E33662C20252E33662C20252E336663
:1061E000290A00706879736963616C20636F6F724C
:1061F00064696E617465733A2028252E33662C20FD
:10620000252E33662C20252E3366290A004375720D
:1062100072656E7420706F73205A5F415849533A0B
:10622000252E33660A43757272656E7420706F7323
:1062300020455F415849533A252E33660A0041668E
:106240007465722077616974696E6720666F722069
:1062500074656D703A0A43757272656E7420706F62
:106260007320585F415849533A252E33660A4375C7
:106270007272656E7420706F7320595F4158495374
:106280003A252E33660A0025533A0A25382E3266FF
:106290006D0A25533A0A25376C6464203A25326822
:1062A000686468203A2530326868646D0025533A86
:1062B0000A25382E32666D0A25533A0A253264685B
:1062C00020253032646D2025303264730025362E4F
:1062D00032666D6D004E2F410025533A0A25530A50
:1062E00025533A0A25533A004E2F410025342E32C9
:1062F00066010025533A0A25530A25533A202025E2
:10630000352E3266010A25533A202025352E326675
:1063100001002F2F20616374696F6E3A706175738D
:10632000650025533A202534642052504D0A2553E8
:106330003A20202534642052504D0A00544D432009
:10634000445249564552204F56455254454D5000EF
:1063500057697A61726420656E6420737461746534
:106360003A2025640A0043616E6E6F7420656E7476
:106370006572207375626469723A20005344206329
:10638000617264206F6B006F70656E526F6F742066
:106390006661696C656400766F6C756D652E696EFB
:1063A0006974206661696C656400534420696E6994
:1063B00074206661696C0057726974696E67207435
:1063C0006F2066696C653A200046696C65207365CC
:1063D0006C6563746564002053697A653A200046F1
:1063E000696C65206F70656E65643A20006F70653A
:1063F0006E206661696C65642C2046696C653A2084
:106400000041786973206C656E6774682064696602
:10641000666572656E63653A252E33660A004D65C2
:106420006173757265642061786973206C656E674D
:1064300074683A252E33660A0020746F6F206C6FE3
:106440006E6720657874727573696F6E20707265FF
:1064500076656E7465640020636F6C642065787483
:10646000727573696F6E2070726576656E7465649F
:106470000025632533642F25642563005A25362EB5
:10648000326620005A2020202D2D2D200025632546
:1064900033642525002D2D2D0025336868640025E3
:1064A0003353253373252500555342002020200007
:1064B000205344002025753E257500203F3E25755C
:1064C00000204625750020463F0020463020200051
:1064D00025632D2D3A2D2D20200025632533756849
:1064E0002025632563002563253032753A25303237
:1064F0007525632563003F3F00506F6C736B690027
:106500004974616C69616E6F004672616E636169A6
:106510007300457370616E6F6C00446575747363CE
:10652000680043657374696E6100456E676C6973DA
:106530006800656E717565696E67202200446F6E34
:1065400065207072696E74696E672066696C65009B
:106550005072696E7465722073746F707065642018
:1065600064756520746F206572726F72732E204699
:10657000697820746865206572726F7220616E643C
:1065800020757365204D39393920746F2072657319
:10659000746172742E202854656D70657261747513
:1065A00072652069732072657365742E205365745B
:1065B00020697420616674657220726573746172FB
:1065C00074696E6729004E6F204C696E65204E75A8
:1065D0006D626572207769746820636865636B73A8
:1065E000756D2C204C617374204C696E653A2000E7
:1065F0004E6F20436865636B73756D2077697468AF
:10660000206C696E65206E756D6265722C204C6120
:106610007374204C696E653A2000636865636B7320
:10662000756D206D69736D617463682C204C6173A6
:1066300074204C696E653A20004C696E65204E7579
:106640006D626572206973206E6F74204C61737483
:10665000204C696E65204E756D6265722B312C2061
:106660004C617374204C696E653A200025632533B4
:10667000642F2564256300526573656E640025539D
:106680003A20256C640A25530A006E616E00696E1B
:1066900066004E414E494E495459494E46CDCCCCE8
:1066A0003D0AD7233C17B7D13877CC2B329595E6E6
:1066B000241FB14F0A000020410000C84200401CC6
:1066C0004620BCBE4CCA1B0E5AAEC59D7400407A13
:1066D00010F35A00A0724E18090010A5D4E800006B
:1066E000E87648170000E40B54020000CA9A3B0009
:1066F0000000E1F505000080969800000040420F80
:10670000000000A08601000000102700000000E843
:1067100003000000006400000000000A0000000008
:10672000000100000000002C76D888DC674F0823A9
:10673000DFC1DFAE59E1B1B796E5E3E453C63AE60F
:1067400051997696E8E6C28426EB898C9B62ED40EF
:106750007C6FFCEFBC9C9F40F2BAA56FA5F490053E
:106760005A2AF75C936B6CF9676DC11BFCE0E40D72
:1067700047FEF520E6B500D0ED902E030094357766
:10678000050080841E080000204E0A000000C80C8E
:10679000333333330F986E12831141EF8D211489F7
:1067A0003BE65516CFFEE6DB18D1844B381BF77C51
:1067B0001D901DA4BBE424203284725E228100C996
:1067C000F124ECA1E53D276364696E6F7073757801
:1067D000585B00442D31202D20456E646C65737329
:1067E000206C6F6F700A004175746F0020452F4454
:1067F0003D00416476616E6365204B3D004D323251
:10680000302053256900255346696C616D656E74AF
:106810002073657474696E67733A204469736162AA
:106820006C65640A00255346696C616D656E742061
:1068300073657474696E67733A0A25532020204D7E
:106840003230302044252E32660A002553526574BA
:10685000726163743A20533D4C656E6774682028FA
:106860006D6D2920463A537065656420286D6D2F43
:106870006D29205A3A205A4C69667420286D6D297A
:106880000A25532020204D3230372053252E3266E2
:106890002046252E3266205A252E32660A2553526E
:1068A00065636F7665723A20533D45787472612056
:1068B0006C656E67746820286D6D2920463A5370A8
:1068C00065656420286D6D2F6D290A2553202020D1
:1068D0004D3230382053252E32662046252E326622
:1068E0000A25534175746F2D526574726163743A51
:1068F00020533D3020746F2064697361626C652C95
:10690000203120746F20696E746572707265742016
:10691000657874727564652D6F6E6C79206D6F7615
:106920006573206173207265747261637473206F84
:1069300072207265636F7665726965730A255320EC
:1069400020204D323039205325640A002553504908
:106950004420686561746265642073657474696E4F
:1069600067733A0A25532020204D333034205025B8
:106970002E32662049252E32662044252E32660AA4
:106980000025535049442073657474696E67733AE7
:106990000A25532020204D3330312050252E3266D9
:1069A0002049252E32662044252E32660A002553C2
:1069B00053746570732070657220756E69743A0A3D
:1069C000255320204D39322058252E326620592556
:1069D0002E3266205A252E32662045252E32660A32
:1069E00025535553746570207265736F6C757469A7
:1069F0006F6E3A200A2553204D33353020582564D8
:106A000020592564205A2564204525640A25534DC4
:106A10006178696D756D2066656564726174657312
:106A2000202D206E6F726D616C20286D6D2F732983
:106A30003A0A255320204D3230332058252E326615
:106A40002059252E3266205A252E32662045252EC5
:106A500032660A25534D6178696D756D20666565EE
:106A6000647261746573202D20737465616C746841
:106A700020286D6D2F73293A0A255320204D32307E
:106A8000332058252E32662059252E3266205A256D
:106A90002E32662045252E32660A25534D617869CF
:106AA0006D756D20616363656C65726174696F6E8D
:106AB000202D206E6F726D616C20286D6D2F7332EA
:106AC000293A0A255320204D3230312058256C7543
:106AD0002059256C75205A256C752045256C750A42
:106AE00025534D6178696D756D20616363656C65D3
:106AF000726174696F6E202D20737465616C7468A7
:106B000020286D6D2F7332293A0A255320204D32EB
:106B100030312058256C752059256C75205A256C0C
:106B2000752045256C750A2553416363656C657254
:106B30006174696F6E3A20533D616363656C657281
:106B40006174696F6E2C20543D7265747261637458
:106B500020616363656C65726174696F6E0A2553A9
:106B600020204D3230342053252E32662054252EDD
:106B700032660A2553416476616E636564207661EE
:106B8000726961626C65733A20533D4D696E20668F
:106B90006565647261746520286D6D2F73292C20E2
:106BA000543D4D696E2074726176656C2066656532
:106BB000647261746520286D6D2F73292C20423D0D
:106BC0006D696E696D756D207365676D656E742096
:106BD00074696D6520286D73292C20583D6D61788E
:106BE000696D756D205859206A65726B20286D6D2E
:106BF0002F73292C20205A3D6D6178696D756D20A9
:106C00005A206A65726B20286D6D2F73292C202005
:106C1000453D6D6178696D756D2045206A65726BC3
:106C200020286D6D2F73290A255320204D323035D1
:106C30002053252E32662054252E32662042252EE2
:106C400032662058252E32662059252E3266205A6B
:106C5000252E32662045252E32660A2553486F6D53
:106C600065206F666673657420286D6D293A0A2564
:106C70005320204D3230362058252E32662059259B
:106C80002E3266205A252E32660A004625642025BB
:106C9000640A004D4D55203C3D20274625642025A3
:106CA00064270A00504944204175746F74756E65FD
:106CB0002066696E6973686564212050757420745C
:106CC0006865206C617374204B702C204B692061C7
:106CD0006E64204B6420636F6E7374616E747320F6
:106CE00066726F6D2061626F766520696E746F20C9
:106CF000436F6E66696775726174696F6E2E6800A6
:106D0000504944204175746F74756E6520666169E1
:106D10006C6564212074696D656F75740020403A5C
:106D200000543A00423A00504944204175746F744F
:106D3000756E65206661696C6564212054656D70AF
:106D40006572617475726520746F6F206869676819
:106D500000204B643A2000204B693A2000204B7001
:106D60003A200020436C61737369632050494420CA
:106D7000002054753A2000204B753A2000206D61A8
:106D8000783A2000206D696E3A200020643A200095
:106D900020626961733A200020453A00205A3A0087
:106DA00020593A0020453A00205A3A0020593A002A
:106DB000583A00005A30005A310059300059310019
:106DC000583000583100456E642073746F70732022
:106DD00064696167002E0044656C6574696F6E209C
:106DE0006661696C65642C2046696C653A200046D2
:106DF000696C652064656C657465643A000A002FEF
:106E0000000A004E6F74205344207072696E7469DA
:106E10006E67005072696E7420736176656400530A
:106E200044207072696E74207061757365640066C9
:106E300073656E736F725F726573746F72655F7086
:106E400072696E745F616E645F636F6E74696E7594
:106E5000650A004F4B004241440052414D426F20B1
:106E600046414E20002F2F20616374696F6E3A6394
:106E7000616E63656C0043524153485F43414E432A
:106E8000454C0043524153485F5245434F5645528B
:106E90000043524153485F5245434F5645520022EA
:106EA0002832290054004475706C69636174652050
:106EB000542D636F64652069676E6F7265642E0A76
:106EC000004475706C696361746520542D636F6450
:106ED000652069676E6F7265642E0A00496E76617F
:106EE0006C6964205420636F64652E00556E6B6E70
:106EF0006F776E204D20636F64653A202573200AFA
:106F0000006E6F2076616C696420636F6D6D616ED9
:106F100064002C20002C20002C20006E2F61002CFF
:106F200020002C20002C20006E2F61002F00503AF2
:106F3000005761697420666F722050494E444120A9
:106F40007461726765742074656D706572617475C3
:106F500072653A004C414E472053454C20464F52F3
:106F60004345440022283129003030303030303061
:106F7000302D303030302D303030302D303030301A
:106F80002D3030303030303030303030300020551F
:106F90005549443A00310020455854525544455211
:106FA0005F434F554E543A00534B454C4553545252
:106FB00055444552204D4B335300204D41434849E1
:106FC0004E455F545950453A00312E3000206261E1
:106FD000736564206F6E204D61726C696E20464946
:106FE000524D574152455F55524C3A687474707314
:106FF0003A2F2F6769746875622E636F6D2F7072F8
:1070000075736133642F50727573612D4669726DAB
:10701000776172652050524F544F434F4C5F564535
:107020005253494F4E3A004649524D574152455FDF
:107030004E414D453A50727573612D4669726D77B8
:1070400061726520004D31313320530020423A00F7
:1070500020453A00543A0020413A0020503A00209E
:1070600042403A0020403A00202F003A00205400CD
:10707000202F0020423A00202F006F6B20543A004E
:107080002569206D696E2C20256920736563004990
:107090006E76616C6964204D20636F64653A2025CB
:1070A00073200A00556E6B6E6F776E204720636FFA
:1070B00064653A202573200A004D65736820626577
:1070C00064206C6576656C696E67206E6F742061F4
:1070D00063746976652E000A002020000A4D656100
:1070E000737572656420706F696E74733A000A5A22
:1070F00020736561726368206865696768743A2007
:10710000002C004E756D20582C593A2000206D69D6
:1071100063726F6E7300457863657373697665207B
:10712000626564206C6576656C696E6720636F725A
:1071300072656374696F6E3A2000426564206C6505
:1071400076656C696E67206661696C65642E205394
:10715000656E736F7220747269676765726564200B
:10716000746F6F20686967682E0A00426564206C3E
:107170006576656C696E67206661696C65642E2052
:1071800053656E736F7220646973636F6E6E6563AF
:10719000746564206F72206361626C652062726F37
:1071A0006B656E2E0A004732382057300050494E2A
:1071B00044412070726F62652063616C6962726124
:1071C00074696F6E2073746172740047323820578F
:1071D00030004D3234005345545F43484F505F00F8
:1071E0005345545F535445505F005345545F5741D6
:1071F00056455F00544D435F0043524153485F0082
:1072000073746172740A004C616E67756167652002
:107210007570646174652E006164635F696E697482
:107220000A000A204F726967696E616C205072759E
:1072300073612069330A20202050727573612052D7
:107240006573656172636800436F6E74696E75651E
:10725000207769746820616E6F7468657220626F50
:107260007764656E3F00250020202020202000202C
:1072700020202020200045524153494E4720616C78
:107280006C206461746100466163746F727920528E
:107290004553455400466163746F727920524553DB
:1072A00045540044495341424C45440A00454E412F
:1072B000424C4544004653656E736F722025530A55
:1072C000004D4B33534D4D553253004E4F4D4B33C4
:1072D00053002E01417072203330203230323000A2
:1072E000436F6D70696C65643A2000286E6F6E653F
:1072F0002C2064656661756C7420636F6E666967C7
:107300002900417072203330203230323020323048
:107310003A35333A32360020332E382E302D32367D
:1073200038340A002055706C6F616420696E2070DB
:10733000726F677265737300205A3A0020593A00E1
:1073400020583A0043524153485F44455445435402
:10735000454458590043524153485F4445544543BE
:10736000544544590043524153485F4445544543B2
:1073700054454458004D32390078797A63616C5F26
:107380006D656173737572655F656E7465720A0011
:1073900078797A63616C5F73706972616C382063AD
:1073A000783D25642063793D2564207A303D25644D
:1073B00020647A3D2564207261646975733D25649B
:1073C0002061643D25640A0078797A63616C5F739B
:1073D00065617263685A206E6F207369676E616CB5
:1073E0000A20783D256C6420793D256C64207A3D27
:1073F000256C640A00204F4E2D5349474E414C20C6
:10740000617420783D256420793D2564207A3D25EE
:10741000642061643D25640A0078797A63616C5F59
:107420007365617263685A20783D256C6420793DEC
:10743000256C64207A3D256C640A000A00253032F0
:10744000780078797A63616C5F7363616E5F7069ED
:1074500078656C735F33327833322063783D25640E
:107460002063793D2564206D696E5F7A3D25642037
:107470006D61785F7A3D25640A00202532642025FD
:10748000640A000A002530327800206D696E3D25BF
:1074900064206D61783D2564206469663D25640A39
:1074A000006D61785F633D253264206D61785F6CAB
:1074B0003D25640A006D61785F633D2564206D6140
:1074C000785F723D2564206D61785F6D61746368DB
:1074D0003D25640A0020783D256420793D256420FF
:1074E0007A3D25640A00207061747465726E2066AE
:1074F0006F756E642061742025642025640A000085
:1075000000F000F801FC03FE07FE07FE07FE07FC83
:1075100003F801F000000073697A656F6628746FE4
:1075200074616C293D25640A0073697A656F662869
:10753000626C6F636B5F627566666572293D256478
:107540000A0078797A63616C5F6D65617373757237
:10755000655F6C656176650A00706F696E743D25C4
:107560006420783D256420793D2564207A3D25649A
:107570000A0058025802584D584DB004F055F055C5
:10758000B00478797A63616C5F66696E645F626586
:10759000645F696E64756374696F6E5F73656E7343
:1075A0006F725F706F696E745F787920783D256CBB
:1075B0006420793D256C64207A3D256C640A0020A6
:1075C0003C20005741524E494E473A2046726F6E5A
:1075D0007420706F696E74206E6F742072656163C1
:1075E0006861626C652E205920636F6F7264696EEA
:1075F0006174653A0000000040410000C040000096
:107600005C430000C04000005C43000046430000B3
:10761000404100004643497465726174696F6E3A77
:10762000200043616C6962726174696F6E206661EB
:10763000696C65642120436865636B20746865200C
:107640006178657320616E642072756E2061676178
:10765000696E2E004D363030005052555341206631
:1076600073656E736F725F7265636F7665720066C5
:1076700073656E736F725F757064617465202D2021
:107680004D3630300A0020573A0020453A00543A2F
:10769000005A206C6976652061646A757374206F86
:1076A0007574206F662072616E67652E2053657455
:1076B00074696E6720746F20302E20436C69636B91
:1076C00020746F20636F6E74696E75652E005A208A
:1076D0006C6976652061646A757374206F757420B7
:1076E0006F662072616E67652E2053657474696ED3
:1076F0006720746F20300020423A0020453A005441
:107700003A00494E5434007265636F7665725F6D5E
:10771000616368696E655F73746174655F616674E7
:1077200065725F706F7765725F70616E69632C2040
:10773000696E697469616C20007265636F76657249
:107740005F6D616368696E655F73746174655F61C5
:10775000667465725F706F7765725F70616E696382
:107760002C20696E697469616C20004739322045AC
:107770000050525553412075766C6F0047342053AA
:1077800030004D32362053256C75004D3130362097
:1077900053004D38320047312046256400473120E0
:1077A00045322A64656661756C745F7265747261D6
:1077B0006374696F6E2046343830004731205A00B8
:1077C0002046323030300020590047312058004DDB
:1077D000383300506F736974696F6E20726561642D
:1077E0002066726F6D20656570726F6D3A004D3264
:1077F00033202573002E67636F00466565647261F0
:1078000074653A00473120452D64656661756C7476
:107810005F72657472616374696F6E2046343830CC
:107820000047312045352046313230004D38330095
:107830004D31393020532564004D313039205325E6
:10784000640047323820582059004731205A3235D9
:107850002046383030002563252D2E313653200048
:107860002563252E3135533A2573253364002020B6
:107870002020202020202020202020202020202008
:107880002020002563252D31332E31335325362E0C
:10789000367300457872656D65207370616E206F78
:1078A0006620746865205A2076616C7565732100C6
:1078B0006F6B0A0073746172740A004D4D5532206B
:1078C0006669726D776172652076657273696F6E35
:1078D00020696E76616C69642E20526571756972DB
:1078E00065642076657273696F6E3A206275696CA3
:1078F00064206E756D626572202564206F72206849
:1079000069676865722E006673656E736F725F7368
:10791000746F705F616E645F736176655F707269CA
:107920006E740A004D4D55203D3E20276F6B270A8F
:10793000004D4D55203D3E20276F6B270A002564E2
:10794000004D4D55203D3E20276F6B272C20726542
:1079500073756D65207072696E740A004D4D552007
:10796000726574727920617474656D7074206E72C2
:107970002E2025640A004D4D55203D3E20276F6B7B
:10798000270A00410A004D4D55203C3D2027412744
:107990000A004D363030004D363030204155544FBE
:1079A000005052555341206673656E736F725F725B
:1079B00065636F766572002568687500410A004D41
:1079C0004D55203C3D202741270A0050300A004DEC
:1079D00025640A004D4D55203C3D20274D25642748
:1079E0000A0057300A004D4D55203C3D20275730A6
:1079F000270A0053330A004D4D55203C3D202753A4
:107A000033270A0052300A004D4D55203C3D2027B7
:107A10005230270A004B25640A004D4D55203C3D4D
:107A200020274B2564270A004525640A004D4D5543
:107A3000203C3D2027452564270A0055300A004D8B
:107A40004D55203C3D20275530270A0043300A0081
:107A50004D4D55203C3D20274330270A004C2564DE
:107A60000A004D4D55203C3D20274C2564270A0037
:107A70005425640A004D4D55203C3D202754256473
:107A8000270A004D4D55202D20454E41424C45447E
:107A900000256868750050300A004D310A004D4DD0
:107AA00055203C3D20274D31270050300A004D4DD8
:107AB000552076657273696F6E2076616C6964001B
:107AC0004D4D55203D3E202725646F6B270A00252C
:107AD000750053320A004D4D55203C3D202753324E
:107AE00027004D4D55203D3E202725646F6B270A0A
:107AF000002575004D4D55206E6F742072657370B2
:107B00006F6E64696E67202D2044495341424C4595
:107B1000440053310A004D4D55203C3D2027533140
:107B200027004D4D55203D3E202773746172742708
:107B300000466C6173684169722049502041646459
:107B4000723A004D4D5532202020202020204E2F0B
:107B5000410025642E25642E25642D2564002046D1
:107B6000573A0041707220333020323032300045B5
:107B70003344763666756C6C0045494E53795F31F7
:107B8000306100315F37356D6D5F4D4B33002D2D0A
:107B90002D2D2D2D2D2D2D2D2D2D0020332E382E3C
:107BA000302D32363834004669726D776172653A2D
:107BB0000025642E25642E25642E2564004D373063
:107BC00032004D373031004D373032004D373031D3
:107BD00000464C4558202D20203234302F353000BF
:107BE00050502020202D20203235342F31303000CD
:107BF00048495053202D20203232302F3130300070
:107C000041425320202D20203235352F3130300095
:107C100041534120202D20203236302F3130350085
:107C200050455420202D20203233302F383500503D
:107C30004C4120202D20203231352F363000252D8B
:107C400031322E313253252B382E3166004578746F
:107C500072756465723A006D6D00005900580058E5
:107C60003A00593A005A3A002563252D31332E3116
:107C70003353252B352E33660024F4D43050C38E75
:107C800020C2A24017828B7011127A910D816CD99B
:107C90000AA861E108C7586607615143061E4B5D9B
:107CA00005C145A7041A411104093D9803713931F2
:107CB000034036DB0265339102D4305402802E1D1E
:107CC00002632CEE01752AC501B028A0011027819E
:107CD000018F2564012B244B01E0223401AC211FCC
:107CE000018D200D01801FFC00841EED00971DDF1B
:107CF00000B81CD200E61BC600201BBC00641AB2F0
:107D000000B219A8000A19A0006A189900D11791A9
:107D10000040178B00B516840031167E00B315792C
:107D2000003A157300C7146F0058146A00EE13660A
:107D3000008813630025135E00C7125B006C1257A6
:107D40000015125400C111510070114F0021114B48
:107D500000D61049008D1047004610440002104222
:107D600000C00F4000800F3E00420F3C00060F3B5A
:107D700000CB0E3800930E37005C0E3500270E3412
:107D800000F30D3200C10D3100900D3000600D2E5A
:107D900000320D2D00050D2C00D90C2B00AE0C2946
:107DA00000850C29005C0C2700350C27000E0C26E2
:107DB00000E80B2400C40B2400A00B23007D0B2340
:107DC000005A0B2100390B2100180B2000F80A1F64
:107DD00000D90A1E00BB0A1E009D0A1D00800A1D54
:107DE00000630A1C00470A1B002C0A1B00110A1A18
:107DF00000F7091A00DD091900C4091900AB0919B7
:107E000000920917007B091800630917004C091636
:107E10000036091600200916000A091500F5081594
:107E200000E0081400CC081400B8081400A40814DA
:107E300000900813007D0812006B08130058081208
:107E4000004608120034081100230811001208111E
:107E50000001081100F0071000E0071000D0071023
:107E600000C0071000B0070F00A107100091070E17
:107E70000083070F0074070F0065070E0057070EF9
:107E80000049070E003B070D002E070E0020070DCE
:107E90000013070D0006070D00F9060C00ED060D96
:107EA00000E0060C00D4060C00C8060C00BC060C52
:107EB00000B0060C00A4060B0099060C008D060B02
:107EC0000082060B0077060B006C060B0061060AA9
:107ED0000057060B004C060A0042060A0038060A44
:107EE000002E060A0024060A001A060A00100609D7
:107EF0000007060A00FD050900F4050900EB050965
:107F000000E2050900D9050900D0050900C70509E7
:107F100000BE050900B5050800AD050800A5050966
:107F2000009C050800940508008C050800840508DD
:107F3000007C050800740508006C0507006505084D
:107F4000005D050700560508004E050700470507B8
:107F5000004005080038050700310507002A05071D
:107F600000230507001C050600160507000F05077E
:107F7000000805060002050700FB040600F50407DB
:107F800000EE040600E8040600E2040700DB040635
:107F900000D5040600CF040600C9040600C3040689
:107FA00000BD040600B7040600B1040500AC0406D9
:107FB00000A6040600A00405009B04060095040525
:107FC00000900406008A040500850405008004066C
:107FD000007A04050075040500700405006B0405B3
:107FE0000066040500610405005C040500570405F3
:107FF00000520405004D0405004804050043040533
:10800000003E0404003A0405003504050030040471
:10801000002C04050027040400230405001E0404AA
:10802000001A04040016040500110404000D0404E1
:1080300000090405000404040000040400FC030417
:1080400000F8030400F4030400F0030400EC03044C
:1080500000E8030400E4030400E0030400DC03047C
:1080600000D8030400D4030400D0030400CC0304AC
:1080700000C8030300C503030024F404D9201BC473
:108080000C5C0E9804C4095F0265077101F405F9E0
:1080900000FB04B30048048700C10369005803557E
:1080A0000003034500BE023A008402310053022A55
:1080B000002902250004022000E4011C00C8011967
:1080C00000AF011700980114008401130071011022
:1080D000006101100051010E0043010D0036010B3B
:1080E000002B010B0020010B00150109000C0109F8
:1080F0000003010800FB000800F3000800EB000784
:1081000000E4000600DE000600D8000600D20006EB
:1081100000CC000500C7000500C2000500BD00043A
:1081200000B9000400B5000400B1000400AD000473
:1081300000A9000400A5000300A20003009F0004A2
:10814000009B0003009800030095000200930003C9
:1081500000900003008D0002008B000300880002E5
:10816000008600020084000300810002007F0002FC
:10817000007D0002007B0002007900020077000110
:10818000007600020074000200720001007100021B
:10819000006F0002006D0001006C0002006A000127
:1081A000006900020067000100660001006500012F
:1081B0000064000200620001006100010060000133
:1081C000005F0002005D0001005C0001005B000137
:1081D000005A000100590001005800010057000139
:1081E000005600010055000100540001005300003A
:1081F0000053000100520001005100010050000135
:10820000004F0001004E0000004E0001004D000133
:10821000004C0001004B0000004B0001004A00012F
:10822000004900010048000000480001004700012B
:108230000046000000460001004500000045000126
:108240000044000100430000004300010042000020
:108250000042000100410000004100010040000117
:10826000003F0000003F0001003E0000003E000112
:10827000003D0000003D0001003C0000003C00000B
:10828000003C0001003B0000003B0001003A000000
:10829000003A0001003900000039000100380000F8
:1082A00000380000003800010037000000370001EE
:1082B00000360000003600000036000100350000E6
:1082C00000350000003500010034000000340000DB
:1082D00000340001003300000033000000330001CF
:1082E00000320000003200000032000100310000C6
:1082F00000310000003100010030000000300000BB
:1083000000300001002F0000002F0000002F0000AF
:10831000002F0001002E0000002E0000002E0001A2
:10832000002D0000002D0000002D0000002D000198
:10833000002C0000002C0000002C0000002C00018C
:10834000002B0000002B0000002B0000002B000180
:10835000002A0000002A0000002A0000002A000174
:108360000029000000290000002900000029000069
:10837000002900010028000000280000002800005B
:10838000002800000028000100270000002700004E
:108390000027000000270000002700010026000041
:1083A0000026000000260000002600000026000134
:1083B0000025000000250000002500000025000029
:1083C000002500000025000100240000002400001A
:1083D000002400000024000000240001002300000D
:1083E0000023000000230000002300000023000001
:1083F00000230000002300010022000000220000F2
:1084000000220000002200000022000000220001E3
:1084100000210000002100000021000000210000D8
:1084200000210000002100000021000100200000C8
:1084300000200000002000000020000000200000BC
:10844000002000000020000000200001001F0000AC
:10845000001F0000001F0000001F0000001F0000A0
:10846000001F0000001F0001001E0000001E000091
:10847000001E0000001E0000004739322045302E4B
:108480003000473238004D31303920533231350019
:108490004D31393020533630004D31343020533691
:1084A00030004D3130342053323135004D313037CA
:1084B0000047312058352E302045342E30204631AB
:1084C0003030302E30004731205A302E32302046A6
:1084D000313030302E30004731205835352E3020A5
:1084E0004532352046313430302E30004731205966
:1084F0002D322E302046313030302E3000473120A2
:10850000583234302E30204532352E30202046323D
:108510003230302E30004739322045302E3000477F
:1085200031205A302E332046313030302E30004743
:1085300031205835352E302045382E302046323007
:1085400030302E300047312058352E302045333220
:108550002E302046313830302E300047312058350B
:10856000352E30204533322E302046313037332EF1
:1085700030004731204634303030004D3230342026
:108580005331303030004731205A352046373230B1
:10859000302E30303000473120452D312E353030EF
:1085A00030302046323130302E3030303030004DD7
:1085B00038330047393000473231004739322045DF
:1085C000302E300047312058353020593535204580
:1085D000332E36323737330047312058323030208F
:1085E0005935352045302E3439333836004731205F
:1085F00058323030205937352045332E3632373710
:108600003300473120583530205937352045302E3A
:108610003439333836004731205835302059393510
:108620002045332E36323737330047312058323029
:1086300030205939352045302E343933383600470B
:1086400031205832303020593131352045332E36E3
:1086500032373733004731205835302059313135E2
:108660002045302E343933383600473120583530E4
:1086700020593133352045332E36323737330047D2
:1086800031205832303020593133352045302E36A4
:1086900036313734004731205832303020593135A7
:1086A000352045322E3632373733004731205831A6
:1086B0003030205931353520453200473120583788
:1086C0003520593135352045322E35004731204689
:1086D00031303830004731205A302E313530204685
:1086E000373230302E30303000473120583530208E
:1086F0005931353500AC84A2849984908486848273
:10870000847984542564004731205A302E34204621
:10871000313030302E3000473120592D332E30206B
:1087200046313030302E30004D383300473120583C
:108730003130302E30204531322E35204631303028
:10874000302E30004731205836302E302045392E1B
:10875000302046313030302E30005B8545852F8506
:108760001F851685FD84EC84D784C684B184BB85BF
:10877000B785B385AF85968586857B8572854731BC
:1087800020583530205933352045252D2E336600AD
:10879000E986D586CC86BB86AB8695867F866A863B
:1087A00055863F862A8616860286ED85D885C4853D
:1087B000496E76616C6964205049442063616C2E77
:1087C00020726573756C74732E204E6F74207374F1
:1087D0006F72656420746F20454550524F4D2E00D6
:1087E0004D353030004731205A3135204631353053
:1087F0003000473931004731205835302059313960
:108800003020453020463730303000473930004D79
:10881000373032004D3730322043004D3730322070
:1088200055004D373032004D37303220430047314C
:10883000205A313520463135303000473931004734
:1088400031205835302059313930204530204637D5
:10885000303030004D383300473930004D38340067
:108860004D313034205330004D3834004D373032E4
:1088700020430047312058313020593138302046CC
:1088800034303030004731205A31302046313330D7
:10889000302E303030004D313430205330004D31E7
:1088A000303420533000473120452D302E303735BD
:1088B00030302046323130302E3030303030004DC4
:1088C0003130370025530A2025532020252D3364CD
:1088D0000A2025532020252D33640025530A202506
:1088E000532020252D33640A2025532020252D33A5
:1088F000640A20255320252D33640025530A2025A2
:10890000532020252D33640A2025532020252D3384
:10891000640A20255320205820252D336420205917
:1089200020252D33640025530A2025532020252D92
:1089300033640A2025532020252D33640A20255333
:1089400020205820252D336420205920252D3364E4
:10895000002025533A2020256425630A2050494EE3
:1089600044413A2020202025642563002025533AE5
:1089700020202025642563200A2025533A2020202A
:1089800020202025642563200A00205057523A20D9
:10899000202020202025642E25303164560A2042D4
:1089A00045443A20202020202025642E25303164A3
:1089B000560025530A20582025640A205920256492
:1089C000004E6F7A7A6C65202D20203230302F30A7
:1089D00000464C4558202D20203234302F353000B1
:1089E00050502020202D20203235342F31303000BF
:1089F00048495053202D20203232302F3130300062
:108A000041425320202D20203235352F3130300087
:108A100041534120202D20203236302F3130350077
:108A200050455447202D20203233302F3835005008
:108A30004C4120202D20203231352F3630006E6FF2
:108A40007A7A6C65202D20203230302F300066611C
:108A5000726D2020202D20203230302F38300070D1
:108A6000012C0190012701B0012201C0011D01F07C
:108A70000118011002130130020E01600209019079
:108A8000020401C002FF000003FA004003F5008069
