:100000000C94F24D0C94234E0C94234E0C94234EDE
:100010000C94234E0C94E4FF0C94234E0D94E69F15
:100020000C946FFF0C94234E0C94234E0C94234E8F
:100030000C94234E0C94234E0C943DF40D94378570
:100040000C94234E0C94ACB50C94234E0C94234E7C
:100050000C94234E0C94234E0C94234E0D94A143E8
:100060000C94234E0D944C800C94234E0C94234EF0
:100070000C94234E0C94234E0C94234E0C94234E3C
:100080000C94234E0C94234E0C94234E0C94234E2C
:100090000D9408800C94234E0C94234E0C94234E04
:1000A0000C94234E0C94234E0D94AF840C94234E49
:1000B0000C94234E0D9491840C94234E0C94234E57
:1000C0000C94234E0C94234E0C94234E0D941384C5
:1000D0000C94234E0C94234E0C94234E0C94234EDC
:1000E0000C94234EEFA0F8A09BA06AA03AA0E7A32F
:1000F00033A152A2E8A23EA35AA391A376CE76CE14
:1001000079CE76CE79CE7CCE7FCEF5ED08EE1AEEA6
:1001100029EE35EE70EEDFED93EEA7EEA3EEDFED08
:10012000A9EEB5EEBBEED3EECC011C020A028201B1
:100130006201A00174013C020E0296013002FA0134
:1001400004022202A001AA010602D0017601DA010E
:100150007A01FC013A02EC0168019001A8019401C6
:10016000F6014A01EE015C01EC01B4014E01E80127
:100170005A014801DE014402E601BA012002580199
:10018000D8013E02D8013E02D8013E026A01600158
:1001900018027001E4017801B8017E01F4011E0229
:1001A000860184014C013202C60116027C01F00175
:1001B000AC01B00108029801C2011A026E01BC0133
:1001C0003602084AD73B3BCE016E84BCBFFDC12F2F
:1001D0003D6C74319ABD56833DDA3D00C77F11BE38
:1001E000D9E4BB4C3E916BAAAABE000000803F053B
:1001F000A84CCDB2D44EB93836A9020C50B991866C
:1002000088083CA6AAAA2ABE000000803F076342D5
:1002100036B79BD8A71A39685618AEBAAB558C1D9D
:100220003CB7CC5763BD6DEDFD753EF6177231BF1F
:10023000000000803F08000000BE922449123EAB3F
:10024000AAAA2ABECDCCCC4C3E00000080BEABAAF0
:10025000AAAA3E00000000BF000000803F0000008E
:100260000000084178D3BB4387D1133D190E3CC32E
:10027000BD4282AD2B3E68EC8276BED98FE1A93EAD
:100280004C80EFFFBE01C4FF7F3F00000000000074
:100290000D94CB430D948A0E0D9472630D94B70E9A
:1002A0000D94760C0D943F8F0D94C95B0D940F61E6
:1002B0000D9437440D94BD430D94A30E0D94E44268
:1002C0000D94F0450D94AA0B0D94980C0D94BC69F7
:1002D0000D945C0E0D94EE450D94B18E0D942AA3F1
:1002E0000D9423640D940B750D94B50B0D94340E81
:1002F0000D94E8630D943E0E0D949CA20D94D26370
:100300000D94940C0D94A40B0D94A0630D9438647B
:100310000D949D880D94CD0C0D9433690D948F0C24
:100320000D94640E0D94E8680D94760E0D94C30B35
:100330000D94EFA20D94705F0D94F30B0D94165273
:100340000D94E80B0D94EF600D94466A0D94696569
:100350000D946C0E0D94DB0B0D94D3A20D94E90B50
:100360000D94D9A20D941AC80D94AD0E0D94DD5FB5
:100370000D94DD630D94FF430D9430A30D94E37F42
:100380000D943C5D0D94FFA20D9438130D9478A24A
:100390000D94AD5C0D9481600D94AE0B0D940A1319
:1003A0000D94E30B0D946B5F0D94710C0D942C98D0
:1003B0000D94EA450D94390E0D94BD880D94D943E2
:1003C0000D94FD5B0D94D3680D94F3630D94F84385
:1003D0000D94C10E0D9496390D94CB0E0D94990E7B
:1003E0000D94B2A20D94594D0D94C7630D94800ED7
:1003F0000D94658E0D94CD0B0D94480E0D943E60BA
:100400000D941E130D94EF0B0D94D10B0D94DF0B77
:100410000D94DFA20D94A00B0D94CA7F0D94BF0B19
:100420000D94955B0D947B0C0D94F80B0D9488A2A4
:100430000D946A610D940FA30D94B10B0D94486453
:100440000D9421440D94D50B0D94DB0C0D9441C6F5
:100450000D948A0C0D94850C0D94575C0D94AE523E
:100460000D94C70B0D9440630D942E6B0D9440A317
:100470000D943B650D94520E0D94B90B0D94EC4503
:100480000D94800C0D946B5D0D94E6430D94AC4C73
:100490005F5345435F4C414E4700000000000000A1
:1004A000000000000000000000000000000000004C
:1004B000000000000000000000000000000000003C
:1004C000000000000000000000000000000000002C
:1004D000000000000000000000000000000000001C
:10349000FFFF472D636F646520736C69636564206B
:1034A000666F72206120646966666572656E74205D
:1034B0006C6576656C2E20436F6E74696E75653F22
:1034C00000FFFF472D636F646520736C696365645B
:1034D00020666F72206120646966666572656E742D
:1034E000206C6576656C2E20506C6561736520726A
:1034F000652D736C69636520746865206D6F646504
:103500006C20616761696E2E205072696E74206351
:10351000616E63656C6C65642E00FFFF472D636F01
:10352000646520736C6963656420666F7220612036
:103530006E65776572206669726D776172652E209F
:10354000506C656173652075706461746520746882
:1035500065206669726D776172652E205072696EA2
:10356000742063616E63656C6C65642E00FFFF47B9
:103570002D636F646520736C6963656420666F7288
:103580002061206E65776572206669726D77617261
:10359000652E20436F6E74696E75653F00FFFF47AF
:1035A0002D636F646520736C6963656420666F7258
:1035B000206120646966666572656E742070726948
:1035C0006E74657220747970652E20506C6561731D
:1035D000652072652D736C69636520746865206D64
:1035E0006F64656C20616761696E2E205072696E30
:1035F000742063616E63656C6C65642E00FFFF4729
:103600002D636F646520736C6963656420666F72F7
:10361000206120646966666572656E7420707269E7
:103620006E74657220747970652E20436F6E7469B4
:103630006E75653F00FFFF472D636F646520736CF7
:103640006963656420666F722061206469666665DF
:1036500072656E74207072696E7465722074797010
:10366000652E20436F6E74696E75653F00FFFF47DE
:103670002D636F646520736C6963656420666F7287
:10368000206120646966666572656E742070726977
:103690006E74657220747970652E20506C6561734C
:1036A000652072652D736C69636520746865206D93
:1036B0006F64656C20616761696E2E205072696E5F
:1036C000742063616E63656C6C65642E00FFFF504F
:1036D00072657373206B6E6F6220746F20707265F9
:1036E00068656174206E6F7A7A6C6520616E642003
:1036F000636F6E74696E75652E00FFFF506C6561B7
:10370000736520707265737320746865206B6E6FCB
:103710006220746F20756E6C6F61642066696C61E5
:103720006D656E7400FFFF52656D6F7665206F6C7E
:10373000642066696C616D656E7420616E642070D2
:103740007265737320746865206B6E6F6220746F8E
:10375000207374617274206C6F6164696E67206E8F
:1037600065772066696C616D656E742E00FFFF6180
:103770006E6420707265737320746865206B6E6F61
:103780006200FFFF496E736572742066696C616D3B
:10379000656E7400FFFF436F6C6F72206E6F742054
:1037A000636F727265637400FFFF46696C616D65DB
:1037B0006E74206E6F74206C6F6164656400FFFF2F
:1037C0004368616E67656420636F72726563746CD1
:1037D000793F00FFFF4C6F6164696E6720636F6C17
:1037E0006F7200FFFF4368616E67652073756363E6
:1037F0006573732100FFFF506C65617365206F7006
:10380000656E2069646C657220616E642072656DFE
:103810006F76652066696C616D656E74206D616E92
:1038200075616C6C792E00FFFF5761732066696CBF
:10383000616D656E7420756E6C6F61642073756365
:103840006365737366756C3F00FFFF506C65617351
:103850006520757067726164652E00FFFF4E6577A5
:10386000206669726D776172652076657273696F23
:103870006E20617661696C61626C653A00FFFF578A
:10388000616974696E6720666F722050494E4441C9
:103890002070726F626520636F6F6C696E6700FFE6
:1038A000FF43726173682064657465637465642E98
:1038B00020526573756D65207072696E743F00FFEC
:1038C000FF43726173682064657465637465642E78
:1038D00000FFFF43686F6F736520657874727564CD
:1038E00065723A00FFFF457874727564657200FF77
:1038F000FF43686F6F73652066696C616D656E74F8
:103900003A00FFFF4E6F206D6F76652E00FFFF5768
:1039100061697420666F7220757365722E2E2E0099
:10392000FFFF536F6D652070726F626C656D20656F
:103930006E636F756E74657265642C205A2D6C65AC
:1039400076656C696E6720656E666F72636564206C
:103950002E2E2E00FFFF537461626C6520616D6234
:1039600069656E742074656D7065726174757265D9
:103970002032312D323643206973206E65656465CF
:10398000642061207269676964207374616E6420C9
:1039900069732072657175697265642E00FFFF504E
:1039A0006C656173652072756E2058595A20636189
:1039B0006C6962726174696F6E2066697273742ECD
:1039C00000FFFF4D4B3353206669726D776172655E
:1039D000206465746563746564206F6E204D4B339D
:1039E000207072696E74657200FFFF534B454C4541
:1039F00053545255444552204D4B3353204F4B2E78
:103A000000FFFF426C61636B6F7574206F636375B9
:103A1000727265642E205265636F766572207072D3
:103A2000696E743F00FFFF53656C667465737420A4
:103A300077696C6C2062652072756E20746F2063EC
:103A4000616C69627261746520616363757261742F
:103A5000652073656E736F726C6573732072656831
:103A60006F6D696E672E00FFFF546865726520698F
:103A700073207374696C6C2061206E6565642074BA
:103A80006F206D616B65205A2063616C69627261A1
:103A900074696F6E2E20506C6561736520666F6C63
:103AA0006C6F7720746865206D616E75616C2C2079
:103AB00063686170746572204669727374207374F0
:103AC0006570732C2073656374696F6E2043616C3D
:103AD0006962726174696F6E20666C6F772E00FF89
:103AE000FF5072696E74657220686173206E6F7426
:103AF000206265656E2063616C69627261746564E1
:103B0000207965742E20506C6561736520666F6C3A
:103B10006C6F7720746865206D616E75616C2C2008
:103B2000636861707465722046697273742073747F
:103B30006570732C2073656374696F6E2043616CCC
:103B40006962726174696F6E20666C6F772E00FF18
:103B5000FF4F6C642073657474696E677320666FC1
:103B6000756E642E2044656661756C7420504944FE
:103B70002C20457374657073206574632E207769FB
:103B80006C6C206265207365742E00FFFF576172B4
:103B90006E696E673A20626F7468207072696E7425
:103BA0006572207479706520616E64206D6F746831
:103BB0006572626F617264207479706520636861F8
:103BC0006E6765642E00FFFF5761726E696E673A1B
:103BD000207072696E7465722074797065206368F4
:103BE000616E6765642E00FFFF5761726E696E67D4
:103BF0003A206D6F74686572626F617264207479C7
:103C00007065206368616E6765642E00FFFF585918
:103C10005A2063616C6962726174696F6E20616CB5
:103C20006C2072696768742E20536B657720776902
:103C30006C6C20626520636F7272656374656420CA
:103C40006175746F6D61746963616C6C792E00FFCE
:103C5000FF58595A2063616C6962726174696F6EB2
:103C600020616C6C2072696768742E20582F59206F
:103C7000617865732061726520736C696768746C24
:103C80007920736B657765642E20476F6F64206AB7
:103C90006F622100FFFF58595A2063616C6962729C
:103CA0006174696F6E206F6B2E20582F59206178D8
:103CB0006573206172652070657270656E646963FA
:103CC000756C61722E20436F6E67726174756C61E2
:103CD00074696F6E732100FFFF58595A2063616C3D
:103CE0006962726174696F6E20636F6D70726F6D5F
:103CF000697365642E2052696768742066726F6EFE
:103D0000742063616C6962726174696F6E20706F98
:103D1000696E74206E6F7420726561636861626C95
:103D2000652E00FFFF58595A2063616C6962726109
:103D300074696F6E20636F6D70726F6D6973656407
:103D40002E2046726F6E742063616C6962726174BA
:103D5000696F6E20706F696E7473206E6F7420725D
:103D60006561636861626C652E00FFFF58595A20D7
:103D700063616C6962726174696F6E206661696CFF
:103D800065642E2052696768742066726F6E7420B5
:103D900063616C6962726174696F6E20706F696EC5
:103DA00074206E6F7420726561636861626C652E49
:103DB00000FFFF58595A2063616C6962726174692F
:103DC0006F6E206661696C65642E2046726F6E743A
:103DD0002063616C6962726174696F6E20706F69D3
:103DE0006E7473206E6F7420726561636861626CBB
:103DF000652E00FFFF58595A2063616C6962726139
:103E000074696F6E206661696C65642E20506C6504
:103E100061736520636F6E73756C742074686520C0
:103E20006D616E75616C2E00FFFF58595A206361F9
:103E30006C6962726174696F6E206661696C656439
:103E40002E204265642063616C6962726174696FDF
:103E50006E20706F696E7420776173206E6F7420AE
:103E6000666F756E642E00FFFF506C656173652090
:103E7000706C61636520737465656C20736865653B
:103E800074206F6E20686561746265642E00FFFFA8
:103E900044697374616E6365206265747765656EED
:103EA00020746970206F6620746865206E6F7A7A5E
:103EB0006C6520616E64207468652062656420739F
:103EC00075726661636520686173206E6F7420622D
:103ED00065656E20736574207965742E20506C655D
:103EE00061736520666F6C6C6F7720746865206DF8
:103EF000616E75616C2C2063686170746572204618
:103F0000697273742073746570732C2073656374A5
:103F1000696F6E204669727374206C6179657220D6
:103F200063616C6962726174696F6E2E00FFFF508D
:103F30006C6163652061207368656574206F66201D
:103F4000706170657220756E64657220746865209A
:103F50006E6F7A7A6C6520647572696E672074681A
:103F6000652063616C6962726174696F6E206F664F
:103F7000206669727374203420706F696E74732EBA
:103F800020496620746865206E6F7A7A6C652063BC
:103F90006174636865732074686520706170657210
:103FA0002C20706F776572206F66662074686520BC
:103FB0007072696E74657220696D6D656469617493
:103FC000656C792E00FFFF506C656173652072652A
:103FD0006D6F766520737465656C207368656574B4
:103FE0002066726F6D20686561746265642E00FFE3
:103FF000FF497320737465656C2073686565742070
:104000006F6E20686561746265643F00FFFF206F1A
:1040100066203400FFFF536561726368696E672034
:104020006265642063616C6962726174696F6E209D
:10403000706F696E7400FFFF206F66203900FFFF0C
:104040004D6561737572696E67207265666572652C
:104050006E636520686569676874206F66206361B8
:104060006C6962726174696F6E20706F696E740042
:10407000FFFF506C6561736520636C65616E207431
:104080006865206E6F7A7A6C6520666F7220636156
:104090006C6962726174696F6E2E20436C69636B28
:1040A000207768656E20646F6E652E00FFFF417596
:1040B000746F20686F6D6500FFFF426564206C655A
:1040C00076656C696E67206661696C65642E205345
:1040D000656E736F72206469646E742074726967B0
:1040E0006765722E20446562726973206F6E206E60
:1040F0006F7A7A6C653F2057616974696E672066D4
:104100006F722072657365742E00FFFF506C6561DD
:10411000736520757064617465206669726D77617E
:10412000726520696E20796F7572204D4D55322E63
:104130002057616974696E6720666F7220726573BB
:1041400065742E00FFFF4669726D7761726500FF2E
:10415000FF4D6F64656C00FFFF53747269637400F8
:10416000FFFF5761726E00FFFF485720536574755B
:104170007000FFFF485720536574757000FFFF43C0
:104180006865636B7300FFFF4E6F7A7A6C6520641D
:104190002E00FFFF537465656C207368656574734A
:1041A00000FFFF4E6F6E6500FFFF416C706861623B
:1041B000657400FFFF536F727400FFFF54696D65F3
:1041C00000FFFF5344206361726400FFFF466C618F
:1041D000736841697200FFFF53656C656374206CFE
:1041E000616E677561676500FFFF52506920706FEF
:1041F000727400FFFF54656D702E2063616C2E0099
:10420000FFFF4C696E2E20636F7272656374696F75
:104210006E00FFFF4D65736820626564206C6576F3
:10422000656C696E6700FFFF4857205365747570B1
:1042300000FFFF46616E7320636865636B00FFFFDC
:10424000462E206175746F6C6F616400FFFF4469D6
:104250007361626C6520737465707065727300FFC2
:10426000FF4D6F7665206178697300FFFF54656DBF
:10427000706572617475726500FFFF54656D702E14
:104280002063616C6962726174696F6E00FFFF5236
:10429000657365742058595A2063616C6962722E87
:1042A00000FFFF5049442063616C69627261746968
:1042B0006F6E00FFFF426564206C6576656C20635D
:1042C0006F727265637400FFFF4D6573682042650D
:1042D00064204C6576656C696E6700FFFF43616C16
:1042E000696272617465205A00FFFF43616C696204
:1042F000726174652058595A00FFFF53656C6674EB
:1043000065737420202020202020202000FFFF4201
:10431000656C742074657374202020202020202078
:1043200000FFFF57697A61726400FFFF4C6F6164A0
:1043300020616C6C00FFFF746F20756E6C6F6164A0
:104340002066696C616D656E7400FFFF746F206C90
:104350006F61642066696C616D656E7400FFFF506B
:104360007265737320746865206B6E6F6200FFFF67
:104370003E43616E63656C00FFFF50726568656166
:1043800074696E6720746F2063757400FFFF50724C
:104390006568656174696E6720746F20656A65631E
:1043A0007400FFFF50726568656174696E67207400
:1043B0006F20756E6C6F616400FFFF5072656865F9
:1043C0006174696E6720746F206C6F616400FFFF19
:1043D000436F6F6C646F776E00FFFF5072656865A6
:1043E000617420746865206E6F7A7A6C652100FFB5
:1043F000FF4552524F523A00FFFF46696C616D65AE
:104400006E7420657874727564696E6720262077F3
:1044100069746820636F727265637420636F6C6F78
:10442000723F00FFFF4175746F6C6F6164696E6766
:104430002066696C616D656E7420697320616374B8
:104440006976652C206A75737420707265737320A9
:10445000746865206B6E6F6220616E6420696E7394
:104460006572742066696C616D656E742E2E2E0007
:10447000FFFF46696C616D656E742075736564003D
:10448000FFFF5072696E742074696D6500FFFF5400
:104490006F74616C2066696C616D656E7400FFFFFE
:1044A000546F74616C207072696E742074696D65EC
:1044B00000FFFF592064697374616E636520667242
:1044C0006F6D206D696E00FFFF4C65667400FFFF25
:1044D000526967687400FFFF4D65617375726564AA
:1044E00020736B657700FFFF536C696768742073F6
:1044F0006B65773A00FFFF53657665726520736BD5
:1045000065773A00FFFF5B303B305D20706F696E6E
:1045100074206F666673657400FFFF41646A75738B
:1045200074696E67205A3A00FFFF52657365740024
:10453000FFFF526561722073696465205B756D5D74
:1045400000FFFF46726F6E7420736964655B756D62
:104550005D00FFFF526967687420736964655B756D
:104560006D5D00FFFF4C6566742073696465205BB8
:10457000756D5D00FFFF5365742074656D70657225
:1045800061747572653A00FFFF536F7274696E67EC
:104590002066696C657300FFFF536F6D6520666967
:1045A0006C65732077696C6C206E6F742062652077
:1045B000736F727465642E204D61782E204E6F2EBD
:1045C000206F662066696C657320696E20312066F5
:1045D0006F6C64657220666F7220736F7274696E9F
:1045E00067206973203130302E00FFFF456A656314
:1045F000742066696C616D656E7400FFFF437574AD
:104600002066696C616D656E7400FFFF506C6561BA
:1046100073652070756C6C206F75742066696C61B1
:104620006D656E7420696D6D6564696174656C7922
:1046300000FFFF556E6C6F6164696E672066696C80
:10464000616D656E7400FFFF526573756D696E670D
:10465000207072696E7400FFFF526573657400FF0D
:10466000FF52656E616D6500FFFF466972737420CD
:104670006C617965722063616C2E00FFFF53656C7D
:1046800065637400FFFF537465656C20736865652E
:10469000747300FFFF536865657400FFFF53757006
:1046A000706F727400FFFF4661696C2073746174EF
:1046B00073204D4D5500FFFF4661696C2073746196
:1046C000747300FFFF5374617469737469637320BA
:1046D0002000FFFF43616C6962726174696F6E0054
:1046E000FFFF4175746F4C6F61642066696C616D8A
:1046F000656E7400FFFF4375742066696C616D65BB
:104700006E7400FFFF456A6563742066696C616DB5
:10471000656E7400FFFF556E6C6F61642066696C96
:10472000616D656E7400FFFF4C6F616420746F20D3
:104730006E6F7A7A6C6500FFFF4C6F61642066696A
:104740006C616D656E7400FFFF4E6F2053442063F3
:1047500061726400FFFF526573756D652070726948
:104760006E7400FFFF5061757365207072696E741E
:1047700000FFFF526573756D65207072696E74007D
:10478000FFFF5072656865617400FFFF54756E65C8
:1047900000FFFF4C6976652061646A757374205A66
:1047A00000FFFF496E666F2073637265656E00FFE0
:1047B000FF46696E697368696E67206D6F76656D17
:1047C000656E747300FFFF4272696768746E65738B
:1047D0007300FFFF41737369737400FFFF53696CCB
:1047E000656E7400FFFF4F6E636500FFFF536F75CA
:1047F0006E6400FFFF4C6F756400FFFF4D4D552048
:104800004D6F646500FFFF437261736820646574D7
:104810002E00FFFF537465616C746800FFFF4E6FDC
:10482000726D616C00FFFF46616E732063686563A3
:104830006B00FFFF506175736500FFFF4653204119
:104840006374696F6E00FFFF436F6E742E00FFFF8D
:1048500046696C2E2073656E736F7200FFFF4368AC
:10486000616E67652066696C616D656E7400FFFF3F
:10487000466C6F7700FFFF537065656400FFFF456E
:104880007874727564657200FFFF4D6F7665205A0B
:1048900000FFFF4D6F7665205900FFFF4D6F766575
:1048A000205800FFFF43726173682064657465637C
:1048B00074696F6E2063616E0A6265207475726E32
:1048C0006564206F6E206F6E6C7920696E0A4E6F82
:1048D000726D616C206D6F646500FFFF5741524E31
:1048E000494E473A0A437261736820646574656390
:1048F00074696F6E0A64697361626C656420696EC5
:104900000A537465616C7468206D6F646500FFFF05
:104910004175746F6C6F6164696E672066696C6164
:104920006D656E7420617661696C61626C65206F83
:104930006E6C79207768656E2066696C616D656E56
:10494000742073656E736F72206973207475726E54
:104950006564206F6E2E2E2E00FFFF4552524F527F
:104960003A2046696C616D656E742073656E736F75
:1049700072206973206E6F7420726573706F6E643D
:10498000696E672C20706C65617365206368656370
:104990006B20636F6E6E656374696F6E2E00FFFF30
:1049A0004D6F6465206368616E676520696E207075
:1049B000726F6772657373202E2E2E00FFFF436F98
:1049C00070792073656C6563746564206C616E67D3
:1049D000756167653F00FFFF43616C6962726174D6
:1049E0006500FFFF536865657420252E37730A5AEA
:1049F000206F66667365743A20252B312E3366204E
:104A00006D6D0A2563436F6E74696E75650A256363
:104A100053746172742066726F6D207A65726F00D4
:104A2000FFFF506C65617365206C6F61642066697F
:104A30006C616D656E742066697273742E00FFFF81
:104A400049732066696C616D656E74206C6F61647A
:104A500065643F00FFFF53656C6563742066696C95
:104A6000616D656E743A00FFFF46696C616D656E3D
:104A70007400FFFF43616E63656C00FFFF52756E4B
:104A80006E696E672057697A6172642077696C6C11
:104A90002064656C6574652063757272656E742040
:104AA00063616C6962726174696F6E20726573759F
:104AB0006C747320616E642073746172742066720A
:104AC0006F6D2074686520626567696E6E696E67D8
:104AD0002E20436F6E74696E75653F00FFFF507244
:104AE0006568656174696E67206E6F7A7A6C652E91
:104AF00020506C6561736520776169742E00FFFF3B
:104B00004C6F6164696E672066696C616D656E7477
:104B100000FFFF506C6561736520696E7365727488
:104B20002066696C616D656E7420696E746F2074A7
:104B300068652065787472756465722C2074686588
:104B40006E20707265737320746865206B6E6F627F
:104B500020746F206C6F61642069742E00FFFF5019
:104B60006C6561736520696E736572742066696C2B
:104B7000616D656E7420696E746F2074686520665F
:104B8000697273742074756265206F66207468653D
:104B9000204D4D552C207468656E207072657373BE
:104BA00020746865206B6E6F6220746F206C6F617B
:104BB000642069742E00FFFF546865207072696E6E
:104BC0007465722077696C6C2073746172742070E4
:104BD00072696E74696E672061207A69672D7A61E7
:104BE00067206C696E652E20526F74617465207445
:104BF0006865206B6E6F6220756E74696C20796FCA
:104C00007520726561636820746865206F707469CF
:104C10006D616C206865696768742E204368656300
:104C20006B207468652070696374757265732069A0
:104C30006E207468652068616E64626F6F6B2028F7
:104C400043616C6962726174696F6E206368617040
:104C5000746572292E00FFFF53656C6563742074C0
:104C6000656D7065726174757265207768696368D7
:104C7000206D61746368657320796F7572206D6152
:104C800074657269616C2E00FFFF43686F6F736516
:104C900020612066696C616D656E7420666F72209C
:104CA000746865204669727374204C61796572205E
:104CB00043616C6962726174696F6E20616E642019
:104CC00073656C65637420697420696E207468650F
:104CD000206F6E2D73637265656E206D656E752E27
:104CE00000FFFF4E6F7720492077696C6C2063616D
:104CF0006C6962726174652064697374616E636566
:104D0000206265747765656E20746970206F662017
:104D1000746865206E6F7A7A6C6520616E642068B5
:104D200065617462656420737572666163652E00E7
:104D3000FFFF596F752063616E20616C7761797335
:104D400020726573756D65207468652057697A6196
:104D500072642066726F6D2043616C696272617467
:104D6000696F6E202D3E2057697A6172642E00FFB4
:104D7000FF506C6561736520636865636B206F75B8
:104D8000722068616E64626F6F6B20616E64206672
:104D90006978207468652070726F626C656D2E2072
:104DA0005468656E20726573756D65207468652042
:104DB00057697A617264206279207265626F6F74DC
:104DC000696E6720746865207072696E7465722EF2
:104DD00000FFFF416C6C20697320646F6E652E20AC
:104DE0004861707079207072696E74696E67210015
:104DF000FFFF496620796F752068617665206164E0
:104E0000646974696F6E616C20737465656C20737E
:104E100068656574732C2063616C69627261746586
:104E20002074686569722070726573657473206997
:104E30006E2053657474696E6773202D2048572067
:104E40005365747570202D20537465656C207368EC
:104E5000656574732E00FFFF506C65617365206398
:104E60006C65616E206865617462656420616E6462
:104E7000207468656E207072657373207468652095
:104E80006B6E6F622E00FFFF446F20796F75207785
:104E9000616E7420746F20726570656174206C613E
:104EA0007374207374657020746F20726561646A16
:104EB0007573742064697374616E636520626574D0
:104EC0007765656E206E6F7A7A6C6520616E6420FE
:104ED000686561746265643F00FFFF53656C6563DC
:104EE00074206E6F7A7A6C65207072656865617483
:104EF0002074656D7065726174757265207768697C
:104F00006368206D61746368657320796F757220C2
:104F10006D6174657269616C2E00FFFF49732066D4
:104F2000696C616D656E74206C6F616465643F00CF
:104F3000FFFF49732066696C616D656E74206C6F4C
:104F4000616465643F00FFFF4E6F772049207769F9
:104F50006C6C2070726568656174206E6F7A7A6C13
:104F60006520666F7220504C412E00FFFF4920776C
:104F7000696C6C2072756E207A2063616C69627254
:104F80006174696F6E206E6F772E00FFFF4E6F7732
:104F90002072656D6F766520746865207465737422
:104FA000207072696E742066726F6D20737465650F
:104FB0006C2073686565742E00FFFF506C6561732B
:104FC000652072656D6F7665207368697070696EB3
:104FD000672068656C706572732066697273742EE1
:104FE00000FFFF492077696C6C2072756E2078791C
:104FF0007A2063616C6962726174696F6E206E6F92
:10500000772E2049742077696C6C2074616B652061
:10501000617070726F782E203132206D696E732E40
:1050200000FFFF46697273742C20492077696C6C0D
:105030002072756E207468652073656C6674657384
:105040007420746F20636865636B206D6F737420C8
:10505000636F6D6D6F6E20617373656D626C792027
:1050600070726F626C656D732E00FFFF48692C20B3
:105070004920616D20796F7572204F726967696E82
:10508000616C205072757361206933207072696E93
:105090007465722E20576F756C6420796F75206C63
:1050A000696B65206D6520746F2067756964652084
:1050B000796F75207468726F7567682074686520F1
:1050C00073657475702070726F636573733F00FF52
:1050D000FF452D636F72726563743A00FFFF5A2DAE
:1050E000636F72726563743A00FFFF592D636F72CC
:1050F000726563743A00FFFF582D636F72726563C7
:10510000743A00FFFF53706F6F6C4A6F696E00FF57
:10511000FF43757474657200FFFF5265636F7665B7
:1051200072696E67207072696E742020202000FF03
:10513000FF4572726F72202D207374617469632051
:105140006D656D6F727920686173206265656E2090
:105150006F7665727772697474656E00FFFF4361E4
:1051600072642072656D6F76656400FFFF4F6E009C
:10517000FFFF4F666600FFFF4261636B00FFFF5059
:1051800072696E746572206E6F7A7A6C65206469DC
:10519000616D657465722064696666657273206608
:1051A000726F6D2074686520472D636F64652E20D3
:1051B000506C6561736520636865636B2074686516
:1051C0002076616C756520696E2073657474696EF4
:1051D00067732E205072696E742063616E63656C14
:1051E0006C65642E00FFFF5072696E746572206EEC
:1051F0006F7A7A6C65206469616D6574657220648C
:105200006966666572732066726F6D2074686520CA
:10521000472D636F64652E20436F6E74696E7565EC
:105220003F00FFFF506C6561736520776169740012
:10523000FFFF54656D7065726174757265206361FE
:105240006C6962726174696F6E206661696C656415
:1052500000FFFF54656D706572617475726520633F
:10526000616C6962726174696F6E2069732066692E
:105270006E697368656420616E6420616374697629
:10528000652E2054656D702E2063616C69627261B9
:1052900074696F6E2063616E20626520646973615A
:1052A000626C656420696E206D656E75205365744F
:1052B00074696E67732D3E54656D702E2063616C4A
:1052C0002E00FFFF49523A00FFFF46494E44413A43
:1052D00000FFFF50494E44413A00FFFF53656E7393
:1052E0006F7220737461746500FFFF756E6B6E6F73
:1052F000776E20737461746500FFFF20302E3420B8
:105300006F72206E6577657200FFFF20302E3320AC
:105310006F72206F6C64657200FFFF436865636B9A
:10532000696E6720592061786973202000FFFF4370
:105330006865636B696E6720582061786973202007
:1053400000FFFF506C6561736520756E6C6F616462
:10535000207468652066696C616D656E742066698D
:105360007273742C207468656E2072657065617448
:10537000207468697320616374696F6E2E00FFFF8B
:10538000496E73657274207468652066696C616D1E
:10539000656E742028646F206E6F74206C6F61647A
:1053A0002069742920696E746F207468652065789F
:1053B00074727564657220616E64207468656E2015
:1053C000707265737320746865206B6E6F622E0057
:1053D000FFFF566572696669636174696F6E206666
:1053E00061696C65642C2072656D6F7665207468E8
:1053F000652066696C616D656E7420616E642074F1
:10540000727920616761696E2E00FFFF53656E73CC
:105410006F722076657269666965642C2072656DAD
:105420006F7665207468652066696C616D656E7461
:10543000206E6F772E00FFFF506C656173652063EF
:105440006865636B207468652049522073656E73CC
:105450006F7220636F6E6E656374696F6E2C20755A
:105460006E6C6F61642066696C616D656E74206935
:10547000662070726573656E742E00FFFF57616958
:1054800074696E6720666F72206E6F7A7A6C652021
:10549000616E642062656420636F6F6C696E670083
:1054A000FFFF53656C662074657374204F4B00FFDB
:1054B000FF53656C66207465737420737461727435
:1054C000202000FFFF5072696E742066616E3A0002
:1054D000FFFF45787472756465722066616E3A00EC
:1054E000FFFF43616C6962726174696E6720686F67
:1054F0006D6500FFFF416C6C20636F7272656374B1
:1055000020202020202000FFFF436865636B696E28
:10551000672073656E736F72732000FFFF436865C9
:10552000636B696E6720686F74656E64202000FF8E
:10553000FF436865636B696E6720626564202020A5
:10554000202000FFFF436865636B696E67205A2067
:1055500061786973202000FFFF436865636B696EA3
:105560006720592061786973202000FFFF43686538
:10557000636B696E6720582061786973202000FF93
:10558000FF436865636B696E6720656E6473746F53
:10559000707300FFFF50494E4441204865617469B3
:1055A0006E6700FFFF43616C6962726174696F6EC0
:1055B00020646F6E6500FFFF43616C696272617405
:1055C000696E67205A00FFFF42656420646F6E6554
:1055D00000FFFF4265642048656174696E6700FFE3
:1055E000FF48656174696E6720646F6E652E00FF09
:1055F000FF48656174696E6700FFFF4D31313720E8
:105600004669727374206C617965722063616C2ED7
:1056100000FFFF5049442063616C2E2066696E696B
:105620007368656400FFFF5049442063616C2E205D
:105630002020202020202020202000FFFF50726901
:105640006E742070617573656400FFFF5072696E3F
:10565000742046414E00FFFF4E6F7A7A6C652046FB
:10566000414E00FFFF546F74616C00FFFF4C61738B
:1056700074207072696E7400FFFF4C617374207047
:1056800072696E74206661696C7572657300FFFFE4
:105690004D4D55206661696C7300FFFF4D4D5520DF
:1056A0006C6F6164206661696C7300FFFF546F74F6
:1056B000616C206661696C7572657300FFFF4D4D0A
:1056C00055206661696C7300FFFF4D4D55206C6F6E
:1056D0006164206661696C7300FFFF4D4D55207059
:1056E0006F776572206661696C7300FFFF546F7499
:1056F000616C206661696C7572657300FFFF506FA5
:10570000776572206661696C7572657300FFFF468C
:10571000696C616D2E2072756E6F75747300FFFF7A
:10572000437261736800FFFF4C617374207072698B
:105730006E74206661696C7572657300FFFF506F4F
:10574000776572206661696C7572657300FFFF464C
:10575000696C616D2E2072756E6F75747300FFFF3A
:10576000437261736800FFFF546F74616C00FFFF48
:105770004C617374207072696E7400FFFF50494E63
:10578000444100FFFF416D6269656E7400FFFF4296
:10579000656C742073746174757300FFFF566F6CD1
:1057A000746167657300FFFF54656D7065726174A5
:1057B0007572657300FFFF42656C742073746174C9
:1057C000757300FFFF53656E736F7220696E666FAD
:1057D00000FFFF457874727564657220696E666FAC
:1057E00000FFFF58595A2063616C2E206465746174
:1057F000696C7300FFFF756E6B6E6F776E00FFFF55
:105800004D4D553220636F6E6E656374656400FFA5
:10581000FF446174653A00FFFF686F77746F2E7004
:105820007275736133642E636F6D00FFFF666F7274
:10583000756D2E707275736133642E636F6D00FF2A
:10584000FF707275736133642E636F6D00FFFF4DDF
:1058500061676E65747320636F6D702E00FFFF4E7D
:105860002F4100FFFF5A2D70726F6265206E722EFD
:1058700000FFFF4D65736800FFFF54696D656F752C
:105880007400FFFF4D6F646500FFFF4175746F008A
:10589000FFFF44696D00FFFF42726967687400FF93
:1058A000FF4C6576656C2044696D6D656400FFFF93
:1058B0004C6576656C2042726967687400FFFF462C
:1058C000616E20737065656400FFFF42656400FFD0
:1058D000FF4E6F7A7A6C6500FFFF53657474696ED2
:1058E000677300FFFF5072696E742061626F72749B
:1058F000656400FFFF53746F70207072696E7400EE
:10590000FFFF46696C6520696E636F6D706C65742E
:10591000652E20436F6E74696E756520616E7977B0
:1059200061793F00FFFF5072696E742066726F6D7F
:1059300020534400FFFF4D61696E00FFFF53544F39
:10594000505045442E2000FFFF4D4D55204F4B2E0B
:1059500020526573756D696E672E2E2E00FFFF4D08
:105960004D55204F4B2E20526573756D696E672023
:10597000706F736974696F6E2E2E2E00FFFF4D4D90
:1059800055204F4B2E20526573756D696E672074DC
:10599000656D70657261747572652E2E2E00FFFF45
:1059A0004669782074686520697373756520616E37
:1059B00064207468656E20707265737320627574FC
:1059C000746F6E206F6E204D4D5520756E69742E6C
:1059D00000FFFF507265737320746865206B6E6FF3
:1059E0006220746F20726573756D65206E6F7A7AB0
:1059F0006C652074656D70657261747572652E00DA
:105A0000FFFF4D4D55206E6565647320757365729B
:105A100020617474656E74696F6E2E00FFFF4375AC
:105A20007474696E672066696C616D656E7400FFE1
:105A3000FF506C656173652072656D6F76652066D9
:105A4000696C616D656E7420616E64207468656E4A
:105A500020707265737320746865206B6E6F622EA0
:105A600000FFFF456A656374696E672066696C6153
:105A70006D656E7400FFFF4D4D55206C6F616420A5
:105A80006661696C6564202020202000FFFF596555
:105A90007300FFFF4E6F00FFFF4E6F74207370693D
:105AA0006E6E696E6700FFFF5370696E6E696E6798
:105AB00000FFFF46616E207465737400FFFF53653D
:105AC0006C6674657374206661696C65642020007F
:105AD000FFFF2573206C6576656C206578706563C3
:105AE00074656400FFFF46616C73652074726967BA
:105AF000676572696E6700FFFF46696C616D656E70
:105B0000742073656E736F7200FFFF53776170705E
:105B1000656400FFFF46726F6E742F6C65667420BB
:105B200066616E7300FFFF4178697300FFFF417883
:105B30006973206C656E67746800FFFF4C6F6F734C
:105B4000652070756C6C657900FFFF4C656674208C
:105B5000686F74656E642066616E3F00FFFF467279
:105B60006F6E74207072696E742066616E3F00FF04
:105B7000FF456E6473746F70206E6F742068697473
:105B800000FFFF456E6473746F7000FFFF4D6F740C
:105B90006F7200FFFF456E6473746F707300FFFFD8
:105BA000576972696E67206572726F7200FFFF42FB
:105BB0006564202F2048656174657200FFFF4E6F99
:105BC0007420636F6E6E656374656400FFFF4865E3
:105BD000617465722F546865726D6973746F7200B9
:105BE000FFFF506C6561736520636865636B203AE5
:105BF00000FFFF53656C6674657374206572726F85
:105C000072202100FFFF48656174696E6720646936
:105C10007361626C65642062792073616665747972
:105C20002074696D65722E00FFFF46532076302E7A
:105C300033206F72206F6C64657200FFFF46532043
:105C400076302E34206F72206E6577657200256481
:105C5000206279746573207772697474656E20743C
:105C60006F20454550524F4D20617420616464722D
:105C700065737320307825303478004433202D202C
:105C8000526561642F577269746520454550524FC3
:105C90004D0A0020436F756E7420583A200053441B
:105CA000207072696E74696E672062797465200075
:105CB0004E6F7420696E206661726D206D6F646531
:105CC0002E00416374697665204578747275646549
:105CD000723A2000496E76616C696420657874724E
:105CE00075646572005A204F666673657400556E60
:105CF0006B6E6F776E20636F6D6D616E643A2022FC
:105D0000004D32303020496E76616C6964206578D0
:105D100074727564657220007A5F6D61783A200054
:105D20007A5F6D696E3A2000795F6D61783A200084
:105D3000795F6D696E3A2000785F6D61783A200076
:105D40006F70656E0054524947474552454400788C
:105D50005F6D696E3A20005265706F7274696E678C
:105D600020656E6473746F70207374617475730052
:105D700053494C454E54004E4F524D414C00255313
:105D8000204D4F44453A2050657263656E7420641F
:105D90006F6E653A2025643B207072696E742074C2
:105DA000696D652072656D61696E696E6720696EE7
:105DB000206D696E733A2025640A00456E64206682
:105DC000696C65206C69737400426567696E206652
:105DD000696C65206C697374000A50494E44412017
:105DE00074656D70657261747572653A20252E3127
:105DF00066205A20736869667420286D6D293A20E0
:105E0000252E3366000A537465703A2025642F36B8
:105E10000A000A537465703A2025642F36202873CF
:105E20006B6970706564290A50494E44412074655D
:105E30006D70657261747572653A202564205A2010
:105E4000736869667420286D6D293A300A000A5A11
:105E500045524F3A20252E33660A007374617274DE
:105E60002074656D70657261747572653A20252EB7
:105E700031660A0025642020252E32660025532035
:105E8000583A20252E356620593A20252E35662091
:105E90005A3A20252E35660A00536C6565702E2E01
:105EA0002E004E6F7420696E206661726D206D6FDA
:105EB00064652E0025640045303A25642052504D1B
:105EC0000A50524E303A25642052504D0A00256443
:105ED0000045787465726E616C2053504920666C81
:105EE0006173680A573235583230434C2069732049
:105EF0006E6F74207265732D0A706F6E64696E67C1
:105F00002E204C616E67756167650A7377697463EB
:105F10006820756E617661696C61626C652E004304
:105F200072617368446574656374204449534142E7
:105F30004C45440043726173684465746563742022
:105F4000454E41424C454421004578747275646564
:105F5000722066616E20747970653A200057323580
:105F6000583230434C206E6F7420726573706F6EC0
:105F700064696E672E0A002020506C616E6E657237
:105F800042756666657242797465733A20002046F0
:105F9000726565204D656D6F72793A2000207C2016
:105FA000417574686F723A2000204C6173742055FB
:105FB0007064617465643A200020536F6674776181
:105FC000726520526573657400205761746368645C
:105FD0006F67205265736574002042726F776E2080
:105FE0006F7574205265736574002045787465720E
:105FF0006E616C20526573657400506F77657255E1
:1060000070006572726F722077726974696E6720B2
:10601000746F2066696C6500656E6473746F70736D
:10602000206869743A2000446F6E65207361766958
:106030006E672066696C652E006F6B0025533A0A07
:106040002531382E32666D200A25533A0A25313023
:106050006C6468202530326868646D2025303268B1
:106060006864730025533A0A2531382E32666D2054
:106070000A25533A0A2531306C6464202530326891
:10608000686468202530326868646D0025362E32D9
:10609000666D6D0025533A0A25530A25533A0A25A1
:1060A000533A0025332E3266010025533A0A255310
:1060B0000A252D31352E31355325332E3266010A0E
:1060C000252D31352E31355325332E3266010043CF
:1060D000616E6E6F7420656E746572207375626494
:1060E00069723A200053442063617264206F6B0030
:1060F0006F70656E526F6F74206661696C656400C5
:10610000766F6C756D652E696E6974206661696C59
:10611000656400534420696E6974206661696C008F
:1061200057726974696E6720746F2066696C653A8E
:10613000200046696C652073656C65637465640056
:106140002053697A653A200046696C65206F706556
:106150006E65643A2000747279696E6720746F20EE
:1061600063616C6C207375622D67636F6465206674
:10617000696C6573207769746820746F6F206D6136
:106180006E79206C6576656C732E006F70656E207D
:106190006661696C65642C2046696C653A2000452F
:1061A00072723A205052494E542046414E20455278
:1061B000524F52004572723A20455854522E204692
:1061C000414E204552524F52002F2F206163746977
:1061D0006F6E3A726573756D65640057697A6172A6
:1061E0006420656E642073746174653A2025640AC6
:1061F00000544D4320445249564552204F56455273
:1062000054454D50004B494C4C45442E2000507293
:10621000696E7465722068616C7465642E206B69A8
:106220006C6C28292063616C6C656421004B494CBF
:106230004C3A2025640A004D32323120496E766195
:106240006C696420657874727564657220004D32E3
:10625000313820496E76616C696420657874727596
:1062600064657220004D31303920496E76616C6969
:106270006420657874727564657220004D31303524
:1062800020496E76616C6964206578747275646506
:106290007220004D31303420496E76616C69642083
:1062A00065787472756465722000504F57455220AE
:1062B00050414E49432044455445435445440055BC
:1062C000564C4F202D20656E642025640A005556DB
:1062D0004C4F5F54494E59202D20656E6420256433
:1062E0000A00776F726C6420636F6F7264696E610D
:1062F0007465733A2028252E33662C20252E3366AC
:106300002C20252E3366290A0043757272656E743F
:1063100020706F73205A5F415849533A252E3366D7
:106320000A43757272656E7420706F7320455F4109
:106330005849533A252E33660A0041667465722027
:1063400077616974696E6720666F722074656D701D
:106350003A0A43757272656E7420706F7320585FCD
:10636000415849533A252E33660A43757272656E59
:106370007420706F7320595F415849533A252E336A
:10638000660A00414C5446414E206465742E00203C
:10639000746F6F206C6F6E672065787472757369A7
:1063A0006F6E2070726576656E7465640020636F31
:1063B0006C6420657874727573696F6E2070726595
:1063C00076656E7465640020203000202031004125
:1063D000786973206C656E677468206469666665A9
:1063E00072656E63653A252E33660A004D656173EA
:1063F000757265642061786973206C656E67746876
:106400003A252E33660A0025632533642F2564253B
:1064100063005A25362E32662563005A2020202D2F
:106420002D2D200025632533642525002D2D2D00DD
:1064300025336868640025335325337325250055BB
:1064400053420020202000205344002025753E2583
:106450007500203F3E257500204625750020463FEB
:106460000020463020200025632D2D3A2D2D2020A0
:106470000025632533756820256325630025632582
:106480003032753A2530327525632563002F2F2071
:10649000616374696F6E3A7061757365640025732A
:1064A000202534642052504D0A2573202534642061
:1064B00052504D0A002F2F20616374696F6E3A634A
:1064C000616E63656C00656E717565696E6720222B
:1064D00000446F6E65207072696E74696E67206625
:1064E000696C65004D3131322063616C6C65642EDE
:1064F00020456D657267656E63792053746F702EE9
:10650000005072696E7465722073746F7070656488
:106510002064756520746F206572726F72732E200F
:1065200046697820746865206572726F7220616EAA
:106530006420757365204D39393920746F20726578
:1065400073746172742E202854656D706572617465
:106550007572652069732072657365742E205365AA
:106560007420697420616674657220726573746149
:106570007274696E6729004E6F204C696E65204EFB
:10658000756D626572207769746820636865636BF6
:1065900073756D2C204C617374204C696E653A20C4
:1065A000004E6F20436865636B73756D2077697467
:1065B00068206C696E65206E756D6265722C204C6A
:1065C000617374204C696E653A2000636865636B83
:1065D00073756D206D69736D617463682C204C61F7
:1065E0007374204C696E653A20004C696E65204ECC
:1065F000756D626572206973206E6F74204C6173D3
:1066000074204C696E65204E756D6265722B312C5D
:10661000204C617374204C696E653A20003F3F0046
:10662000506F6C736B69004974616C69616E6F00C7
:106630004672616E6361697300457370616E6F6C61
:1066400000446575747363680043657374696E61B3
:1066500000456E676C6973680025632533642F25D8
:1066600064256300526573656E640025533A2025E6
:106670006C640A25530A00496E6163746976697413
:10668000792053687574646F776E006E616E00696F
:106690006E66004E414E494E495459494E46CDCC46
:1066A000CC3D0AD7233C17B7D13877CC2B32959500
:1066B000E6241FB14F0A000020410000C8420040FC
:1066C0001C4620BCBE4CCA1B0E5AAEC59D74004071
:1066D0007A10F35A00A0724E18090010A5D4E800F1
:1066E00000E87648170000E40B54020000CA9A3B09
:1066F000000000E1F505000080969800000040428F
:106700000F000000A086010000001027000000001C
:10671000E803000000006400000000000A00000020
:1067200000000100000000002C76D888DC674F08CC
:1067300023DFC1DFAE59E1B1B796E5E3E453C63AD2
:10674000E651997696E8E6C28426EB898C9B62ED49
:10675000407C6FFCEFBC9C9F40F2BAA56FA5F49003
:10676000055A2AF75C936B6CF9676DC11BFCE0E47A
:106770000D47FEF520E6B500D0ED902E03009435D0
:1067800077050080841E080000204E0A000000C823
:106790000C333333330F986E12831141EF8D211474
:1067A000893BE65516CFFEE6DB18D1844B381BF744
:1067B0007C1D901DA4BBE424203284725E228100E3
:1067C000C9F124ECA1E53D276364696E6F707375B0
:1067D00078585B00442D31202D20456E646C657324
:1067E00073206C6F6F700A00416476616E63652080
:1067F0004B3D004B206F7574206F6620616C6C6F91
:106800007765642072616E676521004D32323020F9
:1068100053256900255346696C616D656E7420735C
:10682000657474696E67733A2044697361626C655C
:10683000640A00255346696C616D656E742073654A
:106840007474696E67733A0A25532020204D3230E4
:10685000302044252E32660A002553526574726139
:1068600063743A20533D4C656E67746820286D6DE3
:106870002920463A537065656420286D6D2F6D2977
:10688000205A3A205A4C69667420286D6D290A25D1
:10689000532020204D3230372053252E326620469B
:1068A000252E3266205A252E32660A2553526563FC
:1068B0006F7665723A20533D4578747261206C653D
:1068C0006E67746820286D6D2920463A537065659F
:1068D0006420286D6D2F6D290A25532020204D320C
:1068E00030382053252E32662046252E32660A2562
:1068F000534175746F2D526574726163743A2053FD
:106900003D3020746F2064697361626C652C2031A6
:1069100020746F20696E746572707265742065787A
:1069200074727564652D6F6E6C79206D6F7665730A
:10693000206173207265747261637473206F7220BA
:106940007265636F7665726965730A25532020202E
:106950004D323039205325640A00255350494420D4
:10696000686561746265642073657474696E6773C9
:106970003A0A25532020204D3330342050252E3222
:10698000662049252E32662044252E32660A0025CF
:10699000535049442073657474696E67733A0A25CD
:1069A000532020204D3330312050252E326620498F
:1069B000252E32662044252E32660A002553537454
:1069C0006570732070657220756E69743A0A25537C
:1069D00020204D39322058252E32662059252E325E
:1069E00066205A252E32662045252E32660A25530A
:1069F0005553746570207265736F6C7574696F6E32
:106A00003A200A2553204D3335302058256420592B
:106A10002564205A2564204525640A25534D617854
:106A2000696D756D20666565647261746573202D8E
:106A3000206E6F726D616C20286D6D2F73293A0A7C
:106A4000255320204D3230332058252E32662059D0
:106A5000252E3266205A252E32662045252E326696
:106A60000A25534D6178696D756D206665656472A0
:106A700061746573202D20737465616C74682028BF
:106A80006D6D2F73293A0A255320204D3230332063
:106A900058252E32662059252E3266205A252E3250
:106AA000662045252E32660A25534D6178696D753D
:106AB0006D20616363656C65726174696F6E202D12
:106AC000206E6F726D616C20286D6D2F7332293AC4
:106AD0000A255320204D3230312058256C7520591D
:106AE000256C75205A256C752045256C750A255333
:106AF0004D6178696D756D20616363656C65726168
:106B000074696F6E202D20737465616C7468202821
:106B10006D6D2F7332293A0A255320204D323031C2
:106B20002058256C752059256C75205A256C7520C8
:106B300045256C750A2553416363656C6572617404
:106B4000696F6E3A20533D616363656C6572617471
:106B5000696F6E2C20543D7265747261637420619C
:106B60006363656C65726174696F6E0A25532020DA
:106B70004D3230342053252E32662054252E326675
:106B80000A2553416476616E63656420766172699B
:106B900061626C65733A20533D4D696E2066656590
:106BA000647261746520286D6D2F73292C20543D0B
:106BB0004D696E2074726176656C206665656472DD
:106BC00061746520286D6D2F73292C20423D6D69FD
:106BD0006E696D756D207365676D656E742074697F
:106BE0006D6520286D73292C20583D6D6178696D85
:106BF000756D205859206A65726B20286D6D2F7352
:106C0000292C20205A3D6D6178696D756D205A20C0
:106C10006A65726B20286D6D2F73292C2020453DED
:106C20006D6178696D756D2045206A65726B2028ED
:106C30006D6D2F73290A255320204D323035205396
:106C4000252E32662054252E32662042252E3266AD
:106C50002058252E32662059252E3266205A252EA0
:106C600032662045252E32660A2553486F6D652011
:106C70006F666673657420286D6D293A0A25532066
:106C8000204D3230362058252E32662059252E329E
:106C900066205A252E32660A004625642025640A9D
:106CA000004D4D55203C3D20274625642025642776
:106CB0000A00504944204175746F74756E652066F2
:106CC000696E697368656421205075742074686505
:106CD000206C617374204B702C204B6920616E64B2
:106CE000204B6420636F6E7374616E7473206672E0
:106CF0006F6D2061626F766520696E746F20436FDF
:106D00006E66696775726174696F6E2E68005049AE
:106D100044204175746F74756E65206661696C6599
:106D200064212074696D656F75740020403A0054C9
:106D30003A00423A00504944204175746F74756EB0
:106D400065206661696C6564212054656D706572AB
:106D5000617475726520746F6F20686967680020C0
:106D60004B643A2000204B693A2000204B703A20B7
:106D70000020436C617373696320504944200020F4
:106D800054753A2000204B753A2000206D61783A06
:106D90002000206D696E3A200020643A20002062B5
:106DA0006961733A200020453A00205A3A00205980
:106DB0003A0020453A00205A3A0020593A00583A01
:106DC00000005A30005A3100593000593100583013
:106DD00000583100456E642073746F7073206469CD
:106DE0006167002E0044656C6574696F6E20666192
:106DF000696C65642C2046696C653A200046696CB4
:106E0000652064656C657465643A004E6F74205348
:106E100044207072696E74696E67005072696E7496
:106E2000207361766564005344207072696E74202B
:106E3000706175736564004F4B00424144005241DC
:106E40004D426F2046414E200043524153485F431C
:106E5000414E43454C0043524153485F5245434FD6
:106E60005645520043524153485F5245434F5645A1
:106E7000520022283229004475706C696361746580
:106E800020542D636F64652069676E6F7265642E90
:106E90000A004475706C696361746520542D636FDA
:106EA00064652069676E6F7265642E0A00496E76AC
:106EB000616C6964205420636F64652E00556E6BAD
:106EC0006E6F776E204D20636F64653A20257320C6
:106ED0000A006E6F2076616C696420636F6D6D616E
:106EE0006E64002C20002C20002C20006E2F6100EE
:106EF0002C20002C20002C20006E2F6100503A0026
:106F00005761697420666F722050494E4441207465
:106F100061726765742074656D70657261747572F5
:106F2000653A004C414E472053454C20464F524352
:106F300045440022283129003030303030303030A4
:106F40002D303030302D303030302D303030302D4D
:106F50003030303030303030303030300020555527
:106F600049443A0031002045585452554445525F37
:106F7000434F554E543A00534B454C45535452558C
:106F8000444552204D4B335300204D414348494E18
:106F9000455F545950453A00312E300020626173EC
:106FA0006564206F6E204D61726C696E2046495297
:106FB0004D574152455F55524C3A68747470733A5C
:106FC0002F2F6769746875622E636F6D2F707275ED
:106FD000736133642F50727573612D4669726D77DA
:106FE0006172652050524F544F434F4C5F5645528B
:106FF00053494F4E3A004649524D574152455F4E14
:10700000414D453A50727573612D4669726D7761D5
:10701000726520004D31313320530020423A002068
:10702000453A00543A0020413A0020503A002042AC
:10703000403A0020403A00202F00205400202F002A
:1070400020423A00202F006F6B20543A002569201F
:107050006D696E2C2025692073656300496E766129
:107060006C6964204D20636F64653A202573200AA3
:1070700000556E6B6E6F776E204720636F64653AC4
:10708000202573200A004D65736820626564206CBA
:107090006576656C696E67206E6F742061637469D4
:1070A00076652E002020000A4D6561737572656457
:1070B00020706F696E74733A000A5A2073656172AA
:1070C0006368206865696768743A20004E756D20B2
:1070D000582C593A2000206D6963726F6E73004519
:1070E000786365737369766520626564206C657684
:1070F000656C696E6720636F7272656374696F6E29
:107100003A2000426564206C6576656C696E672084
:107110006661696C65642E2053656E736F722074AE
:10712000726967676572656420746F6F206869674C
:10713000682E0A00426564206C6576656C696E672E
:10714000206661696C65642E2053656E736F7220D2
:10715000646973636F6E6E6563746564206F72201B
:107160006361626C652062726F6B656E2E0A004708
:1071700032382057300050494E44412070726F62BF
:10718000652063616C6962726174696F6E207374EB
:1071900061727400473238205730004E6F205049DA
:1071A0004E444120746865726D6973746F72004D4E
:1071B0003234005345545F43484F505F00534554A9
:1071C0005F535445505F005345545F574156455FE8
:1071D00000544D435F0043524153485F004C616E81
:1071E0006775616765207570646174652E00616400
:1071F000635F696E69740A000A204F726967696E7D
:10720000616C2050727573612069330A2020205010
:107210007275736120526573656172636800436FB4
:107220006E74696E7565207769746820616E6F741D
:1072300068657220626F7764656E3F0025002020CC
:1072400020202020002020202020200045524153D3
:10725000494E4720616C6C20646174610046616333
:10726000746F727920524553455400466163746FC0
:1072700072792052455345540044495341424C458C
:107280004400454E41424C454400202873656E73CE
:107290006F7220626F617264207265766973696FC4
:1072A0006E3A2553290A004653656E736F72202586
:1072B0005300494E5434004D4B33534D4D553253CA
:1072C000004E4F4D4B3353002E014E4F435455410A
:1072D00000414C5446414E005365702032312032FB
:1072E00030323000436F6D70696C65643A2000285D
:1072F0006E6F6E652C2064656661756C7420636FBB
:107300006E66696729005365702032312032303251
:10731000302031333A30313A33360020332E392E93
:10732000312D333531380A00737461727400205581
:10733000706C6F616420696E2070726F6772657324
:107340007300205A3A0020593A0020583A0043521C
:107350004153485F444554454354454458590043BC
:10736000524153485F4445544543544544590043B2
:10737000524153485F444554454354454458004D99
:1073800032390078797A63616C5F6D65617373750A
:1073900072655F656E7465720A0078797A63616CF4
:1073A0005F73706972616C382063783D2564206377
:1073B000793D2564207A303D256420647A3D25643A
:1073C000207261646975733D25642061643D2564A4
:1073D0000A0078797A63616C5F7365617263685AD9
:1073E000206E6F207369676E616C0A20783D256C92
:1073F0006420793D256C64207A3D256C640A002068
:107400004F4E2D5349474E414C20617420783D2505
:107410006420793D2564207A3D25642061643D2502
:10742000640A0078797A63616C5F7365617263687E
:107430005A20783D256C6420793D256C64207A3D86
:10744000256C640A000A00253032780078797A6366
:10745000616C5F7363616E5F706978656C735F33D5
:10746000327833322063783D25642063793D25648A
:10747000206D696E5F7A3D2564206D61785F7A3D8D
:1074800025640A00202532642025640A000A0025AC
:1074900030327800206D696E3D2564206D61783D45
:1074A0002564206469663D25640A006D61785F6328
:1074B0003D253264206D61785F6C3D25640A006D66
:1074C00061785F633D2564206D61785F723D25645E
:1074D000206D61785F6D617463683D25640A0020EA
:1074E000783D256420793D2564207A3D25640A0095
:1074F000207061747465726E20666F756E642061B1
:10750000742025642025640A000000F000F801FCC6
:1075100003FE07FE07FE07FE07FC03F801F000006C
:107520000073697A656F6628746F74616C293D25F4
:10753000640A0073697A656F6628626C6F636B5FBB
:10754000627566666572293D25640A0078797A63FA
:10755000616C5F6D656173737572655F6C65617693
:10756000650A00706F696E743D256420783D25645E
:1075700020793D2564207A3D25640A00580258028E
:10758000584D584DB004F055F055B00478797A63F1
:10759000616C5F66696E645F6265645F696E647585
:1075A0006374696F6E5F73656E736F725F706F691E
:1075B0006E745F787920783D256C6420793D256C68
:1075C00064207A3D256C640A00203C20005741521B
:1075D0004E494E473A2046726F6E7420706F696E46
:1075E00074206E6F7420726561636861626C652ED1
:1075F000205920636F6F7264696E6174653A000090
:10760000000040410000C04000005C430000C0405A
:1076100000005C4300004643000040410000464338
:10762000497465726174696F6E3A200043616C69D8
:1076300062726174696F6E206661696C6564212095
:10764000436865636B2074686520617865732061A9
:107650006E642072756E20616761696E2E0025630D
:10766000252D2E31365320002563252E3135533AF2
:10767000257325336400457872656D6520737061EC
:107680006E206F6620746865205A2076616C75657F
:107690007321006F6B0A0073746172740A004D4DA0
:1076A0005532206669726D776172652076657273F6
:1076B000696F6E20696E76616C69642E2052657107
:1076C00075697265642076657273696F6E3A2062BF
:1076D00075696C64206E756D626572202564206F1B
:1076E00072206869676865722E004D4D55203D3ED9
:1076F00020276F6B270A004D4D55203D3E20276FF8
:107700006B270A002564004D4D55203D3E20276F14
:107710006B272C20726573756D65207072696E74AD
:107720000A004D4D5520726574727920617474653C
:107730006D7074206E722E2025640A004D4D552008
:107740003D3E20276F6B270A00410A004D4D552012
:107750003C3D202741270A004D363030004D363061
:1077600030204155544F002568687500410A004D8E
:107770004D55203C3D202741270A0050300A004D3E
:1077800025640A004D4D55203C3D20274D2564279A
:107790000A0057300A004D4D55203C3D20275730F8
:1077A000270A0053330A004D4D55203C3D202753F6
:1077B00033270A0052300A004D4D55203C3D20270A
:1077C0005230270A004B25640A004D4D55203C3DA0
:1077D00020274B2564270A004525640A004D4D5596
:1077E000203C3D2027452564270A0055300A004DDE
:1077F0004D55203C3D20275530270A0043300A00D4
:107800004D4D55203C3D20274330270A004C256430
:107810000A004D4D55203C3D20274C2564270A0089
:107820005425640A004D4D55203C3D2027542564C5
:10783000270A004D4D55202D20454E41424C4544D0
:1078400000256868750050300A004D310A004D4D22
:1078500055203C3D20274D31270050300A004D4D2A
:10786000552076657273696F6E2076616C6964006D
:107870004D4D55203D3E202725646F6B270A00257E
:10788000750053320A004D4D55203C3D20275332A0
:1078900027004D4D55203D3E202725646F6B270A5C
:1078A000002575004D4D55206E6F74207265737004
:1078B0006F6E64696E67202D2044495341424C45E8
:1078C000440053310A004D4D55203C3D2027533193
:1078D00027004D4D55203D3E20277374617274275B
:1078E000004578706572696D656E74616C004673F1
:1078F000656E736F7220446574656374696F6E00A2
:1079000044697361626C65206661726D206D6F649D
:1079100065004661726D206E756D626572004D384E
:1079200034004D343400473238205700473939008D
:1079300044697361626C65206661726D206D6F646D
:10794000653F0024F4D43050C38E20C2A240178279
:107950008B7011127A910D816CD90AA861E108C768
:10796000586607615143061E4B5D05C145A7041AC1
:10797000411104093D9803713931034036DB02653A
:10798000339102D4305402802E1D02632CEE017517
:107990002AC501B028A001102781018F2564012B81
:1079A000244B01E0223401AC211F018D200D018008
:1079B0001FFC00841EED00971DDF00B81CD200E6FE
:1079C0001BC600201BBC00641AB200B219A8000A32
:1079D00019A0006A189900D117910040178B00B5C3
:1079E00016840031167E00B31579003A157300C76E
:1079F000146F0058146A00EE1366008813630025A4
:107A0000135E00C7125B006C12570015125400C1C0
:107A100011510070114F0021114B00D61049008DFB
:107A20001047004610440002104200C00F40008082
:107A30000F3E00420F3C00060F3B00CB0E38009378
:107A40000E37005C0E3500270E3400F30D3200C1F6
:107A50000D3100900D3000600D2E00320D2D00050F
:107A60000D2C00D90C2B00AE0C2900850C29005CD4
:107A70000C2700350C27000E0C2600E80B2400C450
:107A80000B2400A00B23007D0B23005A0B2100398F
:107A90000B2100180B2000F80A1F00D90A1E00BB9A
:107AA0000A1E009D0A1D00800A1D00630A1C004773
:107AB0000A1B002C0A1B00110A1A00F7091A00DD24
:107AC000091900C4091900AB091900920917007BB4
:107AD000091800630917004C091600360916002022
:107AE0000916000A091500F5081500E0081400CC75
:107AF000081400B8081400A4081400900813007DAE
:107B00000812006B081300580812004608120034CF
:107B1000081100230811001208110001081100F0DB
:107B2000071000E0071000D0071000C0071000B0D9
:107B3000070F00A107100091070E0083070F0074C4
:107B4000070F0065070E0057070E0049070E003BA0
:107B5000070D002E070E0020070D0013070D00066D
:107B6000070D00F9060C00ED060D00E0060C00D430
:107B7000060C00C8060C00BC060C00B0060C00A4E5
:107B8000060B0099060C008D060B0082060B007791
:107B9000060B006C060B0061060A0057060B004C32
:107BA000060A0042060A0038060A002E060A0024C9
:107BB000060A001A060A001006090007060A00FD58
:107BC000050900F4050900EB050900E2050900D9E3
:107BD000050900D0050900C7050900BE050900B563
:107BE000050800AD050800A50509009C05080094DE
:107BF0000508008C050800840508007C0508007451
:107C00000508006C050700650508005D05070056BE
:107C10000508004E05070047050700400508003825
:107C2000050700310507002A050700230507001C8A
:107C3000050600160507000F0507000805060002E7
:107C4000050700FB040600F5040700EE040600E843
:107C5000040600E2040700DB040600D5040600CF9A
:107C6000040600C9040600C3040600BD040600B7EC
:107C7000040600B1040500AC040600A6040600A03A
:107C80000405009B04060095040500900406008A84
:107C900004050085040500800406007A04050075CB
:107CA000040500700405006B04050066040500610E
:107CB0000405005C04050057040500520405004D4E
:107CC00004050048040500430405003E0404003A8E
:107CD00004050035040500300404002C04050027C9
:107CE000040400230405001E0404001A0404001602
:107CF000040500110404000D040400090405000437
:107D000004040000040400FC030400F8030400F46D
:107D1000030400F0030400EC030400E8030400E49F
:107D2000030400E0030400DC030400D8030400D4CF
:107D3000030400D0030400CC030400C8030300C5FF
:107D400003030024F404D9201BC40C5C0E9804C463
:107D5000095F0265077101F405F900FB04B30048EF
:107D6000048700C10369005803550003034500BEA2
:107D7000023A008402310053022A0029022500043D
:107D8000022000E4011C00C8011900AF011700988F
:107D900001140084011300710110006101100051F1
:107DA000010E0043010D0036010B002B010B0020DA
:107DB000010B00150109000C01090003010800FB7B
:107DC000000800F3000800EB000700E4000600DEF6
:107DD000000600D8000600D2000600CC000500C74F
:107DE000000500C2000500BD000400B9000400B594
:107DF000000400B1000400AD000400A9000400A5C7
:107E0000000300A20003009F0004009B00030098F1
:107E10000003009500020093000300900003008D12
:107E20000002008B0003008800020086000200842C
:107E3000000300810002007F0002007D0002007B41
:107E40000002007900020077000100760002007451
:107E500000020072000100710002006F0002006D5C
:107E60000001006C0002006A000100690002006766
:107E7000000100660001006500010064000200626C
:107E800000010061000100600001005F0002005D70
:107E90000001005C0001005B0001005A0001005974
:107EA0000001005800010057000100560001005574
:107EB0000001005400010053000000530001005273
:107EC00000010051000100500001004F0001004E70
:107ED0000000004E0001004D0001004C0001004B6D
:107EE0000000004B0001004A000100490001004869
:107EF0000000004800010047000100460000004665
:107F0000000100450000004500010044000100435D
:107F10000000004300010042000000420001004157
:107F200000000041000100400001003F0000003F50
:107F30000001003E0000003E0001003D0000003D49
:107F40000001003C0000003C0000003C0001003B40
:107F50000000003B0001003A0000003A0001003937
:107F6000000000390001003800000038000000382F
:107F70000001003700000037000100360000003625
:107F8000000000360001003500000035000000351B
:107F90000001003400000034000000340001003310
:107FA0000000003300000033000100320000003206
:107FB00000000032000100310000003100000031FB
:107FC0000001003000000030000000300001002FF0
:107FD0000000002F0000002F0000002F0001002EE5
:107FE0000000002E0000002E0001002D0000002DDA
:107FF0000000002D0000002D0001002C0000002CCE
:108000000000002C0000002C0001002B0000002BC1
:108010000000002B0000002B0001002A0000002AB5
:108020000000002A0000002A0001002900000029A9
:10803000000000290000002900000029000100289C
:108040000000002800000028000000280000002890
:108050000001002700000027000000270000002783
:108060000000002700010026000000260000002676
:108070000000002600000026000100250000002569
:10808000000000250000002500000025000000255C
:10809000000100240000002400000024000000244F
:1080A0000000002400010023000000230000002342
:1080B0000000002300000023000000230000002334
:1080C0000001002200000022000000220000002227
:1080D0000000002200000022000100210000002119
:1080E000000000210000002100000021000000210C
:1080F00000000021000100200000002000000020FE
:1081000000000020000000200000002000000020EF
:10811000000000200001001F0000001F0000001FE1
:108120000000001F0000001F0000001F0000001FD3
:108130000001001E0000001E0000001E0000001EC6
:108140000000004D373032004D373031004D3730B0
:1081500032004D373031004E6F7A7A6C65202D2019
:10816000203230302F3000464C4558202D20203210
:1081700034302F35300050502020202D2020323533
:10818000342F3130300048495053202D20203232D6
:10819000302F3130300041425320202D2020323505
:1081A000352F3130300050432020202D2020323711
:1081B000352F3131300041534120202D20203236DF
:1081C000302F3130350050455447202D2020323398
:1081D000302F383500504C4120202D2020323135B1
:1081E0002F3630006E6F7A7A6C65202D2020323069
:1081F000302F30006661726D2020202D202032301B
:10820000302F383000252D31322E313253252B3886
:108210002E31660045787472756465723A006D6D32
:108220000059005800583A00593A005A3A0025635C
:10823000252D31332E313353252B352E33660074E3
:108240006D63323133305F676F746F5F7374657065
:10825000202564202564202564202564200A004E02
:108260006F203078464620726563656976656400E4
:1082700053656E64696E672030784646001F1F1F85
:108280001F1F1F1F1F46696C616D656E742073652B
:108290006E736F7220626F617264206368616E67D3
:1082A000652064657465637465643A2072657669F7
:1082B00073696F6E25530A004E6F7720667265737F
:1082C000682066696C653A20004E6F7720646F699C
:1082D0006E672066696C653A20002220706F73001B
:1082E0002220706172656E743A2200535542524FDB
:1082F0005554494E452043414C4C2074617267658A
:10830000743A2200252D392E39535B002563252D23
:1083100031382E3138732563004661726D206E75D9
:108320006D626572004D36303000473830004D3494
:1083300035004D3435205A004737360057697A6189
:1083400072642073746174653A2025640A007001B8
:108350002C0190012701B0012201C0011D01F00193
:1083600018011002130130020E016002090190028F
:108370000401C002FF000003FA004003F50080037F
:10838000F000D003EB002004E6007004E100E004FC
:10839000DC004005D700C005D2004006CD00D00665
:1083A000C8008007C3003008BE00F008B900C0094B
:1083B000B400B00AAF00B00BAA00D00CA500000EAC
:1083C000A000500F9B00C0109600501291000014A6
:1083D0008C00C0158700B0178200B0197D00D01B3B
:1083E0007800001E730040206E0090226900F02487
:1083F000640040275F0090295A00E02B5500102EA2
:10840000500020304B0010324600E03341009035E0
:108410003C001037370070383200A0392D00B03AD8
:108420002800A03B2300603C1E00103D1900903D39
:108430001400103E0F00703E0A00C03E0500003FD1
:10844000000090137D00B0157800F0177300601ADB
:108450006E00F01C6900A01F640050225F00202500
:108460005A00E0275500902A5000202D4B00A02FE5
:108470004600F031410010343C00F0353700A037A1
:10848000320020392D00603A2800703B2300603C08
:108490001E00203D1900C03D1400403E0F00A03ECC
:1084A0000A00F03E0500403F0000703FFBFF903F98
:1084B000F6FFB03FF1FFC03FECFFD03FE7FFE03FEA
:1084C000E2FFF03FDDFFF03FD8FF20484F54454E1C
:1084D0004420544845524D414C2052554E4157413D
:1084E0005900204845415442454420544845524D86
:1084F000414C2052554E4157415900544845524D28
:10850000414C2052554E4157415900424544205458
:108510004845524D414C2052554E4157415900203B
:10852000544845524D414C2052554E4157415920D7
:1085300028205052454845415420484F54454E4408
:10854000290020544845524D414C2052554E415728
:108550004159202820505245484541542048454122
:108560005442454429005052454845415420455203
:10857000524F5200424544205052454845415420F4
:108580004552524F52004572723A2000207472696F
:108590006767657265642100486561746572732060
:1085A0007377697463686564206F66662E20003A8D
:1085B0002000506C6561736520726573746172741C
:1085C000004D494E54454D50004D494E54454D5077
:1085D0002042454400746D63323133305F686F6D03
:1085E000655F656E74657228617865735F6D617330
:1085F0006B3D307825303278290A00746D63323152
:1086000033305F686F6D655F6578697420746D6382
:10861000323133305F73675F686F6D696E675F61BA
:108620007865735F6D61736B3D3078253032780A01
:108630000020573A0020453A00543A005A206C690D
:1086400076652061646A757374206F7574206F6637
:108650002072616E67652E2053657474696E6720A1
:10866000746F20302E20436C69636B20746F20631D
:108670006F6E74696E75652E005A206C6976652080
:1086800061646A757374206F7574206F66207261FF
:108690006E67652E2053657474696E6720746F2051
:1086A000300020423A0020453A00543A00494E54E6
:1086B00034007265636F7665725F6D616368696EC1
:1086C000655F73746174655F61667465725F706F16
:1086D0007765725F70616E69632C20696E69746979
:1086E000616C200050525553412075766C6F0047E5
:1086F00034205330004D32362053256C75004D31F7
:1087000030362053004D323230205325640047313B
:1087100020462564004D3832004739322045004755
:1087200031204525302E3366204632373030004721
:1087300031205A2566005052555341204D424C205D
:10874000563100473120582566205925662046338A
:1087500030303000506F736974696F6E20726561DC
:10876000642066726F6D20656570726F6D3A004DA2
:108770003233202573002E67636F002C20666565F9
:10878000646D756C7469706C793A004665656472E5
:108790006174653A0047312045252D302E3366201F
:1087A00046323730300047312045352046313230AF
:1087B000004D3833004D31303920532564004D31A0
:1087C000393020532564004D313034205325640066
:1087D00047323820582059004731205A252E336619
:1087E0002046383030000000000000110A045052CA
:1087F00055534133444657002079303D25640A00E3
:108800002078303D25640A004F4B0A004552524FF4
:10881000522061643D25640A002020207A303D25E5
:10882000640A00207A303D25640A002079303D2515
:10883000640A002078303D25640A0078797A636103
:108840006C5F66696E645F706F696E745F63656E9E
:10885000746572320A0000002100240027002A00FB
:108860002D003000330001010000040107010A015E
:1088700000002200250028002B002E0031003400CB
:1088800002010000050108010B0100002000230087
:10889000260029002C002F003200000100000301F7
:1088A0000601090105050505070508080808020273
:1088B00002020A0A0808040404040101010101017A
:1088C00001010303030303030303040707070C0C5D
:1088D0000C0C0C0C0C0C0202020206060606060624
:1088E00006060B0B0B0B0B0B0B0B07070A0A0A0AEE
:1088F0000A0A0505050404040808010210202008DE
:1089000008102040102040800201020108040201EA
:108910000102040810204080804020100804020159
:1089200080040201804020100804020108040201B2
:108930000102040810204080010204081020408039
:10894000100804088010204004408010204004805B
:1089500000000A0B02090C0D0E08070304010000B9
:108960000000000000000000000000000000000007
:1089700000000000000000000000000012111000C4
:1089800000000000000000000000000000000000E7
:1089900000000000000000000000000000000000D7
:1089A000000000000000773235783230636C5F637E
:1089B000666D0A00773235783230636C5F656E74AD
:1089C00065720A0073746172740A004731205A2577
:1089D0002D302E33662046252D302E33660047314C
:1089E0002045252D302E3366204632373030004D5D
:1089F00038330000002110422063308440A550C667
:108A000060E770088129914AA16BB18CC1ADD1CECC
:108A1000E1EFF13112100273325222B5529442F753
:108A200072D662399318837BB35AA3BDD39CC3FF1C
:108A3000F3DEE36224433420040114E664C774A423
:108A40004485546AA54BB528850995EEE5CFF5AC6C
:108A5000C58DD55336722611163006D776F6669533
:108A600056B4465BB77AA719973887DFF7FEE79DBC
:108A7000D7BCC7C448E5588668A778400861180283
:108A8000282338CCC9EDD98EE9AFF9488969990A0C
