:100000000C94E3340C9414350C9414350C9414357E
:100010000C9414350C9413980C9414350C941435DA
:100020000C94889B0C9414350C94528C0C941435BD
:100030000C9414350C9414350C94BEB20D942361B9
:100040000C9414350D9466130C9414350C941435DB
:100050000C9414350C9414350C9414350C945A8B60
:100060000C9414350D94B95C0C9414350C9414351F
:100070000C9414350C9414350C9414350C941435DC
:100080000C9414350C9414350C9414350C941435CC
:100090000D94755C0C9414350C9414350C94143533
:1000A0000C9414350C9414350C9414350C941435AC
:1000B0000C9414350C9414350C9414350C9414359C
:1000C0000C9414350C9414350C9414350D94616013
:1000D0000C9414350C9414350C9414350C9414357C
:1000E0000C9414359D4DA34DA94DB44DBF4D444EB8
:1000F000CA4DD34DDC4DE74DF24DFD4D0D4E184E22
:10010000444E234E2E4E394E768B808B8E8B9B8B9E
:10011000AD8BB48BF08BD28BE88B89A292A237A2E5
:1001200006A2D6A198A5C3A2E8A39EA4E2A4FEA419
:1001300035A53EC441C430C434C43AC478C445C4AF
:1001400049C44FC453C457C45DC461C465C478C4B2
:100150006BC46FC473C4AAD3C2D3D4D3E1D3EBD3DB
:1001600019D43AD440D44ED451D453D45DD46BD4A2
:100170007CD499EC9BEC99EC9BEC99EC9BEC9DEC82
:100180009FEC0AFF18FF1EFF30FF4CFF52FF58FF85
:1001900066FF74FF82FF99FFA7FF70017001D00115
:1001A0007001D001CA018E017201B001A401640185
:1001B000AE017A016001A2016A01A601B6017601D1
:1001C0009801980198019801980198019801980167
:1001D00066017C018C016201B401084AD73B3BCE29
:1001E000016E84BCBFFDC12F3D6C74319ABD568336
:1001F0003DDA3D00C77F11BED9E4BB4C3E916BAAEE
:10020000AABE000000803F05A84CCDB2D44EB9383C
:1002100036A9020C50B9918688083CA6AAAA2ABE23
:10022000000000803F07634236B79BD8A71A3968A1
:100230005618AEBAAB558C1D3CB7CC5763BD6DEDAF
:10024000FD753EF6177231BF000000803F080000C8
:1002500000BE922449123EABAAAA2ABECDCCCC4CF9
:100260003E00000080BEABAAAAAA3E00000000BF6C
:10027000000000803F0000000000084178D3BB432D
:1002800087D1133D190E3CC3BD4282AD2B3E68ECB5
:100290008276BED98FE1A93E4C80EFFFBE01C4FF3C
:1002A0007F3F0000000000000D9452310D942F5547
:1002B0000D94B1300D940E360D940C560D940735F7
:1002C0000D9433860D94DA850D9454860D944283F3
:1002D0000D94FA5A0D94BD860D94345B0D94205400
:1002E0000D94655A0D9444830D94515B0D94A28630
:1002F0000D94CE540D943E860D94D4850D94E23623
:100300000D94A85B0D94B0390D944E540D94FE34A9
:100310000D94C0310D9487A40D94D6850D946E5A1A
:100320000D946E5B0D94F5300D948B5B0D947053B2
:100330000D9447830D94C8580D94E8530D94175BA2
:100340000D94E0570D94CD860D945F860D940C8628
:100350000D94BF350D94CD5A0D940F350D944986EB
:100360000D948F860D94E5550D94DC850D94DE85F6
:100370000D942E320D940A5C0D944A590D94DC5A5A
:100380000D94F1360D94D1530D94BC5A0D9414591B
:100390000D94C55B0D946B5A0D946F580D94F15BE1
:1003A0000D94685A0D94C69B0D94F2530D94A93286
:1003B0006E616E00696E66004E414E494E49545959
:1003C000494E46CDCCCC3D0AD7233C17B7D1387720
:1003D000CC2B329595E6241FB14F0A000020410036
:1003E00000C84200401C4620BCBE4CCA1B0E5AAE80
:1003F000C59D7400407A10F35A00A0724E1809008F
:1004000010A5D4E80000E87648170000E40B540279
:100410000000CA9A3B000000E1F5050000809698B4
:1004200000000040420F000000A086010000001004
:100430002700000000E80300000000640000000046
:10044000000A00000000000100000000002C76D827
:1004500088DC674F0823DFC1DFAE59E1B1B796E50D
:10046000E3E453C63AE651997696E8E6C28426EB71
:10047000898C9B62ED407C6FFCEFBC9C9F40F2BA84
:10048000A56FA5F490055A2AF75C936B6CF9676D1C
:10049000C11BFCE0E40D47FEF520E6B500D0ED9071
:1004A0002E0300943577050080841E080000204E3E
:1004B0000A000000C80C333333330F986E128311D7
:1004C00041EF8D2114893BE65516CFFEE6DB18D1AE
:1004D000844B381BF77C1D901DA4BBE42420328480
:1004E000725E228100C9F124ECA1E53D27636469B5
:1004F0006E6F70737578585B00256420627974653F
:1005000073207772697474656E20746F204545504E
:10051000524F4D20617420616464726573732030A2
:100520007825303478004433202D20526561642FC3
:10053000577269746520454550524F4D0A0020435B
:100540006F756E7420583A20005344207072696EA3
:1005500074696E67206279746520004E6F7420693B
:100560006E206661726D206D6F64652E004163744C
:100570006976652045787472756465723A20004921
:100580006E76616C6964206578747275646572005A
:100590005A204F666673657400556E6B6E6F776E8A
:1005A00020636F6D6D616E643A2022004D323030F1
:1005B00020496E76616C6964206578747275646533
:1005C0007220007A5F6D61783A20007A5F6D696E03
:1005D0003A2000795F6D61783A2000795F6D696E2D
:1005E0003A2000785F6D61783A20006F70656E0088
:1005F00054524947474552454400785F6D696E3A09
:1006000020005265706F7274696E6720656E647346
:10061000746F7020737461747573000053494C4596
:100620004E54004E4F524D414C002553204D4F44E7
:10063000453A2050657263656E7420646F6E653A4A
:100640002025643B207072696E742074696D65208A
:1006500072656D61696E696E6720696E206D696E85
:10066000733A2025640A00456E642066696C652033
:100670006C69737400426567696E2066696C6520F9
:100680006C697374000A50494E44412074656D7062
:10069000657261747572653A20252E3166205A2084
:1006A000736869667420286D6D293A20252E33669B
:1006B000000A537465703A2025642F360A000A53E5
:1006C0007465703A2025642F362028736B6970702A
:1006D0006564290A50494E44412074656D70657205
:1006E00061747572653A202564205A2073686966C2
:1006F0007420286D6D293A300A000A5A45524F3A43
:1007000020252E33660A0073746172742074656D3F
:1007100070657261747572653A20252E31660A0023
:1007200025642020252E326600255320583A2025A6
:100730002E356620593A20252E3566205A3A202536
:100740002E35660A00536C6565702E2E2E004E6F96
:100750007420696E206661726D206D6F64652E0075
:1007600025640045303A25642052504D0A50524EBF
:10077000303A25642052504D0A00256400442D3142
:10078000202D20456E646C657373206C6F6F700A4A
:10079000004175746F0020452F443D00416476612F
:1007A0006E6365204B3D004D323230205325690089
:1007B000255346696C616D656E7420736574746948
:1007C0006E67733A2044697361626C65640A002540
:1007D0005346696C616D656E742073657474696EDF
:1007E00067733A0A25532020204D323030204425AB
:1007F0002E32660A002553526574726163743A2082
:10080000533D4C656E67746820286D6D2920463A0B
:10081000537065656420286D6D2F6D29205A3A202C
:100820005A4C69667420286D6D290A2553202020B2
:100830004D3230372053252E32662046252E326623
:10084000205A252E32660A25535265636F766572EB
:100850003A20533D4578747261206C656E67746808
:1008600020286D6D2920463A537065656420286DF7
:100870006D2F6D290A25532020204D32303820530A
:10088000252E32662046252E32660A255341757480
:100890006F2D526574726163743A20533D30207439
:1008A0006F2064697361626C652C203120746F2045
:1008B000696E74657270726574206578747275649F
:1008C000652D6F6E6C79206D6F7665732061732076
:1008D0007265747261637473206F72207265636FE6
:1008E0007665726965730A25532020204D323039B0
:1008F000205325640A0025535049442068656174DB
:100900006265642073657474696E67733A0A25536F
:100910002020204D3330342050252E3266204925AA
:100920002E32662044252E32660A00255350494453
:100930002073657474696E67733A0A25532020200A
:100940004D3330312050252E32662049252E326617
:100950002044252E32660A00255353746570732097
:1009600070657220756E69743A0A255320204D39DE
:10097000322058252E32662059252E3266205A25DF
:100980002E32662045252E32660A2553555374654E
:1009900070207265736F6C7574696F6E3A200A25EA
:1009A00053204D3335302058256420592564205A72
:1009B0002564204525640A25534D6178696D756D60
:1009C00020666565647261746573202D206E6F7298
:1009D0006D616C20286D6D2F73293A0A25532020F4
:1009E0004D3230332058252E32662059252E32665E
:1009F000205A252E32662045252E32660A25534D73
:100A00006178696D756D2066656564726174657382
:100A1000202D20737465616C746820286D6D2F73B0
:100A2000293A0A255320204D3230332058252E32C2
:100A3000662059252E3266205A252E3266204525FD
:100A40002E32660A25534D6178696D756D2061639C
:100A500063656C65726174696F6E202D206E6F72B4
:100A60006D616C20286D6D2F7332293A0A25532051
:100A7000204D3230312058256C752059256C752059
:100A80005A256C752045256C750A25534D6178698A
:100A90006D756D20616363656C65726174696F6EFD
:100AA000202D20737465616C746820286D6D2F7320
:100AB00032293A0A255320204D3230312058256CF6
:100AC000752059256C75205A256C752045256C7547
:100AD0000A2553416363656C65726174696F6E3A90
:100AE00020533D616363656C65726174696F6E2C40
:100AF00020543D7265747261637420616363656C38
:100B000065726174696F6E0A255320204D3230344E
:100B10002053252E32662054252E32660A25534155
:100B20006476616E636564207661726961626C658A
:100B3000733A20533D4D696E206665656472617439
:100B40006520286D6D2F73292C20543D4D696E2032
:100B500074726176656C2066656564726174652087
:100B6000286D6D2F73292C20423D6D696E696D755E
:100B70006D207365676D656E742074696D652028DE
:100B80006D73292C20583D6D6178696D756D205805
:100B900059206A65726B20286D6D2F73292C2020D7
:100BA0005A3D6D6178696D756D205A206A65726B6A
:100BB00020286D6D2F73292C2020453D6D617869AB
:100BC0006D756D2045206A65726B20286D6D2F73E1
:100BD000290A255320204D3230352053252E3266E8
:100BE0002054252E32662042252E32662058252E8E
:100BF00032662059252E3266205A252E326620452F
:100C0000252E32660A2553486F6D65206F66667320
:100C1000657420286D6D293A0A255320204D323005
:100C2000362058252E32662059252E3266205A2528
:100C30002E32660A004625642025640A004D4D5573
:100C4000203C3D2027462564202564270A00504982
:100C500044204175746F74756E652066696E6973A2
:100C6000686564212050757420746865206C617318
:100C700074204B702C204B6920616E64204B6420E3
:100C8000636F6E7374616E74732066726F6D206132
:100C9000626F766520696E746F20436F6E66696758
:100CA00075726174696F6E2E6800504944204175F9
:100CB000746F74756E65206661696C65642120745B
:100CC000696D656F75740020403A00543A00423AED
:100CD00000504944204175746F74756E65206661DB
:100CE000696C6564212054656D70657261747572FC
:100CF0006520746F6F206869676800204B643A2034
:100D000000204B693A2000204B703A200020436CB1
:100D100061737369632050494420002054753A2060
:100D200000204B753A2000206D61783A2000206D3C
:100D3000696E3A200020643A200020626961733AAB
:100D4000200020453A00205A3A0020593A00204518
:100D50003A00205A3A0020593A00583A00005A30D6
:100D6000005A3100593000593100583000583100D4
:100D7000456E642073746F70732064696167002E20
:100D80000044656C6574696F6E206661696C6564AA
:100D90002C2046696C653A200046696C65206465C4
:100DA0006C657465643A000A002F000A004E6F7487
:100DB000205344207072696E74696E6700507269C6
:100DC0006E74207361766564005344207072696E9E
:100DD0007420706175736564002F2F2061637469DE
:100DE0006F6E3A63616E63656C0043524153485FB6
:100DF00043414E43454C0043524153485F524543A3
:100E00004F5645520043524153485F5245434F5657
:100E1000455200222832290054004475706C6963E1
:100E200061746520542D636F64652069676E6F720D
:100E300065642E0A004475706C69636174652054A2
:100E40002D636F64652069676E6F7265642E0A009A
:100E5000496E76616C6964205420636F64652E006E
:100E6000556E6B6E6F776E204D20636F64653A2010
:100E70002573200A006E6F2076616C696420636FB1
:100E80006D6D616E64002C20002C20002C20006E03
:100E90002F61002C20002C20002C20006E2F6100E0
:100EA0002F00503A005761697420666F72205049D4
:100EB0004E4441207461726765742074656D70657D
:100EC0007261747572653A004C414E472053454C2F
:100ED00020464F524345440022283129003030300B
:100EE00030303030302D303030302D303030302D0B
:100EF000303030302D3030303030303030303030F5
:100F0000300020555549443A00310020455854528C
:100F1000554445525F434F554E543A00534B454C50
:100F20004553545255444552204D4B3300204D41BA
:100F30004348494E455F545950453A00312E3000E0
:100F4000206261736564206F6E204D61726C696E02
:100F5000204649524D574152455F55524C3A6874AC
:100F60007470733A2F2F6769746875622E636F6DA2
:100F70002F707275736133642F50727573612D46D3
:100F800069726D776172652050524F544F434F4CD8
:100F90005F56455253494F4E3A004649524D5741CC
:100FA00052455F4E414D453A50727573612D466909
:100FB000726D7761726520004D313133205300200E
:100FC000423A0020453A00543A0020413A0020506D
:100FD0003A002042403A0020403A00202F003A00D8
:100FE000205400202F0020423A00202F006F6B2059
:100FF000543A002569206D696E2C2025692073659F
:101000006300496E76616C6964204D20636F64658E
:101010003A202573200A00556E6B6E6F776E20475D
:1010200020636F64653A202573200A004D6573685C
:1010300020626564206C6576656C696E67206E6FF2
:1010400074206163746976652E000A002020000A0E
:101050004D6561737572656420706F696E74733A63
:10106000000A5A2073656172636820686569676861
:10107000743A20002C004E756D20582C593A2000EF
:10108000206D6963726F6E73004578636573736971
:10109000766520626564206C6576656C696E672094
:1010A000636F7272656374696F6E3A2000426564A3
:1010B000206C6576656C696E67206661696C656435
:1010C0002E2053656E736F72207472696767657244
:1010D000656420746F6F20686967682E0A00426536
:1010E00064206C6576656C696E67206661696C6505
:1010F000642E2053656E736F7220646973636F6E24
:101100006E6563746564206F72206361626C652034
:1011100062726F6B656E2E0A0047323820573000BE
:1011200050494E44412070726F62652063616C6962
:1011300062726174696F6E207374617274004732F9
:1011400038205730004D3234005345545F43484FE8
:10115000505F005345545F535445505F005345540E
:101160005F574156455F00544D435F004352415322
:10117000485F00472D636F646520736C6963656425
:1011800020666F72206120646966666572656E74A0
:10119000206C6576656C2E20436F6E74696E756584
:1011A0003F00472D636F646520736C69636564203D
:1011B000666F72206120646966666572656E742070
:1011C0006C6576656C2E20506C6561736520726568
:1011D0002D736C69636520746865206D6F64656C40
:1011E00020616761696E2E205072696E74206361A0
:1011F0006E63656C6C65642E00472D636F646520BB
:10120000736C6963656420666F722061206E657718
:101210006572206669726D776172652E20506C650B
:1012200061736520757064617465207468652066FB
:1012300069726D776172652E205072696E742063D9
:10124000616E63656C6C65642E00472D636F646529
:1012500020736C6963656420666F722061206E651F
:10126000776572206669726D776172652E20436FB3
:101270006E74696E75653F00472D636F64652073FA
:101280006C6963656420666F7220612064696666BC
:101290006572656E74207072696E746572207479FF
:1012A00070652E20506C656173652072652D736CBE
:1012B00069636520746865206D6F64656C20616783
:1012C00061696E2E205072696E742063616E636571
:1012D0006C6C65642E00472D636F646520736C69C8
:1012E00063656420666F722061206469666665725A
:1012F000656E74207072696E7465722074797065A1
:101300002E20436F6E74696E75653F00472D636FC5
:10131000646520736C6963656420666F7220612068
:10132000646966666572656E74207072696E746554
:101330007220747970652E20436F6E74696E7565C6
:101340003F00472D636F646520736C69636564209B
:10135000666F72206120646966666572656E7420CE
:101360007072696E74657220747970652E20506C8D
:10137000656173652072652D736C6963652074689F
:1013800065206D6F64656C20616761696E2E205009
:1013900072696E742063616E63656C6C65642E00A7
:1013A0005072657373206B6E6F6220746F20707261
:1013B0006568656174206E6F7A7A6C6520616E6411
:1013C00020636F6E74696E75652E00506C65617375
:1013D0006520707265737320746865206B6E6F6230
:1013E00020746F20756E6C6F61642066696C616D2E
:1013F000656E740052656D6F7665206F6C64206653
:10140000696C616D656E7420616E642070726573C5
:101410007320746865206B6E6F6220746F20737424
:10142000617274206C6F6164696E67206E657720ED
:1014300066696C616D656E742E00616E64207072F9
:1014400065737320746865206B6E6F6200496E73FC
:101450006572742066696C616D656E7400436F6CB3
:101460006F72206E6F7420636F72726563740046D2
:10147000696C616D656E74206E6F74206C6F616451
:101480006564004368616E67656420636F727265AE
:1014900063746C793F004C6F6164696E6720636FA1
:1014A0006C6F72004368616E676520737563636576
:1014B00073732100506C65617365206F70656E20D9
:1014C00069646C657220616E642072656D6F76650B
:1014D0002066696C616D656E74206D616E75616CFE
:1014E0006C792E005761732066696C616D656E744E
:1014F00020756E6C6F6164207375636365737366CA
:10150000756C3F00506C6561736520757067726122
:1015100064652E004E6577206669726D776172652D
:101520002076657273696F6E20617661696C6162A5
:101530006C653A0057616974696E6720666F722046
:1015400050494E44412070726F626520636F6F6C2A
:10155000696E6700437261736820646574656374C3
:1015600065642E20526573756D65207072696E74A6
:101570003F004372617368206465746563746564D9
:101580002E0045787472756465720043686F6F73DE
:10159000652065787472756465723A0043686F6F90
:1015A00073652066696C616D656E743A004E6F20DC
:1015B0006D6F76652E005761697420666F722075B5
:1015C0007365722E2E2E00536F6D652070726F62E0
:1015D0006C656D20656E636F756E74657265642CE5
:1015E000205A2D6C6576656C696E6720656E666F36
:1015F00072636564202E2E2E00537461626C652028
:10160000616D6269656E742074656D706572617478
:101610007572652032312D323643206973206E6534
:101620006564656420612072696769642073746110
:101630006E642069732072657175697265642E002D
:10164000506C656173652072756E2058595A20631D
:10165000616C6962726174696F6E2066697273741D
:101660002E0073746172740A006164635F696E694D
:10167000740A000A204F726967696E616C205072AB
:101680007573612069330A202020507275736120C0
:10169000526573656172636800436F6E74696E753D
:1016A00065207769746820616E6F74686572206266
:1016B0006F7764656E3F00250020202020202000E9
:1016C0002020202020200045524153494E472061D0
:1016D0006C6C206461746100466163746F72792080
:1016E000524553455400466163746F7279205245E8
:1016F000534554004D4B334D4D5532004C4F4D4BDF
:1017000033002C01536570202038203230313900ED
:10171000436F6D70696C65643A2000286E6F6E656A
:101720002C2064656661756C7420636F6E666967F2
:101730002900536570202038203230313920323171
:101740003A34393A30370020332E382E302D3236A5
:1017500038340A002055706C6F616420696E207007
:10176000726F677265737300205A3A0020593A000D
:1017700020583A0043524153485F4445544543542E
:10178000454458590043524153485F4445544543EA
:10179000544544590043524153485F4445544543DE
:1017A00054454458004D32390045787465726E6175
:1017B0006C2053504920666C6173680A5732355863
:1017C0003230434C206973206E6F74207265732D24
:1017D0000A706F6E64696E672E204C616E6775616A
:1017E00067650A73776974636820756E61766169ED
:1017F0006C61626C652E0043726173684465746548
:1018000063742044495341424C4544004372617320
:101810006844657465637420454E41424C454421DB
:1018200000573235583230434C206E6F7420726549
:1018300073706F6E64696E672E0A002020506C61B1
:101840006E6E657242756666657242797465733A4A
:1018500020002046726565204D656D6F72793A20D3
:1018600000207C20417574686F723A2000204C6122
:10187000737420557064617465643A200020536F5E
:1018800066747761726520526573657400205761D4
:10189000746368646F6720526573657400204272D8
:1018A0006F776E206F7574205265736574002045E4
:1018B000787465726E616C20526573657400506F48
:1018C0007765725570006572726F722077726974F5
:1018D000696E6720746F2066696C6500656E64735D
:1018E000746F7073206869743A2000446F6E6520CD
:1018F000736176696E672066696C652E006F6B0098
:101900004D4B33206669726D776172652064657432
:101910006563746564206F6E204D4B335320707285
:10192000696E74657200534B454C4553545255448F
:101930004552204D4B33204F4B2E00426C61636B60
:101940006F7574206F636375727265642E205265C3
:10195000636F766572207072696E743F0053656CB8
:1019600066746573742077696C6C2062652072758B
:101970006E20746F2063616C6962726174652061AE
:10198000636375726174652073656E736F726C65E5
:101990007373207265686F6D696E672E0054686599
:1019A0007265206973207374696C6C2061206E65A8
:1019B000656420746F206D616B65205A2063616CD3
:1019C0006962726174696F6E2E20506C6561736517
:1019D00020666F6C6C6F7720746865206D616E7522
:1019E000616C2C2063686170746572204669727343
:1019F000742073746570732C2073656374696F6EE3
:101A00002043616C6962726174696F6E20666C6FED
:101A1000772E005072696E74657220686173206E53
:101A20006F74206265656E2063616C6962726174B7
:101A30006564207965742E20506C6561736520663D
:101A40006F6C6C6F7720746865206D616E75616C6A
:101A50002C2063686170746572204669727374200B
:101A600073746570732C2073656374696F6E2043A3
:101A7000616C6962726174696F6E20666C6F772E3B
:101A8000004F6C642073657474696E677320666FB1
:101A9000756E642E2044656661756C7420504944EF
:101AA0002C20457374657073206574632E207769EC
:101AB0006C6C206265207365742E005761726E69CC
:101AC0006E673A20626F7468207072696E74657216
:101AD000207479706520616E64206D6F7468657222
:101AE000626F6172642074797065206368616E67EB
:101AF00065642E005761726E696E673A2070726974
:101B00006E7465722074797065206368616E6765B4
:101B1000642E005761726E696E673A206D6F74684B
:101B20006572626F617264207479706520636861A8
:101B30006E6765642E0058595A2063616C69627241
:101B40006174696F6E20616C6C2072696768742EB5
:101B500020536B65772077696C6C20626520636F1A
:101B600072726563746564206175746F6D61746908
:101B700063616C6C792E0058595A2063616C6962FC
:101B8000726174696F6E20616C6C20726967687431
:101B90002E20582F5920617865732061726520735B
:101BA0006C696768746C7920736B657765642E2047
:101BB000476F6F64206A6F62210058595A20636131
:101BC0006C6962726174696F6E206F6B2E20582F82
:101BD0005920617865732061726520706572706547
:101BE0006E646963756C61722E20436F6E677261FB
:101BF00074756C6174696F6E73210058595A206353
:101C0000616C6962726174696F6E206661696C658E
:101C1000642E2052696768742066726F6E74206348
:101C2000616C6962726174696F6E20706F696E7445
:101C3000206E6F7420726561636861626C652E004E
:101C400058595A2063616C6962726174696F6E20C1
:101C50006661696C65642E2046726F6E74206361E4
:101C60006C6962726174696F6E20706F696E7473F3
:101C7000206E6F7420726561636861626C652E000E
:101C800058595A2063616C6962726174696F6E2081
:101C90006661696C65642E20506C656173652063B4
:101CA0006F6E73756C7420746865206D616E7561FC
:101CB0006C2E0058595A2063616C696272617469B4
:101CC0006F6E20636F6D70726F6D697365642E2027
:101CD00052696768742066726F6E742063616C6904
:101CE00062726174696F6E20706F696E74206E6FBE
:101CF0007420726561636861626C652E0058595A80
:101D00002063616C6962726174696F6E20636F6DCC
:101D100070726F6D697365642E2046726F6E7420E9
:101D200063616C6962726174696F6E20706F696E55
:101D30007473206E6F7420726561636861626C6594
:101D40002E0058595A2063616C6962726174696F20
:101D50006E206661696C65642E2042656420636153
:101D60006C6962726174696F6E20706F696E742045
:101D7000776173206E6F7420666F756E642E0050ED
:101D80006C6561736520706C616365207374656553
:101D90006C207368656574206F6E2068656174627D
:101DA00065642E0044697374616E636520626574B6
:101DB0007765656E20746970206F66207468652091
:101DC0006E6F7A7A6C6520616E642074686520623B
:101DD0006564207375726661636520686173206E47
:101DE0006F74206265656E20736574207965742E4A
:101DF00020506C6561736520666F6C6C6F77207422
:101E00006865206D616E75616C2C2063686170740B
:101E100065722046697273742073746570732C2028
:101E200073656374696F6E204669727374206C61A8
:101E30007965722063616C6962726174696F6E2E7C
:101E400000506C6163652061207368656574206F64
:101E50006620706170657220756E646572207468AA
:101E600065206E6F7A7A6C6520647572696E672082
:101E70007468652063616C6962726174696F6E2059
:101E80006F66206669727374203420706F696E7497
:101E9000732E20496620746865206E6F7A7A6C65AF
:101EA0002063617463686573207468652070617075
:101EB00065722C20706F776572206F66662074687B
:101EC00065207072696E74657220696D6D656469F4
:101ED0006174656C792E00506C6561736520726564
:101EE0006D6F766520737465656C207368656574C5
:101EF0002066726F6D20686561746265642E0049AA
:101F00007320737465656C207368656574206F6EEB
:101F100020686561746265643F00206F662034004C
:101F2000536561726368696E6720626564206361EE
:101F30006C6962726174696F6E20706F696E740093
:101F4000206F662039004D6561737572696E672078
:101F50007265666572656E63652068656967687439
:101F6000206F662063616C6962726174696F6E20B4
:101F7000706F696E7400506C6561736520636C6589
:101F8000616E20746865206E6F7A7A6C6520666F6A
:101F9000722063616C6962726174696F6E2E204396
:101FA0006C69636B207768656E20646F6E652E00C8
:101FB0004175746F20686F6D650078797A63616C24
:101FC0005F6D656173737572655F656E7465720AC6
:101FD0000078797A63616C5F73706972616C382024
:101FE00063783D25642063793D2564207A303D2562
:101FF0006420647A3D2564207261646975733D25AF
:10200000642061643D25640A0078797A63616C5FBD
:102010007365617263685A206E6F207369676E61C1
:102020006C0A20783D256C6420793D256C64207A0B
:102030003D256C640A00204F4E2D5349474E414CBC
:1020400020617420783D256420793D2564207A3D07
:1020500025642061643D25640A0078797A63616CA7
:102060005F7365617263685A20783D256C642079DE
:102070003D256C64207A3D256C640A000A002530F9
:1020800032780078797A63616C5F7363616E5F7038
:102090006978656C735F33327833322063783D251D
:1020A000642063793D2564206D696E5F7A3D256407
:1020B000206D61785F7A3D25640A00202532642016
:1020C00025640A000A002530327800206D696E3DD3
:1020D0002564206D61783D2564206469663D256432
:1020E0000A006D61785F633D253264206D61785F21
:1020F0006C3D25640A006D61785F633D2564206D49
:1021000061785F723D2564206D61785F6D617463F5
:10211000683D25640A0020783D256420793D2564CA
:10212000207A3D25640A00207061747465726E2007
:10213000666F756E642061742025642025640A0032
:102140000000F000F801FC03FE07FE07FE07FE0793
:10215000FC03F801F000000073697A656F6628746B
:102160006F74616C293D25640A0073697A656F6636
:1021700028626C6F636B5F627566666572293D25C8
:10218000640A0078797A63616C5F6D656173737559
:1021900072655F6C656176650A00706F696E743D8B
:1021A000256420783D256420793D2564207A3D25ED
:1021B000640A0058025802584D584DB004F055F0CA
:1021C00055B00478797A63616C5F66696E645F62AA
:1021D00065645F696E64756374696F6E5F73656E65
:1021E000736F725F706F696E745F787920783D25C8
:1021F0006C6420793D256C64207A3D256C640A006E
:10220000203C20005741524E494E473A2046726FBB
:102210006E7420706F696E74206E6F7420726561C9
:10222000636861626C652E205920636F6F72646908
:102230006E6174653A0000000040410000C040003B
:10224000005C430000C04000005C430000464300C7
:1022500000404100004643497465726174696F6EC5
:102260003A200043616C6962726174696F6E206626
:1022700061696C65642120436865636B20746865DF
:10228000206178657320616E642072756E206167CD
:1022900061696E2E0047312059252D2E326620456A
:1022A000252D2E3366004731205825642059252DD1
:1022B0002E32662045252D2E3366006673656E73BB
:1022C0006F725F726573746F72655F7072696E743E
:1022D0005F616E645F636F6E74696E75650A00445A
:1022E000495341424C45440A00454E41424C454405
:1022F000004653656E736F722025530A0050415497
:10230000393132355F696E69743A256868750A003B
:10231000504154393132355F696E69743A256868C5
:10232000750A0050415439313235206E6F74207275
:102330006573706F6E64696E672028256429210AB1
:1023400000000E1315110E00000004120912040003
:1023500000001C1F11111F00000006191803130CA8
:1023600000040E1F041C000000040A0A0A0A1111CE
:102370000E001F1511151F0000000103161C080098
:10238000000000110A04110A040C12120C000000D3
:10239000002563252D31382E313853256300252E35
:1023A00031305320002563252D31382E31387325E7
:1023B00063002563252D2E31365320006673656E2C
:1023C000736F725F6175746F6C6F61645F63686572
:1023D000636B5F7374617274202D206175746F6C10
:1023E0006F616420454E41424C45440A0066736566
:1023F0006E736F725F6175746F6C6F61645F636839
:1024000065636B5F73746F70202D206175746F6CE2
:102410006F61642044495341424C45440A005A20AC
:102420006C6976652061646A757374206F757420B9
:102430006F662072616E67652E2053657474696ED5
:102440006720746F20302E20436C69636B20746F9B
:1024500020636F6E74696E75652E005A206C697604
:10246000652061646A757374206F7574206F6620CF
:1024700072616E67652E2053657474696E6720748F
:102480006F20300020423A0020453A00543A00497B
:102490004E5434007265636F7665725F6D61636878
:1024A000696E655F73746174655F61667465725FA0
:1024B000706F7765725F70616E69632C20696E69F9
:1024C0007469616C20007265636F7665725F6D611F
:1024D0006368696E655F73746174655F6166746576
:1024E000725F706F7765725F70616E69632C2069CF
:1024F0006E697469616C2000473932204500505282
:102500005553412075766C6F004734205330004D91
:1025100032362053256C75004D3130362053004D36
:102520003832004731204625640047312045322AA1
:1025300064656661756C745F7265747261637469F9
:102540006F6E2046343830004731205A0020463222
:102550003030300020590047312058004D383300CA
:10256000506F736974696F6E207265616420667262
:102570006F6D20656570726F6D3A004D32332025A6
:1025800073002E67636F0046656564726174653A17
:1025900000473120452D64656661756C745F726516
:1025A0007472616374696F6E20463438300047314D
:1025B0002045352046313230004D3833004D313919
:1025C0003020532564004D313039205325640047B5
:1025D000323820582059004731205A3235204638A9
:1025E0003030004731205A252D302E3366204625C5
:1025F0002D302E33660047312045252D302E336691
:10260000204632373030004D3833006F6B0A0055AA
:10261000564C4F202D20656E642025640A0073748B
:10262000707325640A00776F726C6420636F6F7239
:1026300064696E617465733A2028252E33662C20F8
:10264000252E33662C20252E3366290A00706879E2
:10265000736963616C20636F6F7264696E61746526
:10266000733A2028252E33662C20252E33662C2005
:10267000252E3366290A0043757272656E742070C8
:102680006F73205A5F415849533A252E33660A43E7
:10269000757272656E7420706F7320455F41584982
:1026A000533A252E33660A004166746572207761BD
:1026B0006974696E6720666F722074656D703A0A7E
:1026C00043757272656E7420706F7320585F415845
:1026D00049533A252E33660A43757272656E74202B
:1026E000706F7320595F415849533A252E33660A5B
:1026F000005265636F766572696E67207072696EED
:102700007420202020002563252E3135533A25736F
:10271000253364002020202020202020202020207D
:102720002020202020202020002563252D31332E3D
:1027300031335325362E367300457872656D65202A
:102740007370616E206F6620746865205A20766110
:102750006C75657321006F6B0A0073746172740A83
:10276000004D4D5532206669726D77617265207635
:10277000657273696F6E20696E76616C69642E2074
:1027800052657175697265642076657273696F6EE2
:102790003A206275696C64206E756D6265722025E1
:1027A00064206F72206869676865722E00667365C1
:1027B0006E736F725F73746F705F616E645F73616D
:1027C00076655F7072696E740A004D4D55203D3E0E
:1027D00020276F6B270A004D4D55203D3E20276F67
:1027E0006B270A002564004D4D55203D3E20276F84
:1027F0006B272C20726573756D65207072696E741D
:102800000A004D4D552072657472792061747465AB
:102810006D7074206E722E2025640A004D4D552077
:102820003D3E20276F6B270A00410A004D4D552081
:102830003C3D202741270A004D363030004D3630D0
:1028400030204155544F0050525553412066736516
:102850006E736F725F7265636F766572002568686C
:102860007500410A004D4D55203C3D202741270A67
:102870000050300A004D25640A004D4D55203C3D66
:1028800020274D2564270A0057300A004D4D55205A
:102890003C3D20275730270A0053330A004D4D5541
:1028A000203C3D20275333270A0052300A004D4D6B
:1028B00055203C3D20275230270A004B25640A0052
:1028C0004D4D55203C3D20274B2564270A004525CA
:1028D000640A004D4D55203C3D2027452564270ABC
:1028E0000055300A004D4D55203C3D2027553027DE
:1028F0000A0043300A004D4D55203C3D202743300F
:10290000270A004C25640A004D4D55203C3D2027E8
:102910004C2564270A005425640A004D4D55203C7F
:102920003D2027542564270A004D4D55202D204574
:102930004E41424C454400256868750050300A00FD
:102940004D310A004D4D55203C3D20274D3127008B
:1029500050300A004D4D552076657273696F6E20B8
:1029600076616C6964004D4D55203D3E20272564FD
:102970006F6B270A0025750053320A004D4D552014
:102980003C3D2027533227004D4D55203D3E20270A
:1029900025646F6B270A002575004D4D55206E6F1D
:1029A0007420726573706F6E64696E67202D2044A9
:1029B000495341424C45440053310A004D4D552086
:1029C0003C3D2027533127004D4D55203D3E2027CB
:1029D00073746172742700426564206C6576656C5F
:1029E000696E67206661696C65642E2053656E733D
:1029F0006F72206469646E742074726967676572AF
:102A00002E20446562726973206F6E206E6F7A7A31
:102A10006C653F2057616974696E6720666F72202C
:102A200072657365742E00506C65617365207570F6
:102A300064617465206669726D7761726520696E84
:102A400020796F7572204D4D55322E205761697473
:102A5000696E6720666F722072657365742E0090D0
:102A6000137D00B0157800F0177300601A6E00F047
:102A70001C6900A01F640050225F0020255A00E05E
:102A8000275500902A5000202D4B00A02F4600F023
:102A900031410010343C00F0353700A037320020BF
:102AA000392D00603A2800703B2300603C1E002056
:102AB0003D1900C03D1400403E0F00A03E0A00F04A
:102AC0003E0500403F0000703FFBFF903FF6FFB027
:102AD0003FF1FFC03FECFFD03FE7FFE03FE2FFF0F8
:102AE0003FDDFFF03FD8FF20484F54454E4420546F
:102AF0004845524D414C2052554E415741590020B6
:102B00004845415442454420544845524D414C208B
:102B100052554E4157415900544845524D414C2061
:102B200052554E4157415900424544205448455260
:102B30004D414C2052554E41574159002054484573
:102B4000524D414C2052554E41574159202820505A
:102B500052454845415420484F54454E4429002091
:102B6000544845524D414C2052554E4157415920F1
:102B7000282050524548454154204845415442453B
:102B800044290050524548454154204552524F5225
:102B90000042454420505245484541542045525238
:102BA0004F52004D494E54454D502066697865643A
:102BB00000506C6561736520726573746172740096
:102BC0004572723A204D494E54454D50003A2045C9
:102BD000787472756465722073776974636865646C
:102BE000206F66662E204D494E54454D502074721C
:102BF000696767657265642021004572723A204DED
:102C0000494E54454D50204245440054656D706511
:102C100072617475726520686561746564206265AF
:102C200064207377697463686564206F66662E201C
:102C30004D494E54454D5020747269676765726501
:102C400064202100746D63323133305F686F6D65CD
:102C50005F656E74657228617865735F6D61736B13
:102C60003D307825303278290A00746D6332313373
:102C7000305F686F6D655F6578697420746D63326D
:102C80003133305F73675F686F6D696E675F61785E
:102C900065735F6D61736B3D3078253032780A0063
:102CA000544D4320445249564552204F56455254A4
:102CB000454D50006572726F723A20756E6B6E6F83
:102CC000776E206D6F76650A006E6F206D6F76658A
:102CD0000A00542D636F64650A00756E6C6F616441
:102CE0000A006C6F61640A006D6D755F6765745FE3
:102CF000726573706F6E7365202D20626567696EF3
:102D0000206D6F76653A20006D6D755F6765745F45
:102D1000726573706F6E73652829207265747572A1
:102D20006E696E673A2025640A00556E6C6F6164A7
:102D3000696E672066696E697368656420320A008F
:102D4000556E6C6F616420320A00556E6C6F616461
:102D5000696E672066696E697368656420310A0070
:102D6000556E6C6F616420310A004D4D55207374AF
:102D70006172747320726573706F6E64696E670A36
:102D8000004D4D55206E6F7420726573706F6E64C8
:102D9000696E670A0046696C616D656E74206F75B7
:102DA00074206F662072616E6765202564200A00BA
:102DB0000000803F555585410000803F0000C8411C
:102DC00000000040555505420000C03F0000484249
:102DD0000000204055558542000070C1ABAAA642B4
:102DE000000060C10000A0410000C0C00000204100
:102DF00000002041ABAA3A41000020C15555D54002
:102E0000000048C2555505424D3730312045340049
:102E10004D373031204533004D37303120453200B9
:102E20004D373031204531004D37303120453000AD
:102E300046696C616D656E74206E72206F757420CA
:102E40006F662072616E67652100206661696C653E
:102E5000642E00207375636365656465642E004DA0
:102E60004D552063616E5F6C6F61643A004164642C
:102E70006974696F6E616C206C6F61642061747439
:102E8000656D7074206E722E2025640A00773235CD
:102E9000783230636C5F63666D0A00773235783262
:102EA00030636C5F656E7465720A004D4D55204F3E
:102EB0004B2E20526573756D696E672E2E2E004D58
:102EC0004D55204F4B2E20526573756D696E6720EE
:102ED000706F736974696F6E2E2E2E004D4D5520E4
:102EE0004F4B2E20526573756D696E672074656D4A
:102EF00070657261747572652E2E2E004669782099
:102F000074686520697373756520616E64207468E8
:102F1000656E20707265737320627574746F6E20B5
:102F20006F6E204D4D5520756E69742E0050726580
:102F3000737320746865206B6E6F6220746F2072EB
:102F40006573756D65206E6F7A7A6C652074656D3A
:102F500070657261747572652E004D4D55206E65F9
:102F6000656473207573657220617474656E74692D
:102F70006F6E2E00506C656173652072656D6F76A3
:102F8000652066696C616D656E7420616E64207485
:102F900068656E20707265737320746865206B6E4F
:102FA0006F622E00456A656374696E672066696C9E
:102FB000616D656E74004D4D55206C6F61642066C7
:102FC00061696C656420202020200025632533641E
:102FD0002F256425630046696C616D656E742073EE
:102FE000656E736F72005072696E742066616E3A1E
:102FF0000045787472756465722066616E3A0043AC
:10300000616C6962726174696E6720686F6D6500DA
:1030100053656C6674657374206661696C656420C1
:103020002000416C6C20636F7272656374202020F5
:1030300020202000436865636B696E672073656EAE
:10304000736F72732000436865636B696E672068F5
:103050006F74656E64202000436865636B696E67FA
:1030600020626564202020202000436865636B692E
:103070006E67205A20617869732020004368656379
:103080006B696E672059206178697320200043685E
:1030900065636B696E672058206178697320200032
:1030A000436865636B696E6720656E6473746F70E7
:1030B00073004572726F72202D207374617469639E
:1030C000206D656D6F727920686173206265656E31
:1030D000206F7665727772697474656E00436172F1
:1030E000642072656D6F766564005072696E7465F8
:1030F00072206E6F7A7A6C65206469616D657465A3
:103100007220646966666572732066726F6D2074E2
:10311000686520472D636F64652E20506C65617370
:103120006520636865636B207468652076616C75E3
:103130006520696E2073657474696E67732E205004
:1031400072696E742063616E63656C6C65642E00D9
:103150005072696E746572206E6F7A7A6C65206445
:1031600069616D6574657220646966666572732055
:1031700066726F6D2074686520472D636F64652EDD
:1031800020436F6E74696E75653F002D2D2D2D2DBA
:103190002D2D2D2D2D2D2D2D2D2D2D2D2D2D2D008C
:1031A0000000000000110A045052555341334446B8
:1031B00057002079303D25640A002078303D256491
:1031C0000A004F4B0A004552524F522061643D2580
:1031D000640A002020207A303D25640A00207A30DD
:1031E0003D25640A002079303D25640A00207830AE
:1031F0003D25640A0078797A63616C5F66696E6464
:103200005F706F696E745F63656E746572320A0019
:1032100000002100240027002A002D003000330088
:1032200001010000040107010A010000220025003D
:1032300028002B002E00310034000201000005019F
:1032400008010B01000020002300260029002C00AB
:103250002F003200000100000301060109010505ED
:103260000505070508080808020202020A0A0808FC
:10327000040404040101010101010101030303032A
:1032800003030303040707070C0C0C0C0C0C0C0CB9
:103290000202020206060606060606060B0B0B0BCA
:1032A0000B0B0B0B07070A0A0A0A0A0A0505050495
:1032B00004040808010210202008081020401020F3
:1032C00040800201020108040201010204081020EA
:1032D00040808040201008040201800402018040E8
:1032E0002010080402010804020101020408102051
:1032F000408001020408102040801008040880105B
:103300002040044080102040048000000A0B020985
:103310000C0D0E080703040100000000000000006F
:10332000000000000000000000000000000000009D
:10333000000000000000121110000000000000005A
:10334000000000000000000000000000000000007D
:10335000000000000000000000000000000000006D
:10336000473830004D3435004D3435205A0047374A
:10337000360057697A6172642073746174653A200B
:1033800025640A0044697361626C65206661726D30
:10339000206D6F6465004661726D206E756D6265AB
:1033A00072004D38340043616C696272617465006B
:1033B000506C65617365206C6F616420504C4120D6
:1033C00066696C616D656E742066697273742E0037
:1033D000497320504C412066696C616D656E7420A4
:1033E0006C6F616465643F0043616E63656C0046A9
:1033F000696C616D656E740053656C656374205013
:103400004C412066696C616D656E743A0052756E50
:103410006E696E672057697A6172642077696C6C97
:103420002064656C6574652063757272656E7420C6
:1034300063616C6962726174696F6E207265737525
:103440006C747320616E6420737461727420667290
:103450006F6D2074686520626567696E6E696E675E
:103460002E20436F6E74696E75653F0050726568FB
:10347000656174696E67206E6F7A7A6C652E205074
:103480006C6561736520776169742E00456A6563B8
:103490007400556E6C6F61640055736520756E6CB9
:1034A0006F616420746F2072656D6F766520666948
:1034B0006C616D656E7420312069662069742070BE
:1034C000726F747275646573206F75747369646567
:1034D000206F66207468652072656172204D4D55BD
:1034E00020747562652E2055736520656A65637466
:1034F0002069662069742069732068696464656E58
:1035000020696E20747562652E004C6F6164696E6F
:10351000672066696C616D656E7400506C656173DF
:103520006520696E7365727420504C412066696C29
:10353000616D656E7420746F2074686520657874A1
:1035400072756465722C207468656E207072657384
:1035500073206B6E6F6220746F206C6F61642069E2
:10356000742E00506C6561736520696E73657274AA
:1035700020504C412066696C616D656E7420746FDB
:1035800020746865206669727374207475626520A2
:103590006F66204D4D552C207468656E20707265E5
:1035A000737320746865206B6E6F6220746F206C7B
:1035B0006F61642069742E00596F752063616E20FD
:1035C000616C7761797320726573756D65207468BD
:1035D000652057697A6172642066726F6D2043615D
:1035E0006C6962726174696F6E202D3E2057697A32
:1035F0006172642E00506C65617365206368656359
:103600006B206F75722068616E64626F6F6B2061F2
:103610006E6420666978207468652070726F626CD1
:10362000656D2E205468656E20726573756D65201A
:103630007468652057697A617264206279207265C6
:10364000626F6F74696E6720746865207072696E4E
:103650007465722E00416C6C20697320646F6E6516
:103660002E204861707079207072696E74696E677F
:103670002100506C6561736520636C65616E206824
:1036800065617462656420616E64207468656E2093
:10369000707265737320746865206B6E6F622E00A4
:1036A000446F20796F752077616E7420746F20727B
:1036B0006570656174206C6173742073746570202B
:1036C000746F20726561646A7573742064697374C1
:1036D000616E6365206265747765656E206E6F7AD2
:1036E0007A6C6520616E6420686561746265643F10
:1036F00000492077696C6C20737461727420746F58
:10370000207072696E74206C696E6520616E642031
:10371000796F752077696C6C206772616475616C74
:103720006C79206C6F77657220746865206E6F7A93
:103730007A6C6520627920726F746174696E67209B
:10374000746865206B6E6F622C20756E74696C20D6
:10375000796F75207265616368206F7074696D613F
:103760006C206865696768742E20436865636B2008
:1037700074686520706963747572657320696E2062
:103780006F75722068616E64626F6F6B20696E2066
:10379000636861707465722043616C696272617400
:1037A000696F6E2E004E6F7720492077696C6C2010
:1037B00063616C6962726174652064697374616EBF
:1037C0006365206265747765656E20746970206F2B
:1037D0006620746865206E6F7A7A6C6520616E640D
:1037E00020686561746265642073757266616365E3
:1037F0002E00497320697420504C412066696C6129
:103800006D656E743F0053656C656374206E6F7AEE
:103810007A6C6520707265686561742074656D707E
:1038200065726174757265207768696368206D617F
:10383000746368657320796F7572206D6174657249
:1038400069616C2E004E6F7720492077696C6C207F
:1038500070726568656174206E6F7A7A6C65206637
:103860006F7220504C412E0049732066696C616D67
:10387000656E74206C6F616465643F0049732066F7
:10388000696C616D656E742031206C6F6164656474
:103890003F004E6F7720492077696C6C207072650D
:1038A00068656174206E6F7A7A6C6520666F72202D
:1038B000504C412E00492077696C6C2072756E2047
:1038C0007A2063616C6962726174696F6E206E6FD9
:1038D000772E004E6F772072656D6F766520746865
:1038E000652074657374207072696E742066726FDF
:1038F0006D20737465656C2073686565742E005067
:103900006C656173652072656D6F7665207368699B
:103910007070696E672068656C7065727320666987
:103920007273742E00492077696C6C2072756E205A
:1039300078797A2063616C6962726174696F6E2054
:103940006E6F772E2049742077696C6C2074616BE0
:103950006520617070726F782E203132206D696E33
:10396000732E0046697273742C20492077696C6C41
:103970002072756E207468652073656C667465735B
:103980007420746F20636865636B206D6F7374209F
:10399000636F6D6D6F6E20617373656D626C7920FE
:1039A00070726F626C656D732E0048692C2049201F
:1039B000616D20796F7572204F726967696E616CF5
:1039C000205072757361206933207072696E74655E
:1039D000722E20576F756C6420796F75206C696B3F
:1039E00065206D6520746F20677569646520796F47
:1039F00075207468726F75676820746865207365D8
:103A00007475702070726F636573733F00452D632A
:103A10006F72726563743A005A2D636F72726563D8
:103A2000743A00592D636F72726563743A00582DB1
:103A3000636F72726563743A0053706F6F6C4A6F94
:103A4000696E2020205B4E2F415D0053706F6F6CBC
:103A50004A6F696E2020205B6F66665D0053706F51
:103A60006F6C4A6F696E202020205B6F6E5D004690
:103A700069726D776172652020205B6E6F6E655D87
:103A8000004669726D77617265205B737472696359
:103A9000745D004669726D776172652020205B77E6
:103AA00061726E5D004669726D77617265202020DB
:103AB0005B6E6F6E655D004D6F64656C202020202D
:103AC00020205B6E6F6E655D004D6F64656C20201D
:103AD00020205B7374726963745D004D6F64656C64
:103AE0002020202020205B7761726E5D004D6F6486
:103AF000656C2020202020205B6E6F6E655D004E7F
:103B00006F7A7A6C6520202020205B6E6F6E655D79
:103B1000004E6F7A7A6C652020205B737472696343
:103B2000745D004E6F7A7A6C6520202020205B77D0
:103B300061726E5D004E6F7A7A6C652020202020C5
:103B40005B6E6F6E655D004857205365747570003D
:103B5000485720536574757000436865636B730044
:103B60004E6F7A7A6C6520642E20205B302E3430C4
:103B70005D004E6F7A7A6C6520642E20205B302EBB
:103B800036305D004E6F7A7A6C6520642E20205BA3
:103B9000302E34305D004E6F7A7A6C6520642E20B2
:103BA000205B302E32355D00537465656C20736880
:103BB0006565747300536F756E642020202020208B
:103BC0005B6C6F75645D00536F756E642020202000
:103BD0005B6173736973745D00536F756E6420204D
:103BE00020205B73696C656E745D00536F756E6445
:103BF0002020202020205B6F6E63655D00536F7571
:103C00006E642020202020205B6C6F75645D005363
:103C10006F7274202020202020205B6E6F6E655D07
:103C200000536F72742020205B616C706861626564
:103C3000745D00536F7274202020202020205B745C
:103C4000696D655D005344206361726420205B6E82
:103C50006F726D616C5D0053442063617264205B20
:103C6000666C73684169725D0052506920706F72B2
:103C70007420202020205B6F6E5D00525069207000
:103C80006F7274202020205B6F66665D0054656D46
:103C9000702E2063616C2E2020205B6F6E5D0054BF
:103CA000656D702E2063616C2E20205B6F66665DF3
:103CB000004C696E2E20636F7272656374696F6E5B
:103CC000004D65736820626564206C6576656C697B
:103CD0006E67004D4D55204D6F64655B5374656193
:103CE0006C74685D004D4D55204D6F6465205B4ED2
:103CF0006F726D616C5D004857205365747570007C
:103D000046616E7320636865636B20205B6F666637
:103D10005D0046616E7320636865636B2020205BE5
:103D20006F6E5D00462E206175746F6C6F6164204C
:103D30005B6F66665D00462E206175746F6C6F6107
:103D40006420205B6F6E5D00462E206175746F6C81
:103D50006F6164205B4E2F415D0046696C2E2073BD
:103D6000656E736F72205B4E2F415D004469736115
:103D7000626C65207374657070657273004D6F7648
:103D80006520617869730054656D70657261747542
:103D900072650057697A61726420656E642073747D
:103DA0006174653A2025640A00464C4558202D2050
:103DB000203234302F35300050502020202D20204C
:103DC0003235342F3130300048495053202D2020D7
:103DD0003232302F3130300041425320202D20200C
:103DE0003235352F3130300041534120202D2020F5
:103DF0003236302F3130350050455420202D2020D0
:103E00003233302F383500504C4120202D202032C5
:103E100031352F363000252D31322E313253252BBE
:103E2000382E31660045787472756465723A006D9B
:103E30006D000059005800583A00593A005A3A00AB
:103E40002563252D31332E313353252B352E336603
:103E5000005072656865617420746865206E6F7AC1
:103E60007A6C6521004552524F523A0046696C61A6
:103E70006D656E7420657874727564696E6720264E
:103E8000207769746820636F727265637420636F52
:103E90006C6F723F004175746F6C6F6164696E671F
:103EA0002066696C616D656E74206973206163744E
:103EB0006976652C206A757374207072657373203F
:103EC000746865206B6E6F6220616E6420696E732A
:103ED0006572742066696C616D656E742E2E2E009D
:103EE000546F74616C207072696E742074696D65B2
:103EF00000546F74616C2066696C616D656E74004E
:103F00005072696E742074696D650046696C616DEC
:103F1000656E742075736564005269676874004C3F
:103F200065667400592064697374616E6365206608
:103F3000726F6D206D696E005365766572652073D2
:103F40006B657700536C6967687420736B657700E5
:103F50004D6561737572656420736B6577005B30C6
:103F60003B305D20706F696E74206F666673657498
:103F70000041646A757374696E67205A3A0052652D
:103F800073657400526561722073696465205B75A6
:103F90006D5D0046726F6E7420736964655B756D4C
:103FA0005D00526967687420736964655B756D5D57
:103FB000004C6566742073696465205B756D5D00F7
:103FC0005365742074656D70657261747572653ABD
:103FD0000025533A0A25382E32666D0A25533A0ACF
:103FE00025376C6464203A253268686468203A2575
:103FF00030326868646D0025533A0A25382E3266DF
:104000006D0A25533A0A2532646820253032646DE2
:104010002025303264730025362E32666D6D004ED9
:104020002F410025533A0A25530A25533A0A2553AE
:104030003A004E2F410025342E3266010025533AB6
:104040000A25530A25533A202025352E3266010AC7
:1040500025533A202025352E3266010020003E00EF
:104060003E0020003E003E0054656D706572617434
:104070007572652063616C6962726174696F6E202C
:104080006661696C65642E20436F6E74696E756538
:104090002077697468207072657373696E67207425
:1040A0006865206B6E6F622E0054656D706572617D
:1040B000747572652063616C6962726174696F6E98
:1040C00020646F6E652E20436F6E74696E75652077
:1040D00077697468207072657373696E672074689D
:1040E00065206B6E6F622E0054656D706572617431
:1040F0007572652063616C6962726174696F6E20AC
:104100006661696C65640054656D70657261747593
:1041100072652063616C6962726174696F6E206997
:10412000732066696E697368656420616E642061DE
:1041300063746976652E2054656D702E2063616C02
:104140006962726174696F6E2063616E20626520BE
:1041500064697361626C656420696E206D656E755B
:104160002053657474696E67732D3E54656D702EAF
:104170002063616C2E004E2F410020203000202053
:10418000310049523A0046494E44413A0050494EA6
:1041900044413A0053656E736F72207374617465A5
:1041A000004578747275646572004D6F7665205AAB
:1041B000004D6F76652059004D6F7665205800439D
:1041C0007261736820646574656374696F6E2063DF
:1041D000616E0A6265207475726E6564206F6E2070
:1041E0006F6E6C7920696E0A4E6F726D616C206D16
:1041F0006F6465005741524E494E473A0A43726117
:10420000736820646574656374696F6E0A646973AA
:1042100061626C656420696E0A537465616C7468D0
:10422000206D6F6465004175746F6C6F6164696EB9
:10423000672066696C616D656E7420617661696C7A
:1042400061626C65206F6E6C79207768656E2066A0
:10425000696C616D656E742073656E736F72206931
:1042600073207475726E6564206F6E2E2E2E00455D
:1042700052524F523A2046696C616D656E742073DC
:10428000656E736F72206973206E6F742072657330
:10429000706F6E64696E672C20706C656173652049
:1042A000636865636B20636F6E6E656374696F6EC0
:1042B0002E004D6F6465206368616E676520696ECE
:1042C0002070726F6772657373202E2E2E00466900
:1042D0006E697368696E67206D6F76656D656E7463
:1042E0007300536F756E642020202020205B6C6F5C
:1042F00075645D00536F756E64202020205B6173D0
:10430000736973745D00536F756E64202020205BA9
:1043100073696C656E745D00536F756E6420202048
:104320002020205B6F6E63655D00536F756E6420A7
:1043300020202020205B6C6F75645D004D4D552062
:104340004D6F64655B537465616C74685D004D4DC1
:1043500055204D6F6465205B4E6F726D616C5D0022
:104360004372617368206465742E20205B4E2F4178
:104370005D004372617368206465742E20205B6F5A
:1043800066665D004372617368206465742E202048
:10439000205B6F6E5D004D6F6465202020205B53B5
:1043A0007465616C74685D004D6F64652020202029
:1043B000205B4E6F726D616C5D0046616E732063B1
:1043C0006865636B20205B6F66665D0046616E7397
:1043D00020636865636B2020205B6F6E5D0046691B
:1043E0006C2E2073656E736F7220205B6F6E5D00A4
:1043F00046696C2E2073656E736F72205B6F666604
:104400005D004368616E67652066696C616D656E0D
:104410007400466C6F77005370656564004D61678A
:104420006E65747320636F6D702E5B4E2F415D005F
:104430004D61676E65747320636F6D702E5B4F66A0
:10444000665D004D61676E65747320636F6D702EDD
:10445000205B4F6E5D005A2D70726F6265206E7228
:104460002E202020205B335D005A2D70726F626514
:10447000206E722E202020205B355D005A2D707238
:104480006F6265206E722E202020205B315D004D12
:104490006573682020202020202020205B3778377B
:1044A0005D004D6573682020202020202020205BA7
:1044B0003378335D0046616E207370656564004239
:1044C0006564004E6F7A7A6C650053657474696E2A
:1044D0006773005072696E742061626F72746564F4
:1044E00000596573004E6F0053746F7020707269CD
:1044F0006E740046696C6520696E636F6D706C65E3
:1045000074652E20436F6E74696E756520616E79D7
:104510007761793F004261636B004D61696E004DC8
:10452000363030002F2F20616374696F6E3A6361FB
:104530006E63656C004D3234004D323320257300BC
:10454000052E2E0022206661696C65643A20427552
:10455000666665722066756C6C21002200256920F4
:10456000686F757273202569206D696E7574657347
:104570000054494D454F55543A004D3131300046B5
:10458000756C6C20525820427566666572004375E2
:1045900073746F6D0054657874757200536D6F6F2E
:1045A000746800656E717565696E67202200446FDE
:1045B0006E65207072696E74696E672066696C65DD
:1045C000005072696E7465722073746F70706564E8
:1045D0002064756520746F206572726F72732E206F
:1045E00046697820746865206572726F7220616E0A
:1045F0006420757365204D39393920746F207265D8
:1046000073746172742E202854656D7065726174C4
:104610007572652069732072657365742E20536509
:1046200074206974206166746572207265737461A8
:104630007274696E6729004E6F204C696E65204E5A
:10464000756D626572207769746820636865636B55
:1046500073756D2C204C617374204C696E653A2023
:10466000004E6F20436865636B73756D20776974C6
:1046700068206C696E65206E756D6265722C204CC9
:10468000617374204C696E653A2000636865636BE2
:1046900073756D206D69736D617463682C204C6156
:1046A0007374204C696E653A20004C696E65204E2B
:1046B000756D626572206973206E6F74204C617332
:1046C00074204C696E65204E756D6265722B312CBD
:1046D000204C617374204C696E653A200053544F2E
:1046E000505045442E2000726573756C74207661BD
:1046F0006C75653A2025640A0020693D25326420E6
:10470000636E743D2532642076616C3D2532640A07
:1047100000636C7573746572733A0A0020693D25F5
:10472000326420737465703D2532640A00736F72C1
:104730007465642073616D706C65733A0A003A2089
:104740000020202020202020202020202020202089
:104750002020202000203A2000202020202020207F
:104760002020202020202020202020202000202069
:10477000202020202020202020202000257300251C
:10478000632533642F25642563005A25362E32664F
:1047900020005A2020202D2D2D2000256325336454
:1047A0002525002D2D2D0025336868640025335301
:1047B0002533732525005553420020202000205327
:1047C00044002025753E257500203F3E25750020BC
:1047D0004625750020463F002046302020002563F6
:1047E0002D2D3A2D2D202000256325337568202599
:1047F000632563002563253032753A2530327525EF
:104800006325630050494E44412048656174696ED8
:10481000670054656D702E2063616C2E202020206F
:104820002020202020200043616C6962726174693D
:104830006F6E20646F6E650043616C6962726174B3
:10484000696E67205A0042656420646F6E6500429D
:1048500065642048656174696E67004865617469C4
:104860006E6720646F6E652E0048656174696E67BF
:104870000057616974696E6720666F72206E6F7A87
:104880007A6C6520616E642062656420636F6F6C72
:10489000696E670053656C662074657374204F4BB6
:1048A0000053656C66207465737420737461727450
:1048B00020200046616C73652074726967676572B9
:1048C000696E6700537761707065640046726F6E41
:1048D000742F6C6566742066616E7300417869732D
:1048E0000041786973206C656E677468004C6F6F67
:1048F00073652070756C6C657900456E6473746FB8
:1049000070206E6F742068697400456E6473746FF4
:1049100070004D6F746F7200456E6473746F7073C6
:1049200000576972696E67206572726F7200426526
:1049300064202F20486561746572004E6F74206397
:104940006F6E6E6563746564004865617465722F8F
:10495000546865726D6973746F7200506C65617331
:104960006520636865636B203A0053656C66746507
:104970007374206572726F72202100457874722002
:1049800066616E2073706565643A202564200A00B4
:104990005072696E742066616E2073706565643A4A
:1049A000202564200A005465737420323A0A0045B9
:1049B0007874722066616E2073706565643A202594
:1049C00064200A005072696E742066616E207370F4
:1049D0006565643A202564200A00546573742031AB
:1049E0003A0A006C63645F73656C66636865636B49
:1049F0005F617869732025642C2025640A004D3896
:104A000034004731205A31352046313030300047AC
:104A100032382057002563204158495320534731ED
:104A20003D25640A0041786973206C656E6774687F
:104A300020646966666572656E63653A252E336625
:104A40000A004D6561737572656420617869732031
:104A50006C656E6774683A252E33660A003E003E28
:104A60000020003E003E0020001F1F1F1F1F1F1FB1
:104A70001F4E6F74207370696E6E696E670053709D
:104A8000696E6E696E67004C65667420686F746548
:104A90006E642066616E3F0046726F6E74207072A5
:104AA000696E742066616E3F0046616E20746573A6
:104AB0007400536F7274696E672066696C65730069
:104AC000536F6D652066696C65732077696C6C2027
:104AD0006E6F7420626520736F727465642E204D52
:104AE00061782E204E6F2E206F662066696C65738C
:104AF00020696E203120666F6C64657220666F726B
:104B000020736F7274696E67206973203130302EA4
:104B10000043616E6E6F7420656E746572207375EC
:104B2000626469723A200053442063617264206FAA
:104B30006B006F70656E526F6F74206661696C6593
:104B40006400766F6C756D652E696E6974206661A0
:104B5000696C656400534420696E697420666169FC
:104B60006C0024F4D43050C38E20C2A24017828B34
:104B70007011127A910D816CD90AA861E108C758A9
:104B80006607615143061E4B5D05C145A7041A41E6
:104B90001104093D9803713931034036DB02653356
:104BA0009102D4305402802E1D02632CEE01752A2E
:104BB000C501B028A001102781018F2564012B2495
:104BC0004B01E0223401AC211F018D200D01801F1B
:104BD000FC00841EED00971DDF00B81CD200E61B10
:104BE000C600201BBC00641AB200B219A8000A1942
:104BF000A0006A189900D117910040178B00B516D4
:104C0000840031167E00B31579003A157300C7147D
:104C10006F0058146A00EE136600881363002513B2
:104C20005E00C7125B006C12570015125400C111D0
:104C3000510070114F0021114B00D61049008D100A
:104C400047004610440002104200C00F4000800F91
:104C50003E00420F3C00060F3B00CB0E3800930E87
:104C600037005C0E3500270E3400F30D3200C10D05
:104C70003100900D3000600D2E00320D2D00050D1D
:104C80002C00D90C2B00AE0C2900850C29005C0CE3
:104C90002700350C27000E0C2600E80B2400C40B5F
:104CA0002400A00B23007D0B23005A0B2100390B9D
:104CB0002100180B2000F80A1F00D90A1E00BB0AA9
:104CC0001E009D0A1D00800A1D00630A1C00470A81
:104CD0001B002C0A1B00110A1A00F7091A00DD0933
:104CE0001900C4091900AB091900920917007B09C2
:104CF0001800630917004C09160036091600200930
:104D000016000A091500F5081500E0081400CC0883
:104D10001400B8081400A4081400900813007D08BB
:104D200012006B08130058081200460812003408DD
:104D30001100230811001208110001081100F007EA
:104D40001000E0071000D0071000C0071000B007E7
:104D50000F00A107100091070E0083070F007407D2
:104D60000F0065070E0057070E0049070E003B07AE
:104D70000D002E070E0020070D0013070D0006077B
:104D80000D00F9060C00ED060D00E0060C00D4063F
:104D90000C00C8060C00BC060C00B0060C00A406F3
:104DA0000B0099060C008D060B0082060B0077069F
:104DB0000B006C060B0061060A0057060B004C0640
:104DC0000A0042060A0038060A002E060A002406D7
:104DD0000A001A060A001006090007060A00FD0567
:104DE0000900F4050900EB050900E2050900D905F1
:104DF0000900D0050900C7050900BE050900B50571
:104E00000800AD050800A50509009C0508009405EB
:104E100008008C050800840508007C05080074055E
:104E200008006C050700650508005D0507005605CC
:104E300008004E0507004705070040050800380533
:104E40000700310507002A050700230507001C0598
:104E50000600160507000F050700080506000205F5
:104E60000700FB040600F5040700EE040600E80452
:104E70000600E2040700DB040600D5040600CF04A8
:104E80000600C9040600C3040600BD040600B704FA
:104E90000600B1040500AC040600A6040600A00448
:104EA00005009B04060095040500900406008A0492
:104EB000050085040500800406007A0405007504D9
:104EC0000500700405006B0405006604050061041C
:104ED00005005C04050057040500520405004D045C
:104EE000050048040500430405003E0404003A049C
:104EF000050035040500300404002C0405002704D7
:104F00000400230405001E0404001A04040016040F
:104F10000500110404000D04040009040500040444
:104F2000040000040400FC030400F8030400F4037C
:104F30000400F0030400EC030400E8030400E403AD
:104F40000400E0030400DC030400D8030400D403DD
:104F50000400D0030400CC030400C8030300C5030D
:104F6000030024F404D9201BC40C5C0E9804C4096B
:104F70005F0265077101F405F900FB04B300480402
:104F80008700C10369005803550003034500BE02B2
:104F90003A008402310053022A002902250004024B
:104FA0002000E4011C00C8011900AF01170098019E
:104FB00014008401130071011000610110005101FF
:104FC0000E0043010D0036010B002B010B002001E8
:104FD0000B00150109000C01090003010800FB008A
:104FE0000800F3000800EB000700E4000600DE0004
:104FF0000600D8000600D2000600CC000500C7005D
:105000000500C2000500BD000400B9000400B500A1
:105010000400B1000400AD000400A9000400A500D4
:105020000300A20003009F0004009B0003009800FF
:1050300003009500020093000300900003008D0020
:1050400002008B000300880002008600020084003A
:105050000300810002007F0002007D0002007B004F
:10506000020079000200770001007600020074005F
:10507000020072000100710002006F0002006D006A
:1050800001006C0002006A00010069000200670074
:10509000010066000100650001006400020062007A
:1050A000010061000100600001005F0002005D007E
:1050B00001005C0001005B0001005A000100590082
:1050C0000100580001005700010056000100550082
:1050D0000100540001005300000053000100520081
:1050E000010051000100500001004F0001004E007E
:1050F00000004E0001004D0001004C0001004B007B
:1051000000004B0001004A00010049000100480076
:105110000000480001004700010046000000460072
:10512000010045000000450001004400010043006B
:105130000000430001004200000042000100410065
:10514000000041000100400001003F0000003F005E
:1051500001003E0000003E0001003D0000003D0057
:1051600001003C0000003C0000003C0001003B004E
:1051700000003B0001003A0000003A000100390045
:10518000000039000100380000003800000038003D
:105190000100370000003700010036000000360033
:1051A0000000360001003500000035000000350029
:1051B000010034000000340000003400010033001E
:1051C0000000330000003300010032000000320014
:1051D0000000320001003100000031000000310009
:1051E00001003000000030000000300001002F00FE
:1051F00000002F0000002F0000002F0001002E00F3
:1052000000002E0000002E0001002D0000002D00E7
:1052100000002D0000002D0001002C0000002C00DB
:1052200000002C0000002C0001002B0000002B00CF
:1052300000002B0000002B0001002A0000002A00C3
:1052400000002A0000002A000100290000002900B7
:1052500000002900000029000000290001002800AA
:10526000000028000000280000002800000028009E
:105270000100270000002700000027000000270091
:105280000000270001002600000026000000260084
:105290000000260000002600010025000000250077
:1052A000000025000000250000002500000025006A
:1052B000010024000000240000002400000024005D
:1052C0000000240001002300000023000000230050
:1052D0000000230000002300000023000000230042
:1052E0000100220000002200000022000000220035
:1052F0000000220000002200010021000000210027
:105300000000210000002100000021000000210019
:10531000000021000100200000002000000020000B
:1053200000002000000020000000200000002000FD
:105330000000200001001F0000001F0000001F00EF
:1053400000001F0000001F0000001F0000001F00E1
:1053500001001E0000001E0000001E0000001E00D4
:10536000000020746F6F206C6F6E67206578747218
:105370007573696F6E2070726576656E7465640012
:1053800020636F6C6420657874727573696F6E202A
:1053900070726576656E7465640054656D702E205C
:1053A00063616C6962726174696F6E0052657365E6
:1053B000742058595A2063616C6962722E005049FA
:1053C000442063616C6962726174696F6E0042654A
:1053D00064206C6576656C20636F7272656374001F
:1053E0004D65736820426564204C6576656C696E16
:1053F000670043616C696272617465205A004361A1
:105400006C6962726174652058595A0053656C6604
:1054100074657374202020202020202020005769EC
:105420007A617264004C6F616420616C6C00456A43
:105430006563742066696C616D656E7400506C659F
:105440006173652070756C6C206F75742066696C73
:10545000616D656E7420696D6D6564696174656CFC
:105460007900556E6C6F6164696E672066696C6166
:105470006D656E7400526573756D696E672070722C
:10548000696E740052657365740052656E616D6576
:10549000004669727374206C617965722063616C77
:1054A0002E0053656C65637400537465656C2073DE
:1054B0006865657473005368656574005375707032
:1054C0006F7274004661696C207374617473204D4F
:1054D0004D55004661696C20737461747300537498
:1054E000617469737469637320200043616C69623D
:1054F000726174696F6E004175746F4C6F616420E6
:1055000066696C616D656E7400456A6563742066DA
:10551000696C616D656E7400556E6C6F61642066B8
:10552000696C616D656E74004C6F616420746F20EE
:105530006E6F7A7A6C65004C6F61642066696C618D
:105540006D656E74004E6F20534420636172640079
:105550005072696E742066726F6D205344005265FC
:1055600073756D65207072696E7400506175736536
:10557000207072696E7400507265686561740054C1
:10558000756E65004C6976652061646A7573742078
:105590005A00496E666F2073637265656E004D3404
:1055A0003400473238205700473939004469736165
:1055B000626C65206661726D206D6F64653F0025C9
:1055C0002D392E39535B002563252D31382E313886
:1055D000732563004661726D206E756D62657200A1
:1055E000627573793A2070617573656420666F72B5
:1055F00020696E70757400627573793A20706175F8
:1056000073656420666F72207573657200627573CE
:10561000793A2070726F63657373696E670000007A
:105620007F430080544300005C4300000000000002
:1056300080C09A99193E00000000000080C09A992D
:10564000193E0000A0400000A040000000402533AB
:105650006420737465703D253264206D73636E74CD
:105660003D2534640A0000007F43008058439AD9E6
:105670005B43FFFFFF67636F64655F4D3730312029
:10568000626567696E0A00332E382E30007263003F
:105690006265746100616C706861006465760078B1
:1056A000797A63616C5F73706972616C32206378C0
:1056B0003D25642063793D2564207A303D256420B2
:1056C000647A3D2564207261646975733D256420A8
:1056D00061643D25640A00746D63323133305F6765
:1056E0006F746F5F737465702025642025642025B6
:1056F00064202564200A002E002E004E6F7720665D
:10570000726573682066696C653A20004E6F772079
:10571000646F696E672066696C653A2000222070AC
:105720006F73002220706172656E743A22005355C7
:1057300042524F5554494E452043414C4C207461D0
:10574000726765743A2200747279696E6720746FAB
:105750002063616C6C207375622D67636F646520D4
:1057600066696C6573207769746820746F6F206D4B
:10577000616E79206C6576656C732E204D415820E2
:105780006C6576656C2069733A002E0057726974F7
:10579000696E6720746F2066696C653A20004669FF
:1057A0006C652073656C6563746564002053697A69
:1057B000653A200046696C65206F70656E65643AD5
:1057C00020006F70656E206661696C65642C2046F0
:1057D000696C653A20002F2F20616374696F6E3AFF
:1057E00070617573650046696C2E2058643A2533E4
:1057F000642059643A2533640A496E743A2025338B
:10580000642020536875743A202533640046696C1F
:10581000616D656E742073656E736F720A697320B3
:1058200064697361626C65642E0025533A202534E7
:10583000642052504D0A25533A20202534642052CA
:10584000504D0A005072696E742046414E004E6FF2
:105850007A7A6C652046414E00546F74616C004C3E
:10586000617374207072696E74004D4D55206C6FB9
:105870006164206661696C73004D4D5520666169F5
:105880006C73004C617374207072696E7420666171
:10589000696C75726573004D4D5520706F77657238
:1058A000206661696C73004D4D55206C6F616420FA
:1058B0006661696C73004D4D55206661696C7300BB
:1058C000546F74616C206661696C75726573004316
:1058D000726173680046696C616D2E2072756E6F1F
:1058E00075747300506F776572206661696C7572AC
:1058F000657300546F74616C206661696C757265C4
:10590000730043726173680046696C616D2E20728A
:10591000756E6F75747300506F776572206661697C
:105920006C75726573004C617374207072696E746B
:10593000206661696C7572657300546F74616C00E8
:105940004C617374207072696E7400416D62696598
:105950006E7400426564004E6F7A7A6C6500426531
:105960006C742073746174757300436F6F6C646F33
:10597000776E00566F6C74616765730054656D7067
:1059800065726174757265730042656C742073741E
:10599000617475730053656E736F7220696E666F04
:1059A00000457874727564657220696E666F005880
:1059B000595A2063616C2E2064657461696C7300B0
:1059C000756E6B6E6F776E004D4D553220636F6E46
:1059D0006E656374656400446174653A00686F774E
:1059E000746F2E707275736133642E636F6D006611
:1059F0006F72756D2E707275736133642E636F6D87
:105A000000707275736133642E636F6D00746F2064
:105A1000756E6C6F61642066696C616D656E740093
:105A2000746F206C6F61642066696C616D656E7463
:105A300000507265737320746865206B6E6F62002E
:105A40003E43616E63656C005072656865617469A0
:105A50006E6720746F2063757400507265686561AD
:105A600074696E6720746F20656A65637400507294
:105A70006568656174696E6720746F20756E6C6F00
:105A800061640050726568656174696E6720746F47
:105A9000206C6F61640025530A2025532020252D9A
:105AA00033640A2025532020252D33640025530A12
:105AB0002025532020252D33640A2025532020251E
:105AC0002D33640A20255320252D33640025530AE5
:105AD0002025532020252D33640A202553202025FE
