:100000000C948B350C94BC350C94BC350C94BC35DD
:100010000C94BC350C94BA710C94BC350C945540BE
:100020000C945C440C94BC350C94BC350C94BC35DD
:100030000C948E460C94BC350D94020E0C942D7CC1
:100040000C94BC350D9435160C94BC350C94BC3511
:100050000C94BC350C94BC350C94BC350C94A83F66
:100060000C94BC350C94A14A0C94BC350C94BC3552
:100070000C94BC350C9431420C94BC350C94BC35BA
:100080000C94BC350C94BC350C94BC350C94BC352C
:100090000C945D4A0C94BC350C94BC350C94BC3566
:1000A0000C94BC350C94BC350C94FF520C94BC35AC
:1000B0000C94BC350C94E1520C94BC350D949A13FD
:1000C0000C94BC350C94BC350C94BC350C94685223
:1000D0000C94BC350C94BC350C94BC350C94BC35DC
:1000E0000C94BC35084AD73B3BCE016E84BCBFFDA7
:1000F000C12F3D6C74319ABD56833DDA3D00C77FF8
:1001000011BED9E4BB4C3E916BAAAABE0000008090
:100110003F05A84CCDB2D44EB93836A9020C50B91F
:10012000918688083CA6AAAA2ABE000000803F0744
:10013000634236B79BD8A71A39685618AEBAAB5582
:100140008C1D3CB7CC5763BD6DEDFD753EF6177247
:1001500031BF000000803F08000000BE9224491219
:100160003EABAAAA2ABECDCCCC4C3E00000080BE3D
:10017000ABAAAAAA3E00000000BF000000803F001A
:1001800000000000084178D3BB4387D1133D190E0E
:100190003CC3BD4282AD2B3E68EC8276BED98FE176
:1001A000A93E4C80EFFFBE01C4FF7F3F000000006E
:1001B00000000C9470B60D94D5430C94FA3F0C9447
:1001C000E8C80D94A0400C9404B80C9469D90C9420
:1001D000A8360C942EBD0C943C400C944EB60C9456
:1001E00084B70C9442EB0C946EB90C9448BB0D94FC
:1001F0004D020C94B9EE0C9435CD0D9497840C946B
:1002000029BD0C94FCDC0D949A840C94D3FC0C94C2
:10021000E5DE0C9410BD0D94553D0D94FF400C94FB
:100220006DF60C9430C90C9466B60C94A7CB0C9464
:1002300011E50C94E13F0C9448EF0D94A6840C94C6
:1002400059CB0C9415D00C94FBEB0C944AC90C942C
:1002500024BD0C943EB70C9470BD0C945AD00D94F0
:100260005D3F0D94853F0D943B410C94DFC70C948A
:100270000EEF0C946ED50D946D3F0C940AEB0C941C
:10028000DBB80C9443C50C9448B70C945CB70D9440
:10029000389B0C943CDB0C94ABC70D94EB3E0C9458
:1002A00081B90C946CCF0C9497EF0C9475CF0C948F
:1002B0008EFD0D944D3F0C9450D00C9491D00C9425
:1002C00001BC0C94AFD00C948EB70C946FB60C9408
:1002D00022DC0D94653F0C947DD00C949FF50C941A
:1002E00019400D94393F0C94E3CB0C94A1C50D94A7
:1002F000994C0C941DD00C94A9D40D949D840C940D
:10030000F9DC0C94E6B70D94B2840C944ABC0D94BD
:10031000553F0D94313F0C94C6B70C9476D50C9490
:100320008EBA0C9400C70C9440D00C94AFC80C94B7
:1003300032B80C94F2D70D946E400C9404F70C94E0
:10034000B6CC0C94A7E80D943B3C0C94CDEA0C94ED
:100350002BB70C9478B60D949C500C94ABF50C9480
:10036000F94A0C94D5E20C942CD00C9419ED0C9411
:10037000BDE80C943AEB0C943DB60C94DBB70D94AD
:10038000F7400C941ABD0D94FAAF0C948FB90C94ED
:10039000A1F70C94DCF70D943C840D9456440C9416
:1003A00082B60C9432BD0C94A33F0C940BBD0C94FC
:1003B00035B60D94AD020D945B210C946AB60C9485
:1003C00014B70C9410400C9463CF0C9439B60C9471
:1003D000BAB70C944CCA0C943CDC0C9462B60C94E6
:1003E000ECFD0C943AC90C948CEF0C9487D00C94CF
:1003F0007AB90C94EBEB0D948B840C9484EB0D94F4
:10040000CA500D94343F0D948D3F0D9494840C94F8
:1004100058B60C9413C80C9472FC0C94D7E20C944C
:10042000A2EF0C9431BE0C94AAB80D94753F0C94B5
:10043000D8F60C94FEF50C9444B80D947D3F0C94C2
:1004400030EB0C9494B90C9435EF0C9444B60D94A5
:100450003A400C9442C90C9448D00C9474B60C9455
:10046000B0F10C943FC60C9402C00D940C020C9495
:10047000C73F0C9452C90C944E400C9476EF0C94E8
:100480004AB60C945CB60D9466420C94A5D00C94BC
:10049000B6EB0C942FF60C942BC90C9464D00C94EE
:1004A0006EF00C94FAB60C94B2EB0C94E6B90C9482
:1004B00087B60C941FBD0C9436D00C94D2EF0D94DB
:1004C00033840C94ACEB0D94DD020C94AFC50C940A
:1004D00041B60C94F2FC0D9459400C9495F50C9493
:1004E000E0EE0D9409020C944CF70C949CEB0C94E8
:1004F0004AC80C9473B90D94C6020C947CF50C9404
:10050000EC3F0C94D8F70D94AF840C9444C00C9439
:1005100041410C94F1B70C9426C90D9410430D94ED
:100520009D430C948E370C9490360C94FFF60C94EB
:100530002FB60C946BCB0C94D5EB0C94EDC80C94AB
:1005400088B90C9454B60D94A14E0C9455CA0C94D1
:100550006ED00C947AEB0C9470B70C943AD70C9440
:10056000DEC50C9448D40C9481EF0D944E840C9409
:1005700015BD0C9443CA0C9422D00C949BD00D94BE
:1005800080430C9482E90C944EDC6E616E00696EBF
:1005900066004E414E494E495459494E46CDCCCC49
:1005A0003D0AD7233C17B7D13877CC2B329595E647
:1005B000241FB14F0A000020410000C84200401C27
:1005C0004620BCBE4CCA1B0E5AAEC59D7400407A74
:1005D00010F35A00A0724E18090010A5D4E80000CC
:1005E000E87648170000E40B54020000CA9A3B006A
:1005F0000000E1F505000080969800000040420FE1
:10060000000000A08601000000102700000000E8A4
:1006100003000000006400000000000A0000000069
:10062000000100000000002C76D888DC674F08230A
:10063000DFC1DFAE59E1B1B796E5E3E453C63AE670
:1006400051997696E8E6C28426EB898C9B62ED4050
:100650007C6FFCEFBC9C9F40F2BAA56FA5F490059F
:100660005A2AF75C936B6CF9676DC11BFCE0E40DD3
:1006700047FEF520E6B500D0ED902E0300943577C7
:10068000050080841E080000204E0A000000C80CEF
:10069000333333330F986E12831141EF8D21148958
:1006A0003BE65516CFFEE6DB18D1844B381BF77CB2
:1006B0001D901DA4BBE424203284725E228100C9F7
:1006C000F124ECA1E53D276364696E6F7073757862
:1006D000585B005553415254322072782046756C55
:1006E0006C2121210053657474696E677320537403
:1006F0006F72656400544D3A2073746F72656420A4
:1007000063616C6962726174696F6E20696E766193
:100710006C69642C20726573657474696E6700532C
:10072000746F7265642073657474696E6773207288
:1007300065747269657665640048617264636F64AC
:1007400065642044656661756C74205365747469D2
:100750006E6773204C6F6164656400563200000060
:1007600000C8420000C8420000C8430000F5430032
:1007700000484300004843000040410000F042E8C8
:10078000030000E8030000C8000000881300000018
:10079000409C4400409C44000000000000000020F9
:1007A0004E00000000204100002041CDCCCC3E0096
:1007B000009040000000000000000000000000CD9C
:1007C000CCCC3E3D0A8141FF08433EB099AB438FFC
:1007D00042FC42E65A343F4C62B045000000000043
:1007E0004040000034420000000000000000000013
:1007F0000041000000E03F0000C8420000C8420085
:100800000040410000F042C0030000C0030000C8E7
:10081000000000881300001010101000409C4400DD
:1008200000803F0000003F19140000004545505271
:100830004F4D204572726F7200627573793A207065
:10084000617573656420666F7220696E70757400DF
:10085000627573793A2070617573656420666F7292
:10086000207573657200627573793A2070726F63D8
:10087000657373696E670000007F43008054430016
:1008800000524300000000000080C09A99193E0009
:10089000000000000080C09A99193E0000A04000AE
:1008A00000A0400000004025336420737465703D53
:1008B000253264206D73636E743D2534640A000034
:1008C000007F43008058439AD95143FFFFFF2041E6
:1008D0003A0020503A002042403A0020403A00209E
:1008E0002F00205400202F0020423A00202F0054D7
:1008F0003A00206D6963726F6E73004578636573AB
:100900007369766520626564206C6576656C696ED6
:100910006720636F7272656374696F6E3A2000427C
:100920006564206C6576656C696E67206661696CCC
:1009300065642E2053656E736F72207472696767E9
:100940006572656420746F6F20686967682E004265
:100950006564206C6576656C696E67206661696C9C
:1009600065642E2053656E736F7220646973636FC4
:100970006E6E6563746564206F72206361626C657E
:100980002062726F6B656E2E0020453A00205A3A45
:100990000020593A0020453A00205A3A0020593A9E
:1009A00000583A0067636F64655F4D3730312062ED
:1009B0006567696E0A004D363030006673656E7388
:1009C0006F725F757064617465202D204D36303014
:1009D0000020573A0020453A00543A005A206C69EA
:1009E00076652061646A757374206F7574206F6614
:1009F0002072616E67652E2053657474696E67207E
:100A0000746F20302E20436C69636B20746F2063F9
:100A10006F6E74696E75652E005A206C697665205C
:100A200061646A757374206F7574206F66207261DB
:100A30006E67652E2053657474696E6720746F202D
:100A4000300020423A0020453A00543A00494E54C2
:100A500034007265636F7665725F6D616368696E9D
:100A6000655F73746174655F61667465725F706FF2
:100A70007765725F70616E69632C20696E69746955
:100A8000616C200050525553412075766C6F0047C1
:100A900034205330004D32362053256C75004D31D3
:100AA00030362053004D3232302053256400473118
:100AB00020462564004D383200473932204525361E
:100AC0002E3366004731204525302E3366204632CE
:100AD000373030004D3230342050256620522566A4
:100AE00020542566004731205A2566005052555340
:100AF00041204D424C205631004731205825662078
:100B000059256620463330303000506F7369746960
:100B10006F6E20726561642066726F6D206565700E
:100B2000726F6D3A004D3233202573002E67636F6C
:100B3000002C20666565646D756C7469706C793A1B
:100B40000046656564726174653A00473120452549
:100B50002D302E3366204632373030004731204565
:100B6000352046313230004D3833004D3130392098
:100B7000532564004D31343020532564004D31300D
:100B8000342053256400473238205820590047311B
:100B9000205A252E33662046383030004731205AFF
:100BA000252D302E33662046252D302E3366004706
:100BB000312045252D302E33662046323730300027
:100BC0004D383300416476616E6365204B3D004BC8
:100BD000206F7574206F6620616C6C6F7765642080
:100BE00072616E6765210025336400200A200A20A7
:100BF000004D323230205325690025534172632065
:100C000053657474696E67733A20503A4D61782069
:100C10006C656E677468286D6D2920533A4D696E56
:100C2000206C656E67746820286D6D29204E3A43EC
:100C30006F7272656374696F6E7320523A4D696E9C
:100C4000207365676D656E747320463A5365676DF2
:100C5000656E74732F7365632E0A255320204D3201
:100C600031342050252E32662053252E3266204EF8
:100C7000256420522564204625640A0025534669D0
:100C80006C616D656E742073657474696E67733A18
:100C90002044697361626C65640A00255346696C7F
:100CA000616D656E742073657474696E67733A0A5A
:100CB00025532020204D3230302044252E32660A24
:100CC000002553526574726163743A20533D4C653C
:100CD0006E67746820286D6D2920463A53706565EB
:100CE0006420286D6D2F6D29205A3A205A4C696670
:100CF0007420286D6D290A25532020204D3230376D
:100D00002053252E32662046252E3266205A252E67
:100D100032660A25535265636F7665723A20533DF9
:100D20004578747261206C656E67746820286D6DFB
:100D30002920463A537065656420286D6D2F6D2912
:100D40000A25532020204D3230382053252E32667C
:100D50002046252E32660A25534175746F2D526543
:100D600074726163743A20533D3020746F2064695B
:100D70007361626C652C203120746F20696E74651C
:100D8000727072657420657874727564652D6F6E0B
:100D90006C79206D6F766573206173207265747253
:100DA00061637473206F72207265636F7665726918
:100DB00065730A25532020204D3230392053256495
:100DC0000A002553504944206865617462656420B7
:100DD00073657474696E67733A0A25532020204D39
:100DE0003330342050252E32662049252E3266209D
:100DF00044252E32660A00255350494420736574F9
:100E000074696E67733A0A25532020204D333031C0
:100E10002050252E32662049252E32662044252E6C
:100E200032660A0025535374657073207065722012
:100E3000756E69743A0A255320204D3932205825A1
:100E40002E32662059252E3266205A252E326620F3
:100E500045252E32660A25535553746570207265F8
:100E6000736F6C7574696F6E3A200A2553204D3389
:100E700035302058256420592564205A25642045A2
:100E800025640A25534D6178696D756D2066656529
:100E9000647261746573202D206E6F726D616C20B9
:100EA000286D6D2F73293A0A255320204D32303397
:100EB0002058252E32662059252E3266205A252E9E
:100EC00032662045252E32660A25534D6178696DBC
:100ED000756D20666565647261746573202D20737D
:100EE0007465616C746820286D6D2F73293A0A252A
:100EF0005320204D3230332058252E32662059257C
:100F00002E3266205A252E32662045252E32660A5C
:100F100025534D6178696D756D20616363656C65FE
:100F2000726174696F6E202D206E6F726D616C201E
:100F3000286D6D2F7332293A0A255320204D323007
:100F4000312058256C752059256C75205A256C75F3
:100F50002045256C750A25534D6178696D756D20A6
:100F6000616363656C65726174696F6E202D2073B7
:100F70007465616C746820286D6D2F7332293A0A8C
:100F8000255320204D3230312058256C75205925AD
:100F90006C75205A256C752045256C750A255341C2
:100FA0006363656C65726174696F6E3A20503D7061
:100FB00072696E742C20523D726574726163742C78
:100FC00020543D74726176656C0A255320204D32A1
:100FD00030342050252E32662052252E3266205481
:100FE000252E32660A2553416476616E636564205E
:100FF0007661726961626C65733A20533D4D696E2A
:1010000020666565647261746520286D6D2F732993
:101010002C20543D4D696E2074726176656C20669B
:101020006565647261746520286D6D2F73292C20AD
:10103000423D6D696E696D756D207365676D656E96
:10104000742074696D6520286D73292C20583D6DBE
:101050006178696D756D205859206A65726B20281A
:101060006D6D2F73292C20205A3D6D6178696D7547
:101070006D205A206A65726B20286D6D2F73292CA4
:101080002020453D6D6178696D756D2045206A654C
:10109000726B20286D6D2F73290A255320204D3245
:1010A00030352053252E32662054252E32662042BC
:1010B000252E32662058252E32662059252E32667E
:1010C000205A252E32662045252E32660A255348A1
:1010D0006F6D65206F666673657420286D6D293AA3
:1010E0000A255320204D3230362058252E326620D6
:1010F00059252E3266205A252E32660A004625646E
:101100002025640A004D4D55203C3D20274625648E
:10111000202564270A00544D3A20525B25755D2036
:10112000657374696D61742E00544D3A2025532007
:10113000522025644300544D3A2025532043206516
:1011400073742E00544D3A20636F6F6C20646F7778
:101150006E203C25644300726566696E6500696EA9
:10116000697469616C00544D3A2063616C69627204
:101170002E206661696C65642100544D3A206361DC
:101180006C6962726174696F6E207374617274004D
:10119000544D3A2043616C2E204E4F542049444C0C
:1011A00045004361703A25533A25630A0050525571
:1011B00053415F4D4D553200455854454E444544CA
:1011C0005F4D3230004155544F5245504F52545F9D
:1011D000504F534954494F4E004155544F5245507A
:1011E0004F52545F46414E53004155544F52455063
:1011F0004F52545F54454D5000005A30005A310050
:10120000593000593100583000583100456E642083
:1012100073746F707320646961670044656C6574F2
:10122000696F6E206661696C65642C2046696C6527
:101230003A200046696C652064656C657465643AA3
:10124000004E6F74205344207072696E74696E672B
:10125000005072696E742073617665640053442097
:101260007072696E742070617573656400253364F3
:101270002F253364004F4B004241440052414D4200
:101280006F2046414E200066760074687800505208
:101290004E0043524153485F43414E43454C004347
:1012A000524153485F5245434F56455200435241C5
:1012B00053485F5245434F56455200222832290079
:1012C0004475706C696361746520542D636F646547
:1012D0002069676E6F7265642E00496E76616C6975
:1012E00064205420636F64652E002C204D39303704
:1012F00020452069676E6F726564006E6F207661AD
:101300006C696420636F6D6D616E64002C20002C2D
:1013100020002C20006E2F61007A65726F72697A4E
:10132000656400666163746F727920726573746FAF
:10133000726564002C20002C20002C20006E2F6190
:1013400000696E6465782C2074656D702C2075734F
:101350007465702C20756D0050494E4441206361C6
:101360006C207374617475733A2000503A005761B1
:10137000697420666F722050494E44412074617236
:101380006765742074656D70657261747572653A15
:10139000004155544F004C414E472053454C204688
:1013A0004F524345440020643A0020693A002070BF
:1013B0003A0020643A0020693A0020703A0025691A
:1013C00025250A00256925250A0022283129003013
:1013D000303030303030302D303030302D30303013
:1013E000302D303030302D30303030303030303003
:1013F0003030300020555549443A003100204558DE
:101400005452554445525F434F554E543A00534B46
:10141000454C4553545255444552204D4B3353008F
:10142000204D414348494E455F545950453A00319B
:101430002E3000206261736564206F6E204D6172F2
:101440006C696E204649524D574152455F55524C8A
:101450003A68747470733A2F2F6769746875622ED6
:10146000636F6D2F707275736133642F5072757373
:10147000612D4669726D776172652050524F544FED
:10148000434F4C5F56455253494F4E3A00464952DE
:101490004D574152455F4E414D453A50727573610B
:1014A0002D4669726D7761726520004D31313320B0
:1014B000530020423A0020453A00543A006F6B2016
:1014C000006E2F61003F546F736869626120466C43
:1014D000617368416972204765744950206661698B
:1014E0006C65640A00000125311D0C4024301C0B82
:1014F00045232F1B0A17FF0406222B1A0336373504
:10150000382569206D696E2C20256920736563007C
:10151000496E76616C6964204D20636F64653A2082
:1015200025730A004D65736820626564206C6576DA
:10153000656C696E67206E6F74206163746976658F
:101540002E002020000A4D6561737572656420705D
:101550006F696E74733A000A5A207365617263682A
:10156000206865696768743A20004E756D20582CB4
:10157000593A200050494E44412070726F626520F4
:1015800063616C6962726174696F6E2073746172F9
:101590007400473238205730004E6F2050494E4477
:1015A0004120746865726D6973746F72007365743D
:1015B000006E6F7A7A6C65004D424C004652004CCA
:1015C0007A004C616E6700315F37356D6D5F4D4B52
:1015D00033532D45494E53795F3130612D453344A6
:1015E000763666756C6C0052657600332E31322E7D
:1015F000322D353731330046697200534E20696E03
:1016000076616C696400534E005245534554004D59
:101610004D55524553004D32340075766C6F00467F
:10162000414E0046414E50494E545354005052557D
:101630005341005345545F43484F505F0053455456
:101640005F535445505F005345545F574156455FC3
:1016500000544D435F0043524153485F43414E4362
:10166000454C0043524153485F5245434F56455203
:101670000043524153485F44455445435445440058
:1016800043524153485F004D3120004D30004D31F1
:101690003137007B5B4552523A00332E31322E32C5
:1016A000005D5B4657523A005D5B54494D3A005D20
:1016B0005B464E4D3A005D5B46454D3A005D5B50E2
:1016C00043443A005B5446553A005B50524E3A0050
:1016D0005B50464E3A305D005B4449413A005D5BE9
:1016E0004154423A005D5B4154303A005D5B5354D3
:1016F000423A005B5354303A007B5B50524E3A35CD
:101700005D007B5B50524E3A305D007B5B50524E29
:101710003A395D007B5B50524E3A385D007B5B523C
:1017200045533A305D5B46494C3A007B5B5245532A
:101730003A315D5B46494C3A00000021104220637B
:10174000308440A550C660E770088129914AA16B9A
:10175000B18CC1ADD1CEE1EFF13112100273325232
:1017600022B5529442F772D662399318837BB35AEA
:10177000A3BDD39CC3FFF3DEE36224433420040102
:1017800014E664C774A44485546AA54BB52885093A
:1017900095EEE5CFF5ACC58DD553367226111630D2
:1017A00006D776F6669556B4465BB77AA71997388A
:1017B00087DFF7FEE79DD7BCC7C448E5588668A712
:1017C000784008611802282338CCC9EDD98EE9AFDA
:1017D000F9488969990AA92BB9F55AD44AB77A9672
:1017E0006A711A500A333A122AFDDBDCCBBFFB9E2A
:1017F000EB799B588B3BBB1AABA66C877CE44CC542
:101800005C222C033C600C411CAEED8FFDECCDCD79
:10181000DD2AAD0BBD688D499D977EB66ED55EF411
:101820004E133E322E511E700E9FFFBEEFDDDFFCC9
:10183000CF1BBF3AAF599F788F8891A981CAB1EB6E
:10184000A10CD12DC14EF16FE18010A100C230E397
:10185000200450254046706760B9839893FBA3DA53
:10186000B33DC31CD37FE35EF3B1029012F322D2E7
:10187000323542145277625672EAB5CBA5A89589E3
:10188000856EF54FE52CD50DC5E234C324A0148137
:10189000046674476424540544DBA7FAB79987B8F3
:1018A000975FE77EF71DC73CD7D326F2369106B087
:1018B0001657667676154634564CD96DC90EF92FF3
:1018C000E9C899E9898AB9ABA944586548067827D7
:1018D00068C018E1088238A3287DCB5CDB3FEB1E93
:1018E000FBF98BD89BBBAB9ABB754A545A376A1627
:1018F0007AF10AD01AB32A923A2EFD0FED6CDD4D23
:10190000CDAABD8BADE89DC98D267C076C645C4576
:101910004CA23C832CE01CC10C1FEF3EFF5DCF7C32
:10192000DF9BAFBABFD98FF89F176E367E554E74C6
:101930005E932EB23ED10EF01E7C3C3E3F2F2A22FB
:101940005C0022206661696C65643A2042756666B7
:1019500065722066756C6C21002200256920686F15
:10196000757273202569206D696E757465730052F8
:10197000582074696D656F7574004D333130004DBA
:10198000313132004D313130005052555341004613
:10199000756C6C20525820427566666572004375FE
:1019A00073746F6D004E796C6F6E504100536174AB
:1019B000696E20200054657874757200536D6F6FE6
:1019C000746800486F74656E642066616E20737081
:1019D000656564206973206C6F7765722074686137
:1019E0006E206578706563746564005072696E740A
:1019F0002066616E207370656564206973206C6F6A
:101A0000776572207468616E2065787065637465AF
:101A1000640047312059252D2E32662045252D2E74
:101A20003366004731205825642059252D2E326613
:101A30002045252D2E3366006673656E736F725FC9
:101A4000636865636B706F696E745F7072696E74E2
:101A500000312E3000312E3500554E4B4E4F574E33
:101A6000004C413130433A204C696E65617220412F
:101A70006476616E6365206D6F64653A20004C4149
:101A80003130433A2041646A757374656420452D92
:101A90004A65726B3A2000000E1315110E0000000B
:101AA00004120912040000001C1F11111F00000085
:101AB00006191803130C00040E1F041C0000000478
:101AC0000A0A0A0A11110E0C12120C000000000082
:101AD0001F1511151F0000000103161C080000004F
:101AE00000110A04110A042563252D31382E3138DE
:101AF000532563005B25735D2563005B25535D25DE
:101B000063002563252D31382E31385300256C753F
:101B1000206279746573207772697474656E2074BD
:101B20006F20255320617420616464726573732093
:101B300030782530346C780A00442564202D2052FA
:101B40006561642F57726974652025530A0020432C
:101B50006F756E7420583A200045303A2564205243
:101B6000504D2050524E313A25642052504D204560
:101B700030403A25752050524E31403A25640A00D3
:101B8000526573656E640025533A20256C640A25FE
:101B9000530A00496E6163746976697479205368E9
:101BA0007574646F776E004B494C4C45442E200091
:101BB0005072696E7465722068616C7465642E2061
:101BC0006B696C6C28292063616C6C656421004B27
:101BD000494C4C3A2025640A005072696E74657253
:101BE0002073746F707065642064756520746F2055
:101BF0006572726F72732E20537570657276697399
:101C0000696F6E2072657175697265642E004D3260
:101C1000323120496E76616C696420657874727522
:101C200064657220004D32313820496E76616C69EE
:101C30006420657874727564657220004D313039A6
:101C400020496E76616C696420657874727564658C
:101C50007220004D31303520496E76616C69642008
:101C6000657874727564657220004D313034204996
:101C70006E76616C69642065787472756465722033
:101C800000504F5745522050414E4943204445543F
:101C900045435445440055564C4F202D20656E64F5
:101CA0002025640A0055564C4F5F54494E59202D4B
:101CB00020656E642025640A00776F726C6420636F
:101CC0006F6F7264696E617465733A2028252E33D4
:101CD000662C20252E33662C20252E3366290A00FB
:101CE00043757272656E7420706F73205A5F41582D
:101CF00049533A252E33660A43757272656E742015
:101D0000706F7320455F415849533A252E33660A58
:101D10000041667465722077616974696E67206638
:101D20006F722074656D703A0A43757272656E74D5
:101D300020706F7320585F415849533A252E3366FF
:101D40000A43757272656E7420706F7320595F411B
:101D50005849533A252E33660A0064756D70206326
:101D60006C65617265640A006E6F2064756D702029
:101D7000617661696C61626C650A00443231202DC4
:101D800020726561642063726173682064756D7090
:101D90000A006E6F2064756D7020617661696C61F8
:101DA000626C650A0064756D7020636F6D706C65A0
:101DB00074656420696E20256C756D730A00584641
:101DC0004C41534800454550524F4D005352414DF0
:101DD00000442D31202D20456E646C657373206C9A
:101DE0006F6F700A005344207072696E74696E6779
:101DF00020627974652000257500416374697665F9
:101E00002045787472756465723A2000496E766177
:101E10006C696420657874727564657200556E6BC8
:101E20006E6F776E20636F6D6D616E643A20220075
:101E30004D32303020496E76616C6964206578746B
:101E4000727564657220007A5F6D61783A20007A5D
:101E50005F6D696E3A2000795F6D61783A20007994
:101E60005F6D696E3A2000785F6D61783A200054AA
:101E70005249474745524544006F70656E00785F90
:101E80006D696E3A20005265706F7274696E6720DA
:101E9000656E6473746F702073746174757300532E
:101EA000494C454E54004E4F524D414C0025532055
:101EB0004D4F44453A2050657263656E7420646FDF
:101EC0006E653A20256868643B207072696E7420E4
:101ED00074696D652072656D61696E696E672069F0
:101EE0006E206D696E733A2025643B204368616EF5
:101EF000676520696E206D696E733A2025640A005B
:101F0000456E642066696C65206C69737400426577
:101F100067696E2066696C65206C69737400556E24
:101F20006B6E6F776E20256320636F64653A2025A2
:101F3000730A000A50494E44412074656D70657201
:101F400061747572653A20252E3166205A207368B7
:101F500069667420286D6D293A20252E3366000AA3
:101F6000537465703A2025642F360A000A5374654D
:101F7000703A2025642F362028736B697070656471
:101F8000290A50494E44412074656D706572617430
:101F90007572653A202564205A207368696674203A
:101FA000286D6D293A300A000A5A45524F3A2025C9
:101FB0002E33660A0073746172742074656D7065E7
:101FC0007261747572653A20252E31660A002564A7
:101FD0002020252E326600255320583A20252E3504
:101FE0006620593A20252E3566205A3A20252E356E
:101FF000660A00536C6565702E2E2E0045303A251A
:10200000642052504D0A50524E303A2564205250AE
:102010004D0A00656E717565696E67202200446F18
:102020006E65207072696E74696E672066696C6592
:10203000004D3131322063616C6C65642E20456D3A
:10204000657267656E63792053746F702E004E6FF2
:10205000204C696E65204E756D62657220776974DB
:102060006820636865636B73756D2C204C617374B5
:10207000204C696E653A20004E6F20436865636BA3
:1020800073756D2077697468206C696E65206E7554
:102090006D6265722C204C617374204C696E653AD8
:1020A0002000636865636B73756D206D69736D6186
:1020B0007463682C204C617374204C696E653A20FF
:1020C000004C696E65204E756D62657220697320E3
:1020D0006E6F74204C617374204C696E65204E7570
:1020E0006D6265722B312C204C617374204C696ECB
:1020F000653A200043726173682064657465637497
:1021000065642E00536F6D652070726F626C656D33
:1021100020656E636F756E74657265642C205A2D30
:102120006C6576656C696E6720656E666F72636557
:1021300064202E2E2E0048656174696E67206469E4
:102140007361626C6564206279207361666574797D
:102150002074696D65722E0053544F505045442EC3
:102160000050415553454420544845524D414C2060
:102170004552524F52005265636F766572696E67C1
:10218000207072696E7400472D636F646520736CF4
:102190006963656420666F722061206469666665A4
:1021A00072656E74206C6576656C2E20436F6E745C
:1021B000696E75653F00472D636F646520736C69B8
:1021C00063656420666F722061206469666665726B
:1021D000656E74206C6576656C2E20506C6561733D
:1021E000652072652D736C69636520746865206D68
:1021F0006F64656C20616761696E2E205072696E34
:10220000742063616E63656C6C65642E00472D639A
:102210006F646520736C6963656420666F7220610A
:10222000206E65776572206669726D776172652EC2
:1022300020506C65617365207570646174652074ED
:102240006865206669726D776172652E20507269CB
:102250006E742063616E63656C6C65642E00472D3F
:10226000636F646520736C6963656420666F7220B8
:1022700061206E65776572206669726D776172653F
:102280002E20436F6E74696E75653F00472D636F36
:10229000646520736C6963656420666F72206120D9
:1022A000646966666572656E74207072696E7465C5
:1022B0007220747970652E20436F6E74696E756537
:1022C0003F00472D636F646520736C69636564200C
:1022D000666F72206120646966666572656E74203F
:1022E0007072696E74657220747970652E20506CFE
:1022F000656173652072652D736C69636520746810
:1023000065206D6F64656C20616761696E2E205079
:1023100072696E742063616E63656C6C65642E0017
:10232000507265737320746865206B6E6F622074E1
:102330006F2070726568656174206E6F7A7A6C6563
:1023400020616E6420636F6E74696E75652E005037
:102350006C656173652070726573732074686520A5
:102360006B6E6F6220746F20756E6C6F6164206697
:10237000696C616D656E740052656D6F7665206F76
:102380006C642066696C616D656E7420616E64209A
:10239000707265737320746865206B6E6F62207451
:1023A0006F207374617274206C6F6164696E672052
:1023B0006E65772066696C616D656E742E00616E66
:1023C0006420707265737320746865206B6E6F6231
:1023D00000496E736572742066696C616D656E7418
:1023E00000436F6C6F72206E6F7420636F72726542
:1023F00063740046696C616D656E74206E6F742045
:102400006C6F61646564004368616E676564206336
:102410006F72726563746C793F004C6F6164696EB2
:102420006720636F6C6F72004368616E676520732D
:102430007563636573732100506C65617365206F0C
:1024400070656E2069646C657220616E64207265CF
:102450006D6F76652066696C616D656E74206D6167
:102460006E75616C6C792E005761732066696C61C2
:102470006D656E7420756E6C6F6164207375636337
:1024800065737366756C3F00506C6561736520758C
:102490007067726164652E004E6577206669726DA3
:1024A000776172652076657273696F6E20617661FF
:1024B000696C61626C653A0057616974696E672086
:1024C000666F722050494E44412070726F626520E1
:1024D000636F6F6C696E670053656C65637420652C
:1024E000787472756465723A00506C65617365202A
:1024F00077616974004E6F206D6F76652E0053749E
:1025000061626C6520616D6269656E742074656DD1
:1025100070657261747572652032312D32364320D8
:102520006973206E656564656420612072696769FE
:1025300064207374616E64206973207265717569BB
:102540007265642E00506C656173652072756E2033
:1025500058595A2063616C6962726174696F6E20A8
:1025600066697273742E005761697420666F7220F9
:10257000757365722E2E2E00473120583530205944
:1025800035352045332E3632373733004731205822
:10259000323030205935352045302E3439333836F5
:1025A0000047312058323030205937352045332EFE
:1025B00036323737330047312058353020593735D8
:1025C0002045302E343933383600473120583530E5
:1025D000205939352045332E3632373733004731CD
:1025E0002058323030205939352045302E34393397
:1025F00038360047312058323030205931313520BB
:1026000045332E36323737330047312058353020A6
:10261000593131352045302E343933383600473181
:102620002058353020593133352045332E36323756
:10263000373300473120583230302059313335207C
:1026400045302E363631373400473120583230305D
:1026500020593135352045322E3632373733004751
:10266000312058313030205931353520453200473E
:10267000312058373520593135352045322E350037
:102680004731204631303830004731205A302E3122
:1026900035302046373230302E3030300047312050
:1026A00058353020593135350047312046343030E7
:1026B00030004D323034205331303030004731203B
:1026C0005A352046373230302E30303000473120F6
:1026D000452D312E35303030302046323130302EDD
:1026E0003030303030004D38330047393000473219
:1026F00031004739322045302E30004731205835DF
:102700002E302045342E302046313030302E3000EF
:102710004731205A302E32302046313030302E3082
:10272000004731205835352E30204532352046318E
:102730003430302E3000473120592D322E30204693
:10274000313030302E3000473120583234302E3086
:10275000204532352E30202046323230302E3000A7
:102760004739322045302E30004731205A302E3341
:102770002046313030302E30004731205835352E4C
:10278000302045382E302046323030302E30004751
:10279000312058352E30204533322E302046313806
:1027A00030302E30004731205835352E302045331B
:1027B000322E302046313037332E3000464C4558CB
:1027C000202D20203234302F353000505020202052
:1027D0002D20203235342F313030004849505320DD
:1027E0002D20203232302F31303000414253202012
:1027F0002D20203235352F313030005056422020E8
:102800002D20203231352F37350050432020202D08
:1028100020203237352F3131300041534120202DD7
:1028200020203236302F3130350050455447202D8E
:1028300020203233302F383500504C4120202D20BD
:10284000203231352F3630006E6F7A7A6C65202D4C
:1028500020203235302F30006661726D2020202D0F
:1028600020203235302F383000252D31322E3132B4
:1028700053252B382E316600457874727564657265
:102880003A006D6D0059005800583A00593A005A04
:102890003A002563252D31332E313353252B352E28
:1028A000336600253375002533642F2533640050CB
:1028B000494E44412063616C6962726174696F6E54
:1028C000206661696C65642E20436F6E74696E7555
:1028D000652077697468207072657373696E67200C
:1028E000746865206B6E6F622E0050494E44412023
:1028F00063616C6962726174696F6E20646F6E658A
:102900002E20436F6E74696E756520776974682038
:102910007072657373696E6720746865206B6E6F83
:10292000622E00473830004D3435004D3435205A82
:10293000004737360057697A617264207374617496
:10294000653A2025640A004578706572696D656E88
:1029500074616C0044697361626C65206661726DBC
:10296000206D6F6465004D3834004D3434004732BB
:1029700038205700200A200A2000473939004469CE
:102980007361626C65206661726D206D6F64653F76
:10299000004D363030004D203834004D3834004D75
:1029A0003234004D323320257300052E2E0025755C
:1029B00000593A202575202D3E202E2E2E002575FB
:1029C00000583A202575202D3E202E2E2E0025332E
:1029D000642F30002533642F30004D3834002563D8
:1029E0002041584953205347313D25640A00486F20
:1029F00074656E6400426564005A00590058002DE9
:102A00002D2D2D2D2D2D2D2D2D2D2D2D2D2D2D2DF6
:102A10002D2D2D004F4B00435A5058496E76616C56
:102A2000696453657269616C4E7200473120583594
:102A300030205933352045252D2E3366009D2689BB
:102A40002680266F265F26492633261E260926F372
:102A500025DE25CA25B625A1258C257825F226EE6A
:102A600026EA26E626CD26BD26B226A9264731200F
:102A7000583130302E30204531322E35204631301D
:102A800030302E30004731205836302E3020453936
:102A90002E302046313030302E3000A5278F277958
:102AA00027692760274727362721271027FB265429
:102AB0002564004731205A302E34204631303030E2
:102AC0002E3000473120592D332E30204631303002
:102AD000302E30004D3833004739322045302E300B
:102AE00000473238004D313039004D313930004D1A
:102AF000313037004D3834205859004D31303920AD
:102B0000533238300047312058313235205A323074
:102B100030204631303030004732382057004D35B4
:102B20003030004D333130204120463100496E763F
:102B3000616C6964205049442063616C2E20726589
:102B400073756C74732E204E6F742073746F72657E
:102B50006420746F20454550524F4D2E004D353046
:102B600030004D3330312050252E32662049252E3D
:102B700032662044252E3266004D333033204530F6
:102B80002053253375004731205A313520463135E1
:102B90003030004739310047312058353020593125
:102BA000393020453020463730303000473930004A
:102BB0004D3834004D3730322043004731205831F2
:102BC0003020593138302046343030300047312001
:102BD0005A31302046313330302E303030004D31D4
:102BE0003430205330004D313034205330004731E1
:102BF00020452D302E3037353030204632313030C0
:102C00002E3030303030004D3130370052430044E8
:102C10004556004245544100414C50484100000097
:102C20002100240027002A002D003000330001017C
:102C30000000040107010A0100002200250028000D
:102C40002B002E00310034000201000005010801B4
:102C50000B01000020002300260029002C002F007B
:102C60003200000100000301060109010505050508
:102C7000070508080808020202020A0A08080404F4
:102C80000404010101010101010103030303030322
:102C90000303040707070C0C0C0C0C0C0C0C0202B1
:102CA000020206060606060606060B0B0B0B0B0BAE
:102CB0000B0B07070A0A0A0A0A0A05050504040499
:102CC0000808010210202008081020401020408031
:102CD00002010201080402010102040810204080E0
:102CE000804020100804020180040201804020106E
:102CF00008040201080402010102040810204080B7
:102D000001020408102040801008040880102040B0
:102D1000044080102040048000000A0B02090C0DC2
:102D20000E0807030401000000000000000000007E
:102D30000000000000000000000000000000000093
:102D40000000000012111000000000000000000050
:102D50000000000000000000000000000000000073
:102D60000000000000000000000000000000332E02
:102D700031322E32000A204F726967696E616C2011
:102D800050727573612069330A2020205072757368
:102D9000612052657365617263680A2532302E3294
:102DA000305300435A5058003B53006164635F69DD
:102DB0006E697400200A200A200A2000416C6C20F1
:102DC0004461746100536572766963652070726551
:102DD00070005368697070696E672070726570006A
:102DE00053746174697374696373004C616E6775C1
:102DF0006167650045524153494E4720616C6C2024
:102E00006461746100466163746F72792052455346
:102E100045540044495341424C454400454E4142CB
:102E20004C4544004653656E736F72202553005025
:102E3000525553413344465700494E5434004D4B8C
:102E400033534D4D553253004E4F4D4B3353002E9F
:102E50000103000C000200511603000200000004F0
:102E6000004E4F4354554100414C5446414E004D95
:102E70006172202033203230323300436F6D70692D
:102E80006C65643A2000286E6F6E652C2064656660
:102E900061756C7420636F6E66696729004D61729D
:102EA00020203320323032332031363A31313A3536
:102EB000320020332E31322E322D3537313300732C
:102EC0007461727400534E2075706461746520667D
:102ED00061696C656400534E20757064617465644B
:102EE00000435A50580043524153485F44455445AB
:102EF0004354454458590043524153485F44455454
:102F00004543544544590043524153485F44455456
:102F1000454354454458004D323900436F6F6C644B
:102F20006F776E0050726568656174207468652003
:102F30006E6F7A7A6C6521004552524F523A0046C4
:102F4000696C616D656E7420657874727564696E04
:102F5000672026207769746820636F7272656374D6
:102F600020636F6C6F723F004175746F6C6F6164AA
:102F7000696E672066696C616D656E742069732087
:102F80006163746976652C206A757374207072654C
:102F9000737320746865206B6E6F6220616E6420AD
:102FA000696E736572742066696C616D656E742EEE
:102FB0002E2E005072696E742074696D650046692A
:102FC0006C616D656E74207573656400546F746117
:102FD0006C207072696E742074696D6500546F7432
:102FE000616C2066696C616D656E7400526967681A
:102FF00074004C65667400592064697374616E6373
:10300000652066726F6D206D696E0053657665721E
:103010006520736B657700536C6967687420736B08
:103020006577004D6561737572656420736B6577B4
:10303000005B303B305D20706F696E74206F666698
:103040007365740041646A757374696E67205A3AD7
:1030500000526561722073696465205BE46D5D00F8
:1030600046726F6E7420736964655BE46D5D005237
:103070006967687420736964655BE46D5D004C6525
:1030800066742073696465205BE46D5D005365744C
:103090002074656D70657261747572653A0050498F
:1030A0004E44412063616C6962726174696F6E2085
:1030B0006661696C65640050494E44412063616CEF
:1030C0006962726174696F6E2069732066696E69E6
:1030D0007368656420616E64206163746976652E2F
:1030E0002049742063616E206265206469736162A7
:1030F0006C656420696E206D656E7520536574740F
:10310000696E67732D3E50494E44412063616C2EB9
:10311000004578747275646572004D6F7665205A4B
:10312000004D6F76652059004D6F7665205800433D
:103130007261736820646574656374696F6E20637F
:10314000616E0A6265207475726E6564206F6E2010
:103150006F6E6C7920696E0A4E6F726D616C206DB6
:103160006F6465005741524E494E473A0A437261B7
:10317000736820646574656374696F6E0A6469734B
:1031800061626C656420696E0A537465616C746871
:10319000206D6F6465004175746F6C6F6164696E5A
:1031A000672066696C616D656E7420617661696C1B
:1031B00061626C65206F6E6C79207768656E206641
:1031C000696C616D656E742073656E736F722069D2
:1031D00073207475726E6564206F6E2E2E2E0045FE
:1031E00052524F523A2046696C616D656E7420737D
:1031F000656E736F72206973206E6F7420726573D1
:10320000706F6E64696E672C20706C6561736520E9
:10321000636865636B20636F6E6E656374696F6E60
:103220002E004D6F6465206368616E676520696E6E
:103230002070726F67726573732E2E2E005368654F
:10324000657420252E37730A5A206F66667365747D
:103250003A20252B312E33666D6D0A2563436F6E40
:1032600074696E75650A2563526573657400506CE8
:1032700065617365206C6F61642066696C616D6562
:103280006E742066697273742E003E43616E6365CE
:103290006C0046696C616D656E740053656C6563A6
:1032A000742066696C616D656E743A0052756E6E5D
:1032B000696E672057697A6172642077696C6C2047
:1032C00064656C6574652063757272656E742063E5
:1032D000616C6962726174696F6E20726573756C7E
:1032E000747320616E642073746172742066726FEF
:1032F0006D2074686520626567696E6E696E672E01
:1033000020436F6E74696E75653F00507265686525
:103310006174696E67206E6F7A7A6C652E20506CCE
:103320006561736520776169742E004C6F61646913
:103330006E672066696C616D656E7400506C6561C6
:10334000736520696E736572742066696C616D6562
:103350006E7420696E746F2074686520657874726D
:10336000756465722C207468656E20707265737365
:1033700020746865206B6E6F6220746F206C6F61C3
:10338000642069742E00506C6561736520696E73EA
:103390006572742066696C616D656E7420696E7407
:1033A0006F20746865206669727374207475626535
:1033B000206F6620746865204D4D552C207468651B
:1033C0006E20707265737320746865206B6E6F6217
:1033D00020746F206C6F61642069742E00546865DE
:1033E000207072696E7465722077696C6C207374DA
:1033F000617274207072696E74696E672061207AE0
:1034000069672D7A6167206C696E652E20526F7432
:1034100061746520746865206B6E6F6220756E74D0
:10342000696C20796F7520726561636820746865C6
:10343000206F7074696D616C206865696768742EAF
:1034400020436865636B20746865207069637475D8
:1034500072657320696E207468652068616E6462AD
:103460006F6F6B202843616C6962726174696F6E63
:103470002063686170746572292E0053656C656302
:10348000742074656D7065726174757265207768FB
:10349000696368206D61746368657320796F757204
:1034A000206D6174657269616C2E0053656C656393
:1034B0007420612066696C616D656E7420666F7240
:1034C00020746865204669727374204C6179657256
:1034D0002043616C6962726174696F6E20616E6411
:1034E0002073656C65637420697420696E2074684C
:1034F00065206F6E2D73637265656E206D656E75E8
:103500002E004E6F7720492077696C6C2063616CC8
:103510006962726174652064697374616E636520A9
:103520006265747765656E20746970206F662074BB
:103530006865206E6F7A7A6C6520616E64206865BC
:10354000617462656420737572666163652E0050F4
:103550006C6561736520636865636B206F757220AD
:1035600068616E64626F6F6B20616E64206669785B
:10357000207468652070726F626C656D2E205468CF
:10358000656E20726573756D652074686520576976
:103590007A617264206279207265626F6F74696EFD
:1035A0006720746865207072696E7465722E0041C0
:1035B0006C6C20697320646F6E652E20486170709A
:1035C00079207072696E74696E672100596F752079
:1035D00063616E20616C7761797320726573756DBC
:1035E00065207468652057697A6172642066726F1D
:1035F0006D2043616C6962726174696F6E202D3E4B
:103600002057697A6172642E00496620796F7520AF
:1036100068617665206164646974696F6E616C20AD
:10362000737465656C207368656574732C206361C1
:103630006C69627261746520746865697220707269
:10364000657365747320696E2053657474696E6761
:1036500073202D204857205365747570202D2053FA
:103660007465656C207368656574732E00506C65B5
:1036700061736520636C65616E2068656174626565
:103680006420616E64207468656E20707265737367
:1036900020746865206B6E6F622E00446F20796F16
:1036A000752077616E7420746F2072657065617427
:1036B000206C617374207374657020746F20726560
:1036C00061646A7573742064697374616E636520E4
:1036D0006265747765656E206E6F7A7A6C652061BD
:1036E0006E6420686561746265643F0053656C6553
:1036F0006374206E6F7A7A6C65207072656865619C
:10370000742074656D706572617475726520776878
:10371000696368206D61746368657320796F757281
:10372000206D6174657269616C2E00497320666951
:103730006C616D656E74206C6F616465643F0054EC
:103740006865726D616C206D6F64656C2063616C7F
:103750002E2074616B657320617070726F782E20FB
:103760003132206D696E732E205365650A70727553
:1037700073612E696F2F746D2D63616C004E6F77CE
:1037800020492077696C6C207072656865617420CF
:103790006E6F7A7A6C6520666F7220504C412E00F5
:1037A000492077696C6C2072756E207A2063616C99
:1037B0006962726174696F6E206E6F772E004E6F52
:1037C000772072656D6F7665207468652074657307
:1037D00074207072696E742066726F6D20737465E8
:1037E000656C2073686565742E00506C6561736547
:1037F0002072656D6F7665207368697070696E6799
:103800002068656C706572732066697273742E002F
:10381000492077696C6C2072756E2078797A206304
:10382000616C6962726174696F6E206E6F772E20B1
:1038300049742077696C6C2074616B652075702009
:10384000746F203234206D696E732E004669727376
:10385000742C20492077696C6C2072756E20746816
:10386000652073656C667465737420746F2063687B
:1038700065636B206D6F737420636F6D6D6F6E2069
:10388000617373656D626C792070726F626C656DC7
:10389000732E0048692C204920616D20796F757264
:1038A000204F726967696E616C2050727573612078
:1038B0006933207072696E7465722E20576F756C53
:1038C0006420796F75206C696B65206D6520746F5D
:1038D00020677569646520796F75207468726F75EB
:1038E0006768207468652073657475702070726FE6
:1038F000636573733F0048692C204920616D20790E
:103900006F7572204F726967696E616C20507275B5
:103910007361206933207072696E7465722E20495C
:103920002077696C6C20677569646520796F7520F4
:103930007468726F75676820612073686F72742095
:1039400073657475702070726F636573732C206972
:103950006E20776869636820746865205A2D6178E5
:1039600069732077696C6C2062652063616C6962A1
:1039700072617465642E205468656E2C20796F75B1
:103980002077696C6C2062652072656164792074AF
:103990006F207072696E742E00452D636F727265B0
:1039A00063743A005A2D636F72726563743A0059FA
:1039B0002D636F72726563743A00582D636F727273
:1039C0006563743A00437574746572004D6F646585
:1039D0006C00537472696374005761726E004368BF
:1039E00065636B73004E6F7A7A6C6520642E004EAF
:1039F0006F6E6500416C7068616265740054696D3A
:103A00006500536F72740053442063617264005206
:103A1000506920706F7274004C696E2E20636F7253
:103A200072656374696F6E004E6F7A7A6C6520639D
:103A300068616E676500485720536574757000466D
:103A40002E206175746F6C6F6164004469736162EC
:103A50006C65207374657070657273004D6F766568
:103A600020617869730054656D7065726174757258
:103A7000650050494E44412063616C2E00526573CD
:103A800065742058595A2063616C6962722E005027
:103A900049442063616C6962726174696F6E0042AF
:103AA0006564206C6576656C20636F727265637403
:103AB000004D65736820426564204C6576656C69CD
:103AC0006E670043616C696272617465205A0043DD
:103AD000616C6962726174652058595A0053656C53
:103AE00066746573740042656C7420746573740049
:103AF00057697A617264004C6F616420616C6C007C
:103B0000506C656173652070756C6C206F757420E6
:103B100066696C616D656E7420696D6D656469615F
:103B200074656C7900556E6C6F6164696E672066B0
:103B3000696C616D656E74005265736574005265E1
:103B40006E616D65004669727374206C617965728F
:103B50002063616C2E0053656C656374005374655B
:103B6000656C2073686565747300537570706F724F
:103B700074004661696C207374617473204D4D55F7
:103B8000004661696C2073746174730053746174CE
:103B90006973746963730043616C6962726174690B
:103BA0006F6E004175746F4C6F61642066696C6163
:103BB0006D656E74004375742066696C616D656E29
:103BC0007400456A6563742066696C616D656E7426
:103BD00000556E6C6F61642066696C616D656E7412
:103BE000004C6F616420746F206E6F7A7A6C650090
:103BF0004C6F61642066696C616D656E74004E6F18
:103C00002053442063617264005072696E742066B0
:103C1000726F6D20534400436C65617220544D20D7
:103C20006572726F7200526573756D65207072698E
:103C30006E74005061757365207072696E74005007
:103C40007265686561740054756E65004C697665CF
:103C50002061646A757374205A00496E666F207320
:103C6000637265656E0046696E697368696E672088
:103C70006D6F76656D656E74730042726967687406
:103C80006E657373004173736973740053696C6577
:103C90006E74004F6E6365004C6F756400536F75F2
:103CA0006E64004D4D55204D6F6465005374656121
:103CB0006C7468004372617368206465742E004EF2
:103CC0006F726D616C0046616E7320636865636B33
:103CD0000046696C2E2073656E736F7200436861D5
:103CE0006E67652066696C616D656E7400466C6F09
:103CF00077005370656564004E2F41004D61676E1B
:103D000065747320636F6D702E005A2D70726F6230
:103D100065206E722E004D6573680054696D656F85
:103D200075740044696D004272696768740041757A
:103D3000746F004D6F6465004C6576656C20446956
:103D40006D6D6564004C6576656C204272696768CC
:103D5000740046616E20737065656400426564009E
:103D60004E6F7A7A6C650053657474696E67730080
:103D700053746F70207072696E7400436865636B72
:103D8000696E672066696C650046696C6520696EBE
:103D9000636F6D706C6574652E20436F6E74696E11
:103DA000756520616E797761793F000452656672AE
:103DB000657368004D61696E0057616974696E676B
:103DC00020666F72206E6F7A7A6C6520616E642057
:103DD00062656420636F6F6C696E670053656C6623
:103DE0002074657374204F4B0053656C66207465B6
:103DF0007374207374617274005072696E742066FB
:103E0000616E3A00486F74656E642066616E3A00B8
:103E100043616C6962726174696E6720686F6D6579
:103E200000416C6C20636F72726563740043686557
:103E3000636B696E672073656E736F72730043689E
:103E400065636B696E6720686F74656E64004368B4
:103E500065636B696E672062656400436865636BC8
:103E6000696E67205A206178697300436865636BE7
:103E7000696E672059206178697300436865636BD8
:103E8000696E672058206178697300436865636BC9
:103E9000696E6720656E6473746F7073004361723E
:103EA000642072656D6F766564004F6E004F6666C4
:103EB000004261636B00486F74656E64206174201A
:103EC0003238304321204E6F7A7A6C652063686106
:103ED0006E67656420616E64207469676874656EDE
:103EE000656420746F2073706563733F00466F7262
:103EF0002061204E6F7A7A6C65206368616E676519
:103F000020706C6561736520726561640A707275FA
:103F100073612E696F2F6E6F7A7A6C652D6D6B33BE
:103F200073005049442063616C2E2066696E69738A
:103F3000686564005049442063616C2E00507269CA
:103F40006E7420706175736564005072696E7420C0
:103F500061626F72746564005072696E746572207C
:103F60006E6F7A7A6C65206469616D657465722024
:103F7000646966666572732066726F6D2074686529
:103F800020472D636F64652E20506C65617365203A
:103F9000636865636B207468652076616C75652065
:103FA000696E2073657474696E67732E2050726930
:103FB0006E742063616E63656C6C65642E00507274
:103FC000696E746572206E6F7A7A6C6520646961BF
:103FD0006D657465722064696666657273206672C9
:103FE0006F6D2074686520472D636F64652E2043D4
:103FF0006F6E74696E75653F004D4B335320666973
:10400000726D7761726520646574656374656420A0
:104010006F6E204D4B33207072696E746572004272
:104020006C61636B6F7574206F6363757272656426
:104030002E205265636F766572207072696E743FD0
:1040400000546865726D616C206D6F64656C206EE4
:104050006F742063616C6962726174656420796554
:10406000742E005468657265206973207374696CDE
:104070006C2061206E65656420746F206D616B65D6
:10408000205A2063616C6962726174696F6E2E20C0
:10409000506C6561736520666F6C6C6F7720746817
:1040A00065206D616E75616C2C206368617074654C
:1040B000722046697273742073746570732C207358
:1040C000656374696F6E2043616C696272617469C3
:1040D0006F6E20666C6F772E005072696E74657219
:1040E00020686173206E6F74206265656E20636165
:1040F0006C69627261746564207965742E20506CFD
:104100006561736520666F6C6C6F772074686520DD
:104110006D616E75616C2C206368617074657220CE
:1041200046697273742073746570732C20736563B1
:1041300074696F6E2043616C6962726174696F6E3D
:1041400020666C6F772E0053656C667465737420FF
:1041500077696C6C2062652072756E20746F2063C5
:10416000616C696272617465206163637572617408
:10417000652073656E736F726C657373207265680A
:104180006F6D696E672E004F6C642073657474697F
:104190006E677320666F756E642E20446566617568
:1041A0006C74205049442C204573746570732065ED
:1041B00074632E2077696C6C206265207365742EA1
:1041C000005761726E696E673A20626F7468207082
:1041D00072696E746572207479706520616E6420F6
:1041E0006D6F74686572626F617264207479706556
:1041F000206368616E6765642E005761726E696E38
:10420000673A207072696E746572207479706520E7
:104210006368616E6765642E005761726E696E67D0
:104220003A206D6F74686572626F61726420747990
:104230007065206368616E6765642E0025533A0AD5
:104240002531382E32666D200A25533A0A25313041
:104250006C646820253032646D2025303264730030
:1042600025533A0A2531382E32666D200A25533AF5
:104270000A2531306C646420253032646820253092
:1042800032646D0025362E32666D6D0025530A2589
:10429000530A25533A0A25533A0025332E32660134
:1042A00000252D31342E3134533A0A25530A252D59
:1042B00031342E3134533A25332E3266010A252DFE
:1042C00031342E3134533A25332E3266010020200A
:1042D00030002020310046494E44410050494E44B0
:1042E000410057697A61726420656E64207374615D
:1042F00074653A2025640A0053706F6F6C4A6F69C9
:104300006E004669726D7761726500466C61736814
:1043100041697200546865726D616C204D6F64650F
:104320006C2063616C2E004572723A5052494E54B3
:104330002046414E204552524F52004572723A4833
:104340004F54454E442046414E204552524F520054
:104350002F2F20616374696F6E3A726573756D6596
:1043600064002F2F20616374696F6E3A72657375F4
:104370006D65002F2F20616374696F6E3A63616E03
:1043800063656C0041786973206C656E67746820A2
:10439000646966666572656E63653A252E33660AE2
:1043A000004D656173757265642061786973206C76
:1043B000656E6774683A252E33660A004C434420C4
:1043C000737461747573206368616E67656400530C
:1043D0004420636172642072656C6561736564007A
:1043E00046616B652073657269616C206E756D62E4
:1043F000657200452D636F6F6C206D6F64650041C1
:104400004C5446414E206465742E004578746572A4
:104410006E616C2053504920666C6173680A58467F
:104420004C415348206973206E6F74207265732D60
:104430000A706F6E64696E672E204C616E677561DD
:1044400067650A73776974636820756E6176616960
:104450006C61626C652E0046572063726173682040
:1044600064657465637465642120596F75206361A8
:104470006E20636F6E74696E7565207072696E74FC
:10448000696E672E204465627567206461746120DF
:10449000617661696C61626C6520666F7220616E25
:1044A000616C797369732E20436F6E74616374203D
:1044B000737570706F727420746F207375626D699C
:1044C000742064657461696C732E002F2F20616302
:1044D00074696F6E3A64756D705F617661696C6165
:1044E000626C6500534B454C4553545255444552FC
:1044F000204D4B3353204F4B2E0043726173684461
:10450000657465637420454E41424C454421004327
:104510007261736844657465637420444953414211
:104520004C454400486F74656E642066616E20746B
:104530007970653A20002020506C616E6E65724281
:10454000756666657242797465733A20002046721A
:104550006565204D656D6F72793A2000207C2041A1
:104560007574686F723A2000204C61737420557026
:1045700064617465643A200020536F6674776172D9
:104580006520526573657400205761746368646FB9
:1045900067205265736574002042726F776E206FDA
:1045A0007574205265736574002045787465726E69
:1045B000616C20526573657400506F776572557039
:1045C000006572726F722077726974696E67207409
:1045D0006F2066696C6500446F6E65207361766953
:1045E0006E672066696C652E006F6B00252E31307A
:1045F0005320002563252D31382E31387325630073
:104600002563252D2E31365320002563252E313587
:10461000533A257325336400252D32302E32305322
:104620000A00457872656D65207370616E206F6653
:1046300020746865205A2076616C756573210025A9
:10464000642F39006F6B0A0073746172740A004D35
:104650004D5532206669726D77617265207665729C
:1046600073696F6E20696E76616C69642E20526585
:104670007175697265642076657273696F6E3A2030
:104680006275696C64206E756D62657220256420A8
:104690006F72206869676865722E004D4D55203D28
:1046A0003E20276F6B270A004D4D55203D3E2027A9
:1046B0006F6B270A002564004D4D55203D3E202795
:1046C0006F6B272C20726573756D65207072696E33
:1046D000740A004D4D5520726574727920617474AE
:1046E000656D7074206E722E2025640A004D4D5544
:1046F000203D3E20276F6B270A00410A004D4D5593
:10470000203C3D202741270A004D363030204155BE
:10471000544F004D363030002568687500410A005E
:104720004D4D55203C3D202741270A0050300A00BE
:104730004D25640A004D4D55203C3D20274D2564F4
:10474000270A0057300A004D4D55203C3D20275781
:1047500030270A0053330A004D4D55203C3D202799
:104760005333270A0052300A004D4D55203C3D205E
:10477000275230270A004B25640A004D4D55203C36
:104780003D20274B2564270A004525640A004D4D2E
:1047900055203C3D2027452564270A0055300A0056
:1047A0004D4D55203C3D20275530270A0043300A07
:1047B000004D4D55203C3D20274330270A004C2515
:1047C000640A004D4D55203C3D20274C2564270AA6
:1047D000005425640A004D4D55203C3D20275425AA
:1047E00064270A004D4D55202D20454E41424C4531
:1047F0004400256868750050300A004D310A004DAC
:104800004D55203C3D20274D31270050300A004DAA
:104810004D552076657273696F6E2076616C6964A0
:10482000004D4D55203D3E202725646F6B270A0023
:1048300025750053320A004D4D55203C3D2027532D
:104840003227004D4D55203D3E202725646F6B27B4
:104850000A002575004D4D55206E6F7420726573EA
:10486000706F6E64696E67202D2044495341424C3D
:1048700045440053310A004D4D55203C3D202753FF
:104880003127004D4D55203D3E20277374617274D1
:1048900027006E6F206D6F766500542D636F646521
:1048A00000756E6C6F6164006C6F6164006D6D7596
:1048B0005F6765745F726573706F6E7365202D201E
:1048C000626567696E206D6F76653A20006D6D7563
:1048D0005F6765745F726573706F6E7365282920FA
:1048E00072657475726E696E673A2025640A0055A8
:1048F0006E6C6F6164696E672066696E6973686566
:1049000064203200556E6C6F6164203200556E6C0D
:104910006F6164696E672066696E6973686564209B
:104920003100556E6C6F61642031004D4D55207320
:10493000746172747320726573706F6E64696E67F0
:10494000004D4D55206E6F7420726573706F6E64EC
:10495000696E670046696C616D656E74206F757471
:10496000206F662072616E6765202564200A000052
:1049700000803F555585410000803F0000C8410040
:10498000000040555505420000C03F00004842006D
:1049900000204055558542000070C1ABAAA64200D8
:1049A0000060C10000A0410000C0C0000020410024
:1049B000002041ABAA3A41000020C15555D5400026
:1049C0000048C2555505424D373031204534004D21
:1049D000373031204533004D373031204532004DDE
:1049E000373031204531004D3730312045300046D9
:1049F000696C616D656E74206E72206F7574206FC6
:104A0000662072616E67652100206661696C65646D
:104A10002E00207375636365656465642E004D4DDB
:104A2000552063616E5F6C6F61643A004164646934
:104A300074696F6E616C206C6F6164206174746561
:104A40006D7074206E722E2025640A0020557067E8
:104A5000726164696E672078666C6173680A2044CD
:104A60006F206E6F7420646973636F6E6E6563741C
:104A70002100773235783230636C5F63666D0A00EF
:104A8000773235783230636C5F656E7465720A0018
:104A900073746172740A0024F4D43050C38E20C23F
:104AA000A24017828B7011127A910D816CD90AA8DD
:104AB00061E108C7586607615143061E4B5D05C199
:104AC00045A7041A411104093D9803713931034087
:104AD00036DB0265339102D4305402802E1D02630E
:104AE0002CEE01752AC501B028A001102781018F85
:104AF0002564012B244B01E0223401AC211F018DE0
:104B0000200D01801FFC00841EED00971DDF00B802
:104B10001CD200E61BC600201BBC00641AB200B207
:104B200019A8000A19A0006A189900D1179100402D
:104B3000178B00B516840031167E00B31579003A44
:104B4000157300C7146F0058146A00EE13660088CE
:104B500013630025135E00C7125B006C125700152B
:104B6000125400C111510070114F0021114B00D699
:104B70001049008D1047004610440002104200C04A
:104B80000F4000800F3E00420F3C00060F3B00CB61
:104B90000E3800930E37005C0E3500270E3400F3FC
:104BA0000D3200C10D3100900D3000600D2E00322D
:104BB0000D2D00050D2C00D90C2B00AE0C29008505
:104BC0000C29005C0C2700350C27000E0C2600E891
:104BD0000B2400C40B2400A00B23007D0B23005AE0
:104BE0000B2100390B2100180B2000F80A1F00D9F7
:104BF0000A1E00BB0A1E009D0A1D00800A1D0063DC
:104C00000A1C00470A1B002C0A1B00110A1A00F795
:104C1000091A00DD091900C4091900AB091900922D
:104C20000917007B091800630917004C09160036A4
:104C3000091600200916000A091500F5081500E0FC
:104C4000081400CC081400B8081400A4081400903C
:104C50000813007D0812006B081300580812004664
:104C60000812003408110023081100120811000175
:104C7000081100F0071000E0071000D0071000C076
:104C8000071000B0070F00A107100091070E008366
:104C9000070F0074070F0065070E0057070E004945
:104CA000070E003B070D002E070E0020070D001316
:104CB000070D0006070D00F9060C00ED060D00E0DB
:104CC000060C00D4060C00C8060C00BC060C00B094
:104CD000060C00A4060B0099060C008D060B008242
:104CE000060B0077060B006C060B0061060A0057E6
:104CF000060B004C060A0042060A0038060A002E7F
:104D0000060A0024060A001A060A0010060900070F
:104D1000060A00FD050900F4050900EB050900E29B
:104D2000050900D9050900D0050900C7050900BE1D
:104D3000050900B5050800AD050800A50509009C9A
:104D4000050800940508008C050800840508007C0F
:104D5000050800740508006C050700650508005D7E
:104D6000050700560508004E0507004705070040E7
:104D700005080038050700310507002A050700234C
:104D80000507001C050600160507000F05070008AB
:104D900005060002050700FB040600F5040700EE07
:104DA000040600E8040600E2040700DB040600D560
:104DB000040600CF040600C9040600C3040600BDB3
:104DC000040600B7040600B1040500AC040600A602
:104DD000040600A00405009B04060095040500904D
:104DE0000406008A04050085040500800406007A94
:104DF00004050075040500700405006B04050066D9
:104E0000040500610405005C040500570405005218
:104E10000405004D04050048040500430405003E58
:104E20000404003A04050035040500300404002C95
:104E300004050027040400230405001E0404001ACE
:104E400004040016040500110404000D0404000904
:104E50000405000404040000040400FC030400F83A
:104E6000030400F4030400F0030400EC030400E86E
:104E7000030400E4030400E0030400DC030400D89E
:104E8000030400D4030400D0030400CC030400C8CE
:104E9000030300C503030024F404D9201BC40C5CE5
:104EA0000E9804C4095F0265077101F405F900FB5F
:104EB00004B30048048700C1036900580355000388
:104EC000034500BE023A008402310053022A002941
:104ED00002250004022000E4011C00C8011900AFF3
:104EE0000117009801140084011300710110006182
:104EF00001100051010E0043010D0036010B002B83
:104F0000010B0020010B00150109000C0109000331
:104F1000010800FB000800F3000800EB000700E4B4
:104F2000000600DE000600D8000600D2000600CC15
:104F3000000500C7000500C2000500BD000400B95F
:104F4000000400B5000400B1000400AD000400A995
:104F5000000400A5000300A20003009F0004009BC2
:104F600000030098000300950002009300030090E6
:104F70000003008D0002008B000300880002008601
:104F800000020084000300810002007F0002007D17
:104F90000002007B00020079000200770001007629
:104FA0000002007400020072000100710002006F34
:104FB0000002006D0001006C0002006A000100693F
:104FC0000002006700010066000100650001006446
:104FD0000002006200010061000100600001005F4A
:104FE0000002005D0001005C0001005B0001005A4E
:104FF000000100590001005800010057000100564F
:10500000000100550001005400010053000000534E
:105010000001005200010051000100500001004F4A
:105020000001004E0000004E0001004D0001004C48
:105030000001004B0000004B0001004A0001004944
:105040000001004800000048000100470001004640
:10505000000000460001004500000045000100443A
:105060000001004300000043000100420000004234
:105070000001004100000041000100400001003F2C
:105080000000003F0001003E0000003E0001003D26
:105090000000003D0001003C0000003C0000003C1E
:1050A0000001003B0000003B0001003A0000003A14
:1050B000000100390000003900010038000000380C
:1050C0000000003800010037000000370001003602
:1050D00000000036000000360001003500000035F9
:1050E00000000035000100340000003400000034EE
:1050F00000010033000000330000003300010032E3
:1051000000000032000000320001003100000031D8
:1051100000000031000100300000003000000030CD
:105120000001002F0000002F0000002F0000002FC2
:105130000001002E0000002E0000002E0001002DB6
:105140000000002D0000002D0000002D0001002CAB
:105150000000002C0000002C0000002C0001002B9F
:105160000000002B0000002B0000002B0001002A93
:105170000000002A0000002A0000002A0001002987
:10518000000000290000002900000029000000297B
:10519000000100280000002800000028000000286E
:1051A0000000002800010027000000270000002761
:1051B0000000002700000027000100260000002654
:1051C0000000002600000026000000260001002547
:1051D000000000250000002500000025000000253B
:1051E000000000250001002400000024000000242D
:1051F0000000002400000024000100230000002320
:105200000000002300000023000000230000002312
:105210000000002300010022000000220000002204
:1052200000000022000000220000002200010021F6
:1052300000000021000000210000002100000021EA
:1052400000000021000000210001002000000020DB
:1052500000000020000000200000002000000020CE
:1052600000000020000000200001001F0000001FBF
:105270000000001F0000001F0000001F0000001FB2
:105280000000001F0001001E0000001E0000001EA4
:105290000000001E000000504944204175746F74E6
:1052A000756E652066696E69736865642120507546
:1052B0007420746865206C617374204B702C204BD3
:1052C0006920616E64204B6420636F6E7374616E3D
:1052D00074732066726F6D2061626F766520696EEF
:1052E000746F20436F6E66696775726174696F6E63
:1052F0002E6800504944204175746F74756E6520A6
:105300006661696C6564212074696D656F757400F0
:1053100020403A00543A00423A0050494420417536
:10532000746F74756E65206661696C6564212054C4
:10533000656D706572617475726520746F6F206839
:1053400069676800204B643A2000204B693A2000CE
:10535000204B703A200020436C61737369632050C6
:10536000494420002054753A2000204B753A200013
:10537000206D61783A2000206D696E3A200020642B
:105380003A200020626961733A200050494420416C
:1053900075746F74756E6520737461727400504912
:1053A00044204175746F74756E65206661696C6523
:1053B000642E204261642065787472756465722081
:1053C0006E756D6265722E00544D4C20256420254B
:1053D0006420257820256C7820256C780A004D49BA
:1053E0004E54454D50004D494E54454D5020424578
:1053F00044004D494E54454D5020414D42004D41D1
:105400005854454D50004D415854454D502042454B
:1054100044004D415854454D5020414D4200544D9B
:105420003A206572726F7220636C65617265640008
:10543000544D3A206572726F7220747269676765A5
:105440007265642100544D3A206572726F72207C3F
:1054500025667C3E25660A0070012C01900127011B
:10546000B0012201C0011D01F00118011002130159
:1054700030020E016002090190020401C002FF0027
:105480000003FA004003F5008003F000D003EB00B6
:105490002004E6007004E100E004DC004005D700D1
:1054A000C005D2004006CD00D006C8008007C3006A
:1054B0003008BE00F008B900C009B400B00AAF005F
:1054C000B00BAA00D00CA500000EA000500F9B004E
:1054D000C01096005012910000148C00C015870077
:1054E000B0178200B0197D00D01B7800001E730039
:1054F00040206E0090226900F024640040275F0085
:1055000090295A00E02B5500102E500020304B00FF
:1055100010324600E033410090353C001037370030
:1055200070383200A0392D00B03A2800A03B23008B
:10553000603C1E00103D1900903D1400103E0F000D
:10554000703E0A00C03E0500003F000090137D0041
:10555000B0157800F0177300601A6E00F01C690037
:10556000A01F640050225F0020255A00E02755004C
:10557000902A5000202D4B00A02F4600F031410012
:1055800010343C00F0353700A037320020392D00B0
:10559000603A2800703B2300603C1E00203D19004B
:1055A000C03D1400403E0F00A03E0A00F03E050042
:1055B000403F0000703FFBFF903FF6FFB03FF1FF20
:1055C000C03FECFFD03FE7FFE03FE2FFF03FDDFFF1
:1055D000F03FD8FF20484F54454E44205448455290
:1055E0004D414C2052554E415741590020484541AC
:1055F0005442454420544845524D414C2052554E4A
:105600004157415900544845524D414C2052554E46
:10561000415741590042454420544845524D414C60
:105620002052554E415741590020544845524D4152
:105630004C2052554E41574159202850524548451B
:10564000415420484F54454E442900205448455267
:105650004D414C2052554E415741592028505245FA
:105660004845415420484541544245442900505240
:105670004548454154204552524F5200424544202E
:1056800050524548454154204552524F52002074D3
:105690007269676765726564210048656174657247
:1056A00073207377697463686564206F66662E2063
:1056B000003A20004572723A2000506C65617365B3
:1056C000207265737461727400544D3A20696E766D
:1056D000616C696420706172616D65746572732CB0
:1056E0002063616E6E6F7420656E61626C6500256B
:1056F0005320204D3331302050252E326620552541
:105700002E34662056252E32662043252E32662002
:1057100044252E3466204C257520532575204225BE
:10572000752045252E32662057252E3266205425B9
:105730002E32660A00255320204D33313020492572
:10574000752052252E32660A0054656D70657261AF
:1057500074757265204D6F64656C2073657474692F
:105760006E67733A000000A441333393419A9985E0
:1057700041333373419A996141CDCC544133334B1A
:10578000419A99414133333B41CDCC344100003003
:1057900041CDCC2C419A9929416666264133332369
:1057A000419A992141452D6D6F746F722063757216
:1057B00072656E74207363616C696E6720656E61DB
:1057C000626C656400746D63323133305F686F6D95
:1057D000655F656E74657228617865735F6D61736E
:1057E0006B3D307825303278290A00746D63323190
:1057F00033305F686F6D655F6578697420746D63C1
:10580000323133305F73675F686F6D696E675F61F8
:105810007865735F6D61736B3D3078253032780A3F
:1058200000726573756C742076616C75653A20251D
:10583000640A0020693D25326420636E743D253280
:10584000642076616C3D2532640A00636C75737464
:105850006572733A0020693D253264207374657067
:105860003D2532640A00736F727465642073616D44
:10587000706C65733A00252D3773003A2000252D92
:1058800031322E313253252D642F3600203A20003C
:10589000252D32307300252D31352E313553252DF0
:1058A00035640A252D31352E313553252D35640AC1
:1058B0000025530A20252D31362E313653252D3320
:1058C000640A20252D31362E313653252D336400C0
:1058D00025530A20252D31362E313653252D33649C
:1058E0000A20252D31362E313653252D33640A20DA
:1058F000252D31362E313653252D33640025530A9C
:1059000020252D31362E313653252D33640A20259E
:105910002D31362E313653252D33640A20252D376F
:105920002E37535820252D336420205920252D3320
:10593000640020257325336401200A00205057524B
:105940003A20202020202025342E3166560A20427D
:1059500045443A20202020202025342E3166560050
:1059600025530A20582025640A2059202564002543
:10597000752E25752E25752E2575002000200046D4
:105980006C61736841697220495020416464723AC5
:10599000004D4D5532202020202020204E2F410048
:1059A00025642E25642E25642D2564002046573A53
:1059B000004D6172202033203230323300453344B1
:1059C000763666756C6C0045494E53795F313061AF
:1059D00000315F37356D6D5F4D4B3353002D2D2DED
:1059E0002D2D2D2D2D2D2D2D2D0020332E31322E10
:1059F000322D35373133004669726D776172653A01
:105A0000004D373032004D373031004D37303200E5
:105A10004D37303100426564206C6576656C696E87
:105A200067206661696C65642E2053656E736F72C2
:105A3000206469646E277420747269676765722ECA
:105A400020446562726973206F6E206E6F7A7A6C83
:105A5000653F2057616974696E6720666F722072B6
:105A6000657365742E00506C656173652075706494
:105A7000617465206669726D7761726520696E2058
:105A8000796F7572204D4D55322E205761697469BA
:105A90006E6720666F722072657365742E004D4DBF
:105AA00055204F4B2E20526573756D696E672E2EF3
:105AB0002E004D4D55204F4B2E20526573756D694C
:105AC0006E6720706F736974696F6E2E2E2E004D95
:105AD0004D55204F4B2E20526573756D696E6720B2
