:100000000C94334E0C94644E0C94644E0C94644ED9
:100010000C94644E0C94EBFB0C94644E0C94644E64
:100020000C9476FB0C94644E0C94644E0C94644EC9
:100030000C94644E0C94644E0C948EE00D944857CE
:100040000C94644E0C943CC60C94644E0C94644E18
:100050000C94644E0C94644E0C94644E0D94F638DB
:100060000C94644E0D947F520C94644E0C94644E28
:100070000C94644E0C94644E0C94644E0C94644E38
:100080000C94644E0C94644E0C94644E0C94644E28
:100090000D943B520C94644E0C94644E0C94644E3C
:1000A0000C94644E0C94644E0D9446090C94644E6A
:1000B0000C94644E0C94644E0C94644E0C94644EF8
:1000C0000C94644E0C94644E0C94644E0D946056E3
:1000D0000C94644E0C94644E0C94644E0C94644ED8
:1000E0000C94644EA3A1ACA14FA11EA1EEA09BA4B1
:1000F000E7A106A39CA3F2A30EA445A419DA2CDA67
:100100003EDA4DDA59DA94DA03DAB7DACBDAC7DA5B
:1001100003DACDDAD9DADFDAF7DA670279027501C4
:100120004302250277010702C5014B026D01090256
:10013000CF01790145027701BF0165014B01EB0158
:1001400059027B02C301510237023B02D1018701F0
:100150006F024902570249016D02370289013302D9
:10016000F10123020B02F9018101BB012B0299016C
:100170007D029701A901BD01A901BD01A901BD0130
:10018000390261028B01C901C7016B01D3017302FE
:100190005B02B701590155027301FF01010201021F
:1001A0008D0101028D015F01B3016902B5017F017B
:1001B0006B02B9017102FB011F02E3019F01DD0126
:1001C0009B016301084AD73B3BCE016E84BCBFFD57
:1001D000C12F3D6C74319ABD56833DDA3D00C77F17
:1001E00011BED9E4BB4C3E916BAAAABE00000080B0
:1001F0003F05A84CCDB2D44EB93836A9020C50B93F
:10020000918688083CA6AAAA2ABE000000803F0763
:10021000634236B79BD8A71A39685618AEBAAB55A1
:100220008C1D3CB7CC5763BD6DEDFD753EF6177266
:1002300031BF000000803F08000000BE9224491238
:100240003EABAAAA2ABECDCCCC4C3E00000080BE5C
:10025000ABAAAAAA3E00000000BF000000803F0039
:1002600000000000084178D3BB4387D1133D190E2D
:100270003CC3BD4282AD2B3E68EC8276BED98FE195
:10028000A93E4C80EFFFBE01C4FF7F3F000000008D
:1002900000000D94CE0A0D94F7070D945F1C0D9489
:1002A000683D0D9437640D940C080D94530F0D9414
:1002B000BA080D94FC4E0D94565A0D9483950D94E6
:1002C000B8630D94BC7D0D9452A70D94F3070D9463
:1002D0004C640D9411640D94AC4E0D94D7070D949D
:1002E000A3080D946B9B0D94364E0D94B4070D949A
:1002F000FC070D94E5070D94AC080D94FE4F0D948A
:10030000AEA60D943B390D94499C0D9463470D9412
:10031000A10A0D94E20A0D942E4C0D94B5630D9430
:100320004C5A0D94A8080D94CF7E0D9421480D943D
:100330008C390D9494390D9442A70D94BCCA0D9438
:1003400021A70D949E600D94855F0D9415640D9406
:10035000D55B0D942F3B0D949A170D947F460D9409
:1003600022640D94AF5C0D94BB630D949AA60D941A
:100370000C4F0D94E5A60D944D390D94313B0D9421
:10038000EF070D945A640D947D0A0D94CD070D94DA
:10039000B74E0D94E74E0D9441610D9414620D9487
:1003A000E1070D94990A0D94A14E0D9439380D94DE
:1003B000034B0D94457E0D9407080D943CA70D94B6
:1003C000A5890D94BB7F0D9411A70D947C5F0D94AE
:1003D000FD070D9499080D94690A0D9417500D941A
:1003E000B3460D94F60A0D94305A0D940D640D9495
:1003F00029640D942E390D94F1A60D9464CA0D94C0
:10040000044E0D94B2630D940D470D94F1790D9443
:10041000C9070D94DB070D9420390D943C5D0D94B4
:10042000A24A0D948E5F0D94735F0D944B460D940C
:100430008A080D94735A0D9453640D94F2470D94E9
:1004400001A70D94E8160D9412390D94BE070D9472
:10045000D44B0D94717D0D9454390D94354A0D94FF
:10046000805A0D94464B0D94EC0A0D943E640D9405
:10047000000B0D94333B0D94910A0D9430640D9450
:1004800019640D949E080D94B8070D94E9070D9416
:10049000B89B0D94B50A0D94D3070D94B44B0D94ED
:1004A00094080D94870A0D94675A0D94644E0D9428
:1004B000BF0A0D946E0A0D948B4E0D9403080D9493
:1004C00085080D94353B0D94304A0D94C3790D94F5
:1004D000C2070D948AA60D94C4A60D94D80A0D9453
:1004E000AB0A0D94EBA60D94964E0D945C7D0D9485
:1004F0008F080D94C5070D94730A0D9476390D94E9
:100500008B600D94A4950D9445645F5345435F4CF7
:10051000414E470000000000000000000000000005
:1005200000000000000000000000000000000000CB
:1005300000000000000000000000000000000000BB
:1005400000000000000000000000000000000000AB
:10055000000000000000000000000000000000009B
:1035000000000000000000000000FFFF472D636F77
:10351000646520736C6963656420666F7220612046
:10352000646966666572656E74206C6576656C2E7E
:1035300020436F6E74696E75653F00FFFF472D6312
:103540006F646520736C6963656420666F722061C7
:1035500020646966666572656E74206C6576656C5C
:103560002E20506C656173652072652D736C6963E4
:103570006520746865206D6F64656C2061676169A2
:103580006E2E205072696E742063616E63656C6C80
:1035900065642E00FFFF472D636F646520736C69BF
:1035A00063656420666F722061206E6577657220A6
:1035B0006669726D776172652E20506C6561736506
:1035C0002075706461746520746865206669726D29
:1035D000776172652E205072696E742063616E632C
:1035E000656C6C65642E00FFFF472D636F6465207A
:1035F000736C6963656420666F722061206E657705
:103600006572206669726D776172652E20436F6EF8
:1036100074696E75653F00FFFF472D636F64652019
:10362000736C6963656420666F72206120646966EB
:10363000666572656E74207072696E74657220744E
:103640007970652E20506C656173652072652D73ED
:103650006C69636520746865206D6F64656C2061BA
:103660006761696E2E205072696E742063616E63AB
:10367000656C6C65642E00FFFF472D636F646520E9
:10368000736C6963656420666F722061206469668B
:10369000666572656E74207072696E7465722074EE
:1036A0007970652E20436F6E74696E75653F00FFFB
:1036B000FF472D636F646520736C696365642066E2
:1036C0006F72206120646966666572656E74207031
:1036D00072696E74657220747970652E20436F6E06
:1036E00074696E75653F00FFFF472D636F64652049
:1036F000736C6963656420666F722061206469661B
:10370000666572656E74207072696E74657220747D
:103710007970652E20506C656173652072652D731C
:103720006C69636520746865206D6F64656C2061E9
:103730006761696E2E205072696E742063616E63DA
:10374000656C6C65642E00FFFF5072657373206BAF
:103750006E6F6220746F2070726568656174206E90
:103760006F7A7A6C6520616E6420636F6E74696E27
:1037700075652E00FFFF506C656173652070726582
:10378000737320746865206B6E6F6220746F207590
:103790006E6C6F61642066696C616D656E7400FFAC
:1037A000FF52656D6F7665206F6C642066696C6191
:1037B0006D656E7420616E64207072657373207421
:1037C0006865206B6E6F6220746F20737461727411
:1037D000206C6F6164696E67206E65772066696C26
:1037E000616D656E742E00FFFF616E6420707265FE
:1037F000737320746865206B6E6F6200FFFF496E03
:10380000736572742066696C616D656E7400FFFF8C
:10381000436F6C6F72206E6F7420636F727265639A
:103820007400FFFF46696C616D656E74206E6F7485
:10383000206C6F6164656400FFFF4368616E6765BB
:103840006420636F72726563746C793F00FFFF4C94
:103850006F6164696E6720636F6C6F7200FFFF4376
:1038600068616E676520737563636573732100FF1C
:10387000FF506C65617365206F70656E2069646CC4
:10388000657220616E642072656D6F766520666971
:103890006C616D656E74206D616E75616C6C792EF6
:1038A00000FFFF5761732066696C616D656E74205F
:1038B000756E6C6F61642073756363657373667591
:1038C0006C3F00FFFF506C65617365207570677217
:1038D0006164652E00FFFF4E6577206669726D7723
:1038E0006172652076657273696F6E2061766169B9
:1038F0006C61626C653A00FFFF57616974696E67BD
:1039000020666F722050494E44412070726F62658C
:1039100020636F6F6C696E6700FFFF4372617368AD
:103920002064657465637465642E20526573756DDB
:1039300065207072696E743F00FFFF4372617368A7
:103940002064657465637465642E00FFFF43686FCF
:103950006F73652065787472756465723A00FFFF55
:10396000457874727564657200FFFF43686F6F730A
:10397000652066696C616D656E743A00FFFF4E6F7D
:10398000206D6F76652E00FFFF5761697420666FAA
:103990007220757365722E2E2E00FFFF536F6D65BA
:1039A0002070726F626C656D20656E636F756E74EA
:1039B000657265642C205A2D6C6576656C696E673E
:1039C00020656E666F72636564202E2E2E00FFFFE9
:1039D000537461626C6520616D6269656E742074F8
:1039E000656D70657261747572652032312D323685
:1039F00043206973206E6565646564206120726987
:103A0000676964207374616E6420697320726571E4
:103A100075697265642E00FFFF506C6561736520E7
:103A200072756E2058595A2063616C6962726174B4
:103A3000696F6E2066697273742E00FFFF20302E4E
:103A400033206F72206F6C64657200FFFF20302E90
:103A500034206F72206E6577657200FFFF4D4B3327
:103A600053206669726D7761726520646574656361
:103A7000746564206F6E204D4B33207072696E74D4
:103A8000657200FFFF534B454C4553545255444516
:103A900052204D4B3353204F4B2E00FFFF426C61A1
:103AA000636B6F7574206F636375727265642E202B
:103AB0005265636F766572207072696E743F00FFA5
:103AC000FF53656C66746573742077696C6C206253
:103AD000652072756E20746F2063616C696272611B
:103AE00074652061636375726174652073656E73BC
:103AF0006F726C657373207265686F6D696E672E87
:103B000000FFFF5468657265206973207374696CE7
:103B10006C2061206E65656420746F206D616B653B
:103B2000205A2063616C6962726174696F6E2E2025
:103B3000506C6561736520666F6C6C6F772074687C
:103B400065206D616E75616C2C20636861707465B1
:103B5000722046697273742073746570732C2073BD
:103B6000656374696F6E2043616C69627261746928
:103B70006F6E20666C6F772E00FFFF5072696E7457
:103B8000657220686173206E6F74206265656E20B7
:103B900063616C69627261746564207965742E205A
:103BA000506C6561736520666F6C6C6F772074680C
:103BB00065206D616E75616C2C2063686170746541
:103BC000722046697273742073746570732C20734D
:103BD000656374696F6E2043616C696272617469B8
:103BE0006F6E20666C6F772E00FFFF4F6C64207342
:103BF000657474696E677320666F756E642E2044F9
:103C0000656661756C74205049442C204573746559
:103C10007073206574632E2077696C6C2062652058
:103C20007365742E00FFFF5761726E696E673A20EC
:103C3000626F7468207072696E7465722074797036
:103C40006520616E64206D6F74686572626F617269
:103C5000642074797065206368616E6765642E0006
:103C6000FFFF5761726E696E673A207072696E74F9
:103C700065722074797065206368616E6765642E73
:103C800000FFFF5761726E696E673A206D6F74684E
:103C90006572626F61726420747970652063686117
:103CA0006E6765642E00FFFF58595A2063616C6986
:103CB00062726174696F6E20616C6C2072696768F2
:103CC000742E20536B65772077696C6C20626520B9
:103CD000636F72726563746564206175746F6D6182
:103CE000746963616C6C792E00FFFF58595A206328
:103CF000616C6962726174696F6E20616C6C2072B4
:103D0000696768742E20582F592061786573206187
:103D1000726520736C696768746C7920736B657762
:103D200065642E20476F6F64206A6F622100FFFF79
:103D300058595A2063616C6962726174696F6E20B0
:103D40006F6B2E20582F5920617865732061726542
:103D50002070657270656E646963756C61722E2087
:103D6000436F6E67726174756C6174696F6E7321F5
:103D700000FFFF58595A2063616C6962726174696F
:103D80006F6E20636F6D70726F6D697365642E2046
:103D900052696768742066726F6E742063616C6923
:103DA00062726174696F6E20706F696E74206E6FDD
:103DB0007420726561636861626C652E00FFFF5854
:103DC000595A2063616C6962726174696F6E206315
:103DD0006F6D70726F6D697365642E2046726F6EC1
:103DE000742063616C6962726174696F6E20706FB8
:103DF000696E7473206E6F742072656163686162AE
:103E00006C652E00FFFF58595A2063616C6962721D
:103E10006174696F6E206661696C65642E205269F9
:103E20006768742066726F6E742063616C69627279
:103E30006174696F6E20706F696E74206E6F74208C
:103E4000726561636861626C652E00FFFF58595AA4
:103E50002063616C6962726174696F6E206661696A
:103E60006C65642E2046726F6E742063616C6962AB
:103E7000726174696F6E20706F696E7473206E6FFB
:103E80007420726561636861626C652E00FFFF5883
:103E9000595A2063616C6962726174696F6E206641
:103EA00061696C65642E20506C6561736520636F79
:103EB0006E73756C7420746865206D616E75616CCD
:103EC0002E00FFFF58595A2063616C696272617459
:103ED000696F6E206661696C65642E20426564209E
:103EE00063616C6962726174696F6E20706F696E74
:103EF0007420776173206E6F7420666F756E642E08
:103F000000FFFF506C6561736520706C6163652014
:103F1000737465656C207368656574206F6E2068C6
:103F20006561746265642E00FFFF44697374616E9D
:103F30006365206265747765656E20746970206FB3
:103F40006620746865206E6F7A7A6C6520616E6495
:103F500020746865206265642073757266616365AC
:103F600020686173206E6F74206265656E207365D2
:103F700074207965742E20506C6561736520666FBE
:103F80006C6C6F7720746865206D616E75616C2C48
:103F9000206368617074657220466972737420735F
:103FA000746570732C2073656374696F6E20466945
:103FB000727374206C617965722063616C696272DE
:103FC0006174696F6E2E00FFFF506C616365206144
:103FD000207368656574206F66207061706572205B
:103FE000756E64657220746865206E6F7A7A6C6590
:103FF00020647572696E67207468652063616C69FE
:1040000062726174696F6E206F6620666972737484
:10401000203420706F696E74732E20496620746896
:1040200065206E6F7A7A6C6520636174636865736E
:10403000207468652070617065722C20706F7765E0
:1040400072206F666620746865207072696E746590
:104050007220696D6D6564696174656C792E00FF0D
:10406000FF506C656173652072656D6F76652073B6
:104070007465656C2073686565742066726F6D2069
:10408000686561746265642E00FFFF497320737474
:1040900065656C207368656574206F6E2068656166
:1040A000746265643F00FFFF206F66203400FFFFED
:1040B000536561726368696E67206265642063613D
:1040C0006C6962726174696F6E20706F696E7400E2
:1040D000FFFF206F66203900FFFF4D656173757229
:1040E000696E67207265666572656E6365206865D6
:1040F00069676874206F662063616C6962726174BD
:10410000696F6E20706F696E7400FFFF506C65619F
:10411000736520636C65616E20746865206E6F7ACC
:104120007A6C6520666F722063616C69627261747B
:10413000696F6E2E20436C69636B207768656E2013
:10414000646F6E652E00FFFF4175746F20686F6DA0
:104150006500FFFF426564206C6576656C696E677B
:10416000206661696C65642E2053656E736F7220E2
:104170006469646E7420747269676765722E204486
:104180006562726973206F6E206E6F7A7A6C653F1C
:104190002057616974696E6720666F72207265735B
:1041A00065742E00FFFF506C656173652075706447
:1041B000617465206669726D7761726520696E2031
:1041C000796F7572204D4D55322E20576169746993
:1041D0006E6720666F722072657365742E00FFFF34
:1041E00043757474657200FFFF4669726D77617282
:1041F0006500FFFF4D6F64656C00FFFF53747269CB
:10420000637400FFFF5761726E00FFFF4857205331
:104210006574757000FFFF48572053657475700012
:10422000FFFF436865636B7300FFFF4E6F7A7A6C24
:104230006520642E00FFFF537465656C207368650C
:1042400065747300FFFF4E6F6E6500FFFF416C7079
:10425000686162657400FFFF536F727400FFFF5462
:10426000696D6500FFFF5344206361726400FFFFC6
:10427000466C61736841697200FFFF53656C65634A
:1042800074206C616E677561676500FFFF5250694D
:1042900020706F727400FFFF54656D702E20636193
:1042A0006C2E00FFFF4C696E2E20636F7272656387
:1042B00074696F6E00FFFF4D65736820626564204E
:1042C0006C6576656C696E6700FFFF485720536523
:1042D00074757000FFFF46616E7320636865636BE1
:1042E00000FFFF462E206175746F6C6F616400FFE4
:1042F000FF44697361626C652073746570706572E8
:104300007300FFFF4D6F7665206178697300FFFFD2
:1043100054656D706572617475726500FFFF546558
:104320006D702E2063616C6962726174696F6E00DA
:10433000FFFF52657365742058595A2063616C6998
:1043400062722E00FFFF5049442063616C69627203
:104350006174696F6E00FFFF426564206C6576656D
:104360006C20636F727265637400FFFF4D65736844
:1043700020426564204C6576656C696E6700FFFFBE
:1043800043616C696272617465205A00FFFF43618A
:104390006C6962726174652058595A00FFFF536559
:1043A0006C6674657374202020202020202020005B
:1043B000FFFF42656C7420746573742020202020F8
:1043C00020202000FFFF57697A61726400FFFF4CD4
:1043D0006F616420616C6C00FFFF5265736574004F
:1043E000FFFF526561722073696465205B756D5DC6
:1043F00000FFFF46726F6E7420736964655B756DB4
:104400005D00FFFF526967687420736964655B75BE
:104410006D5D00FFFF4C6566742073696465205B09
:10442000756D5D00FFFF5365742074656D70657276
:1044300061747572653A00FFFF54656D7065726155
:10444000747572652063616C6962726174696F6E04
:10445000206661696C656400FFFF54656D7065726C
:1044600061747572652063616C6962726174696FF1
:104470006E2069732066696E697368656420616E79
:1044800064206163746976652E2054656D702E20FA
:1044900063616C6962726174696F6E2063616E2022
:1044A00062652064697361626C656420696E206D69
:1044B000656E752053657474696E67732D3E54651F
:1044C0006D702E2063616C2E00FFFF49523A00FF91
:1044D000FF46494E44413A00FFFF50494E44413A9D
:1044E00000FFFF53656E736F722073746174650013
:1044F000FFFF456A6563742066696C616D656E7463
:1045000000FFFF4375742066696C616D656E740011
:10451000FFFF506C656173652070756C6C206F7562
:10452000742066696C616D656E7420696D6D65647B
:10453000696174656C7900FFFF556E6C6F61646929
:104540006E672066696C616D656E7400FFFF526571
:1045500073756D696E67207072696E7400FFFF522B
:104560006573657400FFFF52656E616D6500FFFF46
:104570004669727374206C617965722063616C2E78
:1045800000FFFF53656C65637400FFFF537465653E
:104590006C2073686565747300FFFF53686565740C
:1045A00000FFFF537570706F727400FFFF46616902
:1045B0006C207374617473204D4D5500FFFF46618C
:1045C000696C20737461747300FFFF5374617469C4
:1045D0007374696373202000FFFF43616C6962722A
:1045E0006174696F6E00FFFF4175746F4C6F616499
:1045F0002066696C616D656E7400FFFF4375742001
:1046000066696C616D656E7400FFFF456A65637471
:104610002066696C616D656E7400FFFF556E6C6F8E
:1046200061642066696C616D656E7400FFFF4C6F9C
:10463000616420746F206E6F7A7A6C6500FFFF4CA6
:104640006F61642066696C616D656E7400FFFF4E7A
:104650006F205344206361726400FFFF52657375DD
:104660006D65207072696E7400FFFF50617573652F
:10467000207072696E7400FFFF526573756D65205E
:104680007072696E7400FFFF507265686561740036
:10469000FFFF54756E6500FFFF4C6976652061640D
:1046A0006A757374205A00FFFF496E666F2073634A
:1046B0007265656E00FFFF46696E697368696E67B3
:1046C000206D6F76656D656E747300FFFF427269D1
:1046D0006768746E65737300FFFF41737369737469
:1046E00000FFFF53696C656E7400FFFF4F6E6365DA
:1046F00000FFFF536F756E6400FFFF4C6F75640021
:10470000FFFF4D4D55204D6F646500FFFF43726103
:104710007368206465742E00FFFF537465616C74C8
:104720006800FFFF4E6F726D616C00FFFF46616EA7
:104730007320636865636B00FFFF506175736500EC
:10474000FFFF465320416374696F6E00FFFF436FA4
:104750006E742E00FFFF46696C2E2073656E736FBA
:104760007200FFFF4368616E67652066696C616D6A
:10477000656E7400FFFF466C6F7700FFFF53706536
:10478000656400FFFF457874727564657200FFFF11
:104790004D6F7665205A00FFFF4D6F7665205900FA
:1047A000FFFF4D6F7665205800FFFF43726173680D
:1047B00020646574656374696F6E2063616E0A625C
:1047C00065207475726E6564206F6E206F6E6C79F3
:1047D00020696E0A4E6F726D616C206D6F646500AA
:1047E000FFFF5741524E494E473A0A437261736880
:1047F00020646574656374696F6E0A6469736162CD
:104800006C656420696E0A537465616C7468206D10
:104810006F646500FFFF4175746F6C6F6164696E52
:10482000672066696C616D656E7420617661696C84
:1048300061626C65206F6E6C79207768656E2066AA
:10484000696C616D656E742073656E736F7220693B
:1048500073207475726E6564206F6E2E2E2E00FFAD
:10486000FF4552524F523A2046696C616D656E7435
:104870002073656E736F72206973206E6F7420727F
:104880006573706F6E64696E672C20706C65617300
:104890006520636865636B20636F6E6E6563746922
:1048A0006F6E2E00FFFF4D6F6465206368616E6759
:1048B0006520696E2070726F6772657373202E2E8B
:1048C0002E00FFFF436F70792073656C656374651C
:1048D00064206C616E67756167653F00FFFF43612F
:1048E0006C69627261746500FFFF536865657420CE
:1048F000252E37730A5A206F66667365743A202531
:104900002B312E3366206D6D0A2563436F6E7469FB
:104910006E75650A256353746172742066726F6DDB
:10492000207A65726F00FFFF506C65617365206CC3
:104930006F61642066696C616D656E742066697272
:1049400073742E00FFFF49732066696C616D656E9C
:1049500074206C6F616465643F00FFFF53656C6594
:1049600063742066696C616D656E743A00FFFF4682
:10497000696C616D656E7400FFFF43616E63656C09
:1049800000FFFF52756E6E696E672057697A61721B
:10499000642077696C6C2064656C65746520637550
:1049A0007272656E742063616C6962726174696FA2
:1049B0006E20726573756C747320616E64207374FD
:1049C0006172742066726F6D20746865206265671D
:1049D000696E6E696E672E20436F6E74696E7565C1
:1049E0003F00FFFF50726568656174696E67206EF5
:1049F0006F7A7A6C652E20506C65617365207761E3
:104A000069742E00FFFF4C6F6164696E67206669F0
:104A10006C616D656E7400FFFF506C65617365209D
:104A2000696E736572742066696C616D656E742061
:104A3000696E746F2074686520657874727564653A
:104A4000722C207468656E207072657373207468B0
:104A500065206B6E6F6220746F206C6F61642069DB
:104A6000742E00FFFF506C6561736520696E73657D
:104A700072742066696C616D656E7420696E746F06
:104A8000207468652066697273742074756265208D
:104A90006F6620746865204D4D552C207468656ED6
:104AA00020707265737320746865206B6E6F62206E
:104AB000746F206C6F61642069742E00FFFF54686E
:104AC00065207072696E7465722077696C6C2073F2
:104AD00074617274207072696E74696E67206120EF
:104AE0007A69672D7A6167206C696E652E20526F36
:104AF0007461746520746865206B6E6F6220756EDA
:104B000074696C20796F75207265616368207468C0
:104B100065206F7074696D616C2068656967687481
:104B20002E20436865636B20746865207069637428
:104B30007572657320696E207468652068616E64A3
:104B4000626F6F6B202843616C6962726174696F78
:104B50006E2063686170746572292E00FFFF5365D3
:104B60006C6563742074656D7065726174757265CF
:104B7000207768696368206D617463686573207964
:104B80006F7572206D6174657269616C2E00FFFF34
:104B900043686F6F736520612066696C616D656E37
:104BA0007420666F72207468652046697273742081
:104BB0004C617965722043616C6962726174696FDE
:104BC0006E20616E642073656C6563742069742067
:104BD000696E20746865206F6E2D73637265656EF3
:104BE000206D656E752E00FFFF4E6F772049207790
:104BF000696C6C2063616C696272617465206469C0
:104C00007374616E6365206265747765656E207488
:104C10006970206F6620746865206E6F7A7A6C65A3
:104C200020616E64206865617462656420737572CA
:104C3000666163652E00FFFF596F752063616E200A
:104C4000616C7761797320726573756D6520746826
:104C5000652057697A6172642066726F6D204361C6
:104C60006C6962726174696F6E202D3E2057697A9B
:104C70006172642E00FFFF506C656173652063688C
:104C800065636B206F75722068616E64626F6F6B15
:104C900020616E6420666978207468652070726F88
:104CA000626C656D2E205468656E20726573756D3B
:104CB00065207468652057697A6172642062792082
:104CC0007265626F6F74696E6720746865207072B8
:104CD000696E7465722E00FFFF416C6C2069732051
:104CE000646F6E652E204861707079207072696EF5
:104CF00074696E672100FFFF496620796F7520682F
:104D0000617665206164646974696F6E616C20739B
:104D10007465656C207368656574732C2063616CC1
:104D20006962726174652074686569722070726569
:104D30007365747320696E2053657474696E67734C
:104D4000202D204857205365747570202D205374F2
:104D500065656C207368656574732E00FFFF506C89
:104D60006561736520636C65616E2068656174625E
:104D7000656420616E64207468656E20707265736E
:104D80007320746865206B6E6F622E00FFFF446FA6
:104D900020796F752077616E7420746F2072657052
:104DA000656174206C617374207374657020746F16
:104DB00020726561646A7573742064697374616ECE
:104DC0006365206265747765656E206E6F7A7A6CB4
:104DD0006520616E6420686561746265643F00FFF0
:104DE000FF53656C656374206E6F7A7A6C65207012
:104DF0007265686561742074656D70657261747543
:104E00007265207768696368206D61746368657393
:104E100020796F7572206D6174657269616C2E0006
:104E2000FFFF49732066696C616D656E74206C6F5D
:104E3000616465643F00FFFF49732066696C616DC2
:104E4000656E74206C6F616465643F00FFFF4E6F98
:104E50007720492077696C6C207072656865617491
:104E6000206E6F7A7A6C6520666F7220504C412EEE
:104E700000FFFF492077696C6C2072756E207A20E4
:104E800063616C6962726174696F6E206E6F772EF8
:104E900000FFFF4E6F772072656D6F766520746836
:104EA000652074657374207072696E742066726F09
:104EB0006D20737465656C2073686565742E00FFE2
:104EC000FF506C656173652072656D6F7665207348
:104ED00068697070696E672068656C7065727320B0
:104EE00066697273742E00FFFF492077696C6C202D
:104EF00072756E2078797A2063616C696272617470
:104F0000696F6E206E6F772E2049742077696C6C04
:104F10002074616B6520617070726F782E20313261
:104F2000206D696E732E00FFFF46697273742C202A
:104F3000492077696C6C2072756E207468652073E7
:104F4000656C667465737420746F20636865636B49
:104F5000206D6F737420636F6D6D6F6E206173735E
:104F6000656D626C792070726F626C656D732E0076
:104F7000FFFF48692C204920616D20796F757220F0
:104F80004F726967696E616C205072757361206938
:104F900033207072696E7465722E20576F756C6461
:104FA00020796F75206C696B65206D6520746F20AA
:104FB000677569646520796F75207468726F7567AD
:104FC00068207468652073657475702070726F63F3
:104FD0006573733F00FFFF452D636F7272656374E5
:104FE0003A00FFFF5A2D636F72726563743A00FFD7
:104FF000FF592D636F72726563743A00FFFF582D7D
:10500000636F72726563743A00FFFF53706F6F6C69
:105010004A6F696E00FFFF536F7274696E67206696
:10502000696C657300FFFF536F6D652066696C6581
:10503000732077696C6C206E6F7420626520736FCB
:10504000727465642E204D61782E204E6F2E206F75
:10505000662066696C657320696E203120666F6C0E
:1050600064657220666F7220736F7274696E672058
:105070006973203130302E00FFFF5265636F766513
:1050800072696E67207072696E742020202000FFA4
:10509000FF4572726F72202D2073746174696320F2
:1050A0006D656D6F727920686173206265656E2031
:1050B0006F7665727772697474656E00FFFF436185
:1050C00072642072656D6F76656400FFFF507269CF
:1050D0006E746572206E6F7A7A6C65206469616D9A
:1050E0006574657220646966666572732066726FA6
:1050F0006D2074686520472D636F64652E20506CA9
:105100006561736520636865636B207468652076EC
:10511000616C756520696E2073657474696E677360
:105120002E205072696E742063616E63656C6C65CD
:10513000642E00FFFF5072696E746572206E6F7A84
:105140007A6C65206469616D657465722064696656
:10515000666572732066726F6D2074686520472DD6
:10516000636F64652E20436F6E74696E75653F00D2
:10517000FFFF436865636B696E672059206178693A
:1051800073202000FFFF436865636B696E672058DA
:105190002061786973202000FFFF506C65617365A2
:1051A00020756E6C6F6164207468652066696C613F
:1051B0006D656E742066697273742C207468656EF8
:1051C000207265706561742074686973206163740E
:1051D000696F6E2E00FFFF496E73657274207468EC
:1051E000652066696C616D656E742028646F206E41
:1051F0006F74206C6F61642069742920696E746F0C
:105200002074686520657874727564657220616EBB
:1052100064207468656E20707265737320746865AD
:10522000206B6E6F622E00FFFF56657269666963C0
:105230006174696F6E206661696C65642C207265AB
:105240006D6F7665207468652066696C616D656E4A
:105250007420616E642074727920616761696E2EBA
:1052600000FFFF53656E736F722076657269666921
:1052700065642C2072656D6F7665207468652066A4
:10528000696C616D656E74206E6F772E00FFFF494B
:10529000732066696C616D656E74206C6F61646506
:1052A000643F00FFFF57616974696E6720666F7223
:1052B000206E6F7A7A6C6520616E6420626564206E
:1052C000636F6F6C696E6700FFFF53656C662074D7
:1052D000657374204F4B00FFFF53656C6620746547
:1052E0007374207374617274202000FFFF50726920
:1052F0006E742066616E3A00FFFF457874727564C3
:1053000065722066616E3A00FFFF43616C696272EC
:105310006174696E6720686F6D6500FFFF416C6C9A
:1053200020636F727265637420202020202000FFAC
:10533000FF436865636B696E672073656E736F7298
:10534000732000FFFF436865636B696E6720686FB9
:1053500074656E64202000FFFF436865636B696EAF
:105360006720626564202020202000FFFF436865DD
:10537000636B696E67205A2061786973202000FF93
:10538000FF436865636B696E6720592061786973B4
:10539000202000FFFF436865636B696E672058201B
:1053A00061786973202000FFFF436865636B696E55
:1053B0006720656E6473746F707300FFFF506C65D7
:1053C000617365207761697400FFFF50494E444165
:1053D0002048656174696E6700FFFF43616C696214
:1053E000726174696F6E20646F6E6500FFFF4361C8
:1053F0006C6962726174696E67205A00FFFF4265D2
:105400006420646F6E6500FFFF426564204865613B
:1054100074696E6700FFFF48656174696E67206498
:105420006F6E652E00FFFF48656174696E6700FF4F
:10543000FF4D313137204669727374206C61796594
:10544000722063616C2E00FFFF5049442063616C41
:105450002E2066696E697368656400FFFF504944D9
:105460002063616C2E20202020202020202020205E
:1054700000FFFF5072696E7420706175736564007F
:10548000FFFF5072696E742046414E00FFFF4E6F61
:105490007A7A6C652046414E00FFFF546F74616C50
:1054A00000FFFF4C617374207072696E7400FFFF1F
:1054B0004C617374207072696E74206661696C75DA
:1054C00072657300FFFF4D4D55206661696C730076
:1054D000FFFF4D4D55206C6F6164206661696C73F0
:1054E00000FFFF546F74616C206661696C757265B2
:1054F0007300FFFF4D4D55206661696C7300FFFF1F
:105500004D4D55206C6F6164206661696C7300FFBE
:10551000FF4D4D5520706F776572206661696C7321
:1055200000FFFF546F74616C206661696C75726571
:105530007300FFFF506F776572206661696C75724A
:10554000657300FFFF46696C616D2E2072756E6F8A
:1055500075747300FFFF437261736800FFFF4C6155
:105560007374207072696E74206661696C757265FF
:105570007300FFFF506F776572206661696C75720A
:10558000657300FFFF46696C616D2E2072756E6F4A
:1055900075747300FFFF437261736800FFFF546FFF
:1055A00074616C00FFFF4C617374207072696E74DB
:1055B00000FFFF50494E444100FFFF416D626965A5
:1055C0006E7400FFFF42656C7420737461747573B0
:1055D00000FFFF566F6C746167657300FFFF5465D1
:1055E0006D70657261747572657300FFFF42656C62
:1055F000742073746174757300FFFF53656E736F6D
:105600007220696E666F00FFFF457874727564657D
:105610007220696E666F00FFFF58595A2063616CF3
:105620002E2064657461696C7300FFFF756E6B6E8C
:105630006F776E00FFFF4D4D553220636F6E6E65C4
:105640006374656400FFFF446174653A00FFFF689E
:105650006F77746F2E707275736133642E636F6D24
:1056600000FFFF666F72756D2E7072757361336423
:105670002E636F6D00FFFF707275736133642E636C
:105680006F6D00FFFF746F20756E6C6F6164206634
:10569000696C616D656E7400FFFF746F206C6F61E3
:1056A000642066696C616D656E7400FFFF50726501
:1056B000737320746865206B6E6F6200FFFF3E435A
:1056C000616E63656C00FFFF5072656865617469A7
:1056D0006E6720746F2063757400FFFF50726568F9
:1056E000656174696E6720746F20656A6563740014
:1056F000FFFF50726568656174696E6720746F2082
:10570000756E6C6F616400FFFF507265686561744F
:10571000696E6720746F206C6F616400FFFF436FD8
:105720006F6C646F776E00FFFF507265686561741F
:1057300020746865206E6F7A7A6C652100FFFF45E2
:1057400052524F523A00FFFF46696C616D656E74AC
:1057500020657874727564696E6720262077697495
:105760006820636F727265637420636F6C6F723F41
:1057700000FFFF4175746F6C6F6164696E6720662E
:10578000696C616D656E74206973206163746976FC
:10579000652C206A75737420707265737320746849
:1057A00065206B6E6F6220616E6420696E73657236
:1057B000742066696C616D656E742E2E2E00FFFF7D
:1057C00046696C616D656E74207573656400FFFFDA
:1057D0005072696E742074696D6500FFFF546F74B8
:1057E000616C2066696C616D656E7400FFFF546FBB
:1057F00074616C207072696E742074696D6500FF4D
:10580000FF592064697374616E63652066726F6D01
:10581000206D696E00FFFF4C65667400FFFF5269E2
:1058200067687400FFFF4D6561737572656420736E
:105830006B657700FFFF536C6967687420736B6555
:10584000773A00FFFF53657665726520736B657765
:105850003A00FFFF5B303B305D20706F696E742053
:105860006F666673657400FFFF41646A75737469DF
:105870006E67205A3A00FFFF4D61676E65747320B2
:10588000636F6D702E00FFFF4E2F4100FFFF4F66CC
:105890006600FFFF4F6E00FFFF5A2D70726F62654A
:1058A000206E722E00FFFF4D65736800FFFF546984
:1058B0006D656F757400FFFF4D6F646500FFFF41FC
:1058C00075746F00FFFF44696D00FFFF42726967E6
:1058D000687400FFFF4C6576656C2044696D6D65EA
:1058E0006400FFFF4C6576656C20427269676874DE
:1058F00000FFFF46616E20737065656400FFFF4224
:10590000656400FFFF4E6F7A7A6C6500FFFF536598
:105910007474696E677300FFFF5072696E74206162
:10592000626F7274656400FFFF53746F7020707251
:10593000696E7400FFFF46696C6520696E636F6D68
:10594000706C6574652E20436F6E74696E7565208A
:10595000616E797761793F00FFFF5072696E742044
:1059600066726F6D20534400FFFF4261636B00FF5E
:10597000FF4D61696E00FFFF53544F505045442E58
:105980002000FFFF4D4D55204F4B2E205265737563
:105990006D696E672E2E2E00FFFF4D4D55204F4B2B
:1059A0002E20526573756D696E6720706F73697410
:1059B000696F6E2E2E2E00FFFF4D4D55204F4B2E42
:1059C00020526573756D696E672074656D706572C0
:1059D00061747572652E2E2E00FFFF466978207463
:1059E000686520697373756520616E6420746865ED
:1059F0006E20707265737320627574746F6E206FA1
:105A00006E204D4D5520756E69742E00FFFF50724B
:105A100065737320746865206B6E6F6220746F20ED
:105A2000726573756D65206E6F7A7A6C652074652A
:105A30006D70657261747572652E00FFFF4D4D5576
:105A4000206E65656473207573657220617474657A
:105A50006E74696F6E2E00FFFF43757474696E6714
:105A60002066696C616D656E7400FFFF506C656146
:105A700073652072656D6F76652066696C616D6512
:105A80006E7420616E64207468656E207072657338
:105A90007320746865206B6E6F622E00FFFF456A8D
:105AA000656374696E672066696C616D656E74000C
:105AB000FFFF4D4D55206C6F6164206661696C6518
:105AC00064202020202000FFFF59657300FFFF4E57
:105AD0006F00FFFF4E6F74207370696E6E696E67A2
:105AE00000FFFF5370696E6E696E6700FFFF4661CD
:105AF0006E207465737400FFFF53656C6674657384
:105B000074206661696C6564202000FFFF257320A6
:105B10006C6576656C20657870656374656400FFFC
:105B2000FF46616C73652074726967676572696EA0
:105B30006700FFFF46696C616D656E742073656E6A
:105B4000736F7200FFFF5377617070656400FFFF31
:105B500046726F6E742F6C6566742066616E73009A
:105B6000FFFF4178697300FFFF41786973206C651E
:105B70006E67746800FFFF4C6F6F73652070756C03
:105B80006C657900FFFF4C65667420686F74656E04
:105B9000642066616E3F00FFFF46726F6E74207076
:105BA00072696E742066616E3F00FFFF456E64731C
:105BB000746F70206E6F742068697400FFFF456E0B
:105BC0006473746F7000FFFF4D6F746F7200FFFF9E
:105BD000456E6473746F707300FFFF576972696E6E
:105BE00067206572726F7200FFFF426564202F208C
:105BF00048656174657200FFFF4E6F7420636F6EBD
:105C00006E656374656400FFFF4865617465722F9B
:105C1000546865726D6973746F7200FFFF506C6534
:105C200061736520636865636B203A00FFFF53650D
:105C30006C6674657374206572726F72202100FF48
:105C4000FF48656174696E672064697361626C65A1
:105C500064206279207361666574792074696D656A
:105C6000722E00FFFF46532076302E34206F7220B4
:105C70006E6577657200256420627974657320779C
:105C800072697474656E20746F20454550524F4D93
:105C900020617420616464726573732030782530EC
:105CA0003478004433202D20526561642F57726987
:105CB000746520454550524F4D0A0020436F756E64
:105CC0007420583A20005344207072696E74696ED3
:105CD00067206279746520004E6F7420696E2066BB
:105CE00061726D206D6F64652E0041637469766525
:105CF0002045787472756465723A2000496E766149
:105D00006C6964206578747275646572005A204FFE
:105D1000666673657400556E6B6E6F776E20636F89
:105D20006D6D616E643A2022004D32303020496E34
:105D300076616C69642065787472756465722000A0
:105D40007A5F6D61783A20007A5F6D696E3A200063
:105D5000795F6D61783A2000795F6D696E3A200055
:105D6000785F6D61783A20006F70656E005452491B
:105D700047474552454400785F6D696E3A200052AE
:105D800065706F7274696E6720656E6473746F708E
:105D9000207374617475730053494C454E54004E22
:105DA0004F524D414C002553204D4F44453A205011
:105DB000657263656E7420646F6E653A2025643B7E
:105DC000207072696E742074696D652072656D61F2
:105DD000696E696E6720696E206D696E733A202561
:105DE000640A00456E642066696C65206C69737492
:105DF00000426567696E2066696C65206C69737422
:105E0000000A50494E44412074656D70657261749A
:105E10007572653A20252E3166205A2073686966AE
:105E20007420286D6D293A20252E3366000A53749C
:105E300065703A2025642F360A000A537465703A5B
:105E40002025642F362028736B6970706564290AD9
:105E500050494E44412074656D706572617475726D
:105E6000653A202564205A20736869667420286D7D
:105E70006D293A300A000A5A45524F3A20252E33EE
:105E8000660A0073746172742074656D7065726166
:105E9000747572653A20252E31660A00256420202B
:105EA000252E326600255320583A20252E356620AF
:105EB000593A20252E3566205A3A20252E35660A75
:105EC00000536C6565702E2E2E004E6F7420696E27
:105ED000206661726D206D6F64652E00256400453B
:105EE000303A25642052504D0A50524E303A2564C3
:105EF0002052504D0A0025640045787465726E6129
:105F00006C2053504920666C6173680A57323558CB
:105F10003230434C206973206E6F74207265732D8C
:105F20000A706F6E64696E672E204C616E677561D2
:105F300067650A73776974636820756E6176616955
:105F40006C61626C652E00437261736844657465B0
:105F500063742044495341424C4544004372617389
:105F60006844657465637420454E41424C45442144
:105F700000573235583230434C206E6F74207265B2
:105F800073706F6E64696E672E0A002020506C611A
:105F90006E6E657242756666657242797465733AB3
:105FA00020002046726565204D656D6F72793A203C
:105FB00000207C20417574686F723A2000204C618B
:105FC000737420557064617465643A200020536FC7
:105FD000667477617265205265736574002057613D
:105FE000746368646F672052657365740020427241
:105FF0006F776E206F75742052657365740020454D
:10600000787465726E616C20526573657400506FB0
:106010007765725570006572726F7220777269745D
:10602000696E6720746F2066696C6500656E6473C5
:10603000746F7073206869743A2000446F6E652035
:10604000736176696E672066696C652E006F6B0000
:1060500020203000202031004572723A20505249F1
:106060004E542046414E204552524F5200457272C6
:106070003A20455854522E2046414E204552524F08
:1060800052002F2F20616374696F6E3A72657375C9
:106090006D65640057697A61726420656E6420736F
:1060A000746174653A2025640A00544D43204452BB
:1060B00049564552204F56455254454D5000436174
:1060C0006E6E6F7420656E7465722073756264699C
:1060D000723A200053442063617264206F6B006F3A
:1060E00070656E526F6F74206661696C65640076CE
:1060F0006F6C756D652E696E6974206661696C657B
:106100006400534420696E6974206661696C0057AD
:10611000726974696E6720746F2066696C653A20D5
:106120000046696C652073656C6563746564002066
:1061300053697A653A200046696C65206F70656E18
:1061400065643A2000747279696E6720746F206309
:10615000616C6C207375622D67636F64652066697E
:106160006C6573207769746820746F6F206D616E41
:1061700079206C6576656C732E006F70656E206695
:1061800061696C65642C2046696C653A20004B4956
:106190004C4C45442E20005072696E746572206824
:1061A000616C7465642E206B696C6C2829206361B6
:1061B0006C6C656421004B494C4C3A2025640A0004
:1061C0004D32323120496E76616C69642065787495
:1061D000727564657220004D32313820496E7661E7
:1061E0006C696420657874727564657220004D3145
:1061F000303920496E76616C6964206578747275F7
:1062000064657220004D31303520496E76616C69CD
:106210006420657874727564657220004D31303485
:1062200020496E76616C6964206578747275646566
:10623000722000504F5745522050414E4943204450
:10624000455445435445440055564C4F202D206538
:106250006E642025640A0055564C4F5F54494E59D0
:10626000202D20656E642025640A00776F726C64AF
:1062700020636F6F7264696E617465733A202825BC
:106280002E33662C20252E33662C20252E336629AE
:106290000A0043757272656E7420706F73205A5FC6
:1062A000415849533A252E33660A43757272656E1A
:1062B0007420706F7320455F415849533A252E333F
:1062C000660A0041667465722077616974696E6759
:1062D00020666F722074656D703A0A43757272653C
:1062E0006E7420706F7320585F415849533A252EC1
:1062F00033660A43757272656E7420706F7320592D
:106300005F415849533A252E33660A004178697334
:10631000206C656E67746820646966666572656E78
:1063200063653A252E33660A004D656173757265A3
:10633000642061786973206C656E6774683A252EF5
:1063400033660A0025632533642F25642563005ACC
:1063500025362E32662563005A2020202D2D2D2033
:106360000025632533642525002D2D2D0025336858
:1063700068640025335325337325250055534200A7
:1063800020202000205344002025753E2575002044
:106390003F3E257500204625750020463F002046DB
:1063A0003020200025632D2D3A2D2D20200025633F
:1063B00025337568202563256300256325303275F4
:1063C0003A2530327525632563002F2F20616374D1
:1063D000696F6E3A706175736564002573202534AA
:1063E000642052504D0A2573202534642052504DAC
:1063F0000A003F3F00506F6C736B69004974616C19
:1064000069616E6F004672616E6361697300457306
:1064100070616E6F6C0044657574736368004365EA
:106420007374696E6100456E676C6973680025530B
:106430003A0A2531382E32666D200A25533A0A254C
:1064400031306C6468202530326868646D202530F6
:1064500032686864730025533A0A2531382E326653
:106460006D200A25533A0A2531306C6464202530AA
:106470003268686468202530326868646D002536AB
:106480002E32666D6D0025533A0A25530A25533A7C
:106490000A25533A0025332E3266010025533A0A65
:1064A00025530A252D31352E31355325332E3266AD
:1064B000010A252D31352E31355325332E32660113
:1064C0000020746F6F206C6F6E6720657874727532
:1064D00073696F6E2070726576656E7465640020F6
:1064E000636F6C6420657874727573696F6E207069
:1064F000726576656E746564002F2F206163746920
:106500006F6E3A63616E63656C00656E7175656987
:106510006E67202200446F6E65207072696E746928
:106520006E672066696C65004D3131322063616CA5
:106530006C65642E20456D657267656E63792053C6
:10654000746F702E005072696E7465722073746F70
:10655000707065642064756520746F206572726F59
:1065600072732E2046697820746865206572726F98
:106570007220616E6420757365204D39393920743D
:106580006F20726573746172742E202854656D706B
:1065900065726174757265206973207265736574C4
:1065A0002E205365742069742061667465722072B0
:1065B000657374617274696E6729004E6F204C694F
:1065C0006E65204E756D6265722077697468206310
:1065D0006865636B73756D2C204C617374204C6916
:1065E0006E653A20004E6F20436865636B73756D6E
:1065F0002077697468206C696E65206E756D6265C0
:10660000722C204C617374204C696E653A200063D3
:106610006865636B73756D206D69736D6174636814
:106620002C204C617374204C696E653A20004C69D3
:106630006E65204E756D626572206973206E6F7491
:10664000204C617374204C696E65204E756D6265D7
:10665000722B312C204C617374204C696E653A208A
:106660000025632533642F25642563005265736517
:106670006E640025533A20256C640A25530A0049AC
:106680006E61637469766974792053687574646F98
:10669000776E006E616E00696E66004E414E494E27
:1066A000495459494E46CDCCCC3D0AD7233C17B767
:1066B000D13877CC2B329595E6241FB14F0A0000D4
:1066C00020410000C84200401C4620BCBE4CCA1BF2
:1066D0000E5AAEC59D7400407A10F35A00A0724E57
:1066E00018090010A5D4E80000E87648170000E477
:1066F0000B54020000CA9A3B000000E1F5050000BF
:1067000080969800000040420F000000A086010023
:106710000000102700000000E803000000006400F3
:10672000000000000A00000000000100000000005E
:106730002C76D888DC674F0823DFC1DFAE59E1B182
:10674000B796E5E3E453C63AE651997696E8E6C291
:106750008426EB898C9B62ED407C6FFCEFBC9C9F98
:1067600040F2BAA56FA5F490055A2AF75C936B6CBA
:10677000F9676DC11BFCE0E40D47FEF520E6B500AE
:10678000D0ED902E0300943577050080841E08001C
:1067900000204E0A000000C80C333333330F986ECC
:1067A00012831141EF8D2114893BE65516CFFEE689
:1067B000DB18D1844B381BF77C1D901DA4BBE4244F
:1067C000203284725E228100C9F124ECA1E53D27CC
:1067D0006364696E6F70737578585B00442D312067
:1067E0002D20456E646C657373206C6F6F700A00AA
:1067F000416476616E6365204B3D004B206F75747C
:10680000206F6620616C6C6F7765642072616E67C3
:106810006521004D323230205325690025534669E9
:106820006C616D656E742073657474696E67733A1C
:106830002044697361626C65640A00255346696C83
:10684000616D656E742073657474696E67733A0A5E
:1068500025532020204D3230302044252E32660A28
:10686000002553526574726163743A20533D4C6540
:106870006E67746820286D6D2920463A53706565EF
:106880006420286D6D2F6D29205A3A205A4C696674
:106890007420286D6D290A25532020204D32303771
:1068A0002053252E32662046252E3266205A252E6C
:1068B00032660A25535265636F7665723A20533DFE
:1068C0004578747261206C656E67746820286D6D00
:1068D0002920463A537065656420286D6D2F6D2917
:1068E0000A25532020204D3230382053252E326681
:1068F0002046252E32660A25534175746F2D526548
:1069000074726163743A20533D3020746F2064695F
:106910007361626C652C203120746F20696E746520
:10692000727072657420657874727564652D6F6E0F
:106930006C79206D6F766573206173207265747257
:1069400061637473206F72207265636F766572691C
:1069500065730A25532020204D3230392053256499
:106960000A002553504944206865617462656420BB
:1069700073657474696E67733A0A25532020204D3D
:106980003330342050252E32662049252E326620A1
:1069900044252E32660A00255350494420736574FD
:1069A00074696E67733A0A25532020204D333031C5
:1069B0002050252E32662049252E32662044252E71
:1069C00032660A0025535374657073207065722017
:1069D000756E69743A0A255320204D3932205825A6
:1069E0002E32662059252E3266205A252E326620F8
:1069F00045252E32660A25535553746570207265FD
:106A0000736F6C7574696F6E3A200A2553204D338D
:106A100035302058256420592564205A25642045A6
:106A200025640A25534D6178696D756D206665652D
:106A3000647261746573202D206E6F726D616C20BD
:106A4000286D6D2F73293A0A255320204D3230339B
:106A50002058252E32662059252E3266205A252EA2
:106A600032662045252E32660A25534D6178696DC0
:106A7000756D20666565647261746573202D207381
:106A80007465616C746820286D6D2F73293A0A252E
:106A90005320204D3230332058252E326620592580
:106AA0002E3266205A252E32662045252E32660A61
:106AB00025534D6178696D756D20616363656C6503
:106AC000726174696F6E202D206E6F726D616C2023
:106AD000286D6D2F7332293A0A255320204D32300C
:106AE000312058256C752059256C75205A256C75F8
:106AF0002045256C750A25534D6178696D756D20AB
:106B0000616363656C65726174696F6E202D2073BB
:106B10007465616C746820286D6D2F7332293A0A90
:106B2000255320204D3230312058256C75205925B1
:106B30006C75205A256C752045256C750A255341C6
:106B40006363656C65726174696F6E3A20533D6171
:106B50006363656C65726174696F6E2C20543D725D
:106B600065747261637420616363656C65726174DE
:106B7000696F6E0A255320204D3230342053252E64
:106B800032662054252E32660A2553416476616EA2
:106B9000636564207661726961626C65733A205343
:106BA0003D4D696E20666565647261746520286D6F
:106BB0006D2F73292C20543D4D696E2074726176BF
:106BC000656C20666565647261746520286D6D2F43
:106BD00073292C20423D6D696E696D756D2073655A
:106BE000676D656E742074696D6520286D73292C3E
:106BF00020583D6D6178696D756D205859206A6522
:106C0000726B20286D6D2F73292C20205A3D6D61E9
:106C100078696D756D205A206A65726B20286D6DDC
:106C20002F73292C2020453D6D6178696D756D208D
:106C300045206A65726B20286D6D2F73290A2553D4
:106C400020204D3230352053252E32662054252EFB
:106C500032662042252E32662058252E3266205973
:106C6000252E3266205A252E32662045252E326684
:106C70000A2553486F6D65206F666673657420281A
:106C80006D6D293A0A255320204D32303620582583
:106C90002E32662059252E3266205A252E32660A5B
:106CA000004625642025640A004D4D55203C3D20BA
:106CB00027462564202564270A0050494420417551
:106CC000746F74756E652066696E6973686564219A
:106CD0002050757420746865206C617374204B704B
:106CE0002C204B6920616E64204B6420636F6E73AF
:106CF00074616E74732066726F6D2061626F766569
:106D000020696E746F20436F6E6669677572617477
:106D1000696F6E2E6800504944204175746F747518
:106D20006E65206661696C6564212074696D656FAC
:106D300075740020403A00543A00423A00504944E9
:106D4000204175746F74756E65206661696C656449
:106D5000212054656D706572617475726520746F61
:106D60006F206869676800204B643A2000204B69F7
:106D70003A2000204B703A200020436C6173736905
:106D8000632050494420002054753A2000204B7560
:106D90003A2000206D61783A2000206D696E3A201B
:106DA0000020643A200020626961733A2000204587
:106DB0003A00205A3A0020593A0020453A00205A19
:106DC0003A0020593A00583A00005A30005A31002F
:106DD000593000593100583000583100456E642058
:106DE00073746F70732064696167002E0044656C72
:106DF0006574696F6E206661696C65642C204669F4
:106E00006C653A200046696C652064656C65746544
:106E1000643A000A002F000A004E6F742053442089
:106E20007072696E74696E67005072696E74207357
:106E300061766564005344207072696E74207061DD
:106E400075736564004F4B004241440052414D420E
:106E50006F2046414E200043524153485F43414E0C
:106E600043454C0043524153485F5245434F5645BA
:106E7000520043524153485F5245434F56455200DA
:106E8000222832290054004475706C69636174656E
:106E900020542D636F64652069676E6F7265642E80
:106EA0000A004475706C696361746520542D636FCA
:106EB00064652069676E6F7265642E0A00496E769C
:106EC000616C6964205420636F64652E00556E6B9D
:106ED0006E6F776E204D20636F64653A20257320B6
:106EE0000A006E6F2076616C696420636F6D6D615E
:106EF0006E64002C20002C20002C20006E2F6100DE
:106F00002C20002C20002C20006E2F61002F005020
:106F10003A005761697420666F722050494E4441AF
:106F2000207461726765742074656D706572617438
:106F30007572653A004C414E472053454C20464FF0
:106F4000524345440022283129003030303030305F
:106F500030302D303030302D303030302D3030303A
:106F6000302D303030303030303030303030002064
:106F7000555549443A00310020455854525544452E
:106F8000525F434F554E543A00534B454C45535472
:106F90005255444552204D4B335300204D414348F8
:106FA000494E455F545950453A00312E3000206219
:106FB00061736564206F6E204D61726C696E20464E
:106FC00049524D574152455F55524C3A687474705E
:106FD000733A2F2F6769746875622E636F6D2F7017
:106FE0007275736133642F50727573612D466972C7
:106FF0006D776172652050524F544F434F4C5F562E
:10700000455253494F4E3A004649524D5741524519
:107010005F4E414D453A50727573612D4669726DF0
:107020007761726520004D31313320530020423AA0
:107030000020453A00543A0020413A0020503A00DE
:107040002042403A0020403A00202F003A002054CD
:1070500000202F0020423A00202F006F6B20543A6E
:10706000002569206D696E2C2025692073656300F9
:10707000496E76616C6964204D20636F64653A20C7
:107080002573200A00556E6B6E6F776E2047206364
:107090006F64653A202573200A004D65736820628D
:1070A0006564206C6576656C696E67206E6F742010
:1070B0006163746976652E000A002020000A4D6520
:1070C00061737572656420706F696E74733A000A3B
:1070D0005A20736561726368206865696768743AED
:1070E00020002C004E756D20582C593A2000206D40
:1070F0006963726F6E730045786365737369766553
:1071000020626564206C6576656C696E6720636FCC
:107110007272656374696F6E3A2000426564206C18
:107120006576656C696E67206661696C65642E20A2
:1071300053656E736F7220747269676765726564F8
:1071400020746F6F20686967682E0A0042656420AA
:107150006C6576656C696E67206661696C65642E26
:107160002053656E736F7220646973636F6E6E6512
:1071700063746564206F72206361626C6520627263
:107180006F6B656E2E0A0047323820573000504929
:107190004E44412070726F62652063616C69627257
:1071A0006174696F6E2073746172740047323820A5
:1071B0005730004D3234005345545F43484F505FC1
:1071C000005345545F535445505F005345545F5737
:1071D0004156455F00544D435F0043524153485F61
:1071E0000073746172740A004C616E677561676543
:1071F000207570646174652E006164635F696E69F7
:10720000740A000A204F726967696E616C205072BF
:107210007573612069330A202020507275736120D4
:10722000526573656172636800436F6E74696E7551
:1072300065207769746820616E6F7468657220627A
:107240006F7764656E3F00250020202020202000FD
:107250002020202020200045524153494E472061E4
:107260006C6C206461746100466163746F72792094
:10727000524553455400466163746F7279205245FC
:1072800053455400202873656E736F7220626F61DE
:107290007264207265766973696F6E3A2553290AA4
:1072A0000044495341424C454400454E41424C45FF
:1072B00044004653656E736F7220255300494E5447
:1072C00034004D4B33534D4D553253004E4F4D4BC3
:1072D0003353002E014D617920323120323032306B
:1072E00000436F6D70696C65643A2000286E6F6EA4
:1072F000652C2064656661756C7420636F6E6669C9
:107300006729004D6179203231203230323020320D
:10731000313A31323A34390020332E392E302D3380
:107320003432310A002055706C6F616420696E2020
:1073300070726F677265737300205A3A0020593A71
:107340000020583A0043524153485F444554454356
:1073500054454458590043524153485F44455445AD
:1073600043544544590043524153485F44455445B2
:107370004354454458004D32390078797A63616C42
:107380005F6D656173737572655F656E7465720AB2
:107390000078797A63616C5F73706972616C382010
:1073A00063783D25642063793D2564207A303D254E
:1073B0006420647A3D2564207261646975733D259B
:1073C000642061643D25640A0078797A63616C5FAA
:1073D0007365617263685A206E6F207369676E61AE
:1073E0006C0A20783D256C6420793D256C64207AF8
:1073F0003D256C640A00204F4E2D5349474E414CA9
:1074000020617420783D256420793D2564207A3DF3
:1074100025642061643D25640A0078797A63616C93
:107420005F7365617263685A20783D256C642079CA
:107430003D256C64207A3D256C640A000A002530E5
:1074400032780078797A63616C5F7363616E5F7024
:107450006978656C735F33327833322063783D2509
:10746000642063793D2564206D696E5F7A3D2564F3
:10747000206D61785F7A3D25640A00202532642002
:1074800025640A000A002530327800206D696E3DBF
:107490002564206D61783D2564206469663D25641E
:1074A0000A006D61785F633D253264206D61785F0D
:1074B0006C3D25640A006D61785F633D2564206D35
:1074C00061785F723D2564206D61785F6D617463E2
:1074D000683D25640A0020783D256420793D2564B7
:1074E000207A3D25640A00207061747465726E20F4
:1074F000666F756E642061742025642025640A001F
:107500000000F000F801FC03FE07FE07FE07FE077F
:10751000FC03F801F000000073697A656F66287457
:107520006F74616C293D25640A0073697A656F6622
:1075300028626C6F636B5F627566666572293D25B4
:10754000640A0078797A63616C5F6D656173737545
:1075500072655F6C656176650A00706F696E743D77
:10756000256420783D256420793D2564207A3D25D9
:10757000640A0058025802584D584DB004F055F0B6
:1075800055B00478797A63616C5F66696E645F6296
:1075900065645F696E64756374696F6E5F73656E51
:1075A000736F725F706F696E745F787920783D25B4
:1075B0006C6420793D256C64207A3D256C640A005A
:1075C000203C20005741524E494E473A2046726FA8
:1075D0006E7420706F696E74206E6F7420726561B6
:1075E000636861626C652E205920636F6F726469F5
:1075F0006E6174653A0000000040410000C0400028
:10760000005C430000C04000005C430000464300B3
:1076100000404100004643497465726174696F6EB1
:107620003A200043616C6962726174696F6E206612
:1076300061696C65642120436865636B20746865CB
:10764000206178657320616E642072756E206167B9
:1076500061696E2E002563252D2E313653200025BD
:1076600063252E3135533A257325336400457872EE
:10767000656D65207370616E206F6620746865208B
:107680005A2076616C75657321006F6B0A00737404
:107690006172740A004D4D5532206669726D7761D2
:1076A00072652076657273696F6E20696E76616CA3
:1076B00069642E2052657175697265642076657201
:1076C00073696F6E3A206275696C64206E756D62C5
:1076D0006572202564206F72206869676865722E64
:1076E000004D4D55203D3E20276F6B270A004D4D24
:1076F00055203D3E20276F6B270A002564004D4D25
:1077000055203D3E20276F6B272C20726573756DC9
:1077100065207072696E740A004D4D552072657453
:10772000727920617474656D7074206E722E2025DC
:10773000640A004D4D55203D3E20276F6B270A00FF
:10774000410A004D4D55203C3D202741270A004D60
:10775000363030004D363030204155544F002568CA
:10776000687500410A004D4D55203C3D20274127BA
:107770000A0050300A004D25640A004D4D55203C4A
:107780003D20274D2564270A0057300A004D4D55EE
:10779000203C3D20275730270A0053330A004D4D27
:1077A00055203C3D20275333270A0052300A004D14
:1077B0004D55203C3D20275230270A004B25640AB6
:1077C000004D4D55203C3D20274B2564270A0045A0
:1077D00025640A004D4D55203C3D20274525642752
:1077E0000A0055300A004D4D55203C3D20275530AC
:1077F000270A0043300A004D4D55203C3D202743C9
:1078000030270A004C25640A004D4D55203C3D2090
:10781000274C2564270A005425640A004D4D552045
:107820003C3D2027542564270A004D4D55202D202E
:10783000454E41424C454400256868750050300A69
:10784000004D310A004D4D55203C3D20274D31273C
:107850000050300A004D4D552076657273696F6E89
:107860002076616C6964004D4D55203D3E202725F2
:10787000646F6B270A0025750053320A004D4D5581
:10788000203C3D2027533227004D4D55203D3E20C2
:107890002725646F6B270A002575004D4D55206E16
:1078A0006F7420726573706F6E64696E67202D202F
:1078B00044495341424C45440053310A004D4D5513
:1078C000203C3D2027533127004D4D55203D3E2083
:1078D00027737461727427004673656E736F72202C
:1078E000446574656374696F6E0044697361626CAA
:1078F00065206661726D206D6F6465004661726D12
:10790000206E756D626572004D3834004D34340060
:107910004732382057004739390044697361626C37
:1079200065206661726D206D6F64653F0020003ECA
:10793000003E0020003E003E0054656D706572619F
:10794000747572652063616C6962726174696F6ECF
:10795000206661696C65642E20436F6E74696E7574
:10796000652077697468207072657373696E67202B
:10797000746865206B6E6F622E0054656D70657261
:1079800061747572652063616C6962726174696F9C
:107990006E20646F6E652E20436F6E74696E756520
:1079A0002077697468207072657373696E672074DC
:1079B0006865206B6E6F622E00252D392E39535B62
:1079C000002563252D31382E31387325630046613B
:1079D000726D206E756D626572004D363030002418
:1079E000F4D43050C38E20C2A24017828B70111283
:1079F0007A910D816CD90AA861E108C758660761C0
:107A00005143061E4B5D05C145A7041A41110409E7
:107A10003D9803713931034036DB0265339102D45E
:107A2000305402802E1D02632CEE01752AC501B070
:107A300028A001102781018F2564012B244B01E030
:107A4000223401AC211F018D200D01801FFC008418
:107A50001EED00971DDF00B81CD200E61BC60020FB
:107A60001BBC00641AB200B219A8000A19A0006A6F
:107A7000189900D117910040178B00B5168400317A
:107A8000167E00B31579003A157300C7146F0058BD
:107A9000146A00EE1366008813630025135E00C7A6
:107AA000125B006C12570015125400C11151007086
:107AB000114F0021114B00D61049008D1047004690
:107AC00010440002104200C00F4000800F3E0042F0
:107AD0000F3C00060F3B00CB0E3800930E37005CC6
:107AE0000E3500270E3400F30D3200C10D31009029
:107AF0000D3000600D2E00320D2D00050D2C00D92B
:107B00000C2B00AE0C2900850C29005C0C270035DD
:107B10000C27000E0C2600E80B2400C40B2400A048
:107B20000B23007D0B23005A0B2100390B21001879
:107B30000B2000F80A1F00D90A1E00BB0A1E009D78
:107B40000A1D00800A1D00630A1C00470A1B002C46
:107B50000A1B00110A1A00F7091A00DD091900C4EE
:107B6000091900AB091900920917007B0918006375
:107B70000917004C09160036091600200916000ADC
:107B8000091500F5081500E0081400CC081400B829
:107B9000081400A4081400900813007D0812006B5C
:107BA0000813005808120046081200340811002378
:107BB0000811001208110001081100F0071000E080
:107BC000071000D0071000C0071000B0070F00A179
:107BD00007100091070E0083070F0074070F006560
:107BE000070E0057070E0049070E003B070D002E39
:107BF000070E0020070D0013070D0006070D00F902
:107C0000060C00ED060D00E0060C00D4060C00C8C2
:107C1000060C00BC060C00B0060C00A4060B009974
:107C2000060C008D060B0082060B0077060B006C1D
:107C3000060B0061060A0057060B004C060A0042BC
:107C4000060A0038060A002E060A0024060A001A50
:107C5000060A001006090007060A00FD050900F4DF
:107C6000050900EB050900E2050900D9050900D066
:107C7000050900C7050900BE050900B5050800ADE6
:107C8000050800A50509009C050800940508008C5E
:107C9000050800840508007C050800740508006CD0
:107CA000050700650508005D050700560508004E3C
:107CB00005070047050700400508003805070031A3
:107CC0000507002A050700230507001C0506001606
:107CD0000507000F0507000805060002050700FB61
:107CE000040600F5040700EE040600E8040600E2BE
:107CF000040700DB040600D5040600CF040600C913
:107D0000040600C3040600BD040600B7040600B163
:107D1000040500AC040600A6040600A00405009BB0
:107D200004060095040500900406008A04050085F9
:107D3000040500800406007A04050075040500703F
:107D40000405006B04050066040500610405005C81
:107D500004050057040500520405004D04050048C1
:107D6000040500430405003E0404003A0405003500
:107D7000040500300404002C04050027040400233B
:107D80000405001E0404001A040400160405001172
:107D90000404000D040400090405000404040000A8
:107DA000040400FC030400F8030400F4030400F0DE
:107DB000030400EC030400E8030400E4030400E00F
:107DC000030400DC030400D8030400D4030400D03F
:107DD000030400CC030400C8030300C5030300240C
:107DE000F404D9201BC40C5C0E9804C4095F02651E
:107DF000077101F405F900FB04B30048048700C1D2
:107E00000369005803550003034500BE023A00848D
:107E100002310053022A002902250004022000E456
:107E2000011C00C8011900AF01170098011400845B
:107E3000011300710110006101100051010E004397
:107E4000010D0036010B002B010B0020010B00156A
:107E50000109000C01090003010800FB000800F300
:107E6000000800EB000700E4000600DE000600D872
:107E7000000600D2000600CC000500C7000500C2C5
:107E8000000500BD000400B9000400B5000400B105
:107E9000000400AD000400A9000400A5000300A236
:107EA0000003009F0004009B00030098000300955E
:107EB00000020093000300900003008D0002008B7D
:107EC0000003008800020086000200840003008195
:107ED0000002007F0002007D0002007B00020079AA
:107EE00000020077000100760002007400020072B8
:107EF000000100710002006F0002006D0001006CC3
:107F00000002006A000100690002006700010066CB
:107F100000010065000100640002006200010061D0
:107F2000000100600001005F0002005D0001005CD4
:107F30000001005B0001005A0001005900010058D7
:107F400000010057000100560001005500010054D7
:107F500000010053000000530001005200010051D5
:107F6000000100500001004F0001004E0000004ED3
:107F70000001004D0001004C0001004B0000004BCF
:107F80000001004A000100490001004800000048CB
:107F900000010047000100460000004600010045C6
:107FA00000000045000100440001004300000043C0
:107FB00000010042000000420001004100000041B9
:107FC000000100400001003F0000003F0001003EB2
:107FD0000000003E0001003D0000003D0001003CAB
:107FE0000000003C0000003C0001003B0000003BA2
:107FF0000001003A0000003A000100390000003999
:10800000000100380000003800000038000100378F
:108010000000003700010036000000360000003686
:10802000000100350000003500000035000100347B
:108030000000003400000034000100330000003371
:108040000000003300010032000000320000003266
:10805000000100310000003100000031000100305B
:1080600000000030000000300001002F0000002F51
:108070000000002F0000002F0001002E0000002E45
:108080000000002E0001002D0000002D0000002D3A
:108090000000002D0001002C0000002C0000002C2E
:1080A0000000002C0001002B0000002B0000002B22
:1080B0000000002B0001002A0000002A0000002A16
:1080C0000000002A0001002900000029000000290A
:1080D00000000029000000290001002800000028FD
:1080E00000000028000000280000002800010027F0
:1080F00000000027000000270000002700000027E4
:1081000000010026000000260000002600000026D6
:1081100000000026000100250000002500000025C9
:1081200000000025000000250000002500010024BB
:1081300000000024000000240000002400000024AF
:1081400000010023000000230000002300000023A2
:108150000000002300000023000000230001002293
:108160000000002200000022000000220000002287
:108170000000002200010021000000210000002179
:10818000000000210000002100000021000000216B
:10819000000100200000002000000020000000205E
:1081A000000000200000002000000020000000204F
:1081B0000001001F0000001F0000001F0000001F42
:1081C0000000001F0000001F0000001F0001001E33
:1081D0000000001E0000001E0000001E00000047FE
:1081E0003830004D3435004D3435205A004737368D
:1081F0000057697A6172642073746174653A20254E
:10820000640A0070012C0190012701B0012201C015
:10821000011D01F00118011002130130020E01606E
:1082200002090190020401C002FF000003FA0040AD
:1082300003F5008003F000D003EB002004E600709B
:1082400004E100E004DC004005D700C005D2004096
:1082500006CD00D006C8008007C3003008BE00F07D
:1082600008B900C009B400B00AAF00B00BAA00D032
:108270000CA500000EA000500F9B00C010960050EF
:1082800012910000148C00C0158700B0178200B056
:10829000197D00D01B7800001E730040206E0090F6
:1082A000226900F024640040275F0090295A00E012
:1082B0002B5500102E500020304B0010324600E0AD
:1082C00033410090353C001037370070383200A041
:1082D000392D00B03A2800A03B2300603C1E00105E
:1082E0003D1900903D1400103E0F00703E0A00C082
:1082F0003E0500003F000090137D00B0157800F0AF
:10830000177300601A6E00F01C6900A01F64005013
:10831000225F0020255A00E0275500902A500020B7
:108320002D4B00A02F4600F031410010343C00F0EE
:10833000353700A037320020392D00603A28007010
:108340003B2300603C1E00203D1900C03D1400404E
:108350003E0F00A03E0A00F03E0500403F000070C6
:108360003FFBFF903FF6FFB03FF1FFC03FECFFD077
:108370003FE7FFE03FE2FFF03FDDFFF03FD8FF20A7
:10838000484F54454E4420544845524D414C20528C
:10839000554E4157415900204845415442454420DB
:1083A000544845524D414C2052554E415741590079
:1083B000544845524D414C2052554E415741590069
:1083C00042454420544845524D414C2052554E415F
:1083D0005741590020544845524D414C2052554E6A
:1083E0004157415920282050524548454154204882
:1083F0004F54454E44290020544845524D414C208D
:1084000052554E4157415920282050524548454128
:10841000542048454154424544290050524548455E
:108420004154204552524F5200424544205052453B
:1084300048454154204552524F5200506C6561737B
:10844000652072657374617274004572723A204DD2
:10845000494E54454D50003A204578747275646514
:1084600072207377697463686564206F66662E2076
:108470004D494E54454D5020747269676765726569
:10848000642021004572723A204D494E54454D50AA
:10849000204245440054656D706572617475726563
:1084A000206865617465642062656420737769740F
:1084B00063686564206F66662E204D494E54454DB5
:1084C0005020747269676765726564202100746D5D
:1084D00063323133305F686F6D655F656E746572EE
:1084E00028617865735F6D61736B3D30782530323C
:1084F00078290A00746D63323133305F686F6D65BF
:108500005F6578697420746D63323133305F7367EF
:108510005F686F6D696E675F617865735F6D6173CA
:108520006B3D3078253032780A00746D6332313318
:10853000305F676F746F5F737465702025642025EA
:1085400064202564202564200A004E6F2030784680
:10855000462072656365697665640053656E64697B
:108560006E672030784646001F1F1F1F1F1F1F1FEA
:108570002E002E004E6F7720667265736820666944
:108580006C653A20004E6F7720646F696E672066D5
:10859000696C653A20002220706F730022207061A0
:1085A00072656E743A2200535542524F5554494EEB
:1085B000452043414C4C207461726765743A220037
:1085C0002E0020573A0020453A00543A005A206CB9
:1085D0006976652061646A757374206F7574206FA5
:1085E000662072616E67652E2053657474696E67CC
:1085F00020746F20302E20436C69636B20746F20D1
:10860000636F6E74696E75652E005A206C697665AD
:108610002061646A757374206F7574206F662072B0
:10862000616E67652E2053657474696E6720746F80
:1086300020300020423A0020453A00543A00494E8A
:108640005434007265636F7665725F6D616368694B
:108650006E655F73746174655F61667465725F7087
:108660006F7765725F70616E69632C20696E6974E3
:1086700069616C200050525553412075766C6F0033
:108680004734205330004D32362053256C75004D51
:108690003130362053004D323230205325640047AC
:1086A0003120462564004D383200473932204500DC
:1086B0004731204525302E33662046323730300092
:1086C0004731205A2566005052555341204D424CA7
:1086D000205631004731205825662059256620460E
:1086E0003330303000506F736974696F6E2072657B
:1086F00061642066726F6D20656570726F6D3A00FF
:108700004D3233202573002E67636F002C20666581
:1087100065646D756C7469706C793A004665656462
:10872000726174653A0047312045252D302E33663D
:10873000204632373030004731204535204631322F
:1087400030004D3833004D31303920532564004D11
:1087500031393020532564004D31303420532564A5
:108760000047323820582059004731205A252E33EF
:10877000662046383030000000000000110A045026
:108780005255534133444657002079303D25640A01
:10879000002078303D25640A004F4B0A00455252B4
:1087A0004F522061643D25640A002020207A303D2C
:1087B00025640A00207A303D25640A002079303D86
:1087C00025640A002078303D25640A0078797A63B0
:1087D000616C5F66696E645F706F696E745F63651C
:1087E0006E746572320A0000002100240027002AFE
:1087F000002D003000330001010000040107010AD0
:1088000001000020002300260029002C002F003248
:10881000000001000003010601090100000A0B022B
:10882000090C0D0E08070304010000000000000001
:108830000000000000000000000000000000000038
:1088400000000000000000121110000000000000F5
:108850000000000000000000000000000000000018
:108860000000000000000000000000000000000008
:1088700000257500593A202575202D3E202E2E2EDC
:1088800000257500583A202575202D3E202E2E2ECD
:108890000046696C616D656E742073656E736F72EE
:1088A00020626F617264206368616E676520646531
:1088B0007465637465643A207265766973696F6E76
:1088C00025530A004D656173757265642066696C95
:1088D000616D656E742073656E736F72206C6F7757
:1088E000206C6576656C3A2025342E3266560A0077
:1088F0004D656173757265642066696C616D656E46
:10890000742073656E736F722068696768206C6588
:1089100076656C3A2025342E3266560A0045787406
:10892000722066616E2073706565643A202564204C
:108930000A005072696E742066616E2073706565FE
:10894000643A202564200A005465737420323A0A80
:1089500000457874722066616E2073706565643AB4
:10896000202564200A005072696E742066616E20B2
:1089700073706565643A202564200A005465737439
:1089800020313A0A004D38340025632041584953BC
:10899000205347313D25640A002D2D2D2D2D2D2DE1
:1089A0002D2D2D2D2D2D2D2D2D2D2D2D2D00473106
:1089B000205A252D302E33662046252D302E336645
:1089C0000047312045252D302E3366204632373082
:1089D00030004D38330000002110422063308440C5
:1089E000A550C660E770088129914AA16BB18CC17E
:1089F000ADD1CEE1EFF13112100273325222B552F5
:108A00009442F772D662399318837BB35AA3BDD3CD
:108A10009CC3FFF3DEE36224433420040114E664C4
:108A2000C774A44485546AA54BB528850995EEE51D
:108A3000CFF5ACC58DD55336722611163006D776D4
:108A4000F6669556B4465BB77AA719973887DFF76D
:108A5000FEE79DD7BCC7C448E5588668A77840089C
:108A6000611802282338CCC9EDD98EE9AFF94889BD
:108A700069990AA92BB9F55AD44AB77A966A711A34
