:100000000C945F4E0C94904E0C94904E0C94904E29
:100010000C94904E0C94EBCC0C94904E0C94904E0F
:100020000C9460D00C94904E0C94904E0C94904E86
:100030000C94904E0C94904E0D947C350D945B571F
:100040000C94904E0C94A3AC0C94904E0C94904E47
:100050000C94904E0C94904E0C94904E0C94A6DA06
:100060000C94904E0D9492520C94904E0C94904E91
:100070000C94904E0C94904E0C94904E0C94904E88
:100080000C94904E0C94904E0C94904E0C94904E78
:100090000D944E520C94904E0C94904E0C94904EA5
:1000A0000C94904E0C94904E0C94904E0C94904E58
:1000B0000C94904E0C94904E0C94904E0C94904E48
:1000C0000C94904E0C94904E0C94904E0D9473564C
:1000D0000C94904E0C94904E0C94904E0C94904E28
:1000E0000C94904E86678C6792679D67A8672D6811
:1000F000B367BC67C567D067DB67E667F66701680B
:100100002D680C681768226819A923A9C4A892A8A9
:1001100061A80EAC54A979AAFFAA55AB71ABA8ABE4
:10012000C2DACCDADADAE7DAF9DA00DB3CDB1EDB5A
:1001300034DBB9DBBBDBB9DBBBDBB9DBBBDBBDDB9A
:10014000BFDB65F068F057F05BF061F09FF06CF09A
:1001500070F076F07AF07EF084F088F08CF09FF00A
:1001600092F096F09AF0DA018401C0010402B40121
:100170002202E201900112026001E201FC01FA0197
:100180005202EE0166017E018801140246025A0203
:1001900018025E02DE01F6010A02D2014A014A019A
:1001A00028024A0128021A028601BE01C801F8018C
:1001B000920178014A0272014C019E015C01F20138
:1001C0001602084AD73B3BCE016E84BCBFFDC12F4F
:1001D0003D6C74319ABD56833DDA3D00C77F11BE38
:1001E000D9E4BB4C3E916BAAAABE000000803F053B
:1001F000A84CCDB2D44EB93836A9020C50B991866C
:1002000088083CA6AAAA2ABE000000803F076342D5
:1002100036B79BD8A71A39685618AEBAAB558C1D9D
:100220003CB7CC5763BD6DEDFD753EF6177231BF1F
:10023000000000803F08000000BE922449123EAB3F
:10024000AAAA2ABECDCCCC4C3E00000080BEABAAF0
:10025000AAAA3E00000000BF000000803F0000008E
:100260000000084178D3BB4387D1133D190E3CC32E
:10027000BD4282AD2B3E68EC8276BED98FE1A93EAD
:100280004C80EFFFBE01C4FF7F3F00000000000074
:100290000D940E4C0D948E4F0D941B920D9459514C
:1002A0000D941F7D0D9425210D94E74F0D94EB7C4B
:1002B0000D94A0790D94916D0D9473910D94394E18
:1002C0000D9418260D9427960D9449980D94823D0F
:1002D0000D947A790D945E210D94BD7A0D949A1A3D
:1002E0000D944B210D949A910D9485790D94FB7A80
:1002F0000D94B0910D940A500D94BF010D94923D50
:100300000D94CD060D9440510D9487250D94974F73
:100310000D94983D0D942B490D94FC4F0D94127A39
:100320000D9409260D94BB910D9403500D945A9988
:100330000D94637D0D9450480D94D17A0D940B92D9
:100340000D945F500D9418500D94AB500D94997D01
:100350000D94137B0D9467500D94991F0D94097B98
:100360000D9409200D9425230D94B2250D94F47A53
:100370000D94EE4F0D94CE050D94AFBD0D94758E7A
:100380000D9499250D94294C0D94934D0D948D94B5
:100390000D94F6910D9463500D94B0BC0D947F4D67
:1003A0000D9435080D94353E0D94AD7C0D94F946B1
:1003B0000D94F54F0D9474250D9444080D94FA3D59
:1003C0000D9461070D945E250D947E060D94201BFF
:1003D0000D9482230D94C4200D94BD050D944626E2
:1003E0000D94C1940D9445910D9427020D940A3EED
:1003F0000D94C6910D942A260D941E260D941799DE
:100400000D9454010D94C77A0D94A7250D94599419
:100410000D94F07B0D94253E0D94E04F0D94204CEF
:100420000D94ED460D941C260D94AE3D0D94139144
:100430000D94DA3D0D94944F0D94027B0D94E34698
:100440000D94C7000D94E7250D94E7990D94712143
:100450000D94914F0D94B6980D9456960D948F026D
:100460000D94BD460D9484210D94D74F0D94CF7DEE
:100470000D944E7B0D94247B0D9428030D941B95B5
:100480000D948E210D9411500D9471950D94CE3DC7
:100490000D94C8990D94A5910D9444980D94391A12
:1004A0000D94C6050D9430260D944E7C0D94D946BE
:1004B0000D94BA490D94D43D0D94174C0D94EA3D1A
:1004C0005F5345435F4C414E470000000000000071
:1004D000000000000000000000000000000000001C
:1004E000000000000000000000000000000000000C
:1004F00000000000000000000000000000000000FC
:1005000000000000000000000000000000000000EB
:1034C000FFFF472D636F646520736C69636564203B
:1034D000666F72206120646966666572656E74202D
:1034E0006C6576656C2E20436F6E74696E75653FF2
:1034F00000FFFF472D636F646520736C696365642B
:1035000020666F72206120646966666572656E74FC
:10351000206C6576656C2E20506C65617365207239
:10352000652D736C69636520746865206D6F6465D3
:103530006C20616761696E2E205072696E74206321
:10354000616E63656C6C65642E00FFFF472D636FD1
:10355000646520736C6963656420666F7220612006
:103560006E65776572206669726D776172652E206F
:10357000506C656173652075706461746520746852
:1035800065206669726D776172652E205072696E72
:10359000742063616E63656C6C65642E00FFFF4789
:1035A0002D636F646520736C6963656420666F7258
:1035B0002061206E65776572206669726D77617231
:1035C000652E20436F6E74696E75653F00FFFF477F
:1035D0002D636F646520736C6963656420666F7228
:1035E000206120646966666572656E742070726918
:1035F0006E74657220747970652E20506C656173ED
:10360000652072652D736C69636520746865206D33
:103610006F64656C20616761696E2E205072696EFF
:10362000742063616E63656C6C65642E00FFFF47F8
:103630002D636F646520736C6963656420666F72C7
:10364000206120646966666572656E7420707269B7
:103650006E74657220747970652E20436F6E746984
:103660006E75653F00FFFF472D636F646520736CC7
:103670006963656420666F722061206469666665AF
:1036800072656E74207072696E74657220747970E0
:10369000652E20436F6E74696E75653F00FFFF47AE
:1036A0002D636F646520736C6963656420666F7257
:1036B000206120646966666572656E742070726947
:1036C0006E74657220747970652E20506C6561731C
:1036D000652072652D736C69636520746865206D63
:1036E0006F64656C20616761696E2E205072696E2F
:1036F000742063616E63656C6C65642E00FFFF501F
:1037000072657373206B6E6F6220746F20707265C8
:1037100068656174206E6F7A7A6C6520616E6420D2
:10372000636F6E74696E75652E00FFFF506C656186
:10373000736520707265737320746865206B6E6F9B
:103740006220746F20756E6C6F61642066696C61B5
:103750006D656E7400FFFF52656D6F7665206F6C4E
:10376000642066696C616D656E7420616E642070A2
:103770007265737320746865206B6E6F6220746F5E
:10378000207374617274206C6F6164696E67206E5F
:1037900065772066696C616D656E742E00FFFF6150
:1037A0006E6420707265737320746865206B6E6F31
:1037B0006200FFFF496E736572742066696C616D0B
:1037C000656E7400FFFF436F6C6F72206E6F742024
:1037D000636F727265637400FFFF46696C616D65AB
:1037E0006E74206E6F74206C6F6164656400FFFFFF
:1037F0004368616E67656420636F72726563746CA1
:10380000793F00FFFF4C6F6164696E6720636F6CE6
:103810006F7200FFFF4368616E67652073756363B5
:103820006573732100FFFF506C65617365206F70D5
:10383000656E2069646C657220616E642072656DCE
:103840006F76652066696C616D656E74206D616E62
:1038500075616C6C792E00FFFF5761732066696C8F
:10386000616D656E7420756E6C6F61642073756335
:103870006365737366756C3F00FFFF506C65617321
:103880006520757067726164652E00FFFF4E657775
:10389000206669726D776172652076657273696FF3
:1038A0006E20617661696C61626C653A00FFFF575A
:1038B000616974696E6720666F722050494E444199
:1038C0002070726F626520636F6F6C696E6700FFB6
:1038D000FF43726173682064657465637465642E68
:1038E00020526573756D65207072696E743F00FFBC
:1038F000FF43726173682064657465637465642E48
:1039000000FFFF43686F6F7365206578747275649C
:1039100065723A00FFFF457874727564657200FF46
:10392000FF43686F6F73652066696C616D656E74C7
:103930003A00FFFF4E6F206D6F76652E00FFFF5738
:1039400061697420666F7220757365722E2E2E0069
:10395000FFFF536F6D652070726F626C656D20653F
:103960006E636F756E74657265642C205A2D6C657C
:1039700076656C696E6720656E666F72636564203C
:103980002E2E2E00FFFF537461626C6520616D6204
:1039900069656E742074656D7065726174757265A9
:1039A0002032312D323643206973206E656564659F
:1039B000642061207269676964207374616E642099
:1039C00069732072657175697265642E00FFFF501E
:1039D0006C656173652072756E2058595A20636159
:1039E0006C6962726174696F6E2066697273742E9D
:1039F00000FFFF4D4B3353206669726D776172652E
:103A0000206465746563746564206F6E204D4B336C
:103A1000207072696E74657200FFFF534B454C4510
:103A200053545255444552204D4B3353204F4B2E47
:103A300000FFFF426C61636B6F7574206F63637589
:103A4000727265642E205265636F766572207072A3
:103A5000696E743F00FFFF53656C66746573742074
:103A600077696C6C2062652072756E20746F2063BC
:103A7000616C6962726174652061636375726174FF
:103A8000652073656E736F726C6573732072656801
:103A90006F6D696E672E00FFFF546865726520695F
:103AA00073207374696C6C2061206E65656420748A
:103AB0006F206D616B65205A2063616C6962726171
:103AC00074696F6E2E20506C6561736520666F6C33
:103AD0006C6F7720746865206D616E75616C2C2049
:103AE00063686170746572204669727374207374C0
:103AF0006570732C2073656374696F6E2043616C0D
:103B00006962726174696F6E20666C6F772E00FF58
:103B1000FF5072696E74657220686173206E6F74F5
:103B2000206265656E2063616C69627261746564B0
:103B3000207965742E20506C6561736520666F6C0A
:103B40006C6F7720746865206D616E75616C2C20D8
:103B5000636861707465722046697273742073744F
:103B60006570732C2073656374696F6E2043616C9C
:103B70006962726174696F6E20666C6F772E00FFE8
:103B8000FF4F6C642073657474696E677320666F91
:103B9000756E642E2044656661756C7420504944CE
:103BA0002C20457374657073206574632E207769CB
:103BB0006C6C206265207365742E00FFFF57617284
:103BC0006E696E673A20626F7468207072696E74F5
:103BD0006572207479706520616E64206D6F746801
:103BE0006572626F617264207479706520636861C8
:103BF0006E6765642E00FFFF5761726E696E673AEB
:103C0000207072696E7465722074797065206368C3
:103C1000616E6765642E00FFFF5761726E696E67A3
:103C20003A206D6F74686572626F61726420747996
:103C30007065206368616E6765642E00FFFF5859E8
:103C40005A2063616C6962726174696F6E20616C85
:103C50006C2072696768742E20536B6577207769D2
:103C60006C6C20626520636F72726563746564209A
:103C70006175746F6D61746963616C6C792E00FF9E
:103C8000FF58595A2063616C6962726174696F6E82
:103C900020616C6C2072696768742E20582F59203F
:103CA000617865732061726520736C696768746CF4
:103CB0007920736B657765642E20476F6F64206A87
:103CC0006F622100FFFF58595A2063616C6962726C
:103CD0006174696F6E206F6B2E20582F59206178A8
:103CE0006573206172652070657270656E646963CA
:103CF000756C61722E20436F6E67726174756C61B2
:103D000074696F6E732100FFFF58595A2063616C0C
:103D10006962726174696F6E20636F6D70726F6D2E
:103D2000697365642E2052696768742066726F6ECD
:103D3000742063616C6962726174696F6E20706F68
:103D4000696E74206E6F7420726561636861626C65
:103D5000652E00FFFF58595A2063616C69627261D9
:103D600074696F6E20636F6D70726F6D69736564D7
:103D70002E2046726F6E742063616C69627261748A
:103D8000696F6E20706F696E7473206E6F7420722D
:103D90006561636861626C652E00FFFF58595A20A7
:103DA00063616C6962726174696F6E206661696CCF
:103DB00065642E2052696768742066726F6E742085
:103DC00063616C6962726174696F6E20706F696E95
:103DD00074206E6F7420726561636861626C652E19
:103DE00000FFFF58595A2063616C696272617469FF
:103DF0006F6E206661696C65642E2046726F6E740A
:103E00002063616C6962726174696F6E20706F69A2
:103E10006E7473206E6F7420726561636861626C8A
:103E2000652E00FFFF58595A2063616C6962726108
:103E300074696F6E206661696C65642E20506C65D4
:103E400061736520636F6E73756C74207468652090
:103E50006D616E75616C2E00FFFF58595A206361C9
:103E60006C6962726174696F6E206661696C656409
:103E70002E204265642063616C6962726174696FAF
:103E80006E20706F696E7420776173206E6F74207E
:103E9000666F756E642E00FFFF506C656173652060
:103EA000706C61636520737465656C20736865650B
:103EB00074206F6E20686561746265642E00FFFF78
:103EC00044697374616E6365206265747765656EBD
:103ED00020746970206F6620746865206E6F7A7A2E
:103EE0006C6520616E64207468652062656420736F
:103EF00075726661636520686173206E6F742062FD
:103F000065656E20736574207965742E20506C652C
:103F100061736520666F6C6C6F7720746865206DC7
:103F2000616E75616C2C20636861707465722046E7
:103F3000697273742073746570732C207365637475
:103F4000696F6E204669727374206C6179657220A6
:103F500063616C6962726174696F6E2E00FFFF505D
:103F60006C6163652061207368656574206F6620ED
:103F7000706170657220756E64657220746865206A
:103F80006E6F7A7A6C6520647572696E67207468EA
:103F9000652063616C6962726174696F6E206F661F
:103FA000206669727374203420706F696E74732E8A
:103FB00020496620746865206E6F7A7A6C6520638C
:103FC00061746368657320746865207061706572E0
:103FD0002C20706F776572206F666620746865208C
:103FE0007072696E74657220696D6D656469617463
:103FF000656C792E00FFFF506C65617365207265FA
:104000006D6F766520737465656C20736865657483
:104010002066726F6D20686561746265642E00FFB2
:10402000FF497320737465656C207368656574203F
:104030006F6E20686561746265643F00FFFF206FEA
:1040400066203400FFFF536561726368696E672004
:104050006265642063616C6962726174696F6E206D
:10406000706F696E7400FFFF206F66203900FFFFDC
:104070004D6561737572696E6720726566657265FC
:104080006E636520686569676874206F6620636188
:104090006C6962726174696F6E20706F696E740012
:1040A000FFFF506C6561736520636C65616E207401
:1040B0006865206E6F7A7A6C6520666F7220636126
:1040C0006C6962726174696F6E2E20436C69636BF8
:1040D000207768656E20646F6E652E00FFFF417566
:1040E000746F20686F6D6500FFFF506C65617365CC
:1040F00020757064617465206669726D77617265A0
:1041000020696E20796F7572204D4D55322E2057E3
:10411000616974696E6720666F7220726573657479
:104120002E00FFFF4D4D55204F4B2E2052657375CD
:104130006D696E672E2E2E00FFFF4D4D55204F4BA3
:104140002E20526573756D696E6720706F73697488
:10415000696F6E2E2E2E00FFFF4D4D55204F4B2EBA
:1041600020526573756D696E672074656D70657238
:1041700061747572652E2E2E00FFFF4669782074DB
:10418000686520697373756520616E642074686565
:104190006E20707265737320627574746F6E206F19
:1041A0006E204D4D5520756E69742E00FFFF5072C4
:1041B00065737320746865206B6E6F6220746F2066
:1041C000726573756D65206E6F7A7A6C65207465A3
:1041D0006D70657261747572652E00FFFF4D4D55EF
:1041E000206E6565647320757365722061747465F3
:1041F0006E74696F6E2E00FFFF506C6561736520F1
:1042000072656D6F76652066696C616D656E742090
:10421000616E64207468656E2070726573732074BB
:104220006865206B6E6F622E00FFFF456A656374E0
:10423000696E672066696C616D656E7400FFFF4D85
:104240004D55206C6F6164206661696C6564202047
:1042500020202000FFFF205B6F66665D00FFFF42AD
:104260006564206C6576656C696E67206661696C53
:1042700065642E2053656E736F72206469646E747A
:1042800020747269676765722E2044656272697373
:10429000206F6E206E6F7A7A6C653F20576169746B
:1042A000696E6720666F722072657365742E00FFF9
:1042B000FF48656174696E672064697361626C654B
:1042C00064206279207361666574792074696D6514
:1042D000722E00FFFF5265636F766572696E67200C
:1042E0007072696E742020202000FFFF53544F50DD
:1042F0005045442E2000FFFF50494E444120486560
:104300006174696E6700FFFF54656D702E206361F4
:104310006C2E2020202020202020202000FFFF4382
:10432000616C6962726174696F6E20646F6E6500A2
:10433000FFFF43616C6962726174696E67205A00A5
:10434000FFFF42656420646F6E6500FFFF42656495
:104350002048656174696E6700FFFF486561746994
:104360006E6720646F6E652E00FFFF48656174699B
:104370006E6700FFFF46696C616D656E7420736542
:104380006E736F7200FFFF5072696E742066616E0B
:104390003A00FFFF45787472756465722066616E3D
:1043A0003A00FFFF43616C6962726174696E672055
:1043B000686F6D6500FFFF53656C667465737420EC
:1043C0006661696C6564202000FFFF416C6C2063AE
:1043D0006F727265637420202020202000FFFF434D
:1043E0006865636B696E672073656E736F727320A7
:1043F00000FFFF436865636B696E6720686F7465D3
:104400006E64202000FFFF436865636B696E672060
:10441000626564202020202000FFFF436865636BF5
:10442000696E67205A2061786973202000FFFF437E
:104430006865636B696E6720592061786973202015
:1044400000FFFF436865636B696E672058206178E1
:104450006973202000FFFF436865636B696E672006
:10446000656E6473746F707300FFFF4572726F72D4
:10447000202D20737461746963206D656D6F72798E
:1044800020686173206265656E206F766572777251
:10449000697474656E00FFFF436172642072656D1C
:1044A0006F76656400FFFF5072696E746572206EEE
:1044B0006F7A7A6C65206469616D657465722064D9
:1044C0006966666572732066726F6D207468652018
:1044D000472D636F64652E20506C656173652063A2
:1044E0006865636B207468652076616C756520690A
:1044F0006E2073657474696E67732E205072696ED6
:10450000742063616E63656C6C65642E00FFFF5000
:1045100072696E746572206E6F7A7A6C6520646958
:10452000616D657465722064696666657273206684
:10453000726F6D2074686520472D636F64652E204F
:10454000436F6E74696E75653F00FFFF46696E6963
:104550007368696E67206D6F76656D656E74730044
:10456000FFFF536F756E642020202020205B6C6F4E
:1045700075645D00FFFF536F756E64202020205B23
:104580006173736973745D00FFFF536F756E642010
:104590002020205B73696C656E745D00FFFF536FB4
:1045A000756E642020202020205B6F6E63655D00A7
:1045B000FFFF536F756E642020202020205B6C6FFE
:1045C00075645D00FFFF4D4D55204D6F64655B5375
:1045D0007465616C74685D00FFFF4D4D55204D6F33
:1045E0006465205B4E6F726D616C5D00FFFF43720E
:1045F000617368206465742E20205B4E2F415D003E
:10460000FFFF4372617368206465742E20205B6F26
:1046100066665D00FFFF4372617368206465742EF7
:104620002020205B6F6E5D00FFFF4D6F64652020D2
:1046300020205B537465616C74685D00FFFF4D6FF3
:10464000646520202020205B4E6F726D616C5D00E0
:10465000FFFF46616E7320636865636B20205B6FAC
:1046600066665D00FFFF46616E7320636865636B7D
:104670002020205B6F6E5D00FFFF46696C2E20736B
:10468000656E736F7220205B6F6E5D00FFFF466981
:104690006C2E2073656E736F72205B6F66665D00B3
:1046A000FFFF4368616E67652066696C616D656ECA
:1046B0007400FFFF466C6F7700FFFF537065656401
:1046C00000FFFF4D61676E65747320636F6D702E20
:1046D0005B4E2F415D00FFFF4D61676E6574732077
:1046E000636F6D702E5B4F66665D00FFFF4D616707
:1046F0006E65747320636F6D702E205B4F6E5D006E
:10470000FFFF5A2D70726F6265206E722E2020207E
:10471000205B335D00FFFF5A2D70726F6265206E63
:10472000722E202020205B355D00FFFF5A2D707215
:104730006F6265206E722E202020205B315D00FFAD
:10474000FF4D6573682020202020202020205B372B
:1047500078375D00FFFF4D65736820202020202002
:104760002020205B3378335D00FFFF46616E2073AD
:104770007065656400FFFF42656400FFFF4E6F7A5D
:104780007A6C6500FFFF53657474696E677300FF90
:10479000FF5072696E742061626F7274656400FF0D
:1047A000FF53746F70207072696E7400FFFF46696A
:1047B0006C6520696E636F6D706C6574652E204347
:1047C0006F6E74696E756520616E797761793F00EF
:1047D000FFFF5072696E742066726F6D2053440043
:1047E000FFFF4261636B00FFFF4D61696E00FFFFD9
:1047F00054656D702E2063616C6962726174696FBB
:104800006E00FFFF52657365742058595A2063612A
:104810006C6962722E00FFFF5049442063616C692D
:1048200062726174696F6E00FFFF426564206C659F
:1048300076656C20636F727265637400FFFF4D656F
:10484000736820426564204C6576656C696E67000C
:10485000FFFF43616C696272617465205A00FFFF5B
:1048600043616C6962726174652058595A00FFFF98
:1048700053656C66746573742020202020202020EE
:104880002000FFFF57697A61726400FFFF4C6F617F
:104890006420616C6C00FFFF456A65637420666983
:1048A0006C616D656E7400FFFF506C65617365200F
:1048B00070756C6C206F75742066696C616D656EC7
:1048C0007420696D6D6564696174656C7900FFFFC2
:1048D000556E6C6F6164696E672066696C616D65A9
:1048E0006E7400FFFF526573756D696E672070729C
:1048F000696E7400FFFF526573657400FFFF5265B7
:104900006E616D6500FFFF4669727374206C61799A
:1049100065722063616C2E00FFFF53656C656374E4
:1049200000FFFF537465656C2073686565747300E0
:10493000FFFF536865657400FFFF537570706F72F9
:104940007400FFFF4661696C207374617473204DBD
:104950004D5500FFFF4661696C20737461747300EC
:10496000FFFF53746174697374696373202000FFDF
:10497000FF43616C6962726174696F6E00FFFF4191
:1049800075746F4C6F61642066696C616D656E74DF
:1049900000FFFF456A6563742066696C616D656E32
:1049A0007400FFFF556E6C6F61642066696C616D09
:1049B000656E7400FFFF4C6F616420746F206E6F32
:1049C0007A7A6C6500FFFF4C6F61642066696C61E8
:1049D0006D656E7400FFFF4E6F205344206361725B
:1049E0006400FFFF526573756D65207072696E74A7
:1049F00000FFFF5061757365207072696E7400FF6F
:104A0000FF526573756D65207072696E7400FFFFEB
:104A10005072656865617400FFFF54756E6500FF34
:104A2000FF4C6976652061646A757374205A00FFD3
:104A3000FF496E666F2073637265656E00FFFF53FA
:104A40006F7274696E672066696C657300FFFF534F
:104A50006F6D652066696C65732077696C6C206E7C
:104A60006F7420626520736F727465642E204D61CF
:104A7000782E204E6F2E206F662066696C6573203D
:104A8000696E203120666F6C64657220666F7220DB
:104A9000736F7274696E67206973203130302E0035
:104AA000FFFF526573657400FFFF526561722073EA
:104AB000696465205B756D5D00FFFF46726F6E7403
:104AC00020736964655B756D5D00FFFF52696768FF
:104AD0007420736964655B756D5D00FFFF4C6566EE
:104AE000742073696465205B756D5D00FFFF53651D
:104AF000742074656D70657261747572653A00FF3B
:104B0000FF54656D70657261747572652063616CC8
:104B10006962726174696F6E206661696C656400B8
:104B2000FFFF54656D706572617475726520636115
:104B30006C6962726174696F6E2069732066696E58
:104B4000697368656420616E642061637469766569
:104B50002E2054656D702E2063616C6962726174E1
:104B6000696F6E2063616E206265206469736162A3
:104B70006C656420696E206D656E75205365747474
:104B8000696E67732D3E54656D702E2063616C2EC7
:104B900000FFFF4E2F4100FFFF20203000FFFF20CD
:104BA000203100FFFF49523A00FFFF46494E444181
:104BB0003A00FFFF50494E44413A00FFFF53656EF3
:104BC000736F7220737461746500FFFF50726568C3
:104BD000656174696E67206E6F7A7A6C652E2050FD
:104BE0006C6561736520776169742E00FFFF4C6FFF
:104BF0006164696E672066696C616D656E7400FF43
:104C0000FF506C6561736520696E73657274206610
:104C1000696C616D656E7420696E746F207468656F
:104C20002065787472756465722C207468656E20D6
:104C3000707265737320746865206B6E6F62207488
:104C40006F206C6F61642069742E00FFFF506C65EB
:104C500061736520696E736572742066696C616D3D
:104C6000656E7420696E746F207468652066697261
:104C700073742074756265206F6620746865204DBA
:104C80004D552C207468656E2070726573732074A6
:104C90006865206B6E6F6220746F206C6F6164209A
:104CA00069742E00FFFF546865207072696E746528
:104CB000722077696C6C20737461727420707269F1
:104CC0006E74696E672061207A69672D7A6167204A
:104CD0006C696E652E20526F74617465207468650E
:104CE000206B6E6F6220756E74696C20796F752011
:104CF000726561636820746865206F7074696D61A6
:104D00006C206865696768742E20436865636B2052
:104D100074686520706963747572657320696E20AC
:104D20007468652068616E64626F6F6B20284361F0
:104D30006C6962726174696F6E206368617074651A
:104D400072292E00FFFF53656C6563742074656DD6
:104D50007065726174757265207768696368206D2B
:104D600061746368657320796F7572206D61746515
:104D70007269616C2E00FFFF43686F6F736520617D
:104D80002066696C616D656E7420666F7220746850
:104D900065204669727374204C61796572204361A5
:104DA0006C6962726174696F6E20616E64207365F4
:104DB0006C65637420697420696E20746865206F67
:104DC0006E2D73637265656E206D656E752E00FFC6
:104DD000FF4E6F7720492077696C6C2063616C69A6
:104DE00062726174652064697374616E63652062C8
:104DF00065747765656E20746970206F66207468CD
:104E000065206E6F7A7A6C6520616E6420686561DA
:104E10007462656420737572666163652E00FFFFBE
:104E2000596F752063616E20616C776179732072B0
:104E30006573756D65207468652057697A61726461
:104E40002066726F6D2043616C6962726174696F74
:104E50006E202D3E2057697A6172642E00FFFF504C
:104E60006C6561736520636865636B206F75722084
:104E700068616E64626F6F6B20616E642066697832
:104E8000207468652070726F626C656D2E205468A6
:104E9000656E20726573756D65207468652057694D
:104EA0007A617264206279207265626F6F74696ED4
:104EB0006720746865207072696E7465722E00FFD9
:104EC000FF416C6C20697320646F6E652E20486111
:104ED000707079207072696E74696E672100FFFFCF
:104EE000496620796F752068617665206164646920
:104EF00074696F6E616C20737465656C207368658E
:104F00006574732C2063616C6962726174652074CE
:104F100068656972207072657365747320696E20AC
:104F200053657474696E6773202D2048572053654C
:104F3000747570202D20537465656C2073686565E9
:104F400074732E00FFFF506C6561736520636C65A0
:104F5000616E206865617462656420616E642074AE
:104F600068656E20707265737320746865206B6E5F
:104F70006F622E00FFFF446F20796F752077616E9E
:104F80007420746F20726570656174206C61737435
:104F9000207374657020746F20726561646A757324
:104FA000742064697374616E6365206265747765EB
:104FB000656E206E6F7A7A6C6520616E642068651C
:104FC00061746265643F00FFFF53656C6563742024
:104FD0006E6F7A7A6C652070726568656174207492
:104FE000656D706572617475726520776869636854
:104FF000206D61746368657320796F7572206D61CF
:1050000074657269616C2E00FFFF49732066696CDC
:10501000616D656E74206C6F616465643F00FFFFB5
:1050200049732066696C616D656E74206C6F616494
:1050300065643F00FFFF4E6F7720492077696C6CF5
:105040002070726568656174206E6F7A7A6C652075
:10505000666F7220504C412E00FFFF492077696C2B
:105060006C2072756E207A2063616C696272617463
:10507000696F6E206E6F772E00FFFF4E6F77207284
:10508000656D6F7665207468652074657374207033
:1050900072696E742066726F6D20737465656C2022
:1050A00073686565742E00FFFF506C656173652041
:1050B00072656D6F7665207368697070696E6720C0
:1050C00068656C706572732066697273742E00FF78
:1050D000FF492077696C6C2072756E2078797A2090
:1050E00063616C6962726174696F6E206E6F772E96
:1050F0002049742077696C6C2074616B6520617045
:1051000070726F782E203132206D696E732E00FF21
:10511000FF46697273742C20492077696C6C207289
:10512000756E207468652073656C66746573742091
:10513000746F20636865636B206D6F737420636F99
:105140006D6D6F6E20617373656D626C7920707226
:105150006F626C656D732E00FFFF48692C2049203B
:10516000616D20796F7572204F726967696E616C2D
:10517000205072757361206933207072696E746596
:10518000722E20576F756C6420796F75206C696B77
:1051900065206D6520746F20677569646520796F7F
:1051A00075207468726F7567682074686520736510
:1051B0007475702070726F636573733F00FFFF45F5
:1051C0002D636F72726563743A00FFFF5A2D636F2F
:1051D00072726563743A00FFFF592D636F727265D6
:1051E00063743A00FFFF582D636F72726563743AFF
:1051F00000FFFF53706F6F6C4A6F696E2020205B59
:105200004E2F415D00FFFF53706F6F6C4A6F696EE8
:105210002020205B6F66665D00FFFF53706F6F6C30
:105220004A6F696E202020205B6F6E5D00FFFF4695
:1052300069726D776172652020205B6E6F6E655DAF
:1052400000FFFF4669726D77617265205B7374724F
:105250006963745D00FFFF4669726D776172652056
:1052600020205B7761726E5D00FFFF4669726D778B
:105270006172652020205B6E6F6E655D00FFFF4DE3
:105280006F64656C2020202020205B6E6F6E655D52
:1052900000FFFF4D6F64656C202020205B737472EB
:1052A0006963745D00FFFF4D6F64656C20202020F2
:1052B00020205B7761726E5D00FFFF4D6F64656C4F
:1052C0002020202020205B6E6F6E655D00FFFF4E6A
:1052D0006F7A7A6C6520202020205B6E6F6E655D92
:1052E00000FFFF4E6F7A7A6C652020205B7374722A
:1052F0006963745D00FFFF4E6F7A7A6C6520202031
:1053000020205B7761726E5D00FFFF4E6F7A7A6CD2
:105310006520202020205B6E6F6E655D00FFFF48DA
:105320005720536574757000FFFF4857205365740C
:10533000757000FFFF436865636B7300FFFF4E6F7E
:105340007A7A6C6520642E20205B302E34305D002C
:10535000FFFF4E6F7A7A6C6520642E20205B302E22
:1053600036305D00FFFF4E6F7A7A6C6520642E2028
:10537000205B302E34305D00FFFF4E6F7A7A6C6513
:1053800020642E20205B302E32355D00FFFF5374E9
:1053900065656C2073686565747300FFFF536F75F6
:1053A0006E642020202020205B6C6F75645D00FF00
:1053B000FF536F756E64202020205B6173736973E7
:1053C000745D00FFFF536F756E64202020205B73B7
:1053D000696C656E745D00FFFF536F756E6420200D
:1053E000202020205B6F6E63655D00FFFF536F75AB
:1053F0006E642020202020205B6C6F75645D00FFB0
:10540000FF536F7274202020202020205B6E6F6E6F
:10541000655D00FFFF536F72742020205B616C702C
:1054200068616265745D00FFFF536F727420202015
:10543000202020205B74696D655D00FFFF534420D0
:105440006361726420205B6E6F726D616C5D00FF42
:10545000FF53442063617264205B666C736841692A
:10546000725D00FFFF53656C656374206C616E674D
:105470007561676500FFFF52506920706F7274207C
:10548000202020205B6F6E5D00FFFF52506920706E
:105490006F7274202020205B6F66665D00FFFF54F2
:1054A000656D702E2063616C2E2020205B6F6E5D19
:1054B00000FFFF54656D702E2063616C2E20205B11
:1054C0006F66665D00FFFF4C696E2E20636F72721F
:1054D000656374696F6E00FFFF4D657368206265D8
:1054E00064206C6576656C696E6700FFFF4D4D55F5
:1054F000204D6F64655B537465616C74685D00FF7B
:10550000FF4D4D55204D6F6465205B4E6F726D6190
:105510006C5D00FFFF485720536574757000FFFFF6
:1055200046616E7320636865636B20205B6F6666FF
:105530005D00FFFF46616E7320636865636B20202A
:10554000205B6F6E5D00FFFF462E206175746F6CEF
:105550006F6164205B6F66665D00FFFF462E206111
:1055600075746F6C6F616420205B6F6E5D00FFFF70
:10557000462E206175746F6C6F6164205B4E2F4105
:105580005D00FFFF44697361626C65207374657030
:105590007065727300FFFF4D6F76652061786973E7
:1055A00000FFFF54656D706572617475726500FF70
:1055B000FF57616974696E6720666F72206E6F7A3B
:1055C0007A6C6520616E642062656420636F6F6C25
:1055D000696E6700FFFF53656C6620746573742005
:1055E0004F4B00FFFF53656C662074657374207326
:1055F00074617274202000FFFF46616C7365207433
:10560000726967676572696E6700FFFF5377617043
:1056100070656400FFFF46726F6E742F6C65667470
:105620002066616E7300FFFF4178697300FFFF41E0
:10563000786973206C656E67746800FFFF4C6F6F4C
:1056400073652070756C6C657900FFFF456E64733F
:10565000746F70206E6F742068697400FFFF456E70
:105660006473746F7000FFFF4D6F746F7200FFFF03
:10567000456E6473746F707300FFFF576972696ED3
:1056800067206572726F7200FFFF426564202F20F1
:1056900048656174657200FFFF4E6F7420636F6E22
:1056A0006E656374656400FFFF4865617465722F01
:1056B000546865726D6973746F7200FFFF506C659A
:1056C00061736520636865636B203A00FFFF536573
:1056D0006C6674657374206572726F72202100FFAE
:1056E000FF746F20756E6C6F61642066696C616D0C
:1056F000656E7400FFFF746F206C6F6164206669D3
:105700006C616D656E7400FFFF5072657373207479
:105710006865206B6E6F6200FFFF3E43616E6365DC
:105720006C00FFFF50726568656174696E67207474
:105730006F2063757400FFFF50726568656174695E
:105740006E6720746F20656A65637400FFFF507296
:105750006568656174696E6720746F20756E6C6F23
:10576000616400FFFF50726568656174696E67204F
:10577000746F206C6F616400FFFF436F6F6C646F28
:10578000776E00FFFF50726568656174207468650C
:10579000206E6F7A7A6C652100FFFF4552524F529E
:1057A0003A00FFFF46696C616D656E742065787420
:1057B000727564696E672026207769746820636F4C
:1057C000727265637420636F6C6F723F00FFFF41FC
:1057D00075746F6C6F6164696E672066696C616D6A
:1057E000656E74206973206163746976652C206A24
:1057F00075737420707265737320746865206B6EA6
:105800006F6220616E6420696E73657274206669D0
:105810006C616D656E742E2E2E00FFFF546F7461E7
:105820006C2066696C616D656E7400FFFF546F7467
:10583000616C207072696E742074696D6500FFFF81
:1058400046696C616D656E74207573656400FFFF59
:105850005072696E742074696D6500FFFF59206491
:10586000697374616E63652066726F6D206D696E19
:1058700000FFFF4C65667400FFFF526967687400A3
:10588000FFFF4D6561737572656420736B6577000A
:10589000FFFF536C6967687420736B65773A00FF8C
:1058A000FF53657665726520736B65773A00FFFF7D
:1058B0005B303B305D20706F696E74206F6666737D
:1058C000657400FFFF41646A757374696E67205ADE
:1058D0003A00FFFF457874727564657200FFFF4DF2
:1058E0006F7665205A00FFFF4D6F7665205900FFE7
:1058F000FF4D6F7665205800FFFF4372617368208B
:10590000646574656374696F6E2063616E0A6265B5
:10591000207475726E6564206F6E206F6E6C7920D6
:10592000696E0A4E6F726D616C206D6F646500FF69
:10593000FF5741524E494E473A0A437261736820FD
:10594000646574656374696F6E0A64697361626C1F
:10595000656420696E0A537465616C7468206D6FAC
:10596000646500FFFF4175746F6C6F6164696E67F9
:105970002066696C616D656E7420617661696C6129
:10598000626C65206F6E6C79207768656E20666941
:105990006C616D656E742073656E736F72206973D0
:1059A000207475726E6564206F6E2E2E2E00FFFFC0
:1059B0004552524F523A2046696C616D656E7420B3
:1059C00073656E736F72206973206E6F74207265D9
:1059D00073706F6E64696E672C20706C656173659F
:1059E00020636865636B20636F6E6E656374696FB7
:1059F0006E2E00FFFF4D6F6465206368616E676502
:105A000020696E2070726F6772657373202E2E2E60
:105A100000FFFF436F70792073656C656374656484
:105A2000206C616E67756167653F00FFFF43616CC5
:105A300069627261746500FFFF5B252E37735D4CF0
:105A40006976652061646A2E205A0A76616C7565F4
:105A5000207365742C20636F6E74696E75650A6FB0
:105A6000722073746172742066726F6D207A657231
:105A70006F3F0A2563436F6E74696E7565256352C7
:105A80006573657400FFFF506C65617365206C6F12
:105A900061642066696C616D656E742066697273FD
:105AA000742E00FFFF49732066696C616D656E742A
:105AB000206C6F616465643F00FFFF53656C656334
:105AC000742066696C616D656E743A00FFFF46690B
:105AD0006C616D656E7400FFFF43616E63656C0001
:105AE000FFFF52756E6E696E672057697A61726446
:105AF0002077696C6C2064656C65746520637572D1
:105B000072656E742063616C6962726174696F6E34
:105B100020726573756C747320616E642073746198
:105B200072742066726F6D207468652062656769A3
:105B30006E6E696E672E20436F6E74696E75653F79
:105B400000FFFF4D313137204669727374206C615C
:105B50007965722063616C2E00FFFF437572726578
:105B60006E7400FFFF5573656420647572696E671B
:105B7000207072696E7400FFFF5049442063616CAD
:105B80002E2066696E697368656400FFFF504944A2
:105B90002063616C2E202020202020202020202027
:105BA00000FFFF506C65617365207761697400FFC9
:105BB000FF5072696E742070617573656400FFFF39
:105BC0005072696E742046414E00FFFF4E6F7A7A24
:105BD0006C652046414E00FFFF546F74616C00FFFE
:105BE000FF4C617374207072696E7400FFFF4C612A
:105BF0007374207072696E74206661696C75726569
:105C00007300FFFF4D4D55206661696C7300FFFF07
:105C10004D4D55206C6F6164206661696C7300FFA7
:105C2000FF546F74616C206661696C7572657300F6
:105C3000FFFF4D4D55206661696C7300FFFF4D4DB0
:105C400055206C6F6164206661696C7300FFFF4DC5
:105C50004D5520706F776572206661696C7300FF27
:105C6000FF546F74616C206661696C7572657300B6
:105C7000FFFF506F776572206661696C757265739E
:105C800000FFFF46696C616D2E2072756E6F757432
:105C90007300FFFF437261736800FFFF4C61737410
:105CA000207072696E74206661696C75726573002C
:105CB000FFFF506F776572206661696C757265735E
:105CC00000FFFF46696C616D2E2072756E6F7574F2
:105CD0007300FFFF437261736800FFFF546F7461CC
:105CE0006C00FFFF4C617374207072696E7400FF6A
:105CF000FF50494E444100FFFF416D6269656E747B
:105D000000FFFF42656C742073746174757300FF4B
:105D1000FF566F6C746167657300FFFF54656D70AB
:105D2000657261747572657300FFFF42656C742063
:105D300073746174757300FFFF53656E736F722027
:105D4000696E666F00FFFF45787472756465722036
:105D5000696E666F00FFFF58595A2063616C2E20F0
:105D600064657461696C7300FFFF756E6B6E6F77AD
:105D70006E00FFFF4D4D553220636F6E6E6563748C
:105D8000656400FFFF446174653A00FFFF686F7748
:105D9000746F2E707275736133642E636F6D00FFC4
:105DA000FF666F72756D2E707275736133642E634A
:105DB0006F6D00FFFF707275736133642E636F6DDA
:105DC00000FFFF59657300FFFF4E6F00FFFF4E6F2E
:105DD00074207370696E6E696E6700FFFF5370699F
:105DE0006E6E696E6700FFFF4C65667420686F74A5
:105DF000656E642066616E3F00FFFF46726F6E74D1
:105E0000207072696E742066616E3F00FFFF46610C
:105E10006E20746573740025642062797465732044
:105E20007772697474656E20746F20454550524FC7
:105E30004D2061742061646472657373203078252D
:105E4000303478004433202D20526561642F57721E
:105E500069746520454550524F4D0A0020436F75C7
:105E60006E7420583A20005344207072696E746931
:105E70006E67206279746520004E6F7420696E2011
:105E80006661726D206D6F64652E00416374697682
:105E9000652045787472756465723A2000496E76A3
:105EA000616C6964206578747275646572005A204B
:105EB0004F666673657400556E6B6E6F776E206308
:105EC0006F6D6D616E643A2022004D323030204992
:105ED0006E76616C69642065787472756465722091
:105EE000007A5F6D61783A20007A5F6D696E3A20C2
:105EF00000795F6D61783A2000795F6D696E3A20B4
:105F000000785F6D61783A20006F70656E005452C2
:105F10004947474552454400785F6D696E3A200015
:105F20005265706F7274696E6720656E6473746F0A
:105F30007020737461747573000053494C454E545E
:105F4000004E4F524D414C002553204D4F44453A91
:105F50002050657263656E7420646F6E653A20250B
:105F6000643B207072696E742074696D652072657F
:105F70006D61696E696E6720696E206D696E733A36
:105F80002025640A00456E642066696C65206C6992
:105F9000737400426567696E2066696C65206C6980
:105FA0007374000A50494E44412074656D706572E7
:105FB00061747572653A20252E3166205A20736807
:105FC00069667420286D6D293A20252E3366000AF3
:105FD000537465703A2025642F360A000A5374659D
:105FE000703A2025642F362028736B6970706564C1
:105FF000290A50494E44412074656D706572617480
:106000007572653A202564205A2073686966742089
:10601000286D6D293A300A000A5A45524F3A202518
:106020002E33660A0073746172742074656D706536
:106030007261747572653A20252E31660A002564F6
:106040002020252E326600255320583A20252E3553
:106050006620593A20252E3566205A3A20252E35BD
:10606000660A00536C6565702E2E2E004E6F7420EC
:10607000696E206661726D206D6F64652E00256407
:106080000045303A25642052504D0A50524E303A65
:1060900025642052504D0A002564004578746572CD
:1060A0006E616C2053504920666C6173680A5732E8
:1060B00035583230434C206973206E6F74207265FE
:1060C000732D0A706F6E64696E672E204C616E6767
:1060D000756167650A73776974636820756E6176A8
:1060E00061696C61626C652E00437261736844651E
:1060F000746563742044495341424C4544004372E3
:1061000061736844657465637420454E41424C4533
:10611000442100573235583230434C206E6F742082
:10612000726573706F6E64696E672E0A002020506E
:106130006C616E6E657242756666657242797465F1
:10614000733A20002046726565204D656D6F727947
:106150003A2000207C20417574686F723A2000203C
:106160004C61737420557064617465643A2000203A
:10617000536F667477617265205265736574002091
:106180005761746368646F6720526573657400209B
:1061900042726F776E206F7574205265736574005C
:1061A0002045787465726E616C2052657365740069
:1061B000506F7765725570006572726F72207772DA
:1061C0006974696E6720746F2066696C6500656E1E
:1061D0006473746F7073206869743A2000446F6E42
:1061E0006520736176696E672066696C652E006F45
:1061F0006B0025632533642F2564256300004B491C
:106200004C4C45442E20005072696E7465722068B3
:10621000616C7465642E206B696C6C282920636145
:106220006C6C656421004B494C4C3A2025640A0093
:106230004D32323120496E76616C69642065787424
:10624000727564657220004D32313820496E766176
:106250006C696420657874727564657220004D31D4
:10626000303920496E76616C696420657874727586
:1062700064657220004D31303520496E76616C695D
:106280006420657874727564657220004D31303415
:1062900020496E76616C69642065787472756465F6
:1062A00072200055564C4F202D20656E64202564C9
:1062B0000A007374707325640A00776F726C64202F
:1062C000636F6F7264696E617465733A2028252E5E
:1062D00033662C20252E33662C20252E3366290A82
:1062E00000706879736963616C20636F6F726469B1
:1062F0006E617465733A2028252E33662C20252E76
:1063000033662C20252E3366290A00437572726588
:106310006E7420706F73205A5F415849533A252E8E
:1063200033660A43757272656E7420706F73204510
:106330005F415849533A252E33660A004166746519
:10634000722077616974696E6720666F7220746568
:106350006D703A0A43757272656E7420706F7320A7
:10636000585F415849533A252E33660A4375727275
:10637000656E7420706F7320595F415849533A25F8
:106380002E33660A00656E717565696E672022009E
:10639000446F6E65207072696E74696E67206669FD
:1063A0006C65005072696E7465722073746F7070E2
:1063B00065642064756520746F206572726F7273F6
:1063C0002E2046697820746865206572726F72208D
:1063D000616E6420757365204D39393920746F20E2
:1063E000726573746172742E202854656D706572C5
:1063F00061747572652069732072657365742E20EF
:1064000053657420697420616674657220726573C7
:1064100074617274696E6729004E6F204C696E65F5
:10642000204E756D626572207769746820636865B7
:10643000636B73756D2C204C617374204C696E65B1
:106440003A20004E6F20436865636B73756D20774B
:10645000697468206C696E65206E756D6265722C5A
:10646000204C617374204C696E653A200063686546
:10647000636B73756D206D69736D617463682C2037
:106480004C617374204C696E653A20004C696E65EE
:10649000204E756D626572206973206E6F74204C9A
:1064A000617374204C696E65204E756D6265722B48
:1064B000312C204C617374204C696E653A20005475
:1064C0004D4320445249564552204F56455254455B
:1064D0004D500025632533642F25642563005A251C
:1064E000362E326620005A2020202D2D2D2000250A
:1064F000632533642525002D2D2D00253368686420
:1065000000253353253373252500555342002020A1
:106510002000205344002025753E257500203F3E75
:10652000257500204625750020463F002046302076
:10653000200025632D2D3A2D2D20200025632533A5
:1065400075682025632563002563253032753A255B
:1065500030327525632563002F2F20616374696FC6
:106560006E3A63616E63656C004572723A205052F8
:10657000494E542046414E204552524F52004572DA
:10658000723A20455854522E2046414E20455252D0
:106590004F52002F2F20616374696F6E3A726573DA
:1065A000756D65640043616E6E6F7420656E746511
:1065B00072207375626469723A20005344206361EB
:1065C0007264206F6B006F70656E526F6F7420661F
:1065D00061696C656400766F6C756D652E696E69B6
:1065E00074206661696C656400534420696E697447
:1065F000206661696C0057726974696E6720746FF8
:106600002066696C653A200046696C652073656C8C
:106610006563746564002053697A653A20004669B1
:106620006C65206F70656E65643A20006F70656EF2
:10663000206661696C65642C2046696C653A2000AF
:1066400057697A61726420656E6420737461746541
:106650003A2025640A0041786973206C656E67747E
:106660006820646966666572656E63653A252E33D7
:10667000660A004D6561737572656420617869739F
:10668000206C656E6774683A252E33660A002553C0
:106690003A0A2531372E32666D20200A25533A0AF0
:1066A00025376C6464203A253268686468203A258E
:1066B00030326868646D0025533A0A2531372E322E
:1066C000666D20200A25533A0A2532646820253059
:1066D00032646D2025303264730025362E32666DAB
:1066E0006D004E2F410025533A0A25530A25533A8F
:1066F0000A25533A004E2F410025332E3266010001
:1067000025533A0A25530A252D31352E3135532587
:10671000332E3266010A252D31352E31355325337E
:106720002E326601003F3F00506F6C736B69004969
:1067300074616C69616E6F004672616E636169734A
:1067400000457370616E6F6C0044657574736368A7
:106750000043657374696E6100456E676C697368A8
:106760000020746F6F206C6F6E672065787472758F
:1067700073696F6E2070726576656E746564002053
:10678000636F6C6420657874727573696F6E2070C6
:10679000726576656E746564002F2F20616374697D
:1067A0006F6E3A70617573656400257320253464DB
:1067B0002052504D0A2573202534642052504D0A32
:1067C00000526573656E640025533A20256C640A97
:1067D00025530A006E616E00696E66004E414E4997
:1067E0004E495459494E46CDCCCC3D0AD7233C178F
:1067F000B7D13877CC2B329595E6241FB14F0A00DC
:106800000020410000C84200401C4620BCBE4CCACB
:106810001B0E5AAEC59D7400407A10F35A00A07248
:106820004E18090010A5D4E80000E87648170000CB
:10683000E40B54020000CA9A3B000000E1F5050099
:106840000080969800000040420F000000A08601E2
:10685000000000102700000000E8030000000064B2
:1068600000000000000A000000000001000000001D
:10687000002C76D888DC674F0823DFC1DFAE59E1F2
:10688000B1B796E5E3E453C63AE651997696E8E661
:10689000C28426EB898C9B62ED407C6FFCEFBC9C34
:1068A0009F40F2BAA56FA5F490055A2AF75C936B46
:1068B0006CF9676DC11BFCE0E40D47FEF520E6B501
:1068C00000D0ED902E0300943577050080841E08DB
:1068D0000000204E0A000000C80C333333330F98F9
:1068E0006E12831141EF8D2114893BE65516CFFEC0
:1068F000E6DB18D1844B381BF77C1D901DA4BBE44C
:1069000024203284725E228100C9F124ECA1E53D8D
:10691000276364696E6F70737578585B00442D311E
:10692000202D20456E646C657373206C6F6F700A48
:10693000004175746F0020452F443D00416476612D
:106940006E6365204B3D004D323230205325690087
:10695000255346696C616D656E7420736574746946
:106960006E67733A2044697361626C65640A00253E
:106970005346696C616D656E742073657474696EDD
:1069800067733A0A25532020204D323030204425A9
:106990002E32660A002553526574726163743A2080
:1069A000533D4C656E67746820286D6D2920463A0A
:1069B000537065656420286D6D2F6D29205A3A202B
:1069C0005A4C69667420286D6D290A2553202020B1
:1069D0004D3230372053252E32662046252E326622
:1069E000205A252E32660A25535265636F766572EA
:1069F0003A20533D4578747261206C656E67746807
:106A000020286D6D2920463A537065656420286DF5
:106A10006D2F6D290A25532020204D323038205308
:106A2000252E32662046252E32660A25534175747E
:106A30006F2D526574726163743A20533D30207437
:106A40006F2064697361626C652C203120746F2043
:106A5000696E74657270726574206578747275649D
:106A6000652D6F6E6C79206D6F7665732061732074
:106A70007265747261637473206F72207265636FE4
:106A80007665726965730A25532020204D323039AE
:106A9000205325640A0025535049442068656174D9
:106AA0006265642073657474696E67733A0A25536E
:106AB0002020204D3330342050252E3266204925A9
:106AC0002E32662044252E32660A00255350494452
:106AD0002073657474696E67733A0A255320202009
:106AE0004D3330312050252E32662049252E326616
:106AF0002044252E32660A00255353746570732096
:106B000070657220756E69743A0A255320204D39DC
:106B1000322058252E32662059252E3266205A25DD
:106B20002E32662045252E32660A2553555374654C
:106B300070207265736F6C7574696F6E3A200A25E8
:106B400053204D3335302058256420592564205A70
:106B50002564204525640A25534D6178696D756D5E
:106B600020666565647261746573202D206E6F7296
:106B70006D616C20286D6D2F73293A0A25532020F2
:106B80004D3230332058252E32662059252E32665C
:106B9000205A252E32662045252E32660A25534D71
:106BA0006178696D756D2066656564726174657381
:106BB000202D20737465616C746820286D6D2F73AF
:106BC000293A0A255320204D3230332058252E32C1
:106BD000662059252E3266205A252E3266204525FC
:106BE0002E32660A25534D6178696D756D2061639B
:106BF00063656C65726174696F6E202D206E6F72B3
:106C00006D616C20286D6D2F7332293A0A2553204F
:106C1000204D3230312058256C752059256C752057
:106C20005A256C752045256C750A25534D61786988
:106C30006D756D20616363656C65726174696F6EFB
:106C4000202D20737465616C746820286D6D2F731E
:106C500032293A0A255320204D3230312058256CF4
:106C6000752059256C75205A256C752045256C7545
:106C70000A2553416363656C65726174696F6E3A8E
:106C800020533D616363656C65726174696F6E2C3E
:106C900020543D7265747261637420616363656C36
:106CA00065726174696F6E0A255320204D3230344D
:106CB0002053252E32662054252E32660A25534154
:106CC0006476616E636564207661726961626C6589
:106CD000733A20533D4D696E206665656472617438
:106CE0006520286D6D2F73292C20543D4D696E2031
:106CF00074726176656C2066656564726174652086
:106D0000286D6D2F73292C20423D6D696E696D755C
:106D10006D207365676D656E742074696D652028DC
:106D20006D73292C20583D6D6178696D756D205803
:106D300059206A65726B20286D6D2F73292C2020D5
:106D40005A3D6D6178696D756D205A206A65726B68
:106D500020286D6D2F73292C2020453D6D617869A9
:106D60006D756D2045206A65726B20286D6D2F73DF
:106D7000290A255320204D3230352053252E3266E6
:106D80002054252E32662042252E32662058252E8C
:106D900032662059252E3266205A252E326620452D
:106DA000252E32660A2553486F6D65206F6666731F
:106DB000657420286D6D293A0A255320204D323004
:106DC000362058252E32662059252E3266205A2527
:106DD0002E32660A004625642025640A004D4D5572
:106DE000203C3D2027462564202564270A00504981
:106DF00044204175746F74756E652066696E6973A1
:106E0000686564212050757420746865206C617316
:106E100074204B702C204B6920616E64204B6420E1
:106E2000636F6E7374616E74732066726F6D206130
:106E3000626F766520696E746F20436F6E66696756
:106E400075726174696F6E2E6800504944204175F7
:106E5000746F74756E65206661696C656421207459
:106E6000696D656F75740020403A00543A00423AEB
:106E700000504944204175746F74756E65206661D9
:106E8000696C6564212054656D70657261747572FA
:106E90006520746F6F206869676800204B643A2032
:106EA00000204B693A2000204B703A200020436CB0
:106EB00061737369632050494420002054753A205F
:106EC00000204B753A2000206D61783A2000206D3B
:106ED000696E3A200020643A200020626961733AAA
:106EE000200020453A00205A3A0020593A00204517
:106EF0003A00205A3A0020593A00583A00005A30D5
:106F0000005A3100593000593100583000583100D2
:106F1000456E642073746F70732064696167002E1E
:106F20000044656C6574696F6E206661696C6564A8
:106F30002C2046696C653A200046696C65206465C2
:106F40006C657465643A000A002F000A004E6F7485
:106F5000205344207072696E74696E6700507269C4
:106F60006E74207361766564005344207072696E9C
:106F70007420706175736564006673656E736F72FB
:106F80005F726573746F72655F7072696E745F6152
:106F90006E645F636F6E74696E75650A004F4B00B7
:106FA0004241440052414D426F2046414E20004331
:106FB000524153485F43414E43454C004352415375
:106FC000485F5245434F5645520043524153485F34
:106FD0005245434F5645520022283229005400445E
:106FE00075706C696361746520542D636F646520EE
:106FF00069676E6F7265642E0A004475706C696310
:1070000061746520542D636F64652069676E6F72CB
:1070100065642E0A00496E76616C696420542063B1
:107020006F64652E00556E6B6E6F776E204D20631A
:107030006F64653A202573200A006E6F2076616CBC
:10704000696420636F6D6D616E64002C20002C20DC
:10705000002C20006E2F61002C20002C20002C2002
:10706000006E2F61002F00503A005761697420664E
:107070006F722050494E44412074617267657420DC
:1070800074656D70657261747572653A004C414E3D
:10709000472053454C20464F524345440022283157
:1070A000290030303030303030302D303030302D1D
:1070B000303030302D303030302D303030303030D6
:1070C0003030303030300020555549443A003100DE
:1070D0002045585452554445525F434F554E543AFB
:1070E00000534B454C4553545255444552204D4B4B
:1070F000335300204D414348494E455F5459504554
:107100003A00312E3000206261736564206F6E207A
:107110004D61726C696E204649524D574152455F30
:1071200055524C3A68747470733A2F2F67697468BB
:1071300075622E636F6D2F707275736133642F509B
:10714000727573612D4669726D7761726520505258
:107150004F544F434F4C5F56455253494F4E3A00A0
:107160004649524D574152455F4E414D453A507246
:107170007573612D4669726D7761726520004D31BE
:10718000313320530020423A0020453A00543A005F
:1071900020413A0020503A002042403A0020403A34
:1071A00000202F003A00205400202F0020423A00F7
:1071B000202F006F6B20543A002569206D696E2CDA
:1071C0002025692073656300496E76616C696420CF
:1071D0004D20636F64653A202573200A00556E6B5D
:1071E0006E6F776E204720636F64653A20257320A9
:1071F0000A004D65736820626564206C6576656C75
:10720000696E67206E6F74206163746976652E0005
:107210000A002020000A4D65617375726564207054
:107220006F696E74733A000A5A20736561726368FD
:10723000206865696768743A20002C004E756D20DF
:10724000582C593A2000206D6963726F6E730045A7
:10725000786365737369766520626564206C657612
:10726000656C696E6720636F7272656374696F6EB7
:107270003A2000426564206C6576656C696E672013
:107280006661696C65642E2053656E736F7220743D
:10729000726967676572656420746F6F20686967DB
:1072A000682E0A00426564206C6576656C696E67BD
:1072B000206661696C65642E2053656E736F722061
:1072C000646973636F6E6E6563746564206F7220AA
:1072D0006361626C652062726F6B656E2E0A004797
:1072E00032382057300050494E44412070726F624E
:1072F000652063616C6962726174696F6E2073747A
:1073000061727400473238205730004D32340053D8
:1073100045545F43484F505F005345545F535445B5
:10732000505F005345545F574156455F00544D43ED
:107330005F0043524153485F0073746172740A00E6
:107340004C616E6775616765207570646174652E48
:10735000006164635F696E69740A000A204F726994
:1073600067696E616C2050727573612069330A2001
:107370002020507275736120526573656172636875
:1073800000436F6E74696E7565207769746820615B
:107390006E6F7468657220626F7764656E3F00255A
:1073A0000020202020202000202020202020004518
:1073B000524153494E4720616C6C206461746100F6
:1073C000466163746F72792052455345540046619B
:1073D00063746F72792052455345540044495341B8
:1073E000424C45440A00454E41424C4544004653F8
:1073F000656E736F722025530A004D4B33534D4D0C
:10740000553253004E4F4D4B3353002E014D617991
:10741000202031203230323000436F6D70696C654E
:10742000643A2000286E6F6E652C20646566617575
:107430006C7420636F6E66696729004D6179202046
:107440003120323032302030313A32393A3538005A
:1074500020332E382E312D323836390A002055701F
:107460006C6F616420696E2070726F6772657373F0
:1074700000205A3A0020593A0020583A004352411D
:1074800053485F444554454354454458590043527A
:107490004153485F44455445435445445900435281
:1074A0004153485F444554454354454458004D3288
:1074B000390078797A63616C5F6D65617373757299
:1074C000655F656E7465720A0078797A63616C5FD6
:1074D00073706972616C382063783D25642063792C
:1074E0003D2564207A303D256420647A3D25642062
:1074F0007261646975733D25642061643D25640A89
:107500000078797A63616C5F7365617263685A2091
:107510006E6F207369676E616C0A20783D256C641C
:1075200020793D256C64207A3D256C640A00204F4B
:107530004E2D5349474E414C20617420783D2564BF
:1075400020793D2564207A3D25642061643D2564D1
:107550000A0078797A63616C5F7365617263685A57
:1075600020783D256C6420793D256C64207A3D258A
:107570006C640A000A00253032780078797A6361F9
:107580006C5F7363616E5F706978656C735F3332D3
:107590007833322063783D25642063793D2564206B
:1075A0006D696E5F7A3D2564206D61785F7A3D2557
:1075B000640A00202532642025640A000A00253070
:1075C000327800206D696E3D2564206D61783D251F
:1075D00064206469663D25640A006D61785F633DDF
:1075E000253264206D61785F6C3D25640A006D6111
:1075F000785F633D2564206D61785F723D2564206E
:107600006D61785F6D617463683D25640A00207860
:107610003D256420793D2564207A3D25640A0020BB
:107620007061747465726E20666F756E642061742B
:107630002025642025640A000000F000F801FC0306
:10764000FE07FE07FE07FE07FC03F801F00000003E
:1076500073697A656F6628746F74616C293D25645F
:107660000A0073697A656F6628626C6F636B5F628C
:107670007566666572293D25640A0078797A6361CA
:107680006C5F6D656173737572655F6C656176655E
:107690000A00706F696E743D256420783D25642072
:1076A000793D2564207A3D25640A00580258025825
:1076B0004D584DB004F055F055B00478797A6361B7
:1076C0006C5F66696E645F6265645F696E64756352
:1076D00074696F6E5F73656E736F725F706F696EE2
:1076E000745F787920783D256C6420793D256C6441
:1076F000207A3D256C640A00203C20005741524E00
:10770000494E473A2046726F6E7420706F696E74EE
:10771000206E6F7420726561636861626C652E20F3
:107720005920636F6F7264696E6174653A0000007E
:107730000040410000C04000005C430000C0400029
:10774000005C4300004643000040410000464349BE
:107750007465726174696F6E3A200043616C69628E
:10776000726174696F6E206661696C656421204383
:107770006865636B20746865206178657320616E4D
:10778000642072756E20616761696E2E006F6B0AEE
:107790000073746172740A004D4D5532206669722F
:1077A0006D776172652076657273696F6E20696EA0
:1077B00076616C69642E205265717569726564200A
:1077C00076657273696F6E3A206275696C64206EBB
:1077D000756D626572202564206F72206869676824
:1077E00065722E006673656E736F725F73746F706F
:1077F0005F616E645F736176655F7072696E740A53
:10780000004D4D55203D3E20276F6B270A004D4D02
:1078100055203D3E20276F6B270A002564004D4D03
:1078200055203D3E20276F6B272C20726573756DA8
:1078300065207072696E740A004D4D552072657432
:10784000727920617474656D7074206E722E2025BB
:10785000640A004D4D55203D3E20276F6B270A00DE
:10786000410A004D4D55203C3D202741270A004D3F
:10787000363030004D363030204155544F00505294
:10788000555341206673656E736F725F7265636FE7
:10789000766572002568687500410A004D4D5520D7
:1078A0003C3D202741270A0050300A004D25640A3C
:1078B000004D4D55203C3D20274D2564270A00579B
:1078C000300A004D4D55203C3D20275730270A00F7
:1078D00053330A004D4D55203C3D20275333270A92
:1078E0000052300A004D4D55203C3D202752302794
:1078F0000A004B25640A004D4D55203C3D20274B86
:107900002564270A004525640A004D4D55203C3D5D
:107910002027452564270A0055300A004D4D552083
:107920003C3D20275530270A0043300A004D4D5575
:10793000203C3D20274330270A004C25640A004D97
:107940004D55203C3D20274C2564270A00542564D2
:107950000A004D4D55203C3D2027542564270A0040
:107960004D4D55202D20454E41424C454400256843
:1079700068750050300A004D310A004D4D55203CCD
:107980003D20274D31270050300A004D4D552076BF
:10799000657273696F6E2076616C6964004D4D5538
:1079A000203D3E202725646F6B270A002575005374
:1079B000320A004D4D55203C3D2027533227004DC3
:1079C0004D55203D3E202725646F6B270A00257505
:1079D000004D4D55206E6F7420726573706F6E642C
:1079E000696E67202D2044495341424C4544005361
:1079F000310A004D4D55203C3D2027533127004D85
:107A00004D55203D3E2027737461727427006572C6
:107A1000726F723A20756E6B6E6F776E206D6F7637
:107A2000650A006E6F206D6F76650A00542D636FD6
:107A300064650A00756E6C6F61640A006C6F616446
:107A40000A006D6D755F6765745F726573706F6E48
:107A50007365202D20626567696E206D6F76653ACB
:107A600020006D6D755F6765745F726573706F6E12
:107A7000736528292072657475726E696E673A2085
:107A800025640A00556E6C6F6164696E67206669D3
:107A90006E697368656420320A00556E6C6F6164AC
:107AA00020320A00556E6C6F6164696E67206669EA
:107AB0006E697368656420310A00556E6C6F61648D
:107AC00020310A004D4D5520737461727473207219
:107AD0006573706F6E64696E670A004D4D55206E58
:107AE0006F7420726573706F6E64696E670A00460A
:107AF000696C616D656E74206F7574206F6620729D
:107B0000616E6765202564200A000000803F55559E
:107B100085410000803F0000C841000000405555ED
:107B200005420000C03F000048420000204055557B
:107B30008542000070C1ABAAA642000060C10000EF
:107B4000A0410000C0C00000204100002041ABAABD
:107B50003A41000020C15555D540000048C2555556
:107B600005424D373031204534004D373031204506
:107B700033004D373031204532004D37303120450C
:107B800031004D3730312045300046696C616D65FC
:107B90006E74206E72206F7574206F662072616E35
:107BA00067652100206661696C65642E002073752D
:107BB000636365656465642E004D4D552063616E99
:107BC0005F6C6F61643A004164646974696F6E61EF
:107BD0006C206C6F616420617474656D7074206ECC
:107BE000722E2025640A0024F4D43050C38E20C2A3
:107BF000A24017828B7011127A910D816CD90AA85C
:107C000061E108C7586607615143061E4B5D05C117
:107C100045A7041A411104093D9803713931034005
:107C200036DB0265339102D4305402802E1D02638C
:107C30002CEE01752AC501B028A001102781018F03
:107C40002564012B244B01E0223401AC211F018D5E
:107C5000200D01801FFC00841EED00971DDF00B881
:107C60001CD200E61BC600201BBC00641AB200B286
:107C700019A8000A19A0006A189900D117910040AC
:107C8000178B00B516840031167E00B31579003AC3
:107C9000157300C7146F0058146A00EE136600884D
:107CA00013630025135E00C7125B006C12570015AA
:107CB000125400C111510070114F0021114B00D618
:107CC0001049008D1047004610440002104200C0C9
:107CD0000F4000800F3E00420F3C00060F3B00CBE0
:107CE0000E3800930E37005C0E3500270E3400F37B
:107CF0000D3200C10D3100900D3000600D2E0032AC
:107D00000D2D00050D2C00D90C2B00AE0C29008583
:107D10000C29005C0C2700350C27000E0C2600E80F
:107D20000B2400C40B2400A00B23007D0B23005A5E
:107D30000B2100390B2100180B2000F80A1F00D975
:107D40000A1E00BB0A1E009D0A1D00800A1D00635A
:107D50000A1C00470A1B002C0A1B00110A1A00F714
:107D6000091A00DD091900C4091900AB09190092AC
:107D70000917007B091800630917004C0916003623
:107D8000091600200916000A091500F5081500E07B
:107D9000081400CC081400B8081400A408140090BB
:107DA0000813007D0812006B0813005808120046E3
:107DB00008120034081100230811001208110001F4
:107DC000081100F0071000E0071000D0071000C0F5
:107DD000071000B0070F00A107100091070E0083E5
:107DE000070F0074070F0065070E0057070E0049C4
:107DF000070E003B070D002E070E0020070D001395
:107E0000070D0006070D00F9060C00ED060D00E059
:107E1000060C00D4060C00C8060C00BC060C00B012
:107E2000060C00A4060B0099060C008D060B0082C0
:107E3000060B0077060B006C060B0061060A005764
:107E4000060B004C060A0042060A0038060A002EFD
:107E5000060A0024060A001A060A0010060900078E
:107E6000060A00FD050900F4050900EB050900E21A
:107E7000050900D9050900D0050900C7050900BE9C
:107E8000050900B5050800AD050800A50509009C19
:107E9000050800940508008C050800840508007C8E
:107EA000050800740508006C050700650508005DFD
:107EB000050700560508004E050700470507004066
:107EC00005080038050700310507002A05070023CB
:107ED0000507001C050600160507000F050700082A
:107EE00005060002050700FB040600F5040700EE86
:107EF000040600E8040600E2040700DB040600D5DF
:107F0000040600CF040600C9040600C3040600BD31
:107F1000040600B7040600B1040500AC040600A680
:107F2000040600A00405009B0406009504050090CB
:107F30000406008A04050085040500800406007A12
:107F400004050075040500700405006B0405006657
:107F5000040500610405005C040500570405005297
:107F60000405004D04050048040500430405003ED7
:107F70000404003A04050035040500300404002C14
:107F800004050027040400230405001E0404001A4D
:107F900004040016040500110404000D0404000983
:107FA0000405000404040000040400FC030400F8B9
:107FB000030400F4030400F0030400EC030400E8ED
:107FC000030400E4030400E0030400DC030400D81D
:107FD000030400D4030400D0030400CC030400C84D
:107FE000030300C503030024F404D9201BC40C5C64
:107FF0000E9804C4095F0265077101F405F900FBDE
:1080000004B30048048700C1036900580355000306
:10801000034500BE023A008402310053022A0029BF
:1080200002250004022000E4011C00C8011900AF71
:108030000117009801140084011300710110006100
:1080400001100051010E0043010D0036010B002B01
:10805000010B0020010B00150109000C01090003B0
:10806000010800FB000800F3000800EB000700E433
:10807000000600DE000600D8000600D2000600CC94
:10808000000500C7000500C2000500BD000400B9DE
:10809000000400B5000400B1000400AD000400A914
:1080A000000400A5000300A20003009F0004009B41
:1080B0000003009800030095000200930003009065
:1080C0000003008D0002008B000300880002008680
:1080D00000020084000300810002007F0002007D96
:1080E0000002007B000200790002007700010076A8
:1080F0000002007400020072000100710002006FB3
:108100000002006D0001006C0002006A00010069BD
:1081100000020067000100660001006500010064C4
:108120000002006200010061000100600001005FC8
:108130000002005D0001005C0001005B0001005ACC
:1081400000010059000100580001005700010056CD
:1081500000010055000100540001005300000053CD
:108160000001005200010051000100500001004FC9
:108170000001004E0000004E0001004D0001004CC7
:108180000001004B0000004B0001004A00010049C3
:1081900000010048000000480001004700010046BF
:1081A00000000046000100450000004500010044B9
:1081B00000010043000000430001004200000042B3
:1081C0000001004100000041000100400001003FAB
:1081D0000000003F0001003E0000003E0001003DA5
:1081E0000000003D0001003C0000003C0000003C9D
:1081F0000001003B0000003B0001003A0000003A93
:10820000000100390000003900010038000000388A
:108210000000003800010037000000370001003680
:108220000000003600000036000100350000003577
:10823000000000350001003400000034000000346C
:108240000001003300000033000000330001003261
:108250000000003200000032000100310000003157
:10826000000000310001003000000030000000304C
:108270000001002F0000002F0000002F0000002F41
:108280000001002E0000002E0000002E0001002D35
:108290000000002D0000002D0000002D0001002C2A
:1082A0000000002C0000002C0000002C0001002B1E
:1082B0000000002B0000002B0000002B0001002A12
:1082C0000000002A0000002A0000002A0001002906
:1082D00000000029000000290000002900000029FA
:1082E00000010028000000280000002800000028ED
:1082F00000000028000100270000002700000027E0
:1083000000000027000000270001002600000026D2
:1083100000000026000000260000002600010025C5
:1083200000000025000000250000002500000025B9
:1083300000000025000100240000002400000024AB
:10834000000000240000002400010023000000239E
:108350000000002300000023000000230000002391
:108360000000002300010022000000220000002283
:108370000000002200000022000000220001002175
:108380000000002100000021000000210000002169
:10839000000000210000002100010020000000205A
:1083A000000000200000002000000020000000204D
:1083B00000000020000000200001001F0000001F3E
:1083C0000000001F0000001F0000001F0000001F31
:1083D0000000001F0001001E0000001E0000001E23
:1083E0000000001E000000000E1315110E0000001A
:1083F00004120912040000001C1F11111F000000CC
:1084000006191803130C00040E1F041C00000004BE
:108410000A0A0A0A11110E001F1511151F0000008B
:108420000103161C0800000000110A04110A040CC4
:1084300012120C000000002563252D31382E313832
:1084400053256300252E31305320002563252D311F
:10845000382E3138732563002563252D2E31365390
:1084600020002563252E3135533A257325336400CA
:1084700020202020202020202020202020202020FC
:1084800020202020002563252D31332E3133532524
:10849000362E365300457872656D65207370616EB7
:1084A000206F6620746865205A2076616C7565734C
:1084B00021004D36303000505255534120667365CF
:1084C0006E736F725F7265636F7665720066736557
:1084D0006E736F725F757064617465202D204D3608
:1084E00030300A0020573A0020453A00543A005AEA
:1084F000206C6976652061646A757374206F757489
:10850000206F662072616E67652E205365747469F2
:108510006E6720746F20302E20436C69636B20746B
:108520006F20636F6E74696E75652E005A206C69DA
:1085300076652061646A757374206F7574206F6648
:108540002072616E67652E2053657474696E6720B2
:10855000746F20300020423A0020453A00543A001F
:10856000494E5434007265636F7665725F6D616366
:1085700068696E655F73746174655F616674657266
:108580005F706F7765725F70616E69632C20696ED2
:10859000697469616C20007265636F7665725F6DE6
:1085A000616368696E655F73746174655F61667449
:1085B00065725F706F7765725F70616E69632C20A2
:1085C000696E697469616C2000473932204500503A
:1085D000525553412075766C6F004734205330005C
:1085E0004D32362053256C75004D31303620530006
:1085F0004D3832004731204625640047312045324E
:108600002A64656661756C745F7265747261637407
:10861000696F6E2046343830004731205A002046BA
:10862000323030300020590047312058004D383367
:1086300000506F736974696F6E20726561642066A3
:10864000726F6D20656570726F6D3A004D32332028
:108650002573002E67636F004665656472617465FB
:108660003A00473120452D64656661756C745F7210
:10867000657472616374696F6E20463438300047E8
:10868000312045352046313230004D3833004D31F0
:10869000393020532564004D313039205325640092
:1086A00047323820582059004731205A3235204669
:1086B0003830300022206661696C65643A2042756A
:1086C000666665722066756C6C2100220025692043
:1086D000686F757273202569206D696E7574657396
:1086E0000054494D454F55543A004D313130004604
:1086F000756C6C2052582042756666657200437531
:1087000073746F6D0054657874757200536D6F6F7C
:1087100074680047312059252D2E32662045252DBD
:108720002E3366004731205825642059252D2E32DE
:10873000662045252D2E336600726573756C742096
:1087400076616C75653A2025640A0020693D253202
:108750006420636E743D2532642076616C3D253261
:10876000640A00636C7573746572733A0A00206959
:108770003D25326420737465703D2532640A0073B0
:108780006F727465642073616D706C65733A0A0072
:108790003A200020202020202020202020202020DF
:1087A00020202020202000203A20002020202020EF
:1087B00020202020202020202020202020202000D9
:1087C0002020202020202020202020202000257371
:1087D000002D2D2D2D2D2D2D2D2D2D2D2D2D2D2DF6
:1087E0002D2D2D2D2D000000000000110A045052E7
:1087F00055534133444657002079303D25640A00E3
:108800002078303D25640A004F4B0A004552524FF4
:10881000522061643D25640A002020207A303D25E5
:10882000640A00207A303D25640A002079303D2515
:10883000640A002078303D25640A0078797A636103
:108840006C5F66696E645F706F696E745F63656E9E
:10885000746572320A0000002100240027002A00FB
:108860002D003000330001010000040107010A015E
:1088700000002200250028002B002E0031003400CB
:1088800002010000050108010B0100002000230087
:10889000260029002C002F003200000100000301F7
:1088A0000601090105050505070508080808020273
:1088B00002020A0A0808040404040101010101017A
:1088C00001010303030303030303040707070C0C5D
:1088D0000C0C0C0C0C0C0202020206060606060624
:1088E00006060B0B0B0B0B0B0B0B07070A0A0A0AEE
:1088F0000A0A0505050404040808010210202008DE
:1089000008102040102040800201020108040201EA
:108910000102040810204080804020100804020159
:1089200080040201804020100804020108040201B2
:108930000102040810204080010204081020408039
:10894000100804088010204004408010204004805B
:1089500000000A0B02090C0D0E08070304010000B9
:108960000000000000000000000000000000000007
:1089700000000000000000000000000012111000C4
:1089800000000000000000000000000000000000E7
:1089900000000000000000000000000000000000D7
:1089A0000000000000004D363030004D3234004DE4
:1089B000323320257300052E2E004D34340047320B
:1089C000382057004739390044697361626C65206B
:1089D0006661726D206D6F64653F00252D392E39FB
:1089E000535B002563252D31382E31387325630004
:1089F0004661726D206E756D62657200746D6332D2
:108A00003133305F676F746F5F73746570202564F6
:108A1000202564202564202564200A001F1F1F1FB5
:108A20001F1F1F1F2E002E004E6F7720667265736A
:108A3000682066696C653A20004E6F7720646F6924
:108A40006E672066696C653A20002220706F7300A3
:108A50002220706172656E743A2200535542524F63
:108A60005554494E452043414C4C20746172676512
:108A7000743A2200747279696E6720746F206361A2
:108A80006C6C207375622D67636F64652066696C1A
